:040000000C949309C0
:100004000C9400000C9400000C9400000C9400006C
:100014000C9400000C9400000C9400000C9400005C
:100024000C9400000C9400000C9400000C9400004C
:100034000C9400000C9400000C9400000C9400003C
:100044000C9400000C9400000C9400000C9400002C
:100054000C9400000C9400000C9400000C9400001C
:100064000C9400000C9400000C9400000C9400000C
:100074000C9400000C9400000C9400000C940000FC
:100084000C9400000C94000012CF5B3B39A2AC39F5
:1000940080348A3690E030B4312E31376300323008
:1000A40030392C30332C323433938843B96C863A4C
:1000B4000D617B39389325340D0A2A2A2A205241AE
:1000C40044494F4D4554455220414E414C4F4720E1
:1000D400544F204449474954414C20494E544552B9
:1000E40046414345202852414429202A2A2A0D0A00
:1000F4000020536F66747761726520566572736968
:100104006F6E2025732C2025730D0A002044696727
:100114006974616C20496E7465726661636520421E
:100124006F617264202D2052657620432E2046652F
:100134006220323030390D0A002043757272656EC8
:100144007420454550524F4D2076616C7565733A65
:100154000D0A00204964656E7469666965722048F9
:1001640065616465723D2024574952253032640D1F
:100174000A002050535020436F6566663D20252EAB
:1001840032450D0A002050495220436F6566663D92
:1001940020252E32450D0A0020496E746572766161
:1001A4006C2054696D65202873656373293D20258F
:1001B400640D0A0020436D61783D2025640D0A001A
:1001C400205265666572656E636520526573697356
:1001D400746F7220436173653D20252E31660D0ACC
:1001E40000205265666572656E63652052657369A9
:1001F40073746F7220446F6D653D20252E31660D3A
:100204000A002056746865726D3D20252E34662CD4
:1002140020566164633D20252E34660D0A0020506B
:10022400495220414443204F66667365743D20253E
:100234002E3266206D760D0A00205049522041442A
:1002440043204761696E3D20252E32660D0A002049
:1002540050535020414443204F66667365743D20DB
:10026400252E3266206D760D0A0020505350204111
:100274004443204761696E3D20252E32660D0A00F5
:10028400204944202020204441544520202020207F
:100294002054494D452020202020202023202020A8
:1002A400504952202020204C572020202020205428
:1002B40043415345202054444F4D452020202020C5
:1002C4005357202020542D4156522020204241547F
:1002D400540D0A002D2D2D2D2D2D2D2D2D2D2D2D93
:1002E4002D2D2D2D2D2D2D2D2D2D2D2D2D2D2D2D3A
:1002F4002D2D2D2D2D2D2D2D2D2D2D2D2D2D2D2D2A
:100304002D2D2D2D2D2D2D2D2D2D2D2D2D2D2D2D19
:100314002D2D2D2D2D2D2D2D2D2D2D2D2D2D2D2D09
:100324002D2D2D2D2D0D0A006E73616D7073203DE2
:100334002025642C202050535020414443305F6DCD
:1003440056203D20252E32662C2020504952204133
:100354004443315F6D56203D20252E32660D0A0040
:100364004341534520414443325F6D56203D20258F
:100374002E31662C2020765F63617365203D202535
:100384002E31660D0A00444F4D4520414443335FEE
:100394006D56203D20252E31662C2020765F646F1B
:1003A4006D65203D20252E31660D0A0024574952E3
:1003B400253032642C253032642F253032642F25C9
:1003C4003032642C253032643A253032643A253098
:1003D40032642C2534642C25372E31662C25372E97
:1003E40032662C25362E32662C25362E32662C2586
:1003F400372E32662C25352E31662C25352E316666
:100404000D0A00436F6D6D616E643F3E000D0A542A
:10041400494D454F55543A2052657475726E207497
:100424006F2073616D706C696E670D0A00574952D5
:100434002530326420424F415244202852455620F0
:1004440042292056455253494F4E3A2025732C20B9
:1004540056455253494F4E20444154453A20257342
:100464000D0A0043757272656E742064617465745C
:10047400696D653A20253032642530326425303286
:10048400642C2530326425303264253032640D0A00
:1004940000202D2D2D2D2D5553455220454E5445CC
:1004A4005220494E464F524D4154494F4E2D2D2D09
:1004B4002D2D2D2D2D2D2D2D2D2D2D2D2D2D2D2D68
:1004C4002D2D2D2D2D2D2D2D2D2D0D0A00276B2796
:1004D400202D2D3E5365742050535020636F656664
:1004E40066696369656E742028252E324520762F4F
:1004F40028572F6D5E3229290D0A00274B27202DFE
:100504002D3E5365742050495220636F65666669B9
:100514006369656E742028252E324520762F28576E
:100524002F6D5E3229290D0A00274127202D2D3EEB
:100534004368616E6765204964656E7469666965C0
:100544007220537472696E672E2028253032642914
:100554000D0A00202D2D2D2D2D5241442043414CB8
:100564004942524154494F4E20444154412D2D2D6E
:100574002D2D2D2D2D2D2D2D2D2D2D2D2D2D2D2DA7
:100584002D2D2D2D2D2D2D2D2D2D2D2D2D2D0D0ADA
:1005940000276727202D2D3E53657420505350208B
:1005A400616D706C6966696572206761696E207639
:1005B400616C75652E2028252E3166290D0A0027C9
:1005C4006F27202D2D3E5365742050535020616DAC
:1005D400706C6966696572206F66667365742C2039
:1005E4006D762E2028252E3166206D76290D0A0081
:1005F400274727202D2D3E536574205049522061F2
:100604006D706C6966696572206761696E207661D8
:100614006C75652E2028252E3166290D0A00274F7A
:1006240027202D2D3E5365742050495220616D7052
:100634006C6966696572206F66667365742C206DDB
:10064400762E2028252E3166206D76290D0A002766
:100654004327202D2D3E5365742043617365202567
:100664002E3166206F686D732C20252E33652C2067
:10067400252E33652C20252E33650D0A00274427AB
:10068400202D2D3E53657420446F6D6520252E3139
:1006940066206F686D732C20252E33652C20252E43
:1006A40033652C20252E33650D0A00275627202D6F
:1006B4002D3E53657420546865726D6973746F724E
:1006C400205265666572656E636520262041444349
:1006D400205265666572656E636520566F6C746141
:1006E40067652028252E3166206D56292E0D0A00B7
:1006F40020436D6178203D20256420286669786553
:1007040064290D0A00202D2D2D2D2D2D2D2D2D4448
:1007140041544520262054494D45205345545449BD
:100724004E472D2D2D2D2D2D2D2D2D2D2D2D2D2DBA
:100734002D2D2D2D2D2D2D2D2D2D2D2D2D2D2D2DE5
:100744000D0A00275427202D2D3E5365742074680C
:100754006520646174652F74696D652E0D0A00202F
:100764002D2D2D2D2D54494D494E4720534554547C
:10077400494E472D2D2D2D2D2D2D2D2D2D2D2D2D4E
:100784002D2D2D2D2D2D2D2D2D2D2D2D2D2D2D2D95
:100794002D2D2D2D2D2D2D2D2D2D0D0A00274C27E2
:1007A400202D2D3E53657420617665726167696EF4
:1007B400672074696D6520696E207365636F6E646C
:1007C400732E20282564290D0A00202D2D2D2D2D72
:1007D4004F544845522D2D2D2D2D2D2D2D2D2D2DA4
:1007E4002D2D2D2D2D2D2D2D2D2D2D2D2D2D2D2D35
:1007F4002D2D2D2D2D2D2D2D2D2D2D2D2D2D2D2D25
:100804002D2D2D2D2D0D0A00275327202D2D3E5340
:10081400616D706C652031322062697420412074EE
:100824006F20442E0D0A00277227202D2D3E2074A0
:100834006F67676C652074657374206D6F64652ED3
:100844000D0A00275827202D2D3E45786974207401
:10085400686973206D656E752C2072657475726E8F
:1008640020746F206F7065726174696F6E2E0D0A4B
:10087400003D3D3D3D3D3D3D3D3D3D3D3D3D3D3DE1
:100884003D3D3D3D3D3D3D3D3D3D3D3D3D3D3D3D94
:100894003D3D3D3D3D3D3D3D3D3D3D3D3D3D3D3D84
:1008A4003D3D3D3D3D3D3D3D3D3D0D0A005465739F
:1008B40074206D6F64650D0A0054657374206D6F48
:1008C4006465206F66660D0A0053797374656D2044
:1008D4006461746574696D65202879794D4D64642B
:1008E40068686D6D7373292069732025303264251F
:1008F4003032642530326425303264253032642548
:100904003032640D0A00456E746572206E6577207E
:100914006461746574696D652065786163746C796C
:10092400202879794D4D646468686D6D7373293A34
:100934002020006461746574696D65206572726F4E
:10094400722C2025630D0A006461746574696D65F9
:10095400206572726F72320D0A000D0A646174654B
:1009640074696D6520737472696E67203D20257308
:100974000D0A007972203D2025640D0A006461741B
:100984006574696D65206572726F720D0A00536536
:1009940074206461746574696D653A20253032642D
:1009A40025303264253032642C25303264253032CF
:1009B40064253032640D0A004368616E6765204F18
:1009C400757470757420496E74657276616C2069F3
:1009D4006E20736563730D0A0043757272656E74DD
:1009E40020496E74657276616C2069733A202564BF
:1009F40020736563730D0A00456E746572206E651D
:100A040077206F757470757420696E746572766181
:100A14006C20696E20736563733A20002563000DB2
:100A24000A4F7574206F662052616E67652E0D0A39
:100A3400000D0A4C6F6F7074696D65206973206EC8
:100A44006F772073657420746F2025642073656349
:100A54006F6E64732E0D0A004368616E67652050E3
:100A6400535020436F656666696369656E740D0A49
:100A74000043757272656E742050535020436F6545
:100A84006666696369656E742069733A20252E323F
:100A9400450D0A00456E746572204E6577205053EB
:100AA4005020436F656666696369656E743A200019
:100AB4000D0A4F7574206F662052616E67650D0ACA
:100AC400000D0A50535020436F656666696369657B
:100AD4006E74206973206E6F772073657420746F51
:100AE40020252E32450D0A004368616E676520504B
:100AF400535020416D706C69666965722047616965
:100B04006E2056616C75650D0A0043757272656ED0
:100B1400742050535020416D706C69666965722071
:100B24004761696E2056616C75653A20252E3266E0
:100B34000D0A00456E746572204E6577205053503F
:100B440020416D706C6966696572204761696E2029
:100B540056616C75653A20000D0A50535020416D62
:100B6400706C6966696572204761696E20697320DB
:100B74006E6F772073657420746F20252E32660D96
:100B84000A004368616E67652050535020416D70C0
:100B94006C6966696572204F666673657420566178
:100BA4006C75650D0A0043757272656E742050533E
:100BB4005020416D706C6966696572204F6666737A
:100BC40065742056616C75653A20252E32660D0ACF
:100BD40000456E746572204E657720505350204155
:100BE4006D706C6966696572204F66667365742002
:100BF40056616C75653A20000D0A50535020416DC2
:100C0400706C6966696572204F66667365742069E5
:100C140073206E6F772073657420746F20252E32D5
:100C2400660D0A004368616E676520504952204191
:100C34006D706C6966696572204761696E205661E2
:100C44006C75650D0A0043757272656E74205049A7
:100C54005220416D706C6966696572204761696EE6
:100C64002056616C75653A20252E32660D0A0045C2
:100C74006E746572204E65772050495220416D7024
:100C84006C6966696572204761696E2056616C758E
:100C9400653A20000D0A50495220416D706C696616
:100CA400696572204761696E206973206E6F7720D1
:100CB40073657420746F20252E32660D0A00436814
:100CC400616E67652050495220416D706C69666998
:100CD4006572204F66667365742056616C75650D88
:100CE4000A0043757272656E742050495220416D3A
:100CF400706C6966696572204F6666736574205608
:100D0400616C75653A20252E32660D0A00456E74B5
:100D14006572204E65772050495220416D706C6990
:100D240066696572204F66667365742056616C75DA
:100D3400653A20000D0A50495220416D706C696675
:100D4400696572204F6666736574206973206E6FDF
:100D5400772073657420746F20252E32660D0A0087
:100D64004368616E67652050495220436F6566662B
:100D7400696369656E740D0A0043757272656E74F9
:100D84002050495220436F656666696369656E74D5
:100D94002069733A2025450D0A00456E746572205A
:100DA4004E65772050495220436F656666696369D2
:100DB400656E743A20000D0A50495220436F6566EF
:100DC40066696369656E74206973206E6F7720733A
:100DD400657420746F2025450D0A00456E74657294
:100DE40020302028526566522920202031202843B3
:100DF4006F727231292020322028436F7272322997
:100E0400202020332028436F727233290D0A0043B7
:100E140068616E676520436173652052656665721B
:100E2400656E6365205265736973746F722E204317
:100E3400757272656E742076616C7565203D20252F
:100E44002E3166203A3A20000D0A43617365205220
:100E540065666572656E6365205265736973746F48
:100E640072206973206E6F772073657420746F200D
:100E7400252E31660D0A00436173652041444320E9
:100E8400436F7272656374696F6E20636F65666623
:100E9400696369656E7420312E2020437572726512
:100EA4006E742076616C7565203D2020252E336597
:100EB400203A3A20000D0A4361736520436F727231
:100EC400656374696F6E2031206973206E6F7720BB
:100ED40073657420746F20252E33650D0A004361F9
:100EE40073652041444320436F7272656374696F74
:100EF4006E20636F656666696369656E7420312E62
:100F0400202043757272656E742076616C7565205D
:100F14003D20252E3365203A3A20000D0A436173A3
:100F24006520436F7272656374696F6E2032206945
:100F340073206E6F772073657420746F20252E33B1
:100F4400650D0A000D0A4361736520436F72726573
:100F54006374696F6E2033206973206E6F7720731A
:100F6400657420746F20252E33650D0A0043686173
:100F74006E676520446F6D65205265666572656EA7
:100F84006365205265736973746F722E20437572A2
:100F940072656E742076616C7565203D20252E3156
:100FA40066203A3A20000D0A446F6D65205265664A
:100FB4006572656E6365205265736973746F722020
:100FC4006973206E6F772073657420746F20252EEB
:100FD40031660D0A00446F6D652041444320436F20
:100FE4007272656374696F6E20636F6566666963A8
:100FF40069656E7420312E202043757272656E749B
:101004002076616C7565203D2020252E3365203ABD
:101014003A20000D0A446F6D6520436F7272656358
:1010240074696F6E2031206973206E6F7720736549
:101034007420746F20252E33650D0A00446F6D658E
:101044002041444320436F7272656374696F6E205C
:10105400636F656666696369656E7420312E20204E
:1010640043757272656E742076616C7565203D20DF
:10107400252E3365203A3A20000D0A446F6D652011
:10108400436F7272656374696F6E203220697320D6
:101094006E6F772073657420746F20252E33650D71
:1010A4000A000D0A446F6D6520436F7272656374A4
:1010B400696F6E2033206973206E6F7720736574B7
:1010C40020746F20252E33650D0A004368616E6716
:1010D4006520546865726D6973746F722052656619
:1010E4006572656E636520566F6C746167650D0A81
:1010F4000043757272656E7420546865726D69730D
:10110400746F72205265666572656E636520566FF2
:101114006C746167652069733A20252E3466205605
:101124006F6C74730D0A00456E746572204E65779A
:1011340020546865726D6973746F722052656665B8
:1011440072656E636520566F6C74616765202876DE
:101154006F6C6F7473293A20000D0A546865726DC0
:101164006973746F72205265666572656E6365207B
:10117400566F6C74616765206973206E6F77207396
:10118400657420746F20252E346620766F6C74731A
:101194000D0A004368616E6765204964656E746971
:1011A4006669657220416464726573730D0A004355
:1011B400757272656E74204964656E7469666965DA
:1011C4007220416464726573733A2024574952252E
:1011D4003032640D0A00456E746572204E657720C6
:1011E4004964656E746966696572204164647265F8
:1011F4007373202830302D3939293A20000D0A49DB
:1012040064656E74696669657220537472696E6789
:10121400206E6F772073657420746F3A20245749C9
:1012240052253032640D0A0052455455524E205412
:101234004F2053414D504C450D0A00496E76616C68
:101244006964206B65790D0A0025376420253764AD
:10125400202537642025376420253764202537640A
:1012640020253764202537640D0A0025372E326681
:101274002025372E32662025372E32662025372E3C
:1012840032662025372E32662025372E32662025F9
:10129400372E32662025372E32660D0A0025372E6A
:1012A40032662025372E32662025372E32662025D9
:1012B400372E32662025372E32662025372E3266A9
:1012C4002025372E32662025372E32660D0A0D0A68
:1012D40000002D4E414E000001002D4E414E0000F5
:1012E400040004058C0000000400080590000000C0
:1012F40004000C0594000000040010059800000090
:10130400050016059C0000000A002005A20000004C
:1013140004000005AC00000001004405DC120000DC
:101324000000F894EE27ECBBF1E0F5BFE5BFE093D5
:101334006C00F8E1F1BDE1BD8DE0A2E0BB27ED93C7
:101344008A95E9F780E090E1A0E0B1E0ED930197A0
:10135400E9F78BBFE4EEF2E1D0E0DBBF8791979130
:10136400009781F0A791B79107901790C791D791F3
:10137400BF01DBB7F001CBBF07900D920197E1F7F6
:10138400FB01EBCFEFEFEDBFE0E1EEBFC0E0D5E056
:101394000C94CC09EF976D97E0E0E0931405E0938B
:1013A4001505AAE0B0E0E0E0F8E00E940F260E94F4
:1013B40099130E948C13ECEBF0E060E070E00E9463
:1013C400A81FE5EFF0E060E070E00E94AF1F0E940C
:1013D400BE1FE0E1F1E060E070E00E94A81FEDE3D1
:1013E400F1E060E070E00E94A81FE7E5F1E060E052
:1013F40070E00E94C31F0E94CE1FE6E7F1E060E0A8
:1014040070E00E94D31F0E94CE1FE9E8F1E060E083
:1014140070E00E94DC1F0E94CE1FECE9F1E060E066
:1014240070E00E94E51FE8EBF1E060E070E00E94EC
:10143400F01F0E94F71FE4ECF1E060E070E00E940E
:10144400FC1F0E94CE1FE5EEF1E060E070E00E9418
:1014540005200E94CE1FE6E0F2E060E070E00E940A
:101464000E200E9417200E94BE1FE2E2F2E060E01C
:1014740070E00E941E20EDE3F2E060E070E00E9464
:1014840027200E94CE1FE3E5F2E060E070E00E94B6
:101494003020EEE6F2E060E070E00E9439200E9425
:1014A400CE1F0E9442200E9447200E944C200E948E
:1014B4005220ECAFFDAF6EAF7FAFDE01A05CBF4F3B
:1014C400ED93FD936D937C93DE01AC5BBF4FED9385
:1014D400FD936D937C93DE01A85BBF4FED93FD9369
:1014E4006D937C930E9457200E945F200E94672086
:1014F4000E946F20E0E0E8ABE9ABEAABEBAB0E9403
:1015040077200F01A8E0B0E00E94F725D0010E94E7
:1015140074256F01A8E0B0E00E94F725D60111966A
:101524000E9449256F010E9477205F010E940914DF
:10153400309761F00E9482191E2F143509F4A0D14E
:10154400183421F40E9442200E944720AC14BD04A8
:1015540054F4E0E1FEE0EC15FD0521F400240A1446
:101564000B0409F001C03FC00E9491200E94912009
:101574000E9412140E9496200E949F200E946F20B5
:101584000E94A6200E9491200E9412140E94AB2067
:101594000E949F200E946720E2E0F0E00E94B420B5
:1015A4000E9412140E94B7200E949F200E945F2074
:1015B400E3E0F0E00E94B4200E9412140E94C020D4
:1015C4000E949F200E945720E4E6F0E00E94C92078
:1015D4000E94CD20EF5FFF4F6F4F7F4FE8ABF9AB19
:1015E4006AAB7BABA0CF0E948C130E94CD200E94DB
:1015F40096200E94D2200E946F200E94CD200E943B
:10160400AB200E94D2200E9467200E94CD200E941D
:10161400B7200E94D2200E945F200E94CD200E9409
:10162400C0200E94D2200E9457200E94D720A1F0FF
:10163400ECE2F3E060E070E00E94E125ECA9FDA992
:101644006EA97FA90E94DD200E94DD200E94E12571
:101654008CE00E947E1C60960E945413ECA7FDA7A8
:101664006EA77FA70E946F13ECA3FDA36EA37FA3B5
:10167400F9D7E8A7F9A76AA77BA7FE01E85AFF4FA5
:101684000190119061917081F0010E94D31FA4E236
:10169400B0E00E94F3250E943920FE017C96FA9363
:1016A400EA930E94CD170E94E8200E94ED200E9438
:1016B400ED207F936F93FF93EF930E94F1200E949C
:1016C400ED20AF91BF918F919F910E94E1267F936E
:1016D4006F93FF93EF930E94F620AF91BF918F9188
:1016E4009F910E94E1260E94B7200E94FB20E8AF50
:1016F400F9AF6AAF7BAF0E94D72061F0E4E6F3E074
:1017040060E070E00E94E1250E9400210E9409210E
:101714000E94BE1FE8ADF9AD6AAD7BAD0E94F01F1B
:101724000E9416210E94FC1F0E9417200E9417206D
:101734000E941B210E9437210E943C210E944121CA
:101744000E9441217F936F93FF93EF930E94452161
:101754000E944121AF91BF918F919F910E94E126F8
:101764007F936F93FF93EF930E944A21AF91BF91B0
:101774008F919F910E94E1260E94C0200E94FB202D
:10178400ECABFDAB6EAB7FAB0E94D72071F0EAE807
:10179400F3E060E070E00E944F21ECADFDAD6EAD72
:1017A4007FAD0E94E1250E94BE1FECA9FDA96EA990
:1017B4007FA90E94F01F0E9416210E9405200E940A
:1017C40017200E9417200E941B21E88BF98B6A8B3B
:1017D4007B8B0E9400210E94DC1FACE1B0E00E94E0
:1017E400F3250E9427200E945C210E945C21E0E0F6
:1017F400F0E060E870E40E94E125FE01B496FA93FB
:10180400EA93FE01B296FA93EA93FE01B096FA9334
:10181400EA930E94E8170E946321E0EBF3E060E0A2
:1018240070E00E94C31F0E947F210E944F21FE018D
:10183400E858FF4F0190119061917081F0010E946E
:10184400E1250E94CD200E9409210E94A2210E942C
:10185400E1250E94A2210E94DD200E94E125FE01D3
:10186400E859FF4F0190119061917081F0010E943D
:10187400E1258CE30E947E1CEF96219618CEFFCFC3
:101884006B970E94EC27E7E0F4E060E070E00E94D0
:10189400A81F0E94AB210E94CF21B9D7309721F015
:1018A4000E9482191E2F1DC00E94AB210E94D421C8
:1018B4000E94D9210E94DE210E941725FA93EA93FF
:1018C4000E949E1C7F9760F0E1E1F4E060E070E02C
:1018D4000E94A81FE1E0F0E00E94F327A19608957A
:1018E400DCCFE12FEF3321F0EF3211F00C943B0DFC
:1018F4000E9463210E94E321E1E3F4E060E070E0F0
:101904000E94E125ACE2B0E00E94F7250E94372551
:101914000E94AF1F8CE00E947E1C6096E1E1F1E022
:1019240060E070E00E94A81F0E94E8210E94EF215D
:10193400E5E9F4E060E070E00E94A81FE1EDF4E066
:1019440060E070E00E94D31F0E94CE1FEFEFF4E02E
:1019540060E070E00E94DC1F0E94CE1FEDE2F5E023
:1019640060E070E00E94C31F0E94CE1FE7E5F5E02F
:1019740060E070E00E94A81FE5E9F5E060E070E037
:101984000E9439200E94CE1FE3ECF5E060E070E095
:101994000E943020E4EFF5E060E070E00E94272030
:1019A4000E94CE1FE2E2F6E060E070E00E941E209A
:1019B400E3E5F6E060E070E00E94FC1F0E94E8208E
:1019C4000E94F6210E94F9210E94FC21E1E8F6E040
:1019D40060E070E00E9405200E943C210E940322E6
:1019E4000E9406220E94FC21EFEAF6E060E070E02B
:1019F4000E940E200E94CE1FE4EFF6E060E070E04B
:101A04000E94F01F0E94F71FE9E0F7E060E070E039
:101A14000E94A81FE7E4F7E060E070E00E94A81FBE
:101A2400E3E6F7E060E070E00E94A81FE1EAF7E077
:101A340060E070E00E94E51FEEECF7E060E070E02B
:101A44000E94A81FECE0F8E060E070E00E94A81F8C
:101A5400EBE2F8E060E070E00E94A81FE7E4F8E041
:101A640060E070E00E94A81FE5E7F8E060E070E045
:101A740098C5E237F1F4A6E4B0E00E94F725319668
:101A8400E170F070A6E4B0E00E940F260E94D72017
:101A940029F0E1EBF8E060E070E004C0EDEBF8E081
:101AA40060E070E00E94E12580E00E947E1C2496A4
:101AB4007EC5E43521F0E43711F00C942D0E0E941C
:101AC4006321EDECF8E060E070E00E94E1250E9403
:101AD4007F210E94EF21EAE0F9E060E070E00E94DB
:101AE400A81F40E050E04C30E0E05E07ECF40E94B8
:101AF4000922FF93EF930E948219AF91BF91EC9357
:101B04000E940F220E945B1FE03039F4E7E3F9E002
:101B140060E070E00E94162207C00E940F220E941B
:101B240086194F5F5F4FDFCF4C30E0E05E072CF447
:101B3400ECE4F9E060E070E034C50E942322E0E0C8
:101B4400EC93EC8BEEE5F9E060E070E00E94E125B7
:101B5400FE017996662777270E942822ED89EA8B71
:101B6400EE890E942B228E2EEF89EA8BE88D0E944B
:101B74002B229E2EE98DEA8BEA8D0E942B226E2E5B
:101B8400EB8DEA8BEC8D0E942B225E2EED8DEA8B81
:101B9400EE8D0E942B224E2EEF8DEA8BE8A10E943F
:101BA4002B227E2EE7E7F9E060E070E00E94E12559
:101BB400E82DFF27662777270E942822E7E0E8150B
:101BC40018F4E3E6E81508F424C0E0E0E91518F495
:101BD400ECE0E91508F41DC0E0E0E61518F4EFE1C7
:101BE400E61508F416C0E0E05E1618F0E7E1E51526
:101BF40008F40FC0E0E04E1618F0EBE3E41508F427
:101C040008C0E0E07E1618F0EBE3E71508F401C025
:101C140007C0E1E8F9E060E070E00E94A81F14C08A
:101C2400E2E9F9E060E070E00E94E1250E947F2192
:101C34000E94EF215A924A927A920E944A196A9219
:101C44009A928A920E946B190E9463210E94E82151
:101C54000E94EF21ACC4EC3421F0EC3611F00C946A
:101C64008E0EECEBF9E060E070E00E94A81FEDED51
:101C7400F9E060E070E00E94E51FECEFF9E060E05D
:101C840070E00E94A81F40E050E04530E0E05E07AD
:101C9400E4F40E940922FF93EF930E948219AF910A
:101CA400BF910E9432220E942322AC91AA3029F0D3
:101CB4000E942322AC91AD3029F40E942322E0E05B
:101CC400EC9303C04F5F5F4FE0CF0E943822E0E007
:101CD400F0E061E675E40E94C22719F010F00C945C
:101CE400780E0E9438220E94E6272CF0E3E2FAE004
:101CF40060E070E056C40E9441220E9470269F0159
:101D0400F901A8E0B0E00E940F26E5E3FAE060E004
:101D140070E00E94E51F4BC4EB3611F00C94EC0EFE
:101D2400ECE5FAE060E070E00E94A81FE5E7FAE065
:101D340060E070E00E94D31F0E94CE1FE8E9FAE041
:101D440060E070E00E94A81F40E050E04C30E0E00A
:101D54005E07E4F40E940922FF93EF930E94821924
:101D6400AF91BF910E9432220E942322AC91AA30EB
:101D740029F00E942322AC91AD3029F40E94232241
:101D8400E0E0EC9303C04F5F5F4FE0CF0E94382246
:101D9400ECEAF5EC67EA77E30E94C22748F40E9474
:101DA40038220E94472209F010F40C94DA0E03C082
:101DB4000E944E22F6C30E944122A0E0B0E00E949D
:101DC4000726E5ECFAE060E070E00E94D31F0E9471
:101DD400CE1FEDC3E73611F00C944A0FECEEFAE097
:101DE40060E070E00E94A81FEEE0FBE060E070E0BD
:101DF4000E9439200E94CE1FE7E3FBE060E070E020
:101E04000E94A81F40E050E04431E0E05E07D4F4B3
:101E14000E940922FF93EF930E948219AF91BF9110
:101E24000E9432220E942322AC91AA3029F00E94FF
:101E34002322AC91AD3019F44150504003C04F5FA0
:101E44005F4FE2CF0E943822E0E0F0E066E973E4FD
:101E54000E94C22758F40E9438220E9453220E94F2
:101E6400C22709F010F40C94380F03C00E944E22CC
:101E740098C30E944122A8E2B0E00E940726ECE544
:101E8400FBE060E070E00E9439200E94CE1F8FC307
:101E9400EF3611F00C94A10FE6E8FBE060E070E08F
:101EA4000E94A81FEAEAFBE060E070E00E94302094
:101EB400E5EDFBE060E070E00E94A81F40E050E028
:101EC4004431E0E05E07D4F40E940922FF93EF93CB
:101ED4000E948219AF91BF910E9432220E94232254
:101EE400AC91AA3029F00E942322AC91AD3019F4B0
:101EF4004150504003C04F5F5F4FE2CF0E943822F1
:101F04000E94582219F010F00C94910F0E9438226C
:101F1400E0E0F0E06AEF73EC0E94C22718F40E943C
:101F24004E223FC30E944122A4E2B0E00E94072651
:101F3400ECEFFBE060E070E00E94302038C3E7344F
:101F440011F00C94FE0FE8E2FCE060E070E00E9407
:101F5400A81FEAE4FCE060E070E00E9427200E94F1
:101F6400CE1FE3E7FCE060E070E00E94A81F40E0C1
:101F740050E04C30E0E05E07E4F40E940922FF9355
:101F8400EF930E948219AF91BF910E9432220E9466
:101F94002322AC91AA3029F00E942322AC91AD30C7
:101FA40029F40E942322E0E0EC9303C04F5F5F4FCB
:101FB400E0CF0E943822E0E0F0E86BEB74E40E948A
:101FC400C22719F010F00C94EC0F0E9438220E94E2
:101FD400582218F40E944E22E4C20E944122A0E238
:101FE400B0E00E940726E8E9FCE060E070E00E94AF
:101FF40027200E94CE1FDBC2EF3411F00C945B103B
:10200400E2ECFCE060E070E00E94A81FE6EEFCE079
:1020140060E070E00E941E20E1E1FDE060E070E01D
:102024000E94A81F40E050E04C30E0E05E07E4F47A
:102034000E940922FF93EF930E948219AF91BF91EE
:102044000E9432220E942322AC91AA3029F00E94DD
:102054002322AC91AD3029F40E942322E0E0EC93DA
:1020640003C04F5F5F4FE0CF0E943822E0E0F0E012
:1020740061E674E40E94C22719F010F00C944B102E
:102084000E943822E0E0F0E061E674EC0E94C2278E
:1020940018F40E944E2285C20E944122ACE1B0E0B5
:1020A4000E940726E8E3FDE060E070E00E941E2045
:1020B4007EC2EB3411F00C94B910E4E6FDE060E06C
:1020C40070E00E94A81FEDE7FDE060E070E00E9470
:1020D400DC1F0E94CE1FEEE9FDE060E070E00E948C
:1020E400A81F40E050E04C30E0E05E07E4F40E94BA
:1020F4000922FF93EF930E948219AF91BF910E942E
:1021040032220E942322AC91AA3029F00E94232279
:10211400AC91AD3029F40E942322E0E0EC9303C09B
:102124004F5F5F4FE0CF0E943822ECEAF5EC67E2A4
:1021340077E30E94C22748F40E9438220E94472273
:1021440009F010F40C94A71003C00E944E2229C277
:102154000E944122A4E0B0E00E940726EAEBFDE0E1
:1021640060E070E00E94DC1F0E94CE1F20C2E334B6
:1021740011F00C9458110E945F2249D3309721F03A
:102184000E9482191E2F01C0F8CFE12FE03309F518
:10219400E3E1FEE060E070E00E94FC1F0E94CE1FBD
:1021A4000E9464220E94692279F00E944122ACE0DC
:1021B400B0E00E940726ECE4FEE060E070E00E94DC
:1021C400FC1F0E94CE1F04C00E944E220E94A81F22
:1021D4006CC0E13329F5EBE7FEE060E070E00E94BB
:1021E400E1250E94E8200E9428220E9464220E9485
:1021F4007D2289F00E944122AEE2B0E00E940726CF
:10220400E9EBFEE060E070E00E94E1250E94E82036
:102214000E94282204C00E944E220E94A81F45C08A
:10222400E23309F5E2EEFEE060E070E00E94F621A0
:102234000E9428220E9464220E947D2279F00E943A
:102244004122A2E3B0E00E940726EFE1FFE060E054
:1022540070E00E94F6210E94282204C00E944E22AF
:102264000E94A81F22C0E33301F5E2EEFEE060E025
:1022740070E00E94F9210E9428220E9464220E9498
:10228400912279F00E944122A6E3B0E00E94072641
:10229400E8E4FFE060E070E00E94F9210E94282257
:1022A40004C00E944E220E94A81F81C1E43411F090
:1022B4000C94F7110E945F22AAD2309721F00E9459
:1022C40082191E2F01C0F8CFE12FE03309F5E1E7B1
:1022D400FFE060E070E00E9405200E94CE1F0E9493
:1022E40064220E94692279F00E944122A0E1B0E0B8
:1022F4000E940726EAEAFFE060E070E00E94052001
:102304000E94CE1F04C00E944E220E94A81F6CC0CF
:10231400E13329F5E9EDFFE060E070E00E94E1259A
:102324000E943C210E9428220E9464220E947D2255
:1023340089F00E944122AAE3B0E00E940726E7E167
:10234400F0E160E070E00E94E1250E943C210E94DF
:10235400282204C00E944E220E94A81F45C0E233D6
:1023640009F5E0E4F0E160E070E00E9403220E94DD
:1023740028220E9464220E947D2279F00E94412238
:10238400AEE3B0E00E940726EDE7F0E160E070E024
:102394000E9403220E94282204C00E944E220E940E
:1023A400A81F22C0E33301F5E0E4F0E160E070E04F
:1023B4000E9406220E9428220E9464220E949122E6
:1023C40079F00E944122A2E4B0E00E940726E6EAE6
:1023D400F0E160E070E00E9406220E94282204C01E
:1023E4000E944E220E94A81FE2C0E63511F00C9410
:1023F4006012EFECF0E160E070E00E94A81FE5EFEE
:10240400F0E160E070E00E940E200E94CE1FEBE23B
:10241400F1E160E070E00E94A81F40E050E04C3021
:10242400E0E05E07E4F40E940922FF93EF930E9428
:102434008219AF91BF910E9432220E942322AC9153
:10244400AA3029F00E942322AC91AD3029F40E94D5
:102454002322E0E0EC9303C04F5F5F4FE0CF0E9484
:102464003822E0E0F0E060EC70E40E94C22719F04A
:1024740010F00C9446120E943822E0E0F0E060E094
:1024840070E40E94C22718F40E944E228AC00E945F
:102494004122A4E1B0E00E940726A4E1B0E00E943A
:1024A400F325A8E1B0E00E940726EDE5F1E160E044
:1024B40070E00E940E200E94CE1F79C0E13421F00A
:1024C400E13611F00C94B812E7E9F1E160E070E054
:1024D4000E94A81FE3EBF1E160E070E00E94C31FDB
:1024E4000E94CE1FEAEDF1E160E070E00E94A81FB7
:1024F40040E050E04230E0E05E07E4F40E9409224C
:10250400FF93EF930E948219AF91BF910E943222F0
:102514000E942322AC91AA3029F00E942322AC917C
:10252400AD3029F40E942322E0E0EC9303C04F5F16
:102534005F4FE0CF0E94A522E436A0E0FA0724F41E
:102544000E94A522FF231AF40E944E222AC00E9450
:10255400A522ACE2B0E00E940F26E1E0F2E160E0E7
:1025640070E00E94C31F0E94CE1F21C0E33511F00A
:10257400E33711F4B1D21BC0E83511F0E83769F440
:10258400ECE2F2E160E070E00E94A81F0E944220A9
:102594000E944720E1E0F0E00BC0EFE3F2E160E0ED
:1025A40070E00E94E12580E00E947E1C249668D998
:1025B4000E94F327A19608950E94EE2700E010E000
:1025C4000C30E0E01E0780F5F801AC81BD81EA0F14
:1025D400FB1FFF93EF930E948219AF91BF91EC937D
:1025E400E0E2FAE060E070E00E94E125F801A885ED
:1025F400B985AE0FBF1FEC91FF27662777270E948E
:1026040028220E94AB22AA3021F00E94AB22AD30D6
:1026140041F4F801AC81BD81AE0FBF1FE0E0EC9343
:1026240003C00F5F1F4FCCCF0E94B222DF01CB014A
:102634000E94DE210E94C22758F00E94B2220E940A
:10264400B8220E94C22719F010F00C942A1305C076
:10265400EFEFFFEF0E94F527C4C1E1E0F0E00E9434
:10266400F527BFC124970E94EE27E6E0F0E00E9420
:10267400BF22D6D09F013A932A93AAE0B0E00E94E9
:10268400F725FA93EA93E0E0F8E66CE176E40E9439
:10269400E125A9D10E94C2220E94C7220E94F527E7
:1026A4002896089524971A930A93E7E0F0E00E948D
:1026B400BF22B6D08F01F8010E941621DF01CB01A1
:1026C400E0E0F0E068EC72E40E947D27AAE9B9E951
:1026D40089E99FE30E94E12613C024971A930A9381
:1026E400E5E0F0E00E94BF229BD08F01F801EE0FDD
:1026F400FF1FDF01E8EEF3E00E9474250E9416211B
:10270400EA83FB836C837D830E94CC221981088138
:1027140026960895E4E0E3B9EFE0F0E00E94C920D2
:10272400E0E0E3B9E4EFF1E00E94C9200895E0E0BD
:10273400EBBBEABBE3E0E5BBE4BBE0E0E2BBE1BB4F
:10274400E3B9E4E0E2B9E0E0E0936200E093610021
:10275400E0936500E0936400E0BFE3BFE2BFE1BF44
:10276400EFBDEEBDEDBDECBDEBBDEABDE9BDE8BD21
:10277400E0937900E0937800E5BDE4BDE3BDE09328
:102784008B00E0938A00E0938900E0938800E09353
:102794008700E0938600E0938500E0938400E09353
:1027A4008300E0938200E0936A00EABFE9BFE7BFD9
:1027B400E0937D00EBB9E8E1EAB9E6E0E093950047
:1027C400E0E0E0939000E7E1E9B9E0E0E0939B000A
:1027D400E8E1E0939A00E6E0E0939D00E0E0E09316
:1027E4009800E3E3E0939900E0E8E8B9E0E0E0BDB5
:1027F400E1E0E8BBE7E0E7BBE1E5EDB9E1E0EEB934
:10280400E0E0EA93EA93EA930E941F190895EBB17A
:10281400EF3718F0E1E0F0E00895E0E0F0E008952B
:1028240026970E94EC27E0E0EA87EB87E0E0F0E0FF
:10283400AF019F018F01AC85BD85119711F00C94F8
:102844006F14EE85FF85309729F4EFE8F0E060E03F
:1028540070E03EC0AE85BF85119729F4EFECF0E03F
:1028640060E070E035C0AE85BF85129729F4EFE9CA
:10287400F0E060E070E02CC0AE85BF85139729F4CA
:10288400EFEDF0E060E070E023C0AE85BF85149703
:1028940029F4EFEAF0E060E070E01AC0AE85BF858D
:1028A400159729F4EFEEF0E060E070E011C0AE851A
:1028B400BF85169729F4EFEBF0E060E070E008C004
:1028C400AE85BF85179741F4EFEFF0E060E070E06C
:1028D400EE83FF83688779874BC0EE85FF85309749
:1028E40029F4E7E8F0E060E070E03EC0AE85BF8523
:1028F400119729F4E7ECF0E060E070E035C0AE85B4
:10290400BF85129729F4E7E9F0E060E070E02CC09D
:10291400AE85BF85139729F4E7EDF0E060E070E041
:1029240023C0AE85BF85149729F4E7EAF0E060E0A0
:1029340070E01AC0AE85BF85159729F4E7EEF0E084
:1029440060E070E011C0AE85BF85169729F4E7EB0F
:10295400F0E060E070E008C0AE85BF85179741F4F1
:10296400E7EFF0E060E070E0EE83FF83688779874B
:10297400E7E0E8BBE6E0E8BBEE81EA930E94CB180F
:102984000E2F1127E0E0EA930E94CB182E2F332755
:10299400E0E0EA930E94CB184E2F5527E7E0E8BB0E
:1029A400AC85BD85119719F40E94D12216C0EC851F
:1029B400FD85309779F40E94D122AA85BB85A03089
:1029C400E8E0BE0734F0EA85FB85E050F041EA8791
:1029D400FB8703C0E0E0EA87EB87EA85FB850E947A
:1029E400F327609608956897EE8DFF8D6627772705
:1029F4000E94A7260E94E1227F936F93FF93EF9397
:102A0400EC8DFD8DEE0FFF1FAE8DBF8DEA1BFB0B12
:102A1400662777270E94A726AF91BF918F919F9138
:102A24000E947D270E94E8220E94EE220E947D27B8
:102A34000E94E1250E94CB1EE88BF98B6A8B7B8B6D
:102A44000E94F322A0910805B091090580910A051E
:102A540090910B050E942F27A0910405B0910505C4
:102A640080910605909107050E94F8220E94FF229A
:102A7400A0910C05B0910D0580910E0590910F0564
:102A84000E942F270E9407230E94FF220E940C23EA
:102A94000E942F27A0911005B09111058091120575
:102AA400909113050E9411230E9414230E9419235C
:102AB4000E94E1260E941E230E942323DF01CB01F2
:102AC400E0E0F0E06BE873E40E94FB200E94302316
:102AD4000E943523A0960895EF9721970E94EC2732
:102AE40049E15CEF0E945220DE01AE5BBF4FED93E3
:102AF400FD936D937C93DE01A25CBF4FED93FD9338
:102B04006D937C93EAAFFBAF6CAF7DAFEEABFFABE5
:102B140068AF79AFEAABFBAB6CAB7DABEEA7FFA7BD
:102B240068AB79ABEAA7FBA76CA77DA7EEA3FFA3CD
:102B340068A779A70E945220EAA3FBA36CA37DA3F4
:102B4400EE8FFF8F68A379A3EA8FFB8F6C8F7D8F45
:102B5400EE8BFF8B688F798FEA8BFB8B6C8B7D8B75
:102B64000E94CF210E94D4210E943A2320E030E029
:102B74000E94E3214CDE309711F00C944E16E8E0ED
:102B8400F0E0FA93EA935AD1EDE4F2E160E070E008
:102B94000E94E125E0913405F09135050E943F2320
:102BA400E0913605F09137050E943F23E091380506
:102BB400F09139050E943F23E0913A05F0913B05DD
:102BC4000E943F23E0913C05F0913D050E943F2384
:102BD400E0913E05F0913F050E943F23E0914005BE
:102BE400F09141050E943F23E0914205F091430595
:102BF4000E943F230E94442300E010E00830E0E0FC
:102C04001E0714F00C9448160E944923FF93EF9377
:102C1400DF010E94CC257F936F93FF93EF930E9473
:102C24005123AF91BF918F919F910E94E126AF9163
:102C3400BF910E94D725F801DE0116960E942C252B
:102C4400EA0FFB1FFF93EF93DF010E94CC257F93D4
:102C54006F93FF93EF930E9451237F936F93FF939E
:102C6400EF930E945123AF91BF918F919F910E9446
:102C74002F27AF91BF918F919F910E94E126AF9131
:102C8400BF910E94D7250F5F1F4FB8CF2F5F3F4FD3
:102C94000E944C203FDD6ECF0E94E32100E010E053
:102CA4000830E0E01E07C4F40E944923FA93EA9333
:102CB400F801DE0118960E942C25EA0FFB1FFA93F7
:102CC400EA933A932A93FA010E9416210E94E1257D
:102CD40055D00F5F1F4FE4CFEFE6F2E160E070E004
:102CE4000E945B23FE01E65BFF4F0190119061910E
:102CF4007081F0010E94E125FE01EE5AFF4F019020
:102D0400119061917081F0010E94E125FE01E65A63
:102D1400FF4F0190119061917081F0010E94E125B3
:102D2400FE01EE59FF4F0190119061917081F00105
:102D34000E94E1250E944423E1EAF2E160E070E0B0
:102D44000E94E1250E94DE210E94E1250E947A234F
:102D54000E94E125EA8DFB8D6C8D7D8D0E94E1251D
:102D6400EAA1FBA16CA17DA10E945B230E944423E4
:102D7400D1DC0E94F327EF9627960895AC81BD819C
:102D840013973CF40E943523A885B9850E947F23BC
:102D940050C0A885B985BF93AF930E948223AF9199
:102DA400BF910E948C230E9482237F936F93FF9391
:102DB400EF930E9491237F936F93FF93EF930E946D
:102DC4009123AF91BF918F919F910E942F27AF9133
:102DD400BF918F919F910E94FB20AE81BF810E9481
:102DE4008C230E94CC25DF01CB01EC81FD810E9464
:102DF40016210E942F27DF01CB01EC81FD81319741
:102E04000E9416210E947D27AE81BF810E948C23DF
:102E14000E94CC2577232AF4AE81BF810E945220E0
:102E24000AC0AE81BF810E94CC250E94E1250E9488
:102E3400DD24AE81BF810E94D725A9C11A930A93CC
:102E4400AA81BB811897C1F400E010E00830E0E0EB
:102E54001E078CF4F8010E949623FF93EF931A93B4
:102E64000A930E949120DCDCAF91BF91ED93FC9317
:102E74000F5F1F4FEBCF17C0AB81AA2322F0AA81AB
:102E8400BB8118970CF00FC0EA81FB810E94962346
:102E9400FF93EF93EA81FB810E94B420C1DCAF91E0
:102EA400BF91ED93FC93198108812496089560974E
:102EB4008CE0A0E0B0E0E0EBF0E060E00E94FA27F4
:102EC400FE01FA93EA93EE89FF89688D798D0E9459
:102ED400E1251AD10E949D230E940C23EFE6F2E122
:102EE40063E87BE30E947D270E9419230E94FB2054
:102EF4000E949D230E94A223689608952497AA8D78
:102F0400BB8D8C8D9D8DE0E0F0E060E070E40E946C
:102F14007D27AA85BB858C859D850E942F27DF018F
:102F2400CB01EE89FF89688D798D0E947D27A88564
:102F3400B9850E94D7250E9491230E94D9210E941D
:102F4400FB20DF01CB010E947A230E94A7230E9469
:102F54009123DF01CB010E9435230E947D27AE819E
:102F6400BF810E947F230E94AA230E942F277F9360
:102F74006F93FF93EF93AE81BF810E94CC25AF91F5
:102F8400BF918F919F910E942F27AC81BD810E9498
:102F9400D7256E9608952497AA85BB858C859D8533
:102FA4000E947A230E94DA260E94B8220E94AF234C
:102FB400DF01CB010E94BA230E94A7230E9435237C
:102FC400AC81BD810E947F23669608956C97E0E0F2
:102FD400EC87ED87E0E8EE87EFE3EF87EFE4E88B3B
:102FE400E6E8E98BE3E7EA8BE3E3EB8BAAA9BBA969
:102FF4008CA99DA9EAADFBAD6CAD7DAD0E94DA262E
:10300400DF01CB01EEA5FFA568A979A90E94AF2332
:10301400DF01CB01EEA9FFA968AD79AD0E94A7231A
:103024000E94BF23AAA5BBA58CA59DA50E94E1264D
:10303400E88FF98F6A8F7B8F0E94BF23AEA1BFA157
:1030440088A599A50E94E1260E94E8220E94E12217
:103054000E94E1220E94E1220E940723EC89FD895B
:103064006E897F890E94EE220E942F270E94EE2201
:103074000E942F270E94EE220E9411230E94F32215
:103084000E9419230E94C8230E942F27AE8DBF8D52
:103094000E94D725EAA1FBA16CA17DA10E943B2639
:1030A4000E940C230E942F277F936F93FF93EF932B
:1030B4000E94CF230E94C7220E94DA26AF91BF91BB
:1030C4008F919F910E942F27AC8DBD8D0E94D72593
:1030D400AE8DBF8D0E94CC250E94AA230E94E126BA
:1030E4007F936F93FF93EF93AC8DBD8D0E94CC259E
:1030F400AF91BF918F919F910E94E126A8A1B9A1A0
:103104000E94D725EE96089524970E94C7220E9414
:10311400E1250E94CB1E0E9430230E9491237F93BD
:103124006F93FF93EF93E885F985A481B581868138
:1031340097819F938F93BF93AF93A085B185828529
:1031440093850E9435230E942F270E94AA230E9460
:103154002F27AF91BF918F919F910E94E1260E94EA
:10316400AA230E942F27AF91BF918F919F910E9414
:103174002323A0910005B09101058091020590914F
:1031840003050E94DA260E9430230E9435232A96E2
:103194000895E881EFB9779BFECFEFB10C948A19BB
:1031A400C69887E08A95F1F70895BD9ABC9ABE9AAD
:1031B400C69A87E08A95F1F7E881EA9302D00C94E5
:1031C4008A19E991A8E0E795C49808F4C49A000024
:1031D400000000000000C59A83E08A95F1F7C598C5
:1031E40083E08A95F1F7AA9571F70895E881E16083
:1031F400EA930E94D718C498BC98A8E08894B4991C
:103204000894E795C59A83E08A95F1F7C59883E019
:103214008A95F1F7AA9591F70E94D2180C948A190D
:10322400E981EE7FEA930E94D718E881EA930E942D
:10323400E3180E94D21822960895E881E370E88387
:10324400EA81E03019F0E881E06AE883A981A130DD
:1032540019F4E881E46007C0A981A23019F4E88177
:10326400E86001C0E0E0E8830E94D423E0E9EA9347
:10327400E9813DC0E5E80E94DA23AC81BD81EC938D
:10328400E3E80E94DA23AA81BB81EC93E1E817C04A
:103294000E94D423E4E80E94E023E2E80E94E823A9
:1032A400E0E820C0E7E80E94DA23AC81BD81EC931A
:1032B400E9E80E94DA23AA81BB81EC93EDE8EA9362
:1032C40095DFEA930E946D1FA881B981EC9326963D
:1032D40008950E94D423E6E80E94E023E8E80E94CF
:1032E400E823ECE8EA93E981EA930E94791FEA93E0
:1032F40097DFEEE8EA93E0E8EA9392DF23960895F5
:103304005F9BFECFECB108955D9BFECFE881ECB9E5
:10331400219608951A930A93AC81BD810E94C82511
:103324003097D9F0AA81BB810E94C8258F013097BC
:1033340049F00230E0E01E0778F0F80131978F0180
:10334400ED93FC93AC81BD81ED91FD913196FE939B
:10335400EE933197AE81A08303C0EE81EA93D4DF6C
:1033640019810881279608952497E0E0E883E9838A
:10337400E0E8EA83EFE3EB830E94EE27EE85FF8526
:10338400EF3FAFEFFA0759F4E885F985FA93EA932A
:10339400E6EDF2E160E070E00E94F0239CC0EF3FB4
:1033A400AFE7FA0759F4E885F985FA93EA93E7ED6C
:1033B400F2E160E070E00E94F0238DC0AB85A7309D
:1033C40010F0E6E0EB871B85E12F1150E03019F097
:1033D4000E94F423F9CF0E94A2230E94E22721F441
:1033E40030E00E94F42324C03B850E94F72309F0B7
:1033F40010F40C94061A0E94F4230E94F72318F088
:103404000E94FC23FACF09C00E94F72320F40E94F3
:1034140006243150F9CF0E94F4230E94A2230E9473
:103424000B240E94F8220E94F72310F00E94FC2330
:1034340010E0EB85E11750F10E941E230E94102436
:103444000E9417240E94C2220E94C7220E941923AC
:103454000E947D270E946E260E2F0E941E240E9429
:1034640025240E942A240E941E230E942F270E94A2
:1034740019230E94FB200E949D23E12F1F5FE0304F
:10348400C1F60E941E24EEE2EC93D3CF0E943024B6
:10349400AA85A08330302CF40E941E24EDE2EC9324
:1034A40031953A3054F00E943024BF01A32FEAE052
:1034B4000E945C25E05DDB01EC930E943024BF0197
:1034C400A32FEAE00E949E25E05DDB01EC93A88532
:1034D400B985E0E0EC930E94F52760960895EF9794
:1034E40061970E94EC2710E0FE01EA5AFF4F019019
:1034F400F081E02DEA8BFB8BDE01A45ABF4F0E94C2
:1035040037242E2FE03011F40C94791CE12FE03095
:1035140039F4253211F411E002C00E944624E6C1B8
:10352400E130C1F4253219F40E944624DEC112E0D0
:10353400E0E0ED8B00E02D3211F401E0D7C12B3235
:1035440019F4EBE2ED8BD2C1203219F4E0E2ED8BF9
:10355400CDC102C0E23039F450E013E0203311F45D
:103564000068C4C102C0E330A1F4203310F02A3350
:1035740008F009C0A52FEAE0EA9FF0015E2FE22FD0
:10358400E0535E0FB3C140E02E3211F414E0AEC13B
:1035940011C0E430A9F4203310F02A3308F00AC033
:1035A4000062A42FEAE0EA9FF0014E2FE22FE053DD
:1035B4004E0F9CC12C3619F4026015E097C104C06B
:1035C400E53011F00C94781CE22FE33659F40E9494
:1035D40055240E945C240E945524A481AA930E942D
:1035E400632483C1E53411F0E53609F404C0E636FA
:1035F40011F00C94471BFE017696EA87FB870E9424
:1036040071240E94CC250E943A230E947824A98523
:10361400AA2322F0AD89AB3249F017C00E947A2464
:103624000E943B260E943A23EDE2ED8B07FF05C082
:10363400ED89EA930E94632408C0EA85FB853196EC
:10364400EA87FB873197AD89A08305FF46E02636DC
:1036540061F40E947A240E94E1254A93EF85F88957
:10366400FA93EA930E94D71C0BC00E947A240E940A
:10367400E1254A932A93E889F989FA93EA9374DE57
:10368400FE0176960E947F2423C0E33739F40E941A
:1036940078240E9487240E947F2413C0E037E9F431
:1036A4000E9478240E94712414960E94CC250E94C2
:1036B400D4210E94DE210E94E1250E949A1F1E2F20
:1036C40008600F77403011F0411708F001C0142F43
:1036D40040E0E0E0EC8B30E06EC0E43611F0E93617
:1036E40011F4046002C0E537A1F4EAE0EC8B01FFB9
:1036F40008C0E0E0FAEC6AE97BE30E94CF211AE01B
:1037040023C0E0E1F7E260E070E00E94CF2115E021
:103714001BC0E83511F4086004C0E83711F00C94BC
:10372400771CE0E1EC8B01FF08C0E0E0F0E060E032
:1037340070E10E94CF2118E007C0E0E0F0E160E012
:1037440070E00E94CF2114E0403011F00F7701C0E7
:1037540041E001FF08C00E9478240E94712414965D
:103764000E94CC250FC002FF07C00E9478240E944B
:1037740087240E94372506C00E9478240E9487244B
:1037840066277727EE83FF836887798702FF12C055
:10379400A985AA2342F40E947A240E9420250E942B
:1037A4003A23EDE2ED8BED89E03019F01F5F4F5FB6
:1037B40001C00B7F342F00FD14C0151710F435170A
:1037C40008F00FC007FF08C002FF04C00B7F2D895B
:1037D400115001C020E301C020E20E944624515050
:1037E400ECCF141790F4006102FF06C00E948C24F1
:1037F40009F0515011504150E0E3EA930E946324D0
:10380400503009F051504150ECCF312FEC89E03069
:10381400B9F43030A1F003FF05C0DE011A960E940E
:10382400372405C0AA85BB85ED91AA87BB87EA9397
:103834000E946324503009F051503150EACF4BC0FC
:103844000E94A0240E9479252E2F2A3030F003FFF5
:1038540002C0295C01C0295A01C0205D04FD1FC0BB
:10386400213350F40E94D921A130E0E0BE07E0E00A
:103874008E07E0E09E0709F40BC0431740F453178A
:1038840010F000FF01C010C020E207FF08C020E3D1
:10389400006102FF04C00E948C2409F051500E9470
:1038A4004624503009F0515031500E94A0240E9407
:1038B400AA250E943A23EC890E94D921FF27662772
:1038C40077270E9479250E94CF210E94BA230E9463
:1038D400E22709F0B5CF00FF08C0503031F0515055
:1038E400E0E2EA930E946324F8CF10E005CE0E9440
:1038F400F327EF96A1960895FF92F82E22971A9334
:103904000A93DE010E9413258D01E0E0EA83EB8334
:10391400DE0114960E9413250E94CC250E94E12505
:103924001A930A93FE0138960E94B420D8DD1981B7
:1039340008812496FF900895E991F99130971AF43B
:10394400E095F09531960895B981A881EC91EA93B8
:103954000E94631FEE2311F01196F8CFE894EC91C6
:10396400ED3211F4689402C0EB3209F41196662723
:103974007727EC91EA930E945B1FEE2379F0FB0119
:10398400660F771F660F771F6E0F7F1F660F771FF7
:10399400ED91FF27E0536E0F7F1FEBCFFB011EF469
:1039A400E095F0953196229608952497E0E0E88317
:1039B400E983EA83EFE3EB831A930A93EB85FC85AF
:1039C400EF3FAFEFFA0759F4EE81FF81FA93EA93E0
:1039D400EEEDF2E160E070E00E94F023A0C0EF3F62
:1039E400AFE7FA0759F4EE81FF81FA93EA93EFED1A
:1039F400F2E160E070E00E94F02391C0AC85AA235C
:103A040062F4E985FA856B857C850E943B260E94D9
:103A1400A6240E94AB24EDE2EC93A885A73010F015
:103A2400E6E0E8871885E12F1150E03039F00E9474
:103A3400B2240E9410240E94B724F5CF0E94BC2413
:103A44000E94E1260E94A62410E00E94C2240E9443
:103A5400B7240E94BC240E94C22750F00E94B224C2
:103A64000E9453220E942F270E94B7241F5FF1CF88
:103A7400103029F40E94AB24E0E3EC9324C0E12F3E
:103A84001150E03001F10E94B2240E9410240E94DF
:103A940017240E94B7240E94BC240E947D270E9400
:103AA4006E260E2F0E94AB240E9425240E94B2246D
:103AB4000E942A240E942F270E94C7240E94FB20D0
:103AC4000E94A624DCCFE885E03029F10E94AB24D3
:103AD400EEE2EC93E885E150E887EF5FE1F00E94C5
:103AE400C7240E9453220E942F270E94A624E985FE
:103AF400FA856B857C850E946E260E2F0E94AB246E
:103B04000E9425240E94C7240E942A240E94FB208C
:103B14000E94A624DFCFAE81BF81E0E0EC9319813F
:103B240008812D9608952A970E94EC27E0E0E88703
:103B3400E987EA87EB87A889B989EC915E2FEA9334
:103B44000E94631FE03031F0E889F9893196E88BEF
:103B5400F98BF1CFE0E0EF835B3221F05D3239F491
:103B6400E1E0EF83E889F9893196E88BF98BE0E0AD
:103B74004E2F5E2F08891989A889B989EC91EA9397
:103B84000E945B1FE03049F4A889B989AC91EEE248
:103B94000E943C255E2FE03039F0452BE889F989F5
:103BA4003196E88BF98BE8CF28893989403011F1B7
:103BB400E889F9893197E88BF98BA889B989AC919F
:103BC400AE32C1F0A889B989EC91E0530E94CF23A9
:103BD4000E942A240E94E126DF01CB010E94532285
:103BE4000E947D270E940723E889F9893197E88B91
:103BF400F98BE3CF0E94C2240E949D23A889B9892E
:103C04001197A88BB98BA017B10778F0EC91E0530A
:103C14000E9419230E942A240E94C8230E94E1269C
:103C24000E9407230E940624E9CFD9012F5F3F4F4A
:103C34005C91553619F0553409F058C0E0E04E2F28
:103C4400EE83D9015C915B3221F05D3221F4E1E035
:103C5400EE832F5F3F4FD9012F5F3F4FEC915E2FD3
:103C6400EA930E945B1FE03041F0A42FEAE0EA9F50
:103C7400F001E50FE0534E2FEECF473268F0EF81AD
:103C8400E03029F0EFEFFFEF6FE77FEF3AC0EFEF9F
:103C9400FFEF6FE77FE735C050E20E94C2240E9425
:103CA4009D23503079F00E94A2230E9419230E9480
:103CB4002F270E949D23E42FE52311F00E94062460
:103CC4005695EFCFEE81E03039F00E94A2230E9496
:103CD400CF230E947D2706C00E94A2230E94CF23E7
:103CE4000E942F27E887F9876A877B87EF81E03076
:103CF40031F00E9414230E943B260E9407230E9455
:103D040014230E94F327629608957B816A81F981C6
:103D1400E88177FB770F67FD7160972F9E5781F0DD
:103D240078F0983190F4AA27BB27882708948795C0
:103D3400B795A7959A95D1F7EA23FB23682305C085
:103D4400E8947727EE27FF2766276F77769508F4A0
:103D5400606877F9A991B99189919991EA17FB075C
:103D64006807790797FB08950E9435230E94E1258F
:103D74000E94871E0E94302319F40E94352307C035
:103D8400E6F70E94AA230E94C2240E94FB202496E4
:103D9400089524971A930A930E94CC240E94E6273C
:103DA4002CF0EFEFFFEF6FE77FEF7FC00E947A24E4
:103DB4000E94E125EDB7FEB73197FA93EA931F937A
:103DC4000F930E9428260F911F910E943A230E946C
:103DD400CC24E3EFF4E065E37FE30E94C22750F4D0
:103DE4000E947A240E94CC240E94E1260E943A2355
:103DF400015010400E94CC240E94C2240E94FB2047
:103E04007F936F93FF93EF930E947A24A0E0B0E036
:103E140080E89FE30E94E126AF91BF918F919F912B
:103E24000E947D270E943A230E947A240E94CC2477
:103E34000E942F270E94B7240E94CC22A6E2B2E45B
:103E440085E69FE30E942F27DF01CB01EEE4F1E139
:103E540064E570E40E94FB200E94CC240E942F277A
:103E64007F936F93FF93EF930E94B224EDE4F1E10B
:103E740064ED7FE30E94FB20AF91BF918F919F91EE
:103E84000E947D277F936F93FF93EF93F8010E9425
:103E94001621A8E1B2E781E39FE30E942F27AF91A7
:103EA400BF918F919F910E94E126198108812A96E2
:103EB4000895E1E0F991F03310F0FA3308F0EE27B9
:103EC4000895E1E0F991F03229F0F93010F0FE3074
:103ED40008F0EE270895E881E295EF70AE2FAA0F5F
:103EE400AA0FEA0FEE0FA991AF70EA0F0895A991F6
:103EF400EE27AA5012F0E05FFCCFA65FEA0F089508
:103F0400E991F99169917991A991B991CD016BBF29
:103F140007900D920020E1F7FC010895A991B99151
:103F2400EE27FF276D91662311F03196FBCF08959C
:103F3400AA27BB27E991F991699179916BBF079001
:103F4400002011F01196FBCFFD0108950E94E12598
:103F540080E00E947E1C249608950E94E125E6E1FB
:103F6400F5E0662777270E94E125E0E2F5E0662781
:103F740077270E94E125089588E00E947E1C2C96F4
:103F840008950E94E125ACE2B0E00E94F7250E946A
:103F940037250E94E125089584E00E947E1C28961E
:103FA40008950E94E125A0E0B0E00E94F3250E945C
:103FB400E12508950E94E125A4E0B0E00E94F325E4
:103FC4000E94E12508950E94E125A8E0B0E00E9446
:103FD400F7250E9437250E94E125DECF0E94E125C6
:103FE400AAE0B0E00E94F72508950E9437250E94B8
:103FF400E125D2CF0E94E125ACE0B0E00E94F32598
:104004000E94E12508950E94E125A0E1B0E00E940C
:10401400F3250E94E12508950E94E125A4E1B0E082
:104024000E94F3250E94E1250895A8E1B0E00E94D2
:10403400F3250E94E12508950E94E125ACE1B0E05A
:104044000E94F3250E94E125A7CF0E94E125A0E26A
:10405400B0E00E94F3250E94E12508950E94E12525
:10406400A4E2B0E00E94F3250E94E12595CF0E94CE
:10407400E125A8E2B0E00E94F3250E94E12508951D
:10408400E4E8F2E060E070E061CFE8EDF2E060E0E7
:1040940070E05CCFE8EEF3E0FA93EA930C94D12459
:1040A400E0E0F0E060E070E00895DE01A45BBF4F63
:1040B400ED93FD936D937C930895DE01A05BBF4F58
:1040C400ED93FD936D937C930895DE01AC5ABF4F3D
:1040D400ED93FD936D937C930895DE01A85ABF4F31
:1040E400ED93FD936D937C930895E5E0F0E0FA93EE
:1040F400EA93E4E0F0E0FA93EA93E7E0F0E0FA937D
:10410400EA930E943C19A42DB0E0ECE3F0E00E9495
:104114004925DF01E72DF0E0EA0FFB1F0895E0E0F9
:10412400F0E0FA93EA930895DE01A85ABF4F0D9088
:104134001D908D919C91D00108950E9437250E9475
:10414400A7260E94E1260895E1E0F0E0FA93EA93BD
:104154000895DE01AC5ABF4F0D901D908D919C9136
:10416400D0010895FA93EA93DACFDE01A05BBF4F42
:104174000D901D908D919C91D0010895DE01A45B5A
:10418400BF4F0D901D908D919C91D0010895FA938D
:10419400EA930C94D124E8A9F9A96AA97BA9089502
:1041A4000E94A5260E947D270895A6E4B0E00E94FF
:1041B400F725309708950E94E125FE01E05AFF4F4C
:1041C4000190119061917081F0010895AEE2B0E028
:1041D4000E94F3250895C9DF0E942F270895A2E3C2
:1041E400B0E00E94F3250895A6E3B0E00E94F32511
:1041F40008950E94E6250E94DA260895FE01EC5AED
:10420400FF4F0190119061917081F00108950E9417
:10421400E125FE01E05CFF4F0190119061917081F6
:10422400F0010E94E12508950E9437250E94A726E7
:104234000895FE01F496FA93EA93FE01F296FA9336
:10424400EA93FE01F096FA93EA930E948017EC8DAC
:10425400FD8D6E8D7F8D0E94E125EC8DFD8D6E8D23
:104264007F8D0E94E1250C945917EC8BFD8B6E8B8E
:104274007F8B0895AAE3B0E00E94F32508957EDFC2
:104284000E942F270895AEE3B0E00E94F32508951D
:10429400A2E4B0E00E94F32508950E94E125FE0106
:1042A400E05BFF4F0190119061917081F0010E94D9
:1042B400E1250895ECA1FDA16EA17FA10E94E12555
:1042C4000895E6E0F0E0FA93EA93E9E0F0E0FA9387
:1042D400EA93E8E0F0E0FA93EA930E945419E5E0E7
:1042E400F0E0FA93EA93E4E0F0E0FA93EA93E7E08B
:1042F400F0E0FA93EA930C943C19E82DFF27662723
:1043040077270E94E125E92DFF27662777270E945A
:10431400E125E62DFF27662777270E94E125E52D75
:10432400FF27662777270E94E125E42DFF276627CC
:1043340077270E94E125E72DFF2766277727089531
:10434400FE01E05CFF4F0190119061917081F001DA
:104354000895E5E0F0E0FA93EA93E4E0F0E0FA93FC
:10436400EA93E7E0F0E0FA93EA930E943C19A52D62
:10437400B0E0E0E1FEE00E944125BF01A42DECE3A2
:10438400EA9FF001DB01F0E0AE0FBF1FE72DF0E084
:10439400EA0FFB1F662777270895EE87FF87688B50
:1043A400798B0895EA87FB876C877D870895AE85AE
:1043B400BF85888999890895EA85FB856C857D8503
:1043C4000895E2EFF0E060E070E0C0CDE7E6F4E0ED
:1043D40060E070E00E94E12590CF0E94E12588E131
:1043E4000E947E1C6C9608950E94E125F8CE0E94DE
:1043F400E125FACE0E94E12580E10E947E1C6496AC
:1044040008950E94E1253FCF0E94E12541CFFA01A2
:10441400DE015596EA0FFB1F0895DE015596A40FA1
:10442400B51FEC91EA9308950E94E125DE015996A7
:10443400A40FB51FEC91FF27662777270E94E1257B
:10444400ABCDDE015596A40FB51F08950E94E1255A
:10445400A3CDEB8BFE017296FA93EA930C94A61CFF
:10446400EC93E0E2FAE060E070E0DECFFE017596E6
:10447400FA93EA930E94951DDF01CB010895FE0192
:104484007596FA93EA930C94951DE5E9FFEB66EDB6
:1044940073E30E94C2270895E4EBFAE060E070E061
:1044A4000895E0E0F0E060E271E40895E0E0F0E017
:1044B4006AEF73E40E94C2270895EFEDFDE060E027
:1044C40070E044CDECE0F0E0FA93EA930895E0E084
:1044D400F0E46CE975E40E94E125E0E0F0E563E4D2
:1044E40077E40E94E125FE017F96FA93EA930E9405
:1044F400DE1230970895E0E0F0E060E87FEB0E9480
:10450400E125E0E0F0E060E87FE30E94E125FE01C0
:104514007F96FA93EA930E94DE1230970895E0E0C2
:10452400F0E068EC72EC0E94E125E0E0F0E068EC79
:1045340072E40E94E125FE017F96FA93EA930E94B9
:10454400DE1230970895FE017596FA93EA930C945F
:10455400A61CF801AC81BD81AE0FBF1FAC910895BC
:10456400EC81FD81FA93EA930C94951DDF01CB0154
:10457400EE81FF81688579850895FA93EA93E4CD05
:10458400EC83FD836E837F830895EC81FD816E81CE
:104594007F810895EA81FB816C817D810895220FDA
:1045A400331F569547955695479556954795F90166
:1045B4000E942825E40FF51FEA87FB870895A88D3C
:1045C400B98D8A8D9B8D0E942F2708954EDEE88D2C
:1045D400F98D6A8D7B8D0895AC89BD898E899F89FB
:1045E4000895E889F9896A897B8908950E94E126FA
:1045F400EC87FD876E877F870895F3DFA889B989E3
:104604008A899B890E942F270895E887F9876A87FA
:104614007B870895A889B9898A899B8908950E940E
:104624002F27AECFE885F9856A857B850895AC850B
:10463400BD858E859F850895AC81BD818E819F81C6
:1046440008950E94E126E883F9836A837B83A0E0CE
:10465400B0E080E89FE30E947D270895E883F98312
:104664006A837B830895E881F9816A817B81089557
:10467400EE83FF836887798708950E9437250E9417
:10468400E125089580E20E947E1CA4960895F80115
:10469400DE0196960E942C25EA0FFB1F0895F8016F
:1046A400A4E3B5E0EE0FFF1FAE0FBF1F0E94C825A5
:1046B400BBCD0E94E125EAA5FBA56CA57DA50E94C2
:1046C400E125EAA9FBA96CA97DA90E94E125EAAD2F
:1046D400FBAD6CAD7DAD0E94E125FE01EE5BFF4FAD
:1046E4000190119061917081F0010E94E12508957B
:1046F400EA89FB896C897D8908950E94D725B3CF07
:104704000E94CC25DF01CB01EC81FD818DDD0E946F
:104714007D2708950E94D725AE81BF810895A8857D
:10472400B9850E94CC250895A4E3B5E0EE0FFF1FE0
:10473400EA0FFB1F0895EC87FD876E877F87089536
:10474400EC85FD856E857F8508950E947D2786CF43
:10475400A881B9818A819B8108950E947D27DF0108
:10476400CB01E0E0F0E06AE774E40E947D2708955D
:10477400EE85FF85688979890895E0910005F091B7
:104784000105609102057091030508950E942F2789
:10479400A885B9858A859B850895A885B9858A8564
:1047A4009B850895EEE8EA93E0E0EA930C941219ED
:1047B400EA930E94F818EA930C946D1FEA93EB8134
:1047C400EA930E94791FEA930C941219EA93EA81FE
:1047D400EA930E94791FEA930C9412190E94E1252E
:1047E4000C94821F29DF5DDE1ACFCFDE20DF0E940A
:1047F400C22708951CDFEDECFCEC6CEC7DE30E9419
:104804002F2799DF3F5F089512DF4BDE0E942F2789
:1048140092CFA0E0B0E080E09FE30895EDECFCECE3
:104824006CEC7DE30E942F270895F3DF0E94E126BC
:104834000E94E1250C94B61EA885B9851196A88717
:10484400B98711970895E02FE05DEC93E02F089568
:10485400FF27662777270E94A7260895E885F9850C
:104864003196E887F987319708950E94D225EF5F42
:10487400FF4F6F4F7F4F0E94DC25E150F0406040B6
:1048840070406BBFE69108952A93FE01E75AFF4FEB
:104894000190F081E02DFA93EA93FE017596FA9364
:1048A400EA930C948C19FE01E65AFF4F0190F081B3
:1048B400E02D08953497DE01A65ABF4FED93FC9383
:1048C4000895FE01E75AFF4F0190F081E02DFA931D
:1048D400EA93FE017596FA93EA930C948C19DE011F
:1048E400A65ABF4F0D90BC91A02D0895DCDFE2CFF6
:1048F400EE81FF81688579850895EA87FB87FA93BD
:10490400EA930E94901F1E2F0895E9DF14960E94D7
:10491400C82508950B7FED89EA93FE01E75AFF4FFE
:104924000190F081E02DFA93EA93FE01E75AFF4FDC
:10493400FA93EA930E948C195030089519DFAE81DE
:10494400BF81888599850895E987FA876B877C8775
:104954000895AE81BF811196AE83BF8311970895E8
:10496400AA81BB818C819D810895EA83FB836C833A
:104974007D8308950FDEA985BA858B859C8508956E
:10498400E0E0F0E060E87FE30895A985BA858B85CF
:104994009C850895AE81BF81888599850895E991A4
:1049A400F991309639F088EE93E00197F1F7A895E4
:1049B4003197C9F7089524975F939F81992311F440
:1049C400289639C212F4289642C24F9342E48E814B
:1049D400BD81AC8188839983AA83BB83FD01BC011B
:1049E400AC81BD818E819F8186D288819981AA8183
:1049F400BB81E5D168D17A954CD188819981AA810E
:104A0400BB81AE27A87F21F4BF178607970729F03B
:104A14004A9519F0DF01CB01DDCF4F915F912896C4
:104A240008950024AF0DB01D0895EA1BFB0B680B1D
:104A3400790B0895F195E195F0400895F09560950E
:104A44007095E195FF4F6F4F7F4F0895EE0FFF1F55
:104A5400EE0FFF1FEE0FFF1FEE0FFF1F0895FE2F37
:104A6400FF0FFF0B6F2F7F2F08956F2F660F660BBD
:104A7400762F0895EA17E1E009F0EE270895FA9FEA
:104A8400F02DEB9FF00DEA9FE02DF10D089570D00D
:104A9400F6DF0EF4CFDF0895002498E0AA0F001C7F
:104AA4000E1A10F40E0E01C0A1609A95B9F7EA2F00
:104AB400A02D089551D0F0DF0EF4E195089500245F
:104AC400112490E1AA0FBB1F001C111C0E1A1F0A0F
:104AD40018F40E0E1F1E01C0A1609A9599F7FD01EE
:104AE400D001089545D0EBDF0EF4A4DF08953F9381
:104AF4004F935F93002411244427552730E2AA0FD3
:104B0400BB1F881F991F001C111C441F551F0E1A20
:104B14001F0A460B570B28F40E0E1F1E461F571F65
:104B240001C0A1603A9559F7FD01BC01D001CA0149
:104B34005F914F913F910895E894A7FF02C0A1951A
:104B44006894E7FDE195A8DFEA2F0EF4E195089556
:104B5400CEDFFD01BC010895E894E7FF02C0E195B2
:104B64006894A7FF04C0A19500F8039400FA08957F
:104B7400E894F7FF02C05EDF6894B7FF06C0A09513
:104B8400B095119600F8039400FA0895ED91FC9104
:104B940011970895ED91FD916D917C91139708956E
:104BA400ED91FD916D917D910895ED93FD936D933C
:104BB4007C9308957E936E93FE93EE9308957A9377
:104BC4006A93FA93EA930895182E862F612D192E6D
:104BD400972F712D1B2EBF2FF12D1A2EAE2FE12DE5
:104BE4000895129602D0BF011297119602D0FE2F9B
:104BF4001197E199FECFFF93FFB7F894AEBBBFBB0B
:104C0400E09AEDB3FFBFFF91089507D012960F010C
:104C1400FB0103D0F0011297089507D01196EF938A
:104C2400EF2F03D0EF9111970895E19B02C0A8954F
:104C3400FCCF9FB7F894AEBBBFBBE09A8DB3E81727
:104C440019F0EDBBE29AE19A9FBF0895A991B99139
:104C5400E991F9916991799177FB660F771F88271C
:104C64007E57880B7D938C937EE7769567950EF03F
:104C7400089530976040704009F0705808955523A6
:104C840042F4503811F4E0FF04C03196691F791FD3
:104C94006BF050E8572711F45F93CDC05F3F31F0BC
:104CA400660F000C57956795752F08955F93002044
:104CB4000AF0CDC0C6C050E8192E1522880F991FDE
:104CC4009527550F879550E8072E0522660F771F05
:104CD4007527550F67950895689401C0E8945F930C
:104CE400F2DF703818F07F3F08F4A5C056E1571B77
:104CF400AAF4519558300EF4593030F0EFEFFFEF2D
:104D04006FEF7FE777F91AC077275523B9F0EE0FD5
:104D1400FF1F661F771F5A95D1F710C077275830A9
:104D240028F0EF2FF62F672F5850F9CF552331F085
:104D340076956795F795E7955A95D1F700200AF48B
:104D44007DDE5F910895689401C0E89430976040D7
:104D54007040B1F0002426F0772312F400946EDE44
:104D6400172E7EE1112032F07A95EE0FFF1F661F99
:104D7400111CF9CFEF2FF62F612D5F938ADF5F911E
:104D840008954F93AF01FD01DA01AB01BC01CA01E3
:104D9400402D012C142E4F910895EA0FFB1F681F1C
:104DA4000895E095F0956095EF5FFF4F6F4F08957C
:104DB4005F9381DF903871F150E8152604C05F934A
:104DC4007ADF903839F1703821F1572F591B13F1DC
:104DD40012F4D7DFFACF583118F0AA27BB27882757
:104DE400583028F0AB2FB82F88275850F9CF5523C7
:104DF40029F08695B795A7955A95D9F7502D512541
:104E040062F0CBDF38F46795F795E795739513F463
:104E14001EC0B7DF3EDF5F910895EA1BFB0B680BF2
:104E240051F010F40094BDDF6623A2F3EE0FFF1FD0
:104E3400661F7A95CBF7EE27FF27662777275F91C2
:104E44000895EFEFFFEF6FE77FEF5F910895EFEFC6
:104E5400FFEF6FE77FE75F9108955F932CDF703872
:104E640051F3903841F301240894791F23F41CF37F
:104E740000203AF3ECCF0F921F932F933F934F935D
:104E8400112722279927689FA0018F9F302D410D5C
:104E9400591F6B9F300D411D591F8E9F27D0BF9FF7
:104EA40025D06A9F23D0BE9F1DD0AF9F1BD0AE9F3D
:104EB400110D291F391F491F591FE32FF42F652F87
:104EC400522F4F913F912F911F910F9066232AF0FB
:104ED400550FEE1FFF1F661F02C073954BF2CFDE06
:104EE4005F910895100D211D391F02C0200D311D41
:104EF400491F591F08955F93DEDE703821F4112095
:104F04000AF49FCFA4CF903809F495CF01240894D4
:104F1400970B1BF4D4F30020F3CF792F1F932F9317
:104F24003F934F93112411272227332744275527D2
:104F340090E2AE17BF078607410730F0AE1BBF0BE8
:104F4400860B410B089401C08894551F221F331F00
:104F5400111CAA1FBB1F881F441F9A9551F7F90102
:104F6400612D4F913F912F911F91662332F0550F80
:104F7400EE1FFF1F661F7A9543F281DE5F9108954D
:104F840099239AF0772342F0971748F029F4AE1743
:104F9400BF07860720F031F0989488940895989478
:104FA400089408951894889408957723C2F797175E
:104FB40098F3A9F7EA17FB07680788F399F3ECCF8E
:104FC400309760407040089500240A160B060806C6
:104FD400090608955A934A933A932A931A930A9383
:104FE40008955D814C813B812A811981088108954E
:104FF400AC0FBD1F6BBF07900D928A95E1F7089522
:00000001FF
