:100000000C946D080C9400000C9400000C940000FB
:100010000C9400000C9400000C9400000C94000060
:100020000C9400000C9400000C9400000C94000050
:100030000C9400000C9400000C9400000C94000040
:100040000C9400000C9400000C9400000C94000030
:100050000C9400000C9400000C9400000C94000020
:100060000C9400000C9400000C9400000C94000010
:100070000C9400000C9400000C9400000C94000000
:100080000C9400000C9400000C94000012CF5B3B19
:1000900039A2AC3980348A3690E030B43393884347
:1000A00000000000B96C863A0D617B393893253425
:1000B0000000803F4F86733348E1FA3ECDCC4C3D83
:1000C0000AD7A33B6F12033A17B75138ACC5A7360E
:1000D000312E313600323030382F30382F32310067
:1000E0000D0A2A2A2A2A2A20534D415254204449D3
:1000F000474954414C20494E5445524641434520BE
:100100002A2A2A2A2A0D0A0020536F667477617200
:10011000652056657273696F6E2025732C202573D8
:100120000D0A002043757272656E74204545505269
:100130004F4D2076616C7565733A0D0A0020496455
:10014000656E746966696572204865616465723DB3
:100150002024574952253032640D0A002050535054
:1001600020436F6566663D20252E32450D0A00202E
:1001700050495220436F6566663D20252E32450D5D
:100180000A0020496E74657276616C2054696D6551
:10019000202873656373293D2025640D0A002043E0
:1001A0006D61783D2025640D0A00205265666572F8
:1001B000656E6365205265736973746F7220436165
:1001C00073653D20252E31660D0A00205265666557
:1001D00072656E6365205265736973746F72204433
:1001E0006F6D653D20252E31660D0A00205674681E
:1001F00065726D3D20252E34662C20566164633D6A
:1002000020252E34660D0A002050495220414443D7
:10021000204F66667365743D20252E3266206D760C
:100220000D0A002050495220414443204761696E25
:100230003D20252E32660D0A0020505350204144A7
:1002400043204F66667365743D20252E3266206D0F
:10025000760D0A00205053502041444320476169E5
:100260006E3D20252E32660D0A0024574952253056
:1002700032642C253032642F253032642F25303201
:10028000642C253032643A253032643A25303264A9
:100290002C2534642C25362E31662C25362E3266DC
:1002A0002C25362E32662C25362E32662C25372EFE
:1002B00032662C25352E31662C25352E31660D0AF9
:1002C000000D0A0D0A5349474E4F4E2052414449F2
:1002D0004F4D4554455220494E54455246414345A1
:1002E000205625732C2025730D0A000D0A446967DA
:1002F0006974616C20496E74657266616365204241
:100300006F617264202D2052657620422E204E6F40
:100310007620323030370D0A0050726F6772616D8F
:100320002053746172742074696D652069733A207A
:10033000253032643A253032643A253032640D0A71
:100340000050726F6772616D205374617274206423
:100350006174652069733A20253032642F2530326C
:10036000642F253032640D0A000D0A486974202775
:10037000542720666F72204D61696E204D656E7541
:100380002E0D0A000D0A20574952253032642042B2
:100390004F4152442028524556204229205645526A
:1003A00053494F4E3A2025732C2056455253494FFE
:1003B0004E20444154453A2025730D0A00202D2D2E
:1003C0002D2D2D2D2D2D2D2D454550524F4D20508D
:1003D0004152414D45544552532D2D2D2D2D2D2D3E
:1003E0002D2D2D2D2D2D2D2D2D2D2D2D2D2D2D2D3D
:1003F0002D2D2D2D2D0D0A0050535020436F656675
:10040000663D20252E32452C2050495220436F65F1
:1004100066663D20252E32450D0A00504952616422
:10042000635F6761696E3D20252E31662C2050493F
:10043000526164635F6F66667365743D20252E317B
:10044000660D0A005053506164635F6761696E3DD9
:1004500020252E31662C205053506164635F6F66F7
:10046000667365743D20252E31660D0A00202D2D02
:100470002D2D2D2D2D2D2D44415445202620544920
:100480004D452053455454494E472D2D2D2D2D2D8E
:100490002D2D2D2D2D2D2D2D2D2D2D2D2D2D2D2D8C
:1004A0002D2D2D2D2D0D0A00275427202D2D3E53A7
:1004B00065742074686520646174652F74696D6566
:1004C0002E0D0A00202D2D2D2D2D2D2D2D2D50538F
:1004D000502053455454494E47532D2D2D2D2D2D2D
:1004E0002D2D2D2D2D2D2D2D2D2D2D2D2D2D2D2D3C
:1004F0002D2D2D2D2D2D2D2D2D2D2D2D0D0A0027A2
:100500007027202D2D3E5365742050535020636F6B
:10051000656666696369656E742E20276727202DDE
:100520002D3E5365742050535020616D706C696688
:10053000696572206761696E2076616C75652E0D44
:100540000A00276F27202D2D3E53657420505350ED
:1005500020616D706C6966696572206F7574707565
:1005600074206F66667365742C206D762E0D0A00FC
:10057000202D2D2D2D2D2D2D2D2D50495220534523
:100580005454494E47532D2D2D2D2D2D2D2D2D2DD0
:100590002D2D2D2D2D2D2D2D2D2D2D2D2D2D2D2D8B
:1005A0002D2D2D2D2D2D2D2D0D0A00274927202DE8
:1005B0002D3E5365742050495220636F656666690D
:1005C0006369656E742E20274727202D2D3E5365C5
:1005D000742050495220616D706C696669657220A3
:1005E0006761696E2076616C75652E0D0A00274F74
:1005F00027202D2D3E5365742050495220616D7087
:100600006C6966696572206F7574707574206F66A9
:10061000667365742C206D762E0D0A002743272003
:100620002D2D3E536574204361736520285238296F
:100630002076616C75652E20274427202D2D3E5392
:10064000657420446F6D6520285239292076616CCD
:1006500075652E0D0A00275627202D2D3E536574F3
:1006600020546865726D6973746F722F4144432022
:100670005265666572656E636520566F6C7461675E
:10068000652028545032292076616C75652E0D0A3C
:1006900000202D2D2D2D2D2D2D2D2D54494D494E24
:1006A000472053455454494E472D2D2D2D2D2D2D8A
:1006B0002D2D2D2D2D2D2D2D2D2D2D2D2D2D2D2D6A
:1006C0002D2D2D2D2D2D2D2D2D0D0A00274C2720C4
:1006D0002D2D3E536574204F7574707574207469A8
:1006E0006D6520696E207365636F6E64732E0D0AED
:1006F00000202D2D2D2D2D2D2D2D2D2D2D2D2D2D64
:100700002D2D2D2D2D2D2D2D2D2D2D2D2D2D2D2D19
:100710002D2D2D2D2D2D2D2D2D2D2D2D2D2D2D2D09
:100720002D2D2D2D2D2D2D2D2D0D0A00275327205C
:100730002D2D3E53616D706C6520313220626974DD
:10074000204120746F20442E20274127202D2D3E4C
:100750004368616E6765204964656E7469666965A2
:100760007220537472696E672E0D0A002758272075
:100770002D2D3E457869742074686973206D656E0F
:10078000752C2072657475726E20746F206F7065A1
:10079000726174696F6E2E0D0A003D3D3D3D3D3D19
:1007A0003D3D3D3D3D3D3D3D3D3D3D3D3D3D3D3D79
:1007B0003D3D3D3D3D3D3D3D3D3D3D3D3D3D3D3D69
:1007C0003D3D3D3D3D3D3D3D3D3D3D3D3D3D3D3D59
:1007D0003D3D3D0D0A00436F6D6D616E643F3E000F
:1007E0000D0A54494D454F55543A2052657475725F
:1007F0006E20746F2073616D706C696E670D0A00F6
:1008000053797374656D20646174652F74696D65C7
:10081000202859592F4D4D2F44442C2068683A6D9B
:100820006D3A73732920697320253032642F253087
:1008300032642F253032642C20253032643A253042
:1008400032643A253032640D0A00456E74657220B8
:100850006E65772074696D65202868686D6D7373A7
:10086000293A202000202532642532642532640094
:100870000D0A496E636F72726563742074696D65E9
:1008800020656E74657265642C20636865636B20F7
:10089000666F726D61742E0D0A000D0A2530326488
:1008A0003A253032643A25303264207361766564CB
:1008B0002E0D0A000D0A53657420446174652028CA
:1008C00044446D6D5959293A20000D0A496E636FF1
:1008D0007272656374206461746520656E746572FC
:1008E00065642C20636865636B20666F726D61744C
:1008F0002E0D0A000D0A0D0A253032642F253032E4
:10090000642F253032642073617665642E0D0A00F1
:100910004368616E6765204F757470757420496E09
:1009200074657276616C20696E20736563730D0A5D
:100930000043757272656E7420496E7465727661DB
:100940006C2069733A20256420736563730D0A0077
:10095000456E746572206E6577206F75747075745E
:1009600020696E74657276616C20696E20736563B0
:10097000733A20002563000D0A4F7574206F6620BE
:1009800052616E67652E0D0A000D0A4C6F6F707410
:10099000696D65206973206E6F77207365742074AC
:1009A0006F202564207365636F6E64732E0D0A00DB
:1009B0004368616E67652050535020436F656666DB
:1009C000696369656E740D0A0043757272656E74B1
:1009D0002050535020436F656666696369656E7485
:1009E0002069733A20252E32450D0A00456E746544
:1009F00072204E65772050535020436F65666669BC
:100A00006369656E743A20000D0A4F7574206F6635
:100A10002052616E67650D0A000D0A505350204345
:100A20006F656666696369656E74206973206E6FB1
:100A3000772073657420746F20252E32450D0A00CF
:100A40004368616E67652050535020416D706C693A
:100A500066696572204761696E2056616C75650D27
:100A60000A0043757272656E742050535020416DB8
:100A7000706C6966696572204761696E2056616CA9
:100A800075653A20252E32660D0A00456E74657232
:100A9000204E65772050535020416D706C69666917
:100AA0006572204761696E2056616C75653A200059
:100AB0000D0A50535020416D706C69666965722053
:100AC0004761696E206973206E6F772073657420AB
:100AD000746F20252E32660D0A004368616E6765CB
:100AE0002050535020416D706C6966696572204FCB
:100AF00066667365742056616C75650D0A004375F2
:100B00007272656E742050535020416D706C69662E
:100B1000696572204F66667365742056616C7565F1
:100B20003A20252E32660D0A00456E746572204EFD
:100B300065772050535020416D706C69666965720D
:100B4000204F66667365742056616C75653A2000A7
:100B50000D0A50535020416D706C696669657220B2
:100B60004F6666736574206973206E6F77207365B6
:100B70007420746F20252E32660D0A004368616E62
:100B800067652050495220416D706C6966696572D5
:100B9000204761696E2056616C75650D0A004375CA
:100BA0007272656E742050495220416D706C696696
:100BB000696572204761696E2056616C75653A20DF
:100BC000252E32660D0A00456E746572204E6577DB
:100BD0002050495220416D706C69666965722047EA
:100BE00061696E2056616C75653A20000D0A5049A6
:100BF0005220416D706C6966696572204761696E4B
:100C0000206973206E6F772073657420746F2025C0
:100C10002E32660D0A004368616E676520504952A6
:100C200020416D706C6966696572204F66667365F8
:100C3000742056616C75650D0A0043757272656E9D
:100C4000742050495220416D706C6966696572204C
:100C50004F66667365742056616C75653A20252E63
:100C600032660D0A00456E746572204E657720501D
:100C7000495220416D706C6966696572204F6666E5
:100C80007365742056616C75653A20000D0A5049F1
:100C90005220416D706C6966696572204F6666739B
:100CA0006574206973206E6F772073657420746F8C
:100CB00020252E32660D0A004368616E676520505C
:100CC000495220436F656666696369656E740D0AF3
:100CD0000043757272656E742050495220436F65EF
:100CE0006666696369656E742069733A2025450DEF
:100CF0000A00456E746572204E6577205049522077
:100D0000436F656666696369656E743A20000D0A13
:100D100050495220436F656666696369656E742049
:100D20006973206E6F772073657420746F2025457A
:100D30000D0A004368616E67652043617365205248
:100D400065666572656E6365205265736973746F5D
:100D50007220285238290D0A0043757272656E742C
:100D60002043617365205265666572656E63652018
:100D70005265736973746F722069733A20252E313E
:100D8000660D0A00456E746572204E6577204361DA
:100D90007365205265666572656E63652052657382
:100DA000697374616E63653A20000D0A436173656F
:100DB000205265666572656E63652052657369735E
:100DC000746F72206973206E6F772073657420745E
:100DD0006F20252E31660D0A004368616E6765201D
:100DE000446F6D65205265666572656E636520525D
:100DF00065736973746F7220285239290D0A004394
:100E0000757272656E7420446F6D652052656665FB
:100E100072656E6365205265736973746F722069C1
:100E2000733A20252E31660D0A00456E74657220D6
:100E30004E657720446F6D65205265666572656EFC
:100E4000636520526573697374616E63653A20004F
:100E50000D0A446F6D65205265666572656E636547
:100E6000205265736973746F72206973206E6F7797
:100E70002073657420746F20252E31660D0A00439F
:100E800068616E676520546865726D6973746F720E
:100E9000205265666572656E636520566F6C74617D
:100EA00067650D0A0043757272656E74205468653B
:100EB000726D6973746F72205265666572656E63D8
:100EC0006520566F6C746167652069733A20252E22
:100ED00034660D0A00456E746572204E65772054A5
:100EE0006865726D6973746F7220526566657265AC
:100EF0006E636520566F6C746167653A20000D0A59
:100F0000546865726D6973746F722052656665729C
:100F1000656E636520566F6C746167652069732028
:100F20006E6F772073657420746F20252E34660DE4
:100F30000A004368616E6765204964656E7469667E
:100F400069657220416464726573730D0A004375AC
:100F50007272656E74204964656E74696669657243
:100F600020416464726573733A20245749522530D6
:100F700032640D0A00456E746572204E6577204913
:100F800064656E7469666965722041646472657334
:100F9000732028302D3939293A20000D0A4964651B
:100FA0006E74696669657220537472696E67206E2B
:100FB0006F772073657420746F3A20245749522547
:100FC0003032640D0A000D0A2052657475726E6924
:100FD0006E6720746F206F7065726174696F6E2E1A
:100FE0002E2E0D0A0D0A0020504952204144432064
:100FF0004F66667365743D20252E32660D0A00200B
:1010000050535020414443204F66667365743D2021
:10101000252E32660D0A00496E76616C6964206B7C
:1010200065790D0A0025376420253764202537644B
:101030002025376420253764202537642025376430
:10104000202537640D0A0025372E32662025372EDD
:1010500032662025372E32662025372E326620252F
:10106000372E32662025372E32662025372E3266FF
:101070002025372E32660D0A0025372E32662025B0
:10108000372E32662025372E32662025372E3266DF
:101090002025372E32662025372E32662025372E22
:1010A00032662025372E32660D0A0D0A0000040034
:1010B00000058C000400040590000400080594005D
:1010C00004000C05980005001205D0000B001C055B
:1010D000D500040030059C000000F894EE27ECBB1E
:1010E000F1E0F5BFE5BFE0936C00F8E1F1BDE1BDD3
:1010F0008DE0A2E0BB27ED938A95E9F780E090E1CF
:10110000A0E0B1E0ED930197E9F78BBFEEEAF0E1E3
:1011100085919591009761F0A591B59105901590F5
:10112000BF01F00105900D920197E1F7FB01F0CFAF
:10113000EFEFEDBFE0E1EEBFC0E0D5E00C94A0081A
:10114000EF976597E0E0E0931005E0931105E0E08C
:10115000F8E0AAE0B0E00E94682200D2D7D1C9D15D
:101160000E94691B0E94B41B0E94BB1B0E94C61BED
:101170000E94D11B0E94DA1B0E94E31BE8E0F2E010
:101180000E94F81B0E94FF1BE9E3F2E00E94081C8A
:101190000E940F1CEDE0EA930E94CA14EAE0EA9371
:1011A0000E94CA14CED30E94181CECABFDAB6EABF0
:1011B0007FABE8AFF9AF6AAF7BAFECAFFDAF6EAF1F
:1011C0007FAFDE01A05CBF4FED93FD936D937C93E9
:1011D0000E941D1C0E94251C0E942D1C0E94351C73
:1011E000E0E0E8ABE9ABEAABEBAB0E943D1C0F01E2
:1011F0000E94561CD0010E94BE216F010E94561C05
:10120000D60111960E949321DF01E0E1FEE00E94E9
:10121000F5216F010E943D1C5F01CA14DB04D9F166
:101220000E945B1C0E945B1C24D20E94601C0E94D6
:10123000691C0E94351C0E94701C0E945B1C19D204
:101240000E94751C0E94691C0E942D1CE2E0F0E0C7
:101250000E947E1C0ED20E94811C0E94691C0E946A
:10126000251CE3E0F0E00E947E1C03D20E948A1C51
:101270000E94691C0E941D1CE4E6F0E00E94931C81
:101280000E94971CEF5FFF4F6F4F7F4FE8ABF9ABAA
:101290006AAB7BABBFCF2DD10E94971C0E94601C14
:1012A0000E949C1C0E94351C0E94971C0E94751C69
:1012B0000E949C1C0E942D1C0E94971C0E94811C55
:1012C0000E949C1C0E94251C0E94971C0E948A1C44
:1012D0000E949C1C0E941D1CD8D0ECA7FDA76EA7E5
:1012E0007FA7F0D0ECA3FDA36EA37FA3ABD0E8A7AC
:1012F000F9A76AA77BA7DE01A05BBF4F0E94A11CD4
:101300000E94A61C0E94AD1C0E94B41CFE017C968B
:10131000FA93EA930E94C013DE01A85BBF4F0E94BC
:10132000A11C0E94BB1C0E94C61C0E94CB1C0E94D8
:10133000CB1C0E94D21C0E94F01CDE01AC5BBF4F94
:101340000E94A11C0E94BB1C0E94F51C0E94CB1C89
:101350000E94CB1C0E94D21C0E94FA1CDE01A45BDE
:10136000BF4F0E94A11C0E94FF1C0E94061D0E94EC
:101370000D1D0E94141D0E94141DE0E0F0E060E8C5
:1013800070E40E943622FE01B496FA93EA93FE01BD
:10139000B296FA93EA93FE01B096FA93EA930E940A
:1013A000E1130E941B1D0E94201D0E94291DEAE6D8
:1013B000F2E00E94361D0E94411D0E94541DFE0154
:1013C000E25BFF4F0190119061917081F0010E94EA
:1013D0003622FE01E259FF4F019011906191708118
:1013E000F0010E943622EEA5FFA568A979A90E9406
:1013F000671D0E94671D0E94671D0E943622FE0124
:10140000E25AFF4F0190119061917081F0010E94AA
:101410003622FE01EA59FF4F0190119061917081CF
:10142000F0010E9436228CE30E942918EE9606D124
:10143000309721F00E94C614E43509F001C081D232
:10144000B2CEFFCF24970E941D240E94721D0E94DD
:10145000771DE6E0F0E0FA93EA930E94701C09D150
:101460009F013A932A93F801EE0FFF1FFA93EA9334
:10147000EAE1F7E2FA93EA93DFD10E947B1D0E9432
:10148000801D0E9424242896089524971A930A9375
:101490000E941B1D0E94701C0E94771DF8010E9473
:1014A000851DDF01CB01E0E0F0E068EC72E40E9412
:1014B000AC23AAE9B9E989E99FE30E942C230E94A1
:1014C0008A1D13C024971A930A930E94721D0E94CA
:1014D000771DF801EE0FFF1FDF01E8EEF3E00E9439
:1014E000BE210E94851D0E948A1D198108812696B1
:1014F0000895E4E0E3B9EFE0F0E00E94931CE0E03F
:10150000E3B9E4EFF1E00E94931C0895A0D0E1EC70
:10151000F2E0FA93EA930E948F1D0E949C1DEBEE6D
:10152000F2E00E94A11D0E94291DE9E1F3E0FA9377
:10153000EA930E94541D0E94A81D0E941B1D0E9438
:10154000201DE1E4F3E00E94AD1D0E94A81DE9E624
:10155000F3E00E94A11D0E94B01D0895E0E0EBBBE6
:10156000EABBE3E0E5BBE4BBE0E0E2BBE1BBE3B93F
:10157000E4E0E2B9E0E0E0936200E0936100E09330
:101580006500E0936400E0BFE3BFE2BFE1BFEFBDF1
:10159000EEBDEDBDECBDEBBDEABDE9BDE8BDE09340
:1015A0007900E0937800E5BDE4BDE3BDE0938B00F6
:1015B000E0938A00E0938900E0938800E09387003D
:1015C000E0938600E0938500E0938400E09383003D
:1015D000E0938200E0936A00EABFE9BFE7BFE093CF
:1015E0007D00EBB9E8E1EAB9E6E0E0939500E0E0E0
:1015F000E0939000EBE0E9B9E0E0E0939B00E8E1E4
:10160000E0939A00E6E0E0939D00E0E0E09398002C
:10161000E3E3E0939900E0E8E8B9E0E0E0BDE1E071
:10162000E8BBE7E0E7BBE1E5EDB9E1E0EEB9E0E01A
:10163000EA93EA93EA930E941A1B0895EBB1EF37FD
:1016400018F0E1E0F0E00895E0E0F0E008951A938A
:101650000A9300E010E00931E0E01E072CF40E943C
:10166000B01D0F5F1F4FF7CFE1E0F0E00991199136
:10167000089526970E941B24E0E0EA87EB87E0E0CC
:10168000F0E0AF019F018F01AC85BD85119711F08E
:101690000C94960BEE85FF85309729F4EFE8F0E087
:1016A00060E070E03EC0AE85BF85119729F4EFEC95
:1016B000F0E060E070E035C0AE85BF85129729F498
:1016C000EFE9F0E060E070E02CC0AE85BF851397D5
:1016D00029F4EFEDF0E060E070E023C0AE85BF8557
:1016E000149729F4EFEAF0E060E070E01AC0AE85EC
:1016F000BF85159729F4EFEEF0E060E070E011C0CF
:10170000AE85BF85169729F4EFEBF0E060E070E05E
:1017100008C0AE85BF85179741F4EFEFF0E060E0B9
:1017200070E0EE83FF83688779874BC0EE85FF8585
:10173000309729F4E7E8F0E060E070E03EC0AE8565
:10174000BF85119729F4E7ECF0E060E070E035C068
:10175000AE85BF85129729F4E7E9F0E060E070E01C
:101760002CC0AE85BF85139729F4E7EDF0E060E06B
:1017700070E023C0AE85BF85149729F4E7EAF0E056
:1017800060E070E01AC0AE85BF85159729F4E7EEDA
:10179000F0E060E070E011C0AE85BF85169729F4D7
:1017A000E7EBF0E060E070E008C0AE85BF8517971A
:1017B00041F4E7EFF0E060E070E0EE83FF836887DC
:1017C0007987E7E0E8BBE6E0E8BBEE81EA930E94B8
:1017D0008E1A0E2F1127E0E0EA930E948E1A2E2F08
:1017E0003327E0E0EA930E948E1A4E2F5527E7E058
:1017F000E8BBAC85BD85119719F40E94B31D16C0D6
:10180000EC85FD85309779F40E94B31DAA85BB85D0
:10181000A030E8E0BE0734F0EA85FB85E050F041F7
:10182000EA87FB8703C0E0E0EA87EB87EA85FB8570
:101830000E94222460960895A097EAA1FBA10E942D
:10184000851DDF01CB010E94C31D0E94CA1DEC8FC4
:10185000FD8F6E8F7F8FE8A1F9A10E94851DAC8D51
:10186000BD8D8E8D9F8D0E94AC230E94F01C0E9426
:10187000C31DDF01CB01EC89FD896E897F890E9440
:10188000AC23E88FF98F6A8F7B8FE8A1F9A10E94C2
:10189000851D0E94CF1D0E94AC230E9436220E940B
:1018A0009D1A0E94D41D0E94D91DA0910405B091DB
:1018B000050580910605909107050E947A23A09165
:1018C0000005B091010580910205909103050E94E9
:1018D000DE1D0E94E51DA0910805B09109058091CB
:1018E0000A0590910B050E947A230E947B1D0E949D
:1018F000E51D0E94ED1D0E947A23A0910C05B09178
:101900000D0580910E0590910F050E947A230E948B
:10191000F21D0E94801D0E94F71D0E94FC1D0E9466
:101920002C230E94031E0E94091EDF01CB01E0E070
:10193000F0E06BE873E40E94CA1D0E94031EA696A5
:10194000089564970E941C240E94B01DE4E8F3E00F
:101950000E94361D0E948F1D0E94A81DEDEBF3E032
:101960000E94A11DE8EFF3E0FA93EA930E94A61CFF
:101970000E94FF1C0E949C1DEBE1F4E0FA93EA93A5
:101980000E940D1D0E94061D0E949C1DE4E4F4E0CF
:10199000FA93EA930E94B41C0E94AD1C0E949C1D05
:1019A000EDE6F4E00E94A11DE8EAF4E00E94A11D2A
:1019B000E4ECF4E00E94A11DEFEFF4E00E94A11D11
:1019C000E2E4F5E00E94A11DE0E7F5E00E94A11D20
:1019D000EBEAF5E00E94A11DEEEEF5E00E94A11DEC
:1019E000ECE1F6E00E94A11DE6E5F6E00E94A11DF3
:1019F000E1E9F6E00E94A11DECECF6E00E94A11DD9
:101A0000E1EFF6E00E94A11DECE2F7E00E94A11DCB
:101A1000ECE6F7E00E94A11DEAE9F7E00E94A11DB3
:101A2000E6EDF7E00E94A11D0E94291D0E94101EF4
:101A30000E94261E0E941E0B309719F0A7D70E2F6A
:101A40001FC00E94291D0E94101EED83FE836F831C
:101A500078870E942B1EED81FE816F8178850E9420
:101A60004021FA93EA930E94951A7F9740F0E0EEA6
:101A7000F7E00E94A11D0E94232469960895DACF01
:101A8000E02FE43521F0E43711F00C94C60DE0E0CE
:101A9000F8E00E94AD1D0E94541D88E10E942918A3
:101AA0006A96EAE4F8E00E94A11DE5E6F8E0FA9300
:101AB000EA93E4E0F0E060E070E00E943622E5E0C6
:101AC000F0E060E070E00E943622E6E0F0E060E0E6
:101AD00070E00E94301EE8E14E1628F4ECE35E163A
:101AE00010F46E1628F0E0E7F8E00E94A11DD7C3BD
:101AF0004A925A926A920E94471BEAE9F8E0FA93E6
:101B0000EA930E94541D0E94A81DE4EBF8E00E9495
:101B1000A11DE5E6F8E0FA93EA93E7E0F0E060E083
:101B200070E00E943622E8E0F0E060E070E00E94A1
:101B30003622E9E0F0E060E070E00E94301EE7E06D
:101B4000E91518F4E3E6E91508F40FC0E0E0E8153C
:101B500018F4ECE0E81508F408C0E0E0E71518F424
:101B6000EFE1E71508F401C005C0EAECF8E00E94D7
:101B7000A11D95C37A928A929A920E94601BE4EF0B
:101B8000F8E00E94AD1D0E94A81D89C3EC3421F02D
:101B9000EC3611F00C941C0EE0E1F9E00E94A11D5E
:101BA000E1E3F9E00E94371EE0E5F9E00E94A11DA3
:101BB00030E040E03530E0E04E07BCF40E943D1ECE
:101BC000FF93EF93E3D6AF91BF910E94441E0E9412
:101BD000521EAA3021F00E94521EAD3019F431502D
:101BE000404003C03F5F4F4FE5CF0E94581EE0E0EA
:101BF000F0E061E675E40E94ED2319F010F00C941A
:101C0000060E0E94581E0E9415242CF0E7E7F9E00A
:101C10000E94A11D44C30E94611E0E94BB221E2F70
:101C20002F2FE12FF22FA8E0B0E00E946822E9E810
:101C3000F9E00E94371E33C3E03711F00C94690EAF
:101C4000E0EBF9E00E94A11DE9ECF9E00E94671EBB
:101C5000ECEEF9E00E94A11D30E040E03431E0E01C
:101C60004E07BCF40E943D1EFF93EF938FD6AF91B9
:101C7000BF910E94441E0E94521EAA3021F00E9471
:101C8000521EAD3019F43150404003C03F5F4F4FFA
:101C9000E5CF0E94581EECEAF5EC67EA77E30E9474
:101CA000ED2348F40E94581E0E946E1E09F010F4A5
:101CB0000C945B0E03C00E94751EF1C20E94611E4F
:101CC000A0E0B0E00E945D22E9E1FAE00E94671E18
:101CD000E6C2E73611F00C94B80EE0E4FAE00E9498
:101CE000A11DE2E6FAE00E94781EEBE8FAE00E940D
:101CF000A11D30E040E03431E0E04E07BCF40E942A
:101D00003D1EFF93EF9342D6AF91BF910E94441EB8
:101D10000E94521EAA3021F00E94521EAD3019F4CA
:101D20003150404003C03F5F4F4FE5CF0E94581EE7
:101D3000E0E0F0E066E973E40E94ED2358F40E94CD
:101D4000581E0E947F1E0E94ED2309F010F40C948F
:101D5000AA0E03C00E94751EA2C20E94611EA8E2C4
:101D6000B0E00E945D22E0EBFAE00E94781E97C28C
:101D7000EF3611F00C94040FEAEDFAE00E94A11D79
:101D8000EEEFFAE00E94081CE9E2FBE00E94A11DD0
:101D900030E040E03431E0E04E07BCF40E943D1EEC
:101DA000FF93EF93F3D5AF91BF910E94441E0E9421
:101DB000521EAA3021F00E94521EAD3019F431504B
:101DC000404003C03F5F4F4FE5CF0E94581E0E9426
:101DD000841E19F010F00C94F60E0E94581EE0E0DC
:101DE000F0E06AEF73EC0E94ED2318F40E94751E78
:101DF00056C20E94611EA4E2B0E00E945D22E0E5AE
:101E0000FBE00E94081C4BC2E73411F00C94500F09
:101E1000ECE7FBE00E94A11DEEE9FBE00E948B1EB7
:101E2000E7ECFBE00E94A11D30E040E03431E0E04F
:101E30004E07BCF40E943D1EFF93EF93A7D5AF91D0
:101E4000BF910E94441E0E94521EAA3021F00E949F
:101E5000521EAD3019F43150404003C03F5F4F4F28
:101E6000E5CF0E94581EE0E0F0E86BEB74E40E94BE
:101E7000ED2319F010F00C94420F0E94581E0E949E
:101E8000841E18F40E94751E0AC20E94611EA0E200
:101E9000B0E00E945D22ECEEFBE00E948B1EFFC1D1
:101EA000EF3411F00C94A00FE6E1FCE00E94A11DBC
:101EB000EAE3FCE00E94F81BE5E6FCE00E94A11DBD
:101EC00030E040E03431E0E04E07BCF40E943D1EBB
:101ED000FF93EF935BD5AF91BF910E94441E0E9488
:101EE000521EAA3021F00E94521EAD3019F431501A
:101EF000404003C03F5F4F4FE5CF0E94581EE0E0D7
:101F0000F0E068E473E40E94ED2319F010F00C9403
:101F1000920F0E94581EE0E0F0E068E473EC0E942B
:101F2000ED2318F40E94751EBAC10E94611EACE137
:101F3000B0E00E945D22ECE8FCE00E94F81BAFC11B
:101F4000E93411F00C94ED0FE8EBFCE00E94A11DC8
:101F5000E1EDFCE00E94921EE2EFFCE00E94A11D78
:101F600030E040E03431E0E04E07BCF40E943D1E1A
:101F7000FF93EF930BD5AF91BF910E94441E0E9437
:101F8000521EAA3021F00E94521EAD3019F4315079
:101F9000404003C03F5F4F4FE5CF0E94581EECEA20
:101FA000F5EC67E277E30E94ED2348F40E94581EA7
:101FB0000E946E1E09F010F40C94DF0F03C00E9403
:101FC000751E6DC10E94611EA4E0B0E00E945D22FA
:101FD000EEE0FDE00E94921E62C1E33411F00C9429
:101FE0003510E3E3FDE00E94A11DE9E5FDE00E945C
:101FF000991EE4E8FDE00E94A11D30E040E034318C
:10200000E0E04E07BCF40E943D1EFF93EF93BED468
:10201000AF91BF910E94441E0E94521EAA3021F02F
:102020000E94521EAD3019F43150404003C03F5F52
:102030004F4FE5CF0E94581E0E949D1E19F010F0D0
:102040000C9427100E94581E0E94A41E18F40E948F
:10205000751E25C10E94611EACE0B0E00E945D22A9
:10206000EAEAFDE00E94991E1AC1E43411F00C94D2
:102070007D10E9EDFDE00E94A11DEFEFFDE00E9463
:10208000AB1EEAE2FEE00E94A11D30E040E03431E8
:10209000E0E04E07BCF40E943D1EFF93EF9376D420
:1020A000AF91BF910E94441E0E94521EAA3021F09F
:1020B0000E94521EAD3019F43150404003C03F5FC2
:1020C0004F4FE5CF0E94581E0E949D1E19F010F040
:1020D0000C946F100E94581E0E94A41E18F40E94B7
:1020E000751EDDC00E94611EA0E1B0E00E945D226D
:1020F000E0E5FEE00E94AB1ED2C0E63511F00C9484
:10210000D510EFE7FEE00E94A11DE5EAFEE00E9487
:10211000AF1EE5EDFEE00E94A11D30E040E034314D
:10212000E0E04E07BCF40E943D1EFF93EF932ED4D7
:10213000AF91BF910E94441E0E94521EAA3021F00E
:102140000E94521EAD3019F43150404003C03F5F31
:102150004F4FE5CF0E94581EE0E0F0E060EC70E4E5
:102160000E94ED2319F010F00C94BF100E94581E2D
:10217000E0E0F0E060E070E40E94ED2318F40E94DB
:10218000751E8DC00E94611EA4E1B0E00E945D2218
:10219000A4E1B0E00E944822A8E1B0E00E945D22E4
:1021A000EEEFFEE00E94AF1E7AC0E13411F00C9415
:1021B0001B11E2E3FFE00E94A11DEEE4FFE00E949C
:1021C000B61EE5E7FFE00E94A11D30E040E034319B
:1021D000E0E04E07BCF40E943D1EFF93EF93D6D380
:1021E000AF91BF910E94441E0E94521EAA3021F05E
:1021F0000E94521EAD3019F43150404003C03F5F81
:102200004F4FE5CF0E94BF1EE436A0E0FA072CF442
:102210000E94BF1EDF0110971CF40E94751E3FC074
:102220000E94BF1EACE2B0E00E946822EBE9FFE032
:102230000E94B61E34C0E83511F0E83729F4E6EC08
:10224000FFE00E94A11D2DC0E33511F42ED027C060
:10225000EA3511F0EA37E9F40E94691B0E94B41BC9
:102260000E94BB1B0E94C61B0E94D11B0E94DA1B4E
:102270000E94E31BE7EEFFE00E94F81B0E94FF1B99
:10228000EFEFFFE00E94081C0E940F1C0E94B01D8F
:1022900006C0E7E1F0E10E94A11D0E94A10C0E948E
:1022A000A10C0E94232469960895EF9721970E941C
:1022B0001B2449E15CEF0E94181CDE01AE5BBF4F9E
:1022C000ED93FD936D937C93DE01A25CBF4FED9384
:1022D000FD936D937C93EAAFFBAF6CAF7DAFEEAB3C
:1022E000FFAB68AF79AFEAABFBAB6CAB7DABEEA7F6
:1022F000FFA768AB79ABEAA7FBA76CA77DA7EEA306
:10230000FFA368A779A70E94181CEAA3FBA36CA3EC
:102310007DA3EE8FFF8F68A379A3EA8FFB8F6C8F6D
:102320007D8FEE8BFF8B688F798FEA8BFB8B6C8BAD
:102330007D8BEE87FF87688B798BEA87FB876C87BD
:102340007D870E94C51E20E030E00E94B01D0E94E3
:102350001E0B309711F00C943912E8E0F0E0FA937C
:10236000EA935BD1E5E2F0E1FA93EA93E091340578
:10237000F09135050E94CA1EE0913605F0913705AF
:102380000E94CA1EE0913805F09139050E94CA1ECC
:10239000E0913A05F0913B050E94CA1EE0913C0590
:1023A000F0913D050E94CA1EE0913E05F0913F0567
:1023B0000E94CA1EE0914005F09141050E94CA1E8C
:1023C000E0914205F09143050E94CA1E0E94CF1E73
:1023D00000E010E00830E0E01E0714F00C9430122A
:1023E0000E94D41EFF93EF93DF010E9425227F936A
:1023F0006F93FF93EF930E94DC1EAF91BF918F917B
:102400009F910E942C23AF91BF910E942B22F80133
:10241000DE0116960E94E61EFF93EF93DF010E94F5
:1024200025227F936F93FF93EF930E94DC1E7F938F
:102430006F93FF93EF930E94DC1EAF91BF918F913A
:102440009F910E947A23AF91BF918F919F910E949B
:102450002C23AF91BF910E942B220F5F1F4FBACF49
:102460002F5F3F4FE8EEF3E00E94931C0E94790A31
:102470006ECF0E94B01D00E010E00830E0E01E07C3
:10248000B4F40E94D41EFA93EA93F801DE01189680
:102490000E94E61EFA93EA933A932A93FA010E9465
:1024A000851D0E94362258D00F5F1F4FE6CFE7E40C
:1024B000F0E1FA93EA930E94EB1EFE01E85BFF4F06
:1024C0000190119061917081F0010E943622FE010D
:1024D000E05BFF4F0190119061917081F0010E94CB
:1024E0003622FE01E85AFF4F0190119061917081F0
:1024F000F0010E943622FE01E05AFF4F0190119038
:1025000061917081F0010E9436220E94CF1EE9E79E
:10251000F0E1FA93EA930E94051F0E943622E889AF
:10252000F9896A897B890E943622E88DF98D6A8D46
:102530007B8D0E943622E8A1F9A16AA17BA10E94AD
:1025400036220E94EB1E0E94CF1E0E94790A0E9432
:102550002224EF9627960895AC81BD8113973CF411
:102560000E940A1FA885B9850E940F1F51C0A88527
:10257000B985BF93AF930E94121FAF91BF910E9484
:102580001C1F0E94121F7F936F93FF93EF930E9473
:10259000211F7F936F93FF93EF930E94211FAF91B1
:1025A000BF918F919F910E947A23AF91BF918F919C
:1025B0009F910E94CA1DAE81BF810E941C1F0E9474
:1025C0002522DF01CB01EC81FD810E94851D0E9447
:1025D0007A23DF01CB01EC81FD8131970E94851DBB
:1025E0000E94AC23AE81BF810E941C1F0E94252245
:1025F000DF01CB010E9411242CF4AE81BF810E9427
:10260000181C08C0AE81BF810E94A11C0E94C92075
:10261000AE81BF810E942B22B7C11A930A93AA816F
:10262000BB811897C9F400E010E00830E0E01E0715
:1026300094F4F8010E94261FFF93EF931A930A93D4
:102640000E945B1C0E94390BAF91BF91ED93FC93EC
:102650000F5F1F4FEACF17C0AA81BB81109714F0FC
:1026600018970CF010C0EA81FB810E94261FFF938F
:10267000EF93EA81FB810E947E1C0E94390BAF918F
:10268000BF91ED93FC93198108812496089560977A
:102690008CE0A0E0B0E0E4EAF0E00E942924FE0132
:1026A000FA93EA93EE89FF89688D798D0E9436222C
:1026B00024D10E94D41DA889B9898A899B89EFE613
:1026C000F2E163E87BE30E94AC230E94ED1D0E94CF
:1026D000CA1D0E94D41D0E94D91D68960895249792
:1026E000AA8DBB8D8C8D9D8DE0E0F0E060E070E404
:1026F0000E94AC23AA85BB858C859D850E947A2388
:10270000DF01CB01EE89FF89688D798D0E94AC23B2
:10271000A885B9850E942B220E94211FAE85BF8506
:10272000888999890E94CA1DDF01CB01EA89FB894A
:102730006C897D890E942D1F0E94211FDF01CB0122
:102740000E940A1F0E94AC23AE81BF810E940F1F0E
:102750000E94301F0E947A237F936F93FF93EF9321
:10276000AE81BF810E942522AF91BF918F919F9131
:102770000E947A23AC81BD810E942B226E9608951F
:102780002497AA85BB858C859D85EA89FB896C8900
:102790007D890E942523DF01CB010E94351F0E9405
:1027A0003A1FDF01CB01EE85FF85688979890E9498
:1027B0002D1F0E940A1FAC81BD810E940F1F6696CB
:1027C00008956C9788E0ACE0B0E0E0EBF0E00E94A8
:1027D0002924AAA9BBA98CA99DA9EAADFBAD6CAD22
:1027E0007DAD0E942523DF01CB01EEA5FFA568A9E1
:1027F00079A90E943A1FDF01CB01EEA9FFA968ADBC
:1028000079AD0E942D1F0E94451FAAA5BBA58CA5CE
:102810009DA50E942C23E88FF98F6A8F7B8F0E94E1
:10282000451FAEA1BFA188A599A50E942C230E9497
:10283000F01CE88DF98D6A8D7B8D0E944E1F0E94E1
:102840004E1F0E944E1F0E94521FEC89FD896E8907
:102850007F890E94571F0E94571F0E94571F0E9486
:102860007B1DE889F9896A897B890E94ED1D0E9498
:102870007A230E94F71D0E947A23AE8DBF8D0E949D
:102880002B22EAA1FBA16CA17DA10E949222A88922
:10289000B9898A899B890E947A237F936F93FF93DA
:1028A000EF930E94F71D0E94801D0E942523AF9187
:1028B000BF918F919F910E947A23AC8DBD8D0E9414
:1028C0002B22AE8DBF8D0E9425220E94301F0E94B8
:1028D0002C237F936F93FF93EF93AC8DBD8D0E945C
:1028E0002522AF91BF918F919F910E942C23A8A187
:1028F000B9A10E942B22EE96089524970E94801D74
:102900000E9436220E949D1A0E94F21D0E94211FE1
:102910007F936F93FF93EF93E885F985A481B58149
:10292000868197819F938F93BF93AF93A085B18545
:10293000828593850E940A1F0E947A230E94301F7D
:102940000E947A23AF91BF918F919F910E94FC1DAD
:102950000E947A23AF91BF918F919F910E942C2367
:102960000E94F21D0E940A1F0E94091EA0913005BC
:10297000B091310580913205909133050E94252355
:102980000E94F21D0E940A1F2A9608955F9BFECFA7
:10299000ECB108955D9BFECFE881ECB921960895D6
:1029A000A881B9810E942122309749F0ED91FD91D3
:1029B0003196FE93EE933197AA81A08304C0EA81F9
:1029C000EA930E94CA142396089524971A930A93AF
:1029D000A885A63010F0E5E0E887E885A8EBB0E030
:1029E000F0E00E94E61E0E9430220E942B1E0E94F0
:1029F0002C230E94261E00E00E945E1FEA83FB83B8
:102A00006C837D83EA81FB816C817D810E942B1E1A
:102A10000E94ED2350F00E94631F0E947A23EA83F4
:102A2000FB836C837D830F5FEDCF003029F40E9420
:102A3000681FE0E3EC9324C0E02F0150E03001F187
:102A40000E94631F0E946F1F0E948A1D0E942B1EFE
:102A50000E94AC230E94BB221E2F0E94681F0E946E
:102A60007B1FAA81BB818C819D810E94801F0E9457
:102A70007A230E942B1E0E94CA1D0E94261EDCCFB4
:102A8000E885E03029F4AE81BF81E0E0EC9327C017
:102A90000E94681FEEE2EC93E885E150E887EF5F63
:102AA000D1F00E942B1E0E94861F0E94261EE985DF
:102AB000FA856B857C850E94BB221E2F0E94681FB1
:102AC0000E947B1F0E942B1E0E94801F0E94CA1D15
:102AD0000E94261EE1CFAE81BF81E0E0EC93198118
:102AE00008812D96089524970E941E240E945E1F3F
:102AF0000E948A1FAA85A63010F0E5E0EA870A85C1
:102B0000E02F0150E03029F00E948F1F0E948A1FA1
:102B1000F7CFEB85FC856D857E850E940D2431F411
:102B200020E00E948F1F0E948A1F36C02A850E94C3
:102B3000941F09F010F40C94AA150E948F1F0E9494
:102B40008A1F0E94941F28F00E949F1F0E94A41FAA
:102B5000F8CF0FC00E94941F40F40E949F1F0E9454
:102B6000861F0E94AD1F2150F5CF0E948F1F0E942B
:102B70008A1FEB85FC856D857E85A0E0B0E080E056
:102B80009FE30E942C230E94AD1F0E94941F20F0FF
:102B90000E949F1F0E94A41F00E0EA85E01780F1B9
:102BA000AB81BC818D819E810E947F1E0E946F1F20
:102BB0000E948A1FEB81FC816D817E810E949F1F94
:102BC0000E94AC230E94BB221E2F0E94B21F0E94B3
:102BD0007B1F0E94801FAB81BC818D819E810E94E2
:102BE0007A230E949F1F0E94CA1D0E94AD1FE02FE2
:102BF0000F5FE03091F60E94B21FEEE2EC93CDCF72
:102C00000E94B91FA985A08320302CF40E94B21F16
:102C1000EDE2EC9321952A3054F00E94B91FBF01D8
:102C2000A22FEAE00E94A621E05DDB01EC930E9466
:102C3000B91FBF01A22FEAE00E94E921E05DDB019C
:102C4000EC93AF81B885E0E0EC930E9425242F96A9
:102C500008956C970E941B2400E0EEA1FFA131961D
:102C6000EEA3FFA33197E4913E2FE03011F40C94D2
:102C70002518E02FE03039F4353211F401E002C0BC
:102C80000E94C01FE1C1E130C1F4353219F40E9445
:102C9000C01FD9C102E0E0E0E98B10E03D3211F441
:102CA00011E0D2C13B3219F4EBE2E98BCDC13032F5
:102CB00019F4E0E2E98BC8C102C0E23039F440E027
:102CC00003E0303311F41068BFC102C0E330A1F457
:102CD000303310F03A3308F009C0A42FEAE0EA9F3D
:102CE000F0014E2FE32FE0534E0FAEC150E03E32C5
:102CF00011F404E0A9C111C0E430A9F4303310F09C
:102D00003A3308F00AC01062A52FEAE0EA9FF0010A
:102D10005E2FE32FE0535E0F97C13C3619F412602B
:102D200005E092C104C0E53011F00C942418E32FA3
:102D3000E33631F40E94C71FEC910E94CE1F83C17D
:102D4000E53411F0E53609F404C0E63611F00C94D0
:102D5000ED16FE017296EA87FB870E94C71F0E944C
:102D600025220E94C51EDF01CB010E94112424F000
:102D7000A989AB3249F012C00E94351F0E949222ED
:102D80000E94C51EEDE2E98B17FF04C0E9890E948D
:102D9000CE1F04C00E94D51FA989A08315FF55E04E
:102DA000363651F40E94351F0E9436225A930E94F3
:102DB000DC1F0E94E5140CC00E94351F0E943622C1
:102DC0005A933A93E889F989FA93EA930E94731522
:102DD000FE0172960E94E11F1EC0E33739F40E9483
:102DE000C71F0E9421220E94E11F0EC0E037C1F4DC
:102DF0000E94C71F0E942122EA87FB87FA93EA9369
:102E00000E9462200E2F18601F77503011F050176B
:102E100008F001C0052F50E0E0E0E88B20E06DC035
:102E2000E43611F0E93611F4146002C0E537A1F47C
:102E3000EAE0E88B11FF08C0E0E0FAEC6AE97BE326
:102E40000E94D41D0AE023C0E0E1F7E260E070E0F8
:102E50000E94D41D05E01BC0E83511F4186004C0C1
:102E6000E83711F00C942318E0E1E88B11FF08C05B
:102E7000E0E0F0E060E070E10E94D41D08E007C0EF
:102E8000E0E0F0E160E070E00E94D41D04E050302A
:102E900011F01F7701C051E011FF05C00E94C71F4C
:102EA0000E9425220FC012FF07C00E94C71F0E9468
:102EB00021220E94612106C00E94C71F0E94212278
:102EC00066277727EE83FF836887798712FF14C010
:102ED0000E94E91F0E94112444F40E94351F0E94A1
:102EE00049210E94C51EEDE2E98BE989E03019F025
:102EF0000F5F5F5F01C01B7F252F10FD14C00417FB
:102F000010F4241708F00FC017FF08C012FF04C008
:102F10001B7F3989015001C030E301C030E20E94BB
:102F2000C01F4150ECCF0517A0F4106112FF09C07B
:102F30001B7FE9890E94CE1F403009F041500150AB
:102F40005150E0E30E94CE1F403009F041505150F3
:102F5000EACF202FE889E030D1F42030B9F013FF18
:102F600004C00E94D51FE49105C0AA85BB85ED91E0
:102F7000AA87BB87EA93EBA1FCA1FA93EA930E948C
:102F8000D014403009F041502150E7CF53C00E9487
:102F9000D91D0E94E91F0E94C3213E2F3A3030F014
:102FA00013FF02C0395C01C0395A01C0305D14FD05
:102FB00023C0313350F40E94ED1DA130E0E0BE0784
:102FC000E0E08E07E0E09E0709F40CC0521708F01D
:102FD00008C0421710F010FF01C013C030E217FF05
:102FE0000BC030E3106112FF07C01B7FE9890E940C
:102FF000CE1F403009F041500E94C01F403009F000
:10300000415021500E94D91D0E94E91F0E940322B5
:103010000E94C51EE8890E94ED1DFF2766277727BD
:103020000E94C3210E94D41D0E94D91D0E940D241C
:1030300009F0ADCF10FF07C0403029F04150E0E269
:103040000E94CE1FF9CF00E008CE0E942224A8964D
:103050000895FF920E94EE1F0E9429162FC10A9325
:10306000AB81BC81EC910E2FE03019F0E0E0EC93E5
:1030700015C0A981BA810E942122309761F00E9477
:103080002122E0810E2FE03029F0ED91FD91319663
:10309000FE93EE9303C00E94C6140E2FE02F08810A
:1030A0002596089527970E941B24E0E0EB87EC8784
:1030B000E989FA893196E98BFA8B3197E4912E2FC1
:1030C000E03011F40C9454190E94082071F00E9411
:1030D0000D200E942F182E2FE03019F00E9408209A
:1030E00009F401C0F4CF2C87DEC0253211F00C9416
:1030F000471940E0E989FA892591E98BFA8B203359
:1031000010F02A3308F009C0A42FEAE0EA9FF0018A
:103110004E2FE22FE0534E0FEDCF203009F4C4C004
:103120000E940D200E942F183E2FEA930E944E20ED
:10313000E030B1F7303009F4B0C03C87403009F4DA
:103140004FEF50E0E22FE33649F40E9412200E9434
:103150000D200E942F18D801EC9395C0E337F1F4AD
:103160000E941220E42F4150E030A1F00E940D2077
:103170000E942F182E2FE03019F00E94082009F02D
:1031800009C01F930F930F5F1F4FE22FAF91BF91A5
:10319000EC93E8CFD801E0E0EC9375C0EC3631F465
:1031A00051E0E989FA892591E98BFA8BE1E0EA8718
:1031B000E22FE43611F0E93619F4E0E0EA8702C0C4
:1031C000E53711F43AE009C0E83711F430E105C001
:1031D000E53209F45CC0EB8568C0E0E0EE83EF8384
:1031E000E887E987E42F4150E03099F10E940D20F3
:1031F0000E942F182E2FE132B8F0EA85E03039F422
:103200002D3219F4EFEFEA87EDCFE1E0EA872033C2
:1032100058F0213610F0275505C0213410F02753FF
:1032200001C02053231710F02C8713C0E32F0E94F6
:10323000E91FFF27662777270E947321DF01CB0153
:10324000E22FFF27662777270E943B210E94C51E99
:10325000C9CFEA850E94E91F0E945B210E94732169
:103260000E94C51E503041F00E9412200E94351F5E
:10327000D8010E942B2207C00E941220EE81FF81FC
:10328000D801ED93FC93EB85EF5FEB870CC00E94B8
:103290000D200E942F18E21731F0EB85E03011F479
:1032A000EFEF03C001C004CFEB850E942224639698
:1032B0000895FF920E94EE1F0E9452181981088102
:1032C0002496FF900895B981A881EC91EA930E9419
:1032D0004E20EE2311F01196F8CFE894EC91ED32E8
:1032E00011F4689402C0EB3209F41196662777272F
:1032F000EC91EA930E944620EE2381F0E62FF72F0F
:10330000660F771F660F771F6E0F7F1F660F771F81
:10331000ED91FF27E0536E0F7F1FEACFE62FF72FC7
:103320001EF4E095F0953196229608952A970E9412
:103330001B24E0E0E887E987EA87EB87A889B98959
:10334000EC914E2FEA930E944E20E03031F0E88954
:10335000F9893196E88BF98BF1CFE0E0EF834B32BE
:1033600009F404C04D3239F4E1E0EF83E889F989CA
:103370003196E88BF98BE0E05E2F4E2F0889198992
:10338000A889B989EC91EA930E944620E03049F47B
:10339000A889B989AC91EEE20E9466214E2FE030F7
:1033A00039F0542BE889F9893196E88BF98BE8CF0D
:1033B00028893989503011F1E889F9893197E88BEA
:1033C000F98BA889B989AC91AE32C1F0A889B989C5
:1033D000EC91E0530E94F71D0E94801F0E942C2355
:1033E000DF01CB010E947F1E0E94AC230E94521F6E
:1033F000E889F9893197E88BF98BE3CF0E945E1F4A
:103400000E94D41DA889B9891197A88BB98BA017E0
:10341000B10798F0EC91E0530E94ED1D0E94801FCF
:103420000E947A230E94F71D0E94DE1D0E94ED1D5E
:103430000E94861F0E94D41DE5CFD9012F5F3F4F08
:103440004C91453619F0453409F059C0E0E05E2F43
:10345000EE83D9014C914B3209F404C04D3221F472
:10346000E1E0EE832F5F3F4FD9012F5F3F4FEC919B
:103470004E2FEA930E944620E03041F0A52FEAE06B
:10348000EA9FF001E40FE0535E2FEECF573268F071
:10349000EF81E03029F0EFEFFFEF6FE77FEF3AC009
:1034A000EFEFFFEF6FE77FE735C040E20E945E1F5E
:1034B0000E94D41D403079F00E94E51D0E94D41D69
:1034C000E52FE42331F00E94ED1D0E94861F0E942B
:1034D000D41D4695EFCFEE81E03039F00E94D91D22
:1034E0000E94F71D0E94AC2306C00E94D91D0E94B5
:1034F000F71D0E947A23E887F9876A877B87EF8127
:10350000E03031F00E94051F0E9492220E94521F5B
:103510000E94051F0E94222462960895E881EFB957
:10352000779BFECFEFB121960895E991F9913097FD
:103530001AF4E095F0953196089524971A930A931A
:1035400048D50E9415242CF0EFEFFFEF6FE77FEFD7
:103550006DC08BD40E943622EDB7FEB73197FA9337
:10356000EA931F930F930E947F220F911F910DD416
:1035700030D5E3EFF4E065E37FE30E94ED2338F418
:1035800074D427D50E942C2300D40150104021D59B
:1035900095D400D37F936F93FF93EF9366D4A0E00D
:1035A000B0E080E89FE30E942C23AF91BF918F9100
:1035B0009F910E94AC23E9D358D40BD50E947A2363
:1035C000A9D2A6E2B2E485E69FE30E947A23DF0156
:1035D000CB01EEE4F1E164E570E4DCD2FAD40E94C0
:1035E0007A237F936F93FF93EF93AA81BB818C81A2
:1035F0009D81EDE4F1E164ED7FE3CCD2AF91BF9129
:103600008F919F910E94AC237F936F93FF93EF93D1
:10361000F801A8E1B2E781E39FE377D20E947A2321
:10362000AF91BF918F919F910E942C2319810881A6
:103630002A960895E881E370E883EA81E03019F082
:10364000E881E06AE883A981A13019F4E881E460A7
:1036500007C0A981A23019F4E881E86001C0E0E068
:10366000E883E9D4E0E9EA93E981EBD430C0E5E806
:10367000F1D4AC81BD81EC93E3E8ECD4AA81BB81A9
:10368000EC93E1E8E7D4A881B981EC9317C0D3D4D7
:10369000E4E8E6D4E2E8ECD4E0E8F2D418C0E7E8E5
:1036A000D9D4AC81BD81EC93E9E8D4D4AA81BB81A3
:1036B000EC93EDE8CFD4A881B981EC9326960895D8
:1036C000BAD4E6E8CDD4E8E8D3D4ECE8D9D423964C
:1036D0000895E0EEF0E0FA93EA9380E00E94291862
:1036E0002296E8E0F1E0FA93EA93E2E1F5E066275A
:1036F00077270E943622ECE1F5E0662777270E94C3
:10370000362288E00E9429182A96E3E2F1E0FA9333
:10371000EA9380E00E9429182296EDE3F1E0FA9303
:10372000EA93ACE2B0E00E944D220E9461210E9427
:10373000362284E00E9429182696ECE5F1E0FA93FF
:10374000EA93A0E0B0E00E9448220E94362284E082
:103750000E9429182696EFE6F1E0FA93EA93A4E096
:10376000B0E00E94482208950E94362284E00E9420
:10377000291826960895E2E8F1E0FA93EA93A8E082
:10378000B0E00E944D220E946121EECFEEE9F1E00F
:10379000FA93EA93AAE0B0E00E944D220E946121D0
:1037A000E3CFEAEAF1E0FA93EA93ACE0B0E00E94FA
:1037B0004822DACFEBECF1E0FA93EA93A0E1B0E033
:1037C0000E944822D1CFECEEF1E0FA93EA93A4E113
:1037D000B0E00E9448220E943622A8E1B0E00E9498
:1037E00048220E94362288E00E9429182A960895CD
:1037F000FA93EA93ACE1B0E00E944822B5CFE3E24D
:10380000F2E0FA93EA93A0E2B0E00E944822ACCF43
:10381000FA93EA93A4E2B0E00E944822A5CFE4E53F
:10382000F2E0FA93EA93A8E2B0E00E9448229CCF2B
:10383000E0E0F0E060E070E00895DE01AC5BBF4FD7
:10384000ED93FD936D937C930895DE01A85BBF4FCC
:10385000ED93FD936D937C930895DE01A45BBF4FC0
:10386000ED93FD936D937C930895DE01A05BBF4FB4
:10387000ED93FD936D937C930895E4E0F0E0FA936B
:10388000EA93E5E0F0E0FA93EA93E6E0F0E0FA93F9
:10389000EA93EDDEE52DF0E0ACE3B0E00E94932189
:1038A000DF01E62DF0E0EA0FFB1F0895A8E0B0E08D
:1038B0000E944D220895E0E0F0E0FA93EA93089523
:1038C000DE01A05BBF4F0D901D908D919C91D001AA
:1038D00008950E9461210E94EE220E942C230895E7
:1038E000E1E0F0E0FA93EA930895DE01A45BBF4FB4
:1038F0000D901D908D919C91D0010895FA93EA93BB
:10390000DACFDE01A85BBF4F0D901D908D919C9189
:10391000D0010895DE01AC5BBF4F0D901D908D91DD
:103920009C91D0010895FA93EA930C946D20E8A934
:10393000F9A96AA97BA908950E94EC220E94AC23F0
:1039400008950E9425220E9436220895A0E0B0E04A
:103950000E9448220E9436220895A4E2B0E00E940C
:1039600048220E9436220895A8E2B0E00E94482230
:103970000E9436220895AAE0B0E00E944D220E94E3
:1039800061210E94EE220E9436220895ACE0B0E050
:103990000E94482208950E943622A8E1B0E00E94C9
:1039A000482208950E943622FE01F496FA93EA9383
:1039B000FE01F296FA93EA93FE01F096FA93EA93E7
:1039C0000E946F13EC8DFD8D6E8D7F8D0E943622CF
:1039D000EC8DFD8D6E8D7F8D0E9436220C944713E9
:1039E000EC8BFD8B6E8B7F8B0895A0E1B0E00E9485
:1039F00048220895E88BF98B6A8B7B8B0895A4E0AD
:103A0000B0E00E9448220E9436220895ACE1B0E066
:103A10000E9448220E9436220895A0E2B0E00E944F
:103A200048220E9436220895ECA1FDA16EA17FA13B
:103A30000E9436220895E7E0F0E0FA93EA930895B1
:103A4000E8E0F0E0FA93EA93E9E0F0E0FA93EA9331
:103A500026CEE4E0F0E0FA93EA93E5E0F0E0FA93B2
:103A6000EA93E6E0F0E0FA93EA9301CEFA93EA9360
:103A7000ACE2B0E00E944D220E9461210E943622F9
:103A80000895E92DFF27662777270E943622E82D23
:103A9000FF27662777270E943622E72DFF27662714
:103AA00077270E9436220895E42DFF27662777277F
:103AB0000E943622E52DFF27662777270E943622AF
:103AC000E62DFF27662777270E94362208950E9459
:103AD0003622FE01E25CFF4F0190119061917081EE
:103AE000F0010895E5E0F0E0FA93EA93F9CE0E9440
:103AF000390B8F010895EC83FD836E837F830895D6
:103B0000EC81FD816E817F8108950E9461210E9478
:103B1000EE220895EA83FB836C837D830895E2E1BE
:103B2000F5E0662777270E943622ECE1F5E066276C
:103B300077270E943622089588E00E9429182A9645
:103B40000895FA93EA9380E00E9429182296089536
:103B50008CE00E9429182E960895FA93EA9391CF4B
:103B6000E5E0F1E0EECF220F331F569547955695CD
:103B7000479556954795F9010E945221E40FF51F8C
:103B8000EA87FB870895ECA1FDA1662777270E94AD
:103B9000EE2208950E943B220E9425230895A88DBD
:103BA000B98D8A8D9B8D0895EC87FD876E877F8701
:103BB0000895EC85FD856E857F8508950E942C23F0
:103BC000E887F9876A877B870895F3DFAC85BD8531
:103BD0008E859F850E947A230895AC85BD858E854C
:103BE0009F850895E883F9836A837B830895A88578
:103BF000B9858A859B8508950E942C23A881B98167
:103C00008A819B810895F6DEE889F9896A897B8932
:103C10000895A0E0B0E080E89FE30E94AC230895FF
:103C2000E42DF0E0A0E1BEE00E946B21BF01A52DD4
:103C3000ECE3EA9FF001DB01F0E0AE0FBF1FE62DE1
:103C4000F0E0EA0FFB1F662777270895E987FA87D8
:103C50006B877C870895A985BA858B859C85089597
:103C60000E9436228CE00E9459192E960895FA93EC
:103C7000EA931CDE0E94612177CDE32FF42FDE0151
:103C80001D96EA0FFB1F0895EC93E4E7F9E0FA9321
:103C9000EA93DE011F96A30FB41FEC91FF2766275E
:103CA000772762CDDE011D96A30FB41FAC91089556
:103CB000FE013D96FA93EA930E949619DF01CB012B
:103CC0000895FE013D96FA93EA930C949619FA939F
:103CD000EA93A0E0B0E00E94482246CDE5E9FFEB80
:103CE00066ED73E30E94ED230895E8E0FAE029CF42
:103CF000FA93EA93A8E2B0E00E94482235CDE0E0D2
:103D0000F0E060E271E40895E0E0F0E06AEF73E46F
:103D10000E94ED230895FA93EA93A0E2B0E00E9496
:103D2000482222CDFA93EA93A4E0B0E00E94482210
:103D30001BCDFA93EA932ADE17CDE0E0F0E46CE1C4
:103D400077E40E94ED230895E0E0F0E46CE975E487
:103D50000E94ED230895FA93EA9347DE05CDFA9386
:103D6000EA93A4E1B0E00E944822FECCFA93EA93E1
:103D7000ACE2B0E00E944D220E946121F5CCFE0130
:103D80003D96FA93EA930C946319EE83FF83688758
:103D9000798708950E9461210E943622089580E269
:103DA0000E942918A2960895F801DE0196960E94B5
:103DB0005621EA0FFB1F0895F801A4E3B5E0EE0FCA
:103DC000FF1FAE0FBF1F0E9421229FCE0E945621CF
:103DD000EA0FFB1F0895E8A5F9A56AA57BA50E9437
:103DE0003622A5DD0E943622E8ADF9AD6AAD7BAD85
:103DF0000E943622FE01E05CFF4F0190119061911C
:103E00007081F0010E9436220895E885F9856A855F
:103E10007B850895E881F9816A817B8108950E94FC
:103E20002B22F8CF0E942522DF01CB01EC81FD81FE
:103E30006CDE0E94AC2308950E942B22AE81BF81CC
:103E40000895A885B9850E9425220895A4E3B5E0C8
:103E5000EE0FFF1FEA0FFB1F08950E94AC23C2CE96
:103E6000A881B9818A819B810895EE81FF8168854F
:103E7000798508950E94AC23DF01CB01E0E0F0E0FA
:103E80006AE774E40E94AC230895E0913005F09154
:103E900031056091320570913305089580DE0E94EE
:103EA0007A230895E887F9876A877B870895AC8924
:103EB000BD898E899F890E947A230895E0E0F0E011
:103EC00060E87FE30895AA81BB818C819D8117CF33
:103ED000AE81BF811196AE83BF83119708950E9472
:103EE000AC23A0E0B0E080E09FE30E942C230E947E
:103EF00036220C942E21E12FE05DEC93E12F089502
:103F0000FF27662777270E94EE220895F8DE0E9499
:103F10007A230895EB83FC836D837E830895AB81C0
:103F2000BC818D819E81F2CFEB81FC816D817E8190
:103F3000AB85BC858D859E850E94ED230895AB855C
:103F4000BC858D859E850895DADE0E94AC23EB87C3
:103F5000FC876D877E872F5F0895EB87FC876D87D1
:103F60007E870895AF81B8851196AF83B887119782
:103F70000895EF81F8853196EF83F887319708959A
:103F80003A93EBA1FCA1FA93EA930C94D014ACA160
:103F9000BDA11497ACA3BDA314960895EA93EBA119
:103FA000FCA1FA93EA930C94D014EA85FB85319630
:103FB000EA87FB8731970895EF85F889FA93EA93AA
:103FC0000895EA87FB87FA93EA930E9458200E2F00
:103FD0000895AE81BF81888599850895F82E22972E
:103FE0001A930A93DE010E9437218D01E0E0EA83F3
:103FF000EB83DE0114960E9437210E942122FA935E
:10400000EA931A930A93FE013696FA93EA93089577
:104010002A930E944E20E0300895FE013C96FA93C8
:10402000EA93CACFAF85B8891497AF87B88B149637
:104030000D911C910895EEE8EA93E0E0EA930C9468
:10404000A720EA930E94A720EEE8EA93E0E8EA932B
:104050000C94A720EA930E948E20EA930C94792076
:10406000EA93EB81EA930E948520EA930C94A720BF
:10407000EA93EA81EA930E948520EA930C94A720B0
:10408000EA93E981EA930E948520DBCFE1E0F99190
:10409000F03310F0FA3308F0EE270895E1E0F991DB
:1040A000F03229F0F93010F0FE3008F0EE270895D4
:1040B000A991B991EE27FF276D91662311F03196F2
:1040C000FBCF0895AA27BB27E991F991059000201D
:1040D00011F01196FBCFFD010895E991F991309609
:1040E00039F08AE993E00197F1F7A8953197C9F77C
:1040F0000895E881E295EF70AE2FAA0FAA0FEA0F9C
:10410000EE0FA991AF70EA0F0895A991EE27AA507A
:1041100012F0E05FFCCFA65FEA0F0895E991E1603D
:104120001DD0C498BC98A8E08894B4990894E795E9
:10413000C59A82E08A95F1F7C59882E08A95F1F7F1
:10414000AA9591F7C69886E08A95F1F70895E981D6
:10415000EE7F04D0E88109D02296F4CFBD9ABC9AB4
:10416000BE9AC69A86E08A95F1F7A8E0E795C498CA
:1041700008F4C49A0000000000000000C59A82E024
:104180008A95F1F7C59882E08A95F1F7AA9571F7BB
:10419000089524975F939F81992311F428969EC2D6
:1041A00012F42896A1C24F9342E48E81BD81AC8166
:1041B00088839983AA83BB83FD01BC01AC81BD8147
:1041C0008E819F81C9D288819981AA81BB8144D285
:1041D000C9D17A95ADD188819981AA81BB81AE2759
:1041E000A87F21F4BF178607970729F04A9519F091
:1041F000DF01CB01DDCF4F915F91289608957B8140
:104200006A81F981E88177FB770F67FD7160972FED
:104210009E5781F078F0983190F4AA27BB27882721
:1042200008948795B795A7959A95D1F7EA23FB232C
:10423000682305C0E8947727EE27FF2766276F7766
:10424000769508F4606877F9A991B9918991999167
:10425000EA17FB076807790797FB0895D0DF09F491
:104260000895F6F79FEBAA27BB2780E8F5C1002445
:10427000AF0DB01D0895EA0FFB1F681F791F089549
:10428000EA1BFB0B680B790B0895E095F0953196CE
:104290000895E095F09560957095EF5FFF4F6F4F33
:1042A0007F4F0895EE0FFF1FEE0FFF1FEE0FFF1F52
:1042B000EE0FFF1F0895FE2FFF0FFF0B6F2F7F2FB5
:1042C00008956F2F660F660B762F0895EA17E1E0C9
:1042D00009F0EE270895FA9FF02DEB9FF00DEA9F6D
:1042E000E02DF10D08957A9F702D6B9F700DF89F52
:1042F000700DE99F700D6A9F602D710DFB9F600D21
:10430000711DE89F600D711D8827FA9FF02D610DCA
:10431000781FEB9FF00D611D781FEA9FE02DF10DD6
:10432000681F781F08957FD0D6DF0EF4AEDF0895A2
:10433000002498E0AA0F001C0E1A10F40E0E01C003
:10434000A1609A95B9F7EA2FA02D089560D0F0DF0B
:104350000EF4E19508950024112490E1AA0FBB1FEB
:10436000001C111C0E1A1F0A18F40E0E1F1E01C08D
:10437000A1609A9599F7FD01D001089554D0EBDF23
:104380000EF483DF08953F934F935F93002411242D
:104390003327442750E2AA0FBB1F881F991F001C18
:1043A000111C331F441F0E1A1F0A360B470B28F42B
:1043B0000E0E1F1E361F471F01C0A1605A9559F7E8
:1043C000FD01BC01D001832F942F5F914F913F914C
:1043D0000895E894A7FF02C0A1956894E7FDE195D0
:1043E000A7DFEA2F0EF4E1950895E894B7FF04C023
:1043F000A095B09511966894F7FD47DFACDFFD01FD
:104400000EF443DF0895BFDFFD01BC010895E89479
:10441000E7FF02C0E1956894A7FF04C0A19500F8EA
:10442000039400FA0895E894F7FF02C02EDF689421
:10443000B7FF06C0A095B095119600F8039400FA56
:104440000895ED91FC9111970895ED91FD916D9175
:104450007C9113970895ED93FD936D937C9308954C
:104460000590159065917491F00108957A936A937F
:10447000FA93EA930895182E862F612D192E972FFF
:10448000712D1B2EBF2FF12D1A2EAE2FE12D089569
:10449000129603D07F2F6E2F1297119602D0FE2F07
:1044A0001197E199FECFFF93FFB7F894AEBBBFBB66
:1044B000E09AEDB3FFBFFF9108950AD012960E2E39
:1044C0001F2EE62FF72F04D0E02DF12D129708951F
:1044D00007D01196EF93EF2F03D0EF911197089526
:1044E000E199FECF9FB7F894AEBBBFBBE09A8DB306
:1044F000E81719F0EDBBE29AE19A9FBF0895A991E0
:10450000B991E991F9916991799177FB660F771FDC
:1045100088277E57880B7D938C937EE776956795E9
:104520000EF0089530976040704009F0705808957B
:1045300050E8572711F45F93D1C05F3F31F0660F09
:10454000000C57956795752F08955F9300200AF02A
:10455000CBC0BEC050E8192E1522880F991F952791
:10456000550F879550E8072E0522660F771F752790
:10457000550F679508955F93F5DF703818F07F3F0A
:1045800008F4ACC056E1571B92F45195583028F00E
:10459000EFEFFFEF6FEF7FE71AC077275523B9F0F2
:1045A000EE0FFF1F661F771F5A95D1F710C07727B0
:1045B000583028F0EF2FF62F672F5850F9CF55239A
:1045C00031F076956795F795E7955A95D1F70020E4
:1045D0000AF45FDE5F910895689401C0E894309713
:1045E00060407040B1F0002426F0772312F400946C
:1045F00050DE172E7EE1112032F07A95EE0FFF1F6C
:10460000661F111CF9CFEF2FF62F612D5F9390DFFE
:104610005F9108955E2FEA2FA52F5F2FFB2FB52FF7
:10462000562F682F852F572F792F952F502D012C1E
:10463000152E0895EA0FFB1F681F0895E095F09569
:104640006095EF5FFF4F6F4F08955F9383DF903862
:1046500071F150E8152604C05F937CDF903839F182
:10466000703821F1572F591B13F112F4D3DFFACF11
:10467000583118F0AA27BB278827583028F0AB2FCD
:10468000B82F88275850F9CF552329F08695B7952C
:10469000A7955A95D9F7502D512562F0CBDF38F404
:1046A0006795F795E795739513F41EC0B3DF40DF68
:1046B0005F910895EA1BFB0B680B81F010F40094E6
:1046C000BDDF6623A2F3EE0FFF1F661F7A95CBF7BF
:1046D000EFEFFFEF6FE77FEF5F910895EE27FF2782
:1046E000662777275F910895EFEFFFEF6FE77FE78A
:1046F0005F9108955F932EDF703881F3903871F3E6
:1047000001240894791F23F44CF300200AF3ECCF22
:104710003F934F93112433274427552798E1330FB4
:10472000441F551FEE1FFF1F661F30F43A0F4B1F2B
:10473000581FE11DF11D611D9A9589F74F913F9119
:1047400066232AF0550FEE1FFF1F661F02C07395E8
:10475000E3F2EEDE5F9108955F93FCDE703819F4AA
:10476000112012F6B5CF903809F4B8CF012408947F
:10477000970B1BF4D4F30020F4CF792F6695F795AF
:10478000E7958695B795A7954F931124442755270C
:1047900098E1AE17BF07860728F0AE1BBF0B860B4C
:1047A000089401C08894111C441F551FAA1FBB1FE9
:1047B000881F9A9571F7E12DF42F652FA695E91FB3
:1047C000F91F691F4F9166232AF0EE0FFF1F661F26
:1047D0007A955BF2ADDE5F91089599239AF0772385
:1047E00042F0971748F029F4AE17BF07860720F06C
:1047F00031F09894889408959894089408951894A2
:10480000889408957723C2F7971798F3A9F7EA17C2
:10481000FB07680788F399F3ECCF3097604070404E
:104820000895109780409040089500240A160B06C2
:104830000806090608955A934A933A932A931A93BD
:104840000A9308955D814C813B812A8119810881F9
:104850000895AC0FBD1F05900D928A95E1F708955C
:00000001FF
