:0A0000000C9461080C9400000C94AD
:10000A0000000C9400000C9400000C9400000C9466
:10001A0000000C9400000C9400000C9400000C9456
:10002A0000000C9400000C9400000C9400000C9446
:10003A0000000C9400000C9400000C9400000C9436
:10004A0000000C9400000C9400000C9400000C9426
:10005A0000000C9400000C9400000C9400000C9416
:10006A0000000C9400000C9400000C9400000C9406
:10007A0000000C9400000C9400000C9400000C94F6
:10008A00000000000000B96C863A0D617B39389394
:10009A00253412CF5B3B39A2AC3980348A3690E0E2
:1000AA0030B4339388430000803F4F867333312E38
:1000BA00313600323030382F30382F3133000D0AC4
:1000CA002A2A2A2A2A20534D415254204449474970
:1000DA0054414C20494E54455246414345202A2A10
:1000EA002A2A2A0D0A0020536F66747761726520E6
:1000FA0056657273696F6E2025732C2025730D0A5D
:10010A00002043757272656E7420454550524F4DFA
:10011A002076616C7565733A0D0A00204964656E34
:10012A00746966696572204865616465723D202458
:10013A00524144253032640D0A0020505350204366
:10014A006F6566663D20252E32450D0A002050490E
:10015A005220436F6566663D20252E32450D0A0002
:10016A0020496E74657276616C2054696D65202829
:10017A0073656373293D2025640D0A0020436D6170
:10018A00783D2025640D0A00205265666572656E09
:10019A006365205265736973746F72204361736576
:1001AA003D20252E31660D0A00205265666572656E
:1001BA006E6365205265736973746F7220446F6D44
:1001CA00653D20252E31660D0A0020567468657239
:1001DA006D3D20252E34662C20566164633D202512
:1001EA002E34660D0A002050495220414443204FC4
:1001FA0066667365743D20252E3266206D760D0A7B
:10020A00002050495220414443204761696E3D20F5
:10021A00252E32660D0A00205053502041444320B7
:10022A004F66667365743D20252E3266206D760D05
:10023A000A002050535020414443204761696E3DD3
:10024A0020252E32660D0A00245749522530326481
:10025A002C253032642F253032642F253032642C1D
:10026A00253032643A253032643A253032642C25FE
:10027A0034642C25362E31662C25362E32662C25F2
:10028A00362E32662C25362E32662C25372E3266CD
:10029A002C25352E31662C25352E31660D0A000D9A
:1002AA000A0D0A5349474E4F4E20524144494F4D79
:1002BA004554455220494E544552464143452056DD
:1002CA0025732C2025730D0A000D0A446967697489
:1002DA00616C20496E7465726661636520426F6164
:1002EA007264202D2052657620422E204E6F762091
:1002FA00323030370D0A0050726F6772616D2053C9
:10030A00746172742074696D652069733A202530AE
:10031A0032643A253032643A253032640D0A00508C
:10032A00726F6772616D20537461727420646174B4
:10033A00652069733A20253032642F253032642FC4
:10034A00253032640D0A000D0A48697420275427A3
:10035A0020666F72204D61696E204D656E752E0D97
:10036A000A000D0A205241442530326420424F418E
:10037A005244202852455620422920564552534974
:10038A004F4E3A2025732C2056455253494F4E2042
:10039A00444154453A2025730D0A00202D2D2D2D58
:1003AA002D2D2D2D2D2D454550524F4D205041526A
:1003BA00414D45544552532D2D2D2D2D2D2D2D2D8D
:1003CA002D2D2D2D2D2D2D2D2D2D2D2D2D2D2D2D53
:1003DA002D2D2D0D0A0050535020436F6566663D42
:1003EA0020252E32452C2050495220436F656666DF
:1003FA003D20252E32450D0A005049526164635F43
:10040A006761696E3D20252E31662C205049526164
:10041A0064635F6F66667365743D20252E31660DD1
:10042A000A005053506164635F6761696E3D20251D
:10043A002E31662C205053506164635F6F66667379
:10044A0065743D20252E31660D0A00202D2D2D2D97
:10045A002D2D2D2D2D4441544520262054494D45FE
:10046A002053455454494E472D2D2D2D2D2D2D2DDC
:10047A002D2D2D2D2D2D2D2D2D2D2D2D2D2D2D2DA2
:10048A002D2D2D0D0A00275427202D2D3E5365743E
:10049A002074686520646174652F74696D652E0D1A
:1004AA000A00202D2D2D2D2D2D2D2D2D5053502070
:1004BA0053455454494E47532D2D2D2D2D2D2D2D59
:1004CA002D2D2D2D2D2D2D2D2D2D2D2D2D2D2D2D52
:1004DA002D2D2D2D2D2D2D2D2D2D0D0A002770277B
:1004EA00202D2D3E5365742050535020636F65664E
:1004FA0066696369656E742E20276727202D2D3E55
:10050A005365742050535020616D706C696669653B
:10051A0072206761696E2076616C75652E0D0A001E
:10052A00276F27202D2D3E5365742050535020618C
:10053A006D706C6966696572206F75747075742068
:10054A006F66667365742C206D762E0D0A00202D59
:10055A002D2D2D2D2D2D2D2D5049522053455454DE
:10056A00494E47532D2D2D2D2D2D2D2D2D2D2D2D34
:10057A002D2D2D2D2D2D2D2D2D2D2D2D2D2D2D2DA1
:10058A002D2D2D2D2D2D0D0A00274927202D2D3EED
:10059A005365742050495220636F656666696369C2
:1005AA00656E742E20274727202D2D3E5365742013
:1005BA0050495220616D706C696669657220676185
:1005CA00696E2076616C75652E0D0A00274F27200B
:1005DA002D2D3E5365742050495220616D706C690F
:1005EA0066696572206F7574707574206F666673BC
:1005FA0065742C206D762E0D0A00274327202D2D99
:10060A003E53657420436173652028523829207649
:10061A00616C75652E20274427202D2D3E53657465
:10062A0020446F6D6520285239292076616C7565E2
:10063A002E0D0A00275627202D2D3E53657420546F
:10064A006865726D6973746F722F414443205265F5
:10065A00666572656E636520566F6C7461676520A6
:10066A0028545032292076616C75652E0D0A0020B7
:10067A002D2D2D2D2D2D2D2D2D54494D494E4720F3
:10068A0053455454494E472D2D2D2D2D2D2D2D2DAD
:10069A002D2D2D2D2D2D2D2D2D2D2D2D2D2D2D2D80
:1006AA002D2D2D2D2D2D2D0D0A00274C27202D2DDA
:1006BA003E536574204F75747075742074696D6546
:1006CA0020696E207365636F6E64732E0D0A0020B5
:1006DA002D2D2D2D2D2D2D2D2D2D2D2D2D2D2D2D40
:1006EA002D2D2D2D2D2D2D2D2D2D2D2D2D2D2D2D30
:1006FA002D2D2D2D2D2D2D2D2D2D2D2D2D2D2D2D20
:10070A002D2D2D2D2D2D2D0D0A00275327202D2D72
:10071A003E53616D706C65203132206269742041EC
:10072A0020746F20442E20274127202D2D3E436818
:10073A00616E6765204964656E74696669657220D1
:10074A00537472696E672E0D0A00275827202D2DC3
:10075A003E457869742074686973206D656E752CDE
:10076A002072657475726E20746F206F7065726185
:10077A0074696F6E2E0D0A003D3D3D3D3D3D3D3D88
:10078A003D3D3D3D3D3D3D3D3D3D3D3D3D3D3D3D8F
:10079A003D3D3D3D3D3D3D3D3D3D3D3D3D3D3D3D7F
:1007AA003D3D3D3D3D3D3D3D3D3D3D3D3D3D3D3D6F
:1007BA003D0D0A00436F6D6D616E643F3E000D0A88
:1007CA0054494D454F55543A2052657475726E20FE
:1007DA00746F2073616D706C696E670D0A005379CE
:1007EA007374656D20646174652F74696D65202862
:1007FA0059592F4D4D2F44442C2068683A6D6D3A53
:10080A0073732920697320253032642F25303264AE
:10081A002F253032642C20253032643A2530326458
:10082A003A253032640D0A00456E746572206E6591
:10083A00772074696D65202868686D6D7373293A2D
:10084A0020200020253264253264253264000D0AF6
:10085A00496E636F72726563742074696D65206591
:10086A006E74657265642C20636865636B20666FBD
:10087A00726D61742E0D0A000D0A253032643A2514
:10088A003032643A253032642073617665642E0D05
:10089A000A000D0A53657420446174652028444493
:1008AA006D6D5959293A20000D0A496E636F7272AB
:1008BA00656374206461746520656E74657265642D
:1008CA002C20636865636B20666F726D61742E0DF0
:1008DA000A000D0A0D0A253032642F253032642FA2
:1008EA00253032642073617665642E0D0A004368F0
:1008FA00616E6765204F757470757420496E7465F2
:10090A007276616C20696E20736563730D0A004309
:10091A00757272656E7420496E74657276616C20A8
:10092A0069733A20256420736563730D0A00456E66
:10093A00746572206E6577206F757470757420699E
:10094A006E74657276616C20696E20736563733AA2
:10095A0020002563000D0A4F7574206F66205261CE
:10096A006E67652E0D0A000D0A4C6F6F7074696D03
:10097A0065206973206E6F772073657420746F2009
:10098A002564207365636F6E64732E0D0A004368D5
:10099A00616E67652050535020436F6566666963D0
:1009AA0069656E740D0A0043757272656E74205023
:1009BA00535020436F656666696369656E74206982
:1009CA00733A20252E32450D0A00456E7465722051
:1009DA004E65772050535020436F65666669636998
:1009EA00656E743A20000D0A4F7574206F662052A6
:1009FA00616E67650D0A000D0A50535020436F65FA
:100A0A006666696369656E74206973206E6F772004
:100A1A0073657420746F20252E32450D0A004368D1
:100A2A00616E67652050535020416D706C6966692C
:100A3A006572204761696E2056616C75650D0A0002
:100A4A0043757272656E742050535020416D706CFC
:100A5A006966696572204761696E2056616C7565C1
:100A6A003A20252E32660D0A00456E746572204EB4
:100A7A0065772050535020416D706C6966696572C4
:100A8A00204761696E2056616C75653A20000D0A2F
:100A9A0050535020416D706C6966696572204761D8
:100AAA00696E206973206E6F772073657420746F86
:100ABA0020252E32660D0A004368616E6765205054
:100ACA00535020416D706C6966696572204F666685
:100ADA007365742056616C75650D0A0043757272F0
:100AEA00656E742050535020416D706C696669655B
:100AFA0072204F66667365742056616C75653A207C
:100B0A00252E32660D0A00456E746572204E657791
:100B1A002050535020416D706C6966696572204F90
:100B2A0066667365742056616C75653A20000D0A15
:100B3A0050535020416D706C6966696572204F662A
:100B4A0066736574206973206E6F772073657420ED
:100B5A00746F20252E32660D0A004368616E676540
:100B6A002050495220416D706C6966696572204750
:100B7A0061696E2056616C75650D0A004375727263
:100B8A00656E742050495220416D706C69666965C2
:100B9A0072204761696E2056616C75653A20252E70
:100BAA0032660D0A00456E746572204E65772050D4
:100BBA00495220416D706C696669657220476169A6
:100BCA006E2056616C75653A20000D0A5049522014
:100BDA00416D706C6966696572204761696E20694A
:100BEA0073206E6F772073657420746F20252E3200
:100BFA00660D0A004368616E6765205049522041BC
:100C0A006D706C6966696572204F666673657420DB
:100C1A0056616C75650D0A0043757272656E7420B3
:100C2A0050495220416D706C6966696572204F6641
:100C3A00667365742056616C75653A20252E326696
:100C4A000D0A00456E746572204E65772050495230
:100C5A0020416D706C6966696572204F66667365BE
:100C6A00742056616C75653A20000D0A504952206D
:100C7A00416D706C6966696572204F66667365744A
:100C8A00206973206E6F772073657420746F202536
:100C9A002E32660D0A004368616E6765205049521C
:100CAA0020436F656666696369656E740D0A004361
:100CBA00757272656E742050495220436F6566667C
:100CCA00696369656E742069733A2025450D0A00C7
:100CDA00456E746572204E65772050495220436FE5
:100CEA00656666696369656E743A20000D0A504943
:100CFA005220436F656666696369656E742069731D
:100D0A00206E6F772073657420746F2025450D0A55
:100D1A00004368616E6765204361736520526566AA
:100D2A006572656E6365205265736973746F7220AC
:100D3A00285239290D0A0043757272656E74204370
:100D4A00617365205265666572656E6365205265DA
:100D5A00736973746F722069733A20252E31660D98
:100D6A000A00456E746572204E657720436173658B
:100D7A00205265666572656E636520526573697394
:100D8A0074616E63653A20000D0A436173652052EF
:100D9A0065666572656E6365205265736973746F03
:100DAA0072206973206E6F772073657420746F20C8
:100DBA00252E31660D0A004368616E676520446F0F
:100DCA006D65205265666572656E6365205265734E
:100DDA006973746F722028523130290D0A004375E5
:100DEA007272656E7420446F6D6520526566657215
:100DFA00656E6365205265736973746F72206973D7
:100E0A003A20252E31660D0A00456E746572204E11
:100E1A00657720446F6D65205265666572656E63FD
:100E2A006520526573697374616E63653A20000DBB
:100E3A000A446F6D65205265666572656E6365204A
:100E4A005265736973746F72206973206E6F7720AD
:100E5A0073657420746F20252E31660D0A0043686D
:100E6A00616E676520546865726D6973746F72206C
:100E7A005265666572656E636520566F6C7461674C
:100E8A00650D0A0043757272656E74205468657246
:100E9A006D6973746F72205265666572656E6365FB
:100EAA0020566F6C746167652069733A20252E3469
:100EBA00660D0A00456E746572204E657720546887
:100ECA0065726D6973746F72205265666572656EBC
:100EDA00636520566F6C746167653A20000D0A5489
:100EEA006865726D6973746F7220526566657265A2
:100EFA006E636520566F6C74616765206973206E36
:100F0A006F772073657420746F20252E34660D0A5E
:100F1A00004368616E6765204964656E7469666935
:100F2A00657220416464726573730D0A00437572B9
:100F3A0072656E74204964656E74696669657220AB
:100F4A00416464726573733A2024524144253032F5
:100F5A00640D0A00456E746572204E6577204964F7
:100F6A00656E74696669657220416464726573733B
:100F7A002028302D3939293A20000D0A4964656E36
:100F8A0074696669657220537472696E67206E6F40
:100F9A00772073657420746F3A20245241442530B7
:100FAA0032640D0A000D0A2052657475726E696EFC
:100FBA006720746F206F7065726174696F6E2E2E70
:100FCA002E0D0A0D0A002050495220414443204F59
:100FDA0066667365743D20252E32660D0A00205020
:100FEA00535020414443204F66667365743D202563
:100FFA002E32660D0A00496E76616C6964206B6553
:10100A00790D0A00253764202537642025376420A6
:10101A002537642025376420253764202537642046
:10102A002537640D0A0025372E32662025372E32E1
:10103A00662025372E32662025372E326620253740
:10104A002E32662025372E32662025372E3266202C
:10105A0025372E32660D0A0025372E3266202537AF
:10106A002E32662025372E32662025372E3266200C
:10107A0025372E32662025372E32662025372E3226
:10108A00662025372E32660D0A0D0A000400000577
:10109A009C0004000405A00004000805A400040044
:1010AA000C05A80005001005B8000B001A05BD00C4
:1010BA0004002E05AC000000F894EE27ECBBF1E02A
:1010CA00F5BFE5BFE0936C00F8E1F1BDE1BD8DE04D
:1010DA00A2E0BB27ED938A95E9F780E090E1A0E0D2
:1010EA00B1E0ED930197E9F78BBFE6E9F0E185916D
:1010FA009591009761F0A591B59105901590BF0162
:10110A00F00105900D920197E1F7FB01F0CFEFEFA7
:10111A00EDBFE0E1EEBFC0E0D5E00C942D09609789
:10112A008CE0A0E0B0E0E0E9F0E00E947621FE0168
:10113A00FA93EA93EE89FF89688D798D0E94831F5D
:10114A000E9468140E94B519A889B9898A899B895D
:10115A00EFE6F2E163E87BE30E94F9200E94BA1904
:10116A000E94BF190E94C419689608952497AA8DEF
:10117A00BB8D8C8D9D8DE0E0F0E060E070E40E9414
:10118A00F920AA85BB858C859D850E94C720DF0131
:10119A00CB01EE89FF89688D798D0E94F920A88597
:1011AA00B9850E947E1F0E94CA19AE85BF858889AB
:1011BA0099890E94BF19DF01CB01EA89FB896C89F1
:1011CA007D890E94CF190E94CA19DF01CB010E94B2
:1011DA00D6190E94DB190E94D6190E94E2190E94B0
:1011EA00C7207F936F93FF93EF930E94E719AF9104
:1011FA00BF918F919F910E94C720AC81BD810E94AF
:10120A007E1F6E9608952497AA85BB858C859D8539
:10121A00EA89FB896C897D890E947220DF01CB01F2
:10122A000E94EC190E94F1190E94F619DF01CB0104
:10123A00EE85FF85688979890E94CF190E94D6199F
:10124A00AC81BD810E947E1F0E94D61966960895C0
:10125A00EF976197CC24DD24E0E0F8E0AAE0B0E063
:10126A000E94B51FE4D1BBD1ADD10E94FD190E94E5
:10127A00481A0E944F1A0E945A1A0E94651A0E941E
:10128A006E1A0E94771AE0EFF1E00E948C1A0E940F
:10129A00931AE1E2F2E00E949C1A0E94A31AEDE07E
:1012AA00EA930E944F15EAE0EA930E944F150E94C2
:1012BA00AC1AE8ABF9AB6AAB7BABECABFDAB6EAB94
:1012CA007FABE8AFF9AF6AAF7BAFECAFFDAF6EAF04
:1012DA007FAF0E94B11A0E94B91A0E94C11A0E94D5
:1012EA00C91A00E010E00E94D11AE8E0F0E00E947A
:1012FA00DA1A0E94DD1A0E94DD1A24D20E94E21A2A
:10130A000E9479200E94C91A0E94EF1A0E94DD1ACF
:10131A0019D20E94F41A0E9479200E94C11AE2E0AE
:10132A00F0E00E94011B0ED20E94041B0E94792049
:10133A000E94B91AE3E0F0E00E94011B03D20E9466
:10134A00111B0E9479200E94B11A0E94D11A0E9490
:10135A001E1BA62DBB27E82DF0E0AE1BBF0BBA93D0
:10136A00AA930E94B5140F010E94211B0E161F0694
:10137A0020F4862C0F5F1F4FBCCF24D1F8010E94A6
:10138A00E21A0E94F9200E94C91AF8010E94F41A6E
:10139A000E94F9200E94C11AF8010E94041B0E94AF
:1013AA00F9200E94B91AF8010E94111B0E94F92023
:1013BA000E94B11AD1D0ECA7FDA76EA77FA7EBD0E8
:1013CA00ECA3FDA36EA37FA3A4D0E8A7F9A76AA7FD
:1013DA007BA7DE01A45BBF4F0E94261B0E942B1B2A
:1013EA000E94321B0E94391BFE017C96FA93EA93F3
:1013FA000E940809DE01AC5BBF4F0E94261B0E94B7
:10140A00401B0E944B1B0E94501B0E94501B0E94B3
:10141A00571B0E94751BDE01A05CBF4F0E94261B52
:10142A000E94401B0E947A1B0E94501B0E94501B64
:10143A000E94571B0E947F1BDE01A85BBF4F0E94C0
:10144A00261B0E94841B0E948B1B0E94921B0E94D7
:10145A00991B0E94991BE0E0F0E060E870E40E94AA
:10146A00831FFE01B496FA93EA93FE01B296FA93A9
:10147A00EA93FE01B096FA93EA930E94CA130E9475
:10148A00A01B0E94D11A0E941E1BE2E5F2E00E94F4
:10149A00AD1B0E94B81B0E94CB1BF8010E94DE1BE9
:1014AA00FE01E659FF4F0190119061917081F001A0
:1014BA000E94831FEEA5FFA568A979A90E94E31BD4
:1014CA000E94E31B0E94E31B0E94831FFE01E25A53
:1014DA00FF4F0190119061917081F0010E94831F6A
:1014EA00FE01EA59FF4F0190119061917081F0015C
:1014FA000E94831F8CE30E941D17EE9608D1309735
:10150A0021F00E944B15E43509F001C083D2CFCEF9
:10151A00FFCF24970E946A210E94EE1B0E94F31BB0
:10152A00E6E0F0E0FA93EA930E94EF1A0BD19F01EA
:10153A003A932A93F801EE0FFF1FFA93EA93EAE12E
:10154A00F7E2FA93EA93E1D10E94F71B0E94FC1B8F
:10155A000E9471212896089524971A930A93E7E026
:10156A00F0E0FA93EA930E94EF1A0E94F31BF80143
:10157A000E94011CDF01CB01E0E0F0E068EC72E4BC
:10158A000E94F920AAE9B9E989E99FE30E94792032
:10159A000E94061C13C024971A930A930E94EE1BFA
:1015AA000E94F31BF801EE0FFF1FDF01E8EEF3E0E4
:1015BA000E94371F0E94011C0E94061C1981088183
:1015CA0026960895E4E0E3B9EFE0F0E00E940B1CF0
:1015DA00E0E0E3B9E4EFF1E00E940B1C0895A0D02B
:1015EA00E9EAF2E0FA93EA930E940F1C0E941C1C9B
:1015FA00E3EDF2E00E94211C0E94D11A0E941E1BF8
:10160A00E1E0F3E0FA93EA930E94CB1B0E94281CC4
:10161A000E94A01BE9E2F3E00E942D1C0E94281CF4
:10162A00E1E5F3E00E94211C0E94301C0895E0E0ED
:10163A00EBBBEABBE3E0E5BBE4BBE0E0E2BBE1BB5A
:10164A00E3B9E4E0E2B9E0E0E0936200E09361002C
:10165A00E0936500E0936400E0BFE3BFE2BFE1BF4F
:10166A00EFBDEEBDEDBDECBDEBBDEABDE9BDE8BD2C
:10167A00E0937900E0937800E5BDE4BDE3BDE09333
:10168A008B00E0938A00E0938900E0938800E0935E
:10169A008700E0938600E0938500E0938400E0935E
:1016AA008300E0938200E0936A00EABFE9BFE7BFE4
:1016BA00E0937D00EBB9E8E1EAB9E6E0E093950052
:1016CA00E0E0E0939000EBE0E9B9E0E0E0939B0012
:1016DA00E8E1E0939A00E6E0E0939D00E0E0E09321
:1016EA009800E3E3E0939900E0E8E8B9E0E0E0BDC0
:1016FA00E1E0E8BBE7E0E7BBE1E5EDB9E1E0EEB93F
:10170A00E0E0EA93EA93EA930E9466190895EBB13E
:10171A00EF3718F0E1E0F0E00895E0E0F0E0089536
:10172A001A930A9300E010E00931E0E01E072CF456
:10173A000E94301C0F5F1F4FF7CFE1E0F0E00991E4
:10174A001991089526970E946821E0E0EA87EB87BD
:10175A00E0E0F0E0AF019F018F01AC85BD851197F4
:10176A0011F00C94040CEE85FF85309729F4EFE80C
:10177A00F0E060E070E03EC0AE85BF85119729F4C5
:10178A00EFECF0E060E070E035C0AE85BF851297FF
:10179A0029F4EFE9F0E060E070E02CC0AE85BF8587
:1017AA00139729F4EFEDF0E060E070E023C0AE8516
:1017BA00BF85149729F4EFEAF0E060E070E01AC000
:1017CA00AE85BF85159729F4EFEEF0E060E070E092
:1017DA0011C0AE85BF85169729F4EFEBF0E060E003
:1017EA0070E008C0AE85BF85179741F4EFEFF0E0CF
:1017FA0060E070E0EE83FF83688779874BC0EE85EF
:10180A00FF85309729F4E7E8F0E060E070E03EC039
:10181A00AE85BF85119729F4E7ECF0E060E070E04F
:10182A0035C0AE85BF85129729F4E7E9F0E060E09C
:10183A0070E02CC0AE85BF85139729F4E7EDF0E080
:10184A0060E070E023C0AE85BF85149729F4E7EA0B
:10185A00F0E060E070E01AC0AE85BF85159729F404
:10186A00E7EEF0E060E070E011C0AE85BF85169744
:10187A0029F4E7EBF0E060E070E008C0AE85BF85D0
:10188A00179741F4E7EFF0E060E070E0EE83FF8342
:10189A0068877987E7E0E8BBE6E0E8BBEE81EA9390
:1018AA000E945F190E2F1127E0E0EA930E945F1948
:1018BA002E2F3327E0E0EA930E945F194E2F552717
:1018CA00E7E0E8BBAC85BD85119719F40E94331C8B
:1018DA0016C0EC85FD85309779F40E94331CAA85E1
:1018EA00BB85A030E8E0BE0734F0EA85FB85E0500E
:1018FA00F041EA87FB8703C0E0E0EA87EB87EA85E5
:10190A00FB850E946F2160960895A097EAA1FBA12A
:10191A000E94011CDF01CB010E94431C0E94BF19D7
:10192A00EC8FFD8F6E8F7F8FE8A1F9A10E94011CB9
:10193A00AC8DBD8D8E8D9F8D0E94F9200E94751BE6
:10194A000E94431CDF01CB01EC89FD896E897F89E6
:10195A000E94F920E88FF98F6A8F7B8FE8A1F9A19D
:10196A000E94011C0E944A1C0E94F9200E94831FA7
:10197A000E94BD140E94C419A0910405B0910505E6
:10198A0080910605909107050E94C720A091000545
:10199A00B091010580910205909103050E944F1CA8
:1019AA000E94561CA0910805B091090580910A056C
:1019BA0090910B050E94C7200E94F71B0E94561C9B
:1019CA000E94BA190E94C720A0910C05B0910D057A
:1019DA0080910E0590910F050E94C7200E945E1CFF
:1019EA000E94FC1B0E94631C0E9479200E94E2193B
:1019FA000E9479200E94681C0E946E1C0E94F119A4
:101A0A00E0E0F0E06BE873E40E94BF190E94681CF2
:101A1A00A696089564970E9469210E94301CECE6FC
:101A2A00F3E00E94AD1B0E940F1C0E94281CE5EAED
:101A3A00F3E00E94211CE0EEF3E0FA93EA930E949D
:101A4A002B1B0E94841B0E941C1CE3E0F4E0FA9307
:101A5A00EA930E94921B0E948B1B0E941C1CECE2C0
:101A6A00F4E0FA93EA930E94391B0E94321B0E9407
:101A7A001C1CE5E5F4E00E94211CE0E9F4E00E9468
:101A8A00211CECEAF4E00E94211CE7EEF4E00E943B
:101A9A00211CEAE2F5E00E94211CE8E5F5E00E943B
:101AAA00211CE3E9F5E00E94211CE6EDF5E00E9425
:101ABA00211CE4E0F6E00E94211CEEE3F6E00E941D
:101ACA00211CE9E7F6E00E94211CE4EBF6E00E9403
:101ADA00211CE9EDF6E00E94211CE4E1F7E00E94F6
:101AEA00211CE4E5F7E00E94211CE2E8F7E00E94ED
:101AFA00211CEEEBF7E00E94211C0E94D11A0E94E1
:101B0A001E1B0E94731CE987FA876B877C870E94D9
:101B1A008C0B309721F00E944B150E2F1EC00E948D
:101B2A00D11A0E941E1B0E94731CED83FE836F83D1
:101B3A007887A985BA858B859C850E94D11EFA93E0
:101B4A00EA930ED77F9740F0E8ECF7E00E94211C59
:101B5A000E94702169960895DACFE02FE43521F0CA
:101B6A00E43711F00C94380EE8EEF7E00E942D1CD1
:101B7A000E94CB1B88E10E941D176A96E2E3F8E0F7
:101B8A000E94211CEDE4F8E0FA93EA93E4E0F0E025
:101B9A0060E070E00E94831FE5E0F0E060E070E042
:101BAA000E94831FE6E0F0E060E070E00E94891C7A
:101BBA00E8E14E1628F4ECE35E1610F46E1628F0EF
:101BCA00E8E5F8E00E94211CE2C34A925A926A921E
:101BDA000E949319E2E8F8E0FA93EA930E94CB1B79
:101BEA000E94281CECE9F8E00E94211CEDE4F8E0D0
:101BFA00FA93EA93E9E0F0E060E070E00E94831F64
:101C0A00EAE0F0E060E070E00E94831FEBE0F0E0C1
:101C1A0060E070E00E94891CE7E0EB1518F4E3E647
:101C2A00EB1508F40FC0E0E0EA1518F4ECE0EA1549
:101C3A0008F408C0E0E0E91518F4EFE1E91508F442
:101C4A0001C005C0E2EBF8E00E94211CA0C39A92F1
:101C5A00AA92BA920E94AC19ECEDF8E00E942D1CEF
:101C6A000E94281C94C3EC3421F0EC3611F00C9439
:101C7A008F0EE8EFF8E00E94211CE9E1F9E00E94EA
:101C8A00901CE8E3F9E00E94211C30E040E0353086
:101C9A00E0E04E07C4F40E94961CFF93EF930E9463
:101CAA004B15AF91BF910E949D1C0E94AB1CAA309C
:101CBA0021F00E94AB1CAD3019F43150404003C0F2
:101CCA003F5F4F4FE4CF0E94B11CE0E0F0E061E6D5
:101CDA0075E40E943A2119F010F00C94790E0E94D2
:101CEA00B11C0E9462212CF0EFE5F9E00E94211C50
:101CFA004EC30E94B91C0E9408201E2F2F2FE12FCD
:101D0A00F22FA8E0B0E00E94B51FE1E7F9E00E94D7
:101D1A00901C3DC3E03711F00C94DD0EE8E9F9E0C0
:101D2A000E94211CE1EBF9E00E94BE1CE4EDF9E0FF
:101D3A000E94211C30E040E03431E0E04E07C4F458
:101D4A000E94961CFF93EF930E944B15AF91BF918F
:101D5A000E949D1C0E94AB1CAA3021F00E94AB1C61
:101D6A00AD3019F43150404003C03F5F4F4FE4CFCC
:101D7A000E94B11CECEAF5EC67EA77E30E943A218B
:101D8A0048F40E94B11C0E94C51C09F010F40C947E
:101D9A00CF0E03C00E94CC1CFAC20E94B91CA0E05C
:101DAA00B0E00E94AA1FE1E0FAE00E94BE1CEFC266
:101DBA00E73611F00C942D0FE8E2FAE00E94211C9C
:101DCA00EAE4FAE00E94CF1CE3E7FAE00E94211C51
:101DDA0030E040E03431E0E04E07C4F40E94961C43
:101DEA00FF93EF930E944B15AF91BF910E949D1CE8
:101DFA000E94AB1CAA3021F00E94AB1CAD3019F432
:101E0A003150404003C03F5F4F4FE4CF0E94B11CA6
:101E1A00E0E0F0E066E973E40E943A2158F40E9497
:101E2A00B11C0E94D61C0E943A2109F010F40C94AD
:101E3A001F0F03C00E94CC1CAAC20E94B91CA8E2B0
:101E4A00B0E00E94AA1FE8E9FAE00E94CF1C9FC2F4
:101E5A00EF3611F00C947A0FE2ECFAE00E94211CA2
:101E6A00E6EEFAE00E949C1AE1E1FBE00E94211CE6
:101E7A0030E040E03431E0E04E07C4F40E94961CA2
:101E8A00FF93EF930E944B15AF91BF910E949D1C47
:101E9A000E94AB1CAA3021F00E94AB1CAD3019F491
:101EAA003150404003C03F5F4F4FE4CF0E94B11C06
:101EBA000E94DB1C19F010F00C946C0F0E94B11CEC
:101ECA00E0E0F0E06AEF73EC0E943A2118F40E9415
:101EDA00CC1C5DC20E94B91CA4E2B0E00E94AA1FF9
:101EEA00E8E3FBE00E949C1A52C2E73411F00C941A
:101EFA00C70FE4E6FBE00E94211CE6E8FBE00E9433
:101F0A00E21CEFEAFBE00E94211C30E040E03431A1
:101F1A00E0E04E07C4F40E94961CFF93EF930E94E0
:101F2A004B15AF91BF910E949D1C0E94AB1CAA3019
:101F3A0021F00E94AB1CAD3019F43150404003C06F
:101F4A003F5F4F4FE4CF0E94B11CE0E0F0E86BEB3B
:101F5A0074E40E943A2119F010F00C94B90F0E940F
:101F6A00B11C0E94DB1C18F40E94CC1C10C20E94F7
:101F7A00B91CA0E2B0E00E94AA1FE4EDFBE00E94B7
:101F8A00E21C05C2EF3411F00C941810EEEFFBE0DE
:101F9A000E94211CE2E2FCE00E948C1AEDE4FCE0C3
:101FAA000E94211C30E040E03431E0E04E07C4F4E6
:101FBA000E94961CFF93EF930E944B15AF91BF911D
:101FCA000E949D1C0E94AB1CAA3021F00E94AB1CEF
:101FDA00AD3019F43150404003C03F5F4F4FE4CF5A
:101FEA000E94B11CE0E0F0E068E473E40E943A2148
:101FFA0019F010F00C940A100E94B11CE0E0F0E015
:10200A0068E473EC0E943A2118F40E94CC1CBFC108
:10201A000E94B91CACE1B0E00E94AA1FE4E7FCE010
:10202A000E948C1AB4C1E93411F00C946610E0EAEB
:10203A00FCE00E94211CE9EBFCE00E94E91CEAEDAD
:10204A00FCE00E94211C30E040E03431E0E04E0721
:10205A00C4F40E94961CFF93EF930E944B15AF9114
:10206A00BF910E949D1C0E94AB1CAA3021F00E94C5
:10207A00AB1CAD3019F43150404003C03F5F4F4FA5
:10208A00E4CF0E94B11CECEAF5EC67E277E30E9428
:10209A003A2148F40E94B11C0E94C51C09F010F4B0
:1020AA000C94581003C00E94CC1C71C10E94B91C28
:1020BA00A4E0B0E00E94AA1FE6EFFCE00E94E91C3F
:1020CA0066C1E33411F00C94AF10EBE1FDE00E941D
:1020DA00211CE1E4FDE00E94F01CECE6FDE00E9418
:1020EA00211C30E040E03431E0E04E07C4F40E94A5
:1020FA00961CFF93EF930E944B15AF91BF910E94DC
:10210A009D1C0E94AB1CAA3021F00E94AB1CAD3072
:10211A0019F43150404003C03F5F4F4FE4CF0E9453
:10212A00B11C0E94F41C19F010F00C94A1100E942A
:10213A00B11C0E94FB1C18F40E94CC1C28C10E94EE
:10214A00B91CACE0B0E00E94AA1FE2E9FDE00E94DF
:10215A00F01C1DC1E43411F00C94F810E1ECFDE020
:10216A000E94211CE8EEFDE00E94021DE3E1FEE070
:10217A000E94211C30E040E03431E0E04E07C4F414
:10218A000E94961CFF93EF930E944B15AF91BF914B
:10219A000E949D1C0E94AB1CAA3021F00E94AB1C1D
:1021AA00AD3019F43150404003C03F5F4F4FE4CF88
:1021BA000E94B11C0E94F41C19F010F00C94EA1051
:1021CA000E94B11C0E94FB1C18F40E94CC1CDFC0A8
:1021DA000E94B91CA0E1B0E00E94AA1FE9E3FEE058
:1021EA000E94021DD4C0E63511F00C945111E8E6A4
:1021FA00FEE00E94211CEEE8FEE00E94061DEEEBC6
:10220A00FEE00E94211C30E040E03431E0E04E075D
:10221A00C4F40E94961CFF93EF930E944B15AF9152
:10222A00BF910E949D1C0E94AB1CAA3021F00E9403
:10223A00AB1CAD3019F43150404003C03F5F4F4FE3
:10224A00E4CF0E94B11CE0E0F0E060EC70E40E9490
:10225A003A2119F010F00C943B110E94B11CE0E0F5
:10226A00F0E060E070E40E943A2118F40E94CC1C6D
:10227A008EC00E94B91CA4E1B0E00E94AA1FA4E18A
:10228A00B0E00E94951FA8E1B0E00E94AA1FE7EE05
:10229A00FEE00E94061D7BC0E13411F00C949811F7
:1022AA00EBE1FFE00E94211CE7E3FFE00E940D1D25
:1022BA00EEE5FFE00E94211C30E040E03431E0E02E
:1022CA004E07C4F40E94961CFF93EF930E944B158D
:1022DA00AF91BF910E949D1C0E94AB1CAA3021F0B5
:1022EA000E94AB1CAD3019F43150404003C03F5F2F
:1022FA004F4FE4CF0E94161DE436A0E0FA072CF4F3
:10230A000E94161DDF0110971CF40E94CC1C3FC0CE
:10231A000E94161DACE2B0E00E94B51FE4E8FFE09F
:10232A000E940D1D34C0E83511F0E83729F4EFEAB0
:10233A00FFE00E94211C2DC0E33511F42ED027C0E6
:10234A00EA3511F0EA37E9F40E94FD190E94481AA9
:10235A000E944F1A0E945A1A0E94651A0E946E1A07
:10236A000E94771AE0EDFFE00E948C1A0E94931AED
:10237A00E8EEFFE00E949C1A0E94A31A0E94301CF9
:10238A0006C0E0E0F0E10E94211C0E940F0D0E94AD
:10239A000F0D0E94702169960895EF9721970E9468
:1023AA00682149E15CEF0E94AC1ADE01AE5BBF4FC7
:1023BA00ED93FD936D937C93DE01A25CBF4FED9389
:1023CA00FD936D937C93EAAFFBAF6CAF7DAFEEAB41
:1023DA00FFAB68AF79AFEAABFBAB6CAB7DABEEA7FB
:1023EA00FFA768AB79ABEAA7FBA76CA77DA7EEA30B
:1023FA00FFA368A779A70E94AC1AEAA3FBA36CA360
:10240A007DA3EE8FFF8F68A379A3EA8FFB8F6C8F72
:10241A007D8FEE8BFF8B688F798FEA8BFB8B6C8BB2
:10242A007D8BEE87FF87688B798BEA87FB876C87C2
:10243A007D870E941C1D20E030E00E94301C0E9413
:10244A008C0B309711F00C94B812E8E0F0E0FA9394
:10245A00EA9361D1EEE0F0E1FA93EA93E091320572
:10246A00F09133050E94DE1BE0913405F0913505A9
:10247A000E94DE1BE0913605F09137050E94DE1BB3
:10248A00E0913805F09139050E94DE1BE0913A058A
:10249A00F0913B050E94DE1BE0913C05F0913D0561
:1024AA000E94DE1BE0913E05F0913F050E94DE1B73
:1024BA00E0914005F09141050E94DE1B0E94211D1A
:1024CA0000E010E00830E0E01E0714F00C94AF12B0
:1024DA000E94261DFF93EF93DF010E94781F7F93CE
:1024EA006F93FF93EF930E942E1DAF91BF918F912F
:1024FA009F910E947920AF91BF910E947E1FF8019F
:10250A00DE0116960E94E71EEA0FFB1FFF93EF9368
:10251A00DF010E94781F7F936F93FF93EF930E94CE
:10252A002E1D7F936F93FF93EF930E942E1DAF9101
:10253A00BF918F919F910E94C720AF91BF918F91B8
:10254A009F910E947920AF91BF910E947E1F0F5FD9
:10255A001F4FB8CF2F5F3F4FE8EEF3E00E940B1CEE
:10256A000E94E70A6CCF0E94301C00E010E008309D
:10257A00E0E01E07C4F40E94261DFA93EA93F801CC
:10258A00DE0118960E94E71EEA0FFB1FFA93EA93F0
:10259A003A932A93FA010E94011C0E94831F58D081
:1025AA000F5F1F4FE4CFE0E3F0E1FA93EA930E9452
:1025BA00381DFE01E85BFF4F019011906191708117
:1025CA00F0010E94831FFE01E05BFF4F0190119012
:1025DA0061917081F0010E94831FFE01E85AFF4F4A
:1025EA000190119061917081F0010E94831FFE0198
:1025FA00E05AFF4F0190119061917081F0010E94A1
:10260A00831F0E94211DE2E6F0E1FA93EA930E94F9
:10261A00551D0E94831FE889F9896A897B890E946E
:10262A00831FE88DF98D6A8D7B8D0E94831FE8A137
:10263A00F9A16AA17BA10E94831F0E94381D0E94F2
:10264A00211D0E94E70A0E946F21EF96279608959E
:10265A00AC81BD8113974CF40E94D619A885B9851F
:10266A000E947E1F0E94D61951C0A885B985BF93C2
:10267A00AF930E94781F0E945A1DAF91BF910E948A
:10268A007E1F0E94E7190E945A1D7F936F93FF9342
:10269A00EF930E94CA197F936F93FF93EF930E945F
:1026AA00CA19AF91BF918F919F910E94C720AF9194
:1026BA00BF918F919F910E94BF19AE81BF810E94E5
:1026CA007E1F0E94E719DF01CB01EC81FD810E9488
:1026DA00011C0E94C720DF01CB01EC81FD813197EB
:1026EA000E94011C0E94DB190E94E719DF01CB013D
:1026FA000E945E212CF4AE81BF810E94AC1A08C0F0
:10270A000E94E7190E94831F0E94921EAE81BF8118
:10271A000E947E1F23C11A930A93AA81BB8118972C
:10272A00C9F400E010E00830E0E01E0794F4F80174
:10273A000E94621DFF93EF931A930A930E94DD1A77
:10274A000E94A70BAF91BF91ED93FC930F5F1F4FB0
:10275A00EACF17C0AA81BB81109714F018970CF022
:10276A0010C0EA81FB810E94621DFF93EF93EA8108
:10277A00FB810E94011B0E94A70BAF91BF91ED93B1
:10278A00FC9319810881249608956C9788E0ACE03F
:10279A00B0E0E0EBF0E00E947621AAA9BBA98CA9DF
:1027AA009DA9EAADFBAD6CAD7DAD0E947220DF0143
:1027BA00CB01EEA5FFA568A979A90E94F1190E948B
:1027CA00F619DF01CB01EEA9FFA968AD79AD0E9428
:1027DA00CF190E94691DAAA5BBA58CA59DA50E941B
:1027EA007920E88FF98F6A8F7B8F0E94691DAEA1CD
:1027FA00BFA188A599A50E9479200E94751BE88D22
:10280A00F98D6A8D7B8D0E94721D0E94721D0E9435
:10281A00721D0E94761DEC89FD896E897F890E944E
:10282A007B1D0E947B1D0E947B1D0E94F71BE8896D
:10283A00F9896A897B890E94BA190E94C7200E9475
:10284A00631C0E94C720AE8DBF8D0E947E1FEAA125
:10285A00FBA16CA17DA10E94DF1FA889B9898A8981
:10286A009B890E94C7207F936F93FF93EF930E94E7
:10287A00631C0E94FC1B0E947220AF91BF918F9132
:10288A009F910E94C720AC8DBD8D0E947E1FAE8D88
:10289A00BF8D0E94781F0E94E2190E9479207F93BF
:1028AA006F93FF93EF93AC8DBD8D0E94781FAF910C
:1028BA00BF918F919F910E947920A8A1B9A10E94EE
:1028CA007E1FEE96089524970E94FC1B0E94831F88
:1028DA000E94BD140E945E1C0E94CA197F936F93C6
:1028EA00FF93EF93E885F985A481B5818681978165
:1028FA009F938F93BF93AF93A085B185828593856C
:10290A000E94D6190E94C7200E94E2190E94C7207D
:10291A00AF91BF918F919F910E9479200E94E219F5
:10292A000E94C720AF91BF918F919F910E947920F9
:10293A000E945E1C0E94D6190E946E1C0E94F920F9
:10294A00A0912E05B0912F05809130059091310507
:10295A000E9472200E945E1C0E94D6192A9608952F
:10296A00E991F99130971AF4E095F0953196089526
:10297A0024971A930A930E94821D0E9462212CF0C6
:10298A00EFEFFFEF6FE77FEF7DC00E94EC190E9427
:10299A00831FEDB7FEB73197FA93EA931F930F930C
:1029AA000E94CC1F0F911F910E941C1D0E94821D24
:1029BA00E3EFF4E065E37FE30E943A2150F40E94DA
:1029CA00EC190E94821D0E9479200E941C1D015050
:1029DA0010400E94821D0E94871D0E94BF197F938A
:1029EA006F93FF93EF930E94EC190E946E1C0E9452
:1029FA007920AF91BF918F919F910E94F9200E94F7
:102A0A001C1D0E94EC190E94821D0E94C7200E9470
:102A1A00061CA6E2B2E485E69FE30E94C720DF0116
:102A2A00CB01EEE4F1E164E570E40E94BF190E9473
:102A3A00821D0E94C7207F936F93FF93EF93AA8111
:102A4A00BB818C819D81EDE4F1E164ED7FE30E941D
:102A5A00BF19AF91BF918F919F910E94F9207F93E7
:102A6A006F93FF93EF93F801A8E1B2E781E39FE345
:102A7A000E94011C0E94C720AF91BF918F919F9124
:102A8A000E947920198108812A9608955F9BFECFBA
:102A9A00ECB108955D9BFECFE881ECB921960895CB
:102AAA00A881B9810E94741F309749F0ED91FD9178
:102ABA003196FE93EE933197AA81A08304C0EA81EE
:102ACA00EA930E944F15239608952C970E94682135
:102ADA0000E0EE89FF893196EE8BFF8B3197E49106
:102AEA003E2FE03011F40C941917E02FE03039F43E
:102AFA00353211F401E002C00E948C1D94C1E1300C
:102B0A00C1F4353219F40E948C1D8CC102E0E0E058
:102B1A00E98B10E03D3211F411E085C13B3219F422
:102B2A00EBE2E98B80C1303219F4E0E2E98B7BC138
:102B3A0002C0E23039F440E003E0303311F41068A7
:102B4A0072C102C0E330A1F4303310F03A3308F016
:102B5A0009C0A42FEAE0EA9FF0014E2FE32FE053C9
:102B6A004E0F61C150E03E3211F404E05CC110C066
:102B7A00E430A1F4303310F03A3308F009C0A52F3D
:102B8A00EAE0EA9FF0015E2FE32FE0535E0F4BC1AC
:102B9A003C3619F4126005E046C104C0E53011F074
:102BAA000C941817E32FE33631F40E94931DEC912D
:102BBA000E949A1D37C1E33741F40E94931D0E9477
:102BCA00A11D0E94211E0E2F0AC0E037A1F40E9407
:102BDA00931D0E94A11D0E942B1E0E2F18601F77A5
:102BEA00503011F0501708F001C0052F50E0E0E016
:102BFA00E88B20E06DC0E43611F0E93611F4146078
:102C0A0002C0E537A1F4EAE0E88B11FF08C0E0E072
:102C1A00FAEC6AE97BE30E94761D0AE023C0E0E150
:102C2A00F7E260E070E00E94761D05E01BC0E8351F
:102C3A0011F4186004C0E83711F00C941717E0E19A
:102C4A00E88B11FF08C0E0E0F0E060E070E10E946C
:102C5A00761D08E007C0E0E0F0E160E070E00E9465
:102C6A00761D04E0503011F01F7701C051E011FFCA
:102C7A0005C00E94931D0E94781F0FC012FF07C053
:102C8A000E94931D0E94741F0E94F21E06C00E9499
:102C9A00931D0E94741F66277727EC87FD876E872E
:102CAA007F8712FF14C00E94BA190E945E2144F461
:102CBA000E94A81D0E94DA1E0E94B519EDE2E98B56
:102CCA00E989E03019F00F5F5F5F01C01B7F252F94
:102CDA0010FD14C0041710F4241708F00FC017FFD2
:102CEA0008C012FF04C01B7F3989015001C030E3BC
:102CFA0001C030E20E948C1D4150ECCF0517A0F4B0
:102D0A00106112FF09C01B7FE9890E949A1D403099
:102D1A0009F0415001505150E0E30E949A1D4030A1
:102D2A0009F041505150EACF202FE889E030F1F400
:102D3A002030D9F013FF08C0EE81FF813196EE836F
:102D4A00FF833197E49105C0AE81BF81ED91AE83D7
:102D5A00BF83EA93EB89FC89FA93EA930E9455159B
:102D6A00403009F041502150E3CF53C00E94551D15
:102D7A000E94BA190E943C1F3E2F3A3030F013FFCE
:102D8A0002C0395C01C0395A01C0305D14FD23C04C
:102D9A00313350F40E94631CA130E0E0BE07E0E04A
:102DAA008E07E0E09E0709F40CC0521708F008C02D
:102DBA00421710F010FF01C013C030E217FF0BC01A
:102DCA0030E3106112FF07C01B7FE9890E949A1D38
:102DDA00403009F041500E948C1D403009F04150AA
:102DEA0021500E94551D0E94BA190E94621F0E941A
:102DFA00B519E8890E94631CFF27662777270E9476
:102E0A003C1F0E94761D0E94551D0E945A2109F0FE
:102E1A00ADCF10FF07C0403029F04150E0E20E94D8
:102E2A009A1DF9CF00E055CE0E946F216896089549
:102E3A00FF920E94AD1D0E946A1523C10A93AB81BD
:102E4A00BC81EC910E2FE03019F0E0E0EC9315C054
:102E5A00A981BA810E94741F309761F00E94741F81
:102E6A00E0810E2FE03029F0ED91FD913196FE932D
:102E7A00EE9303C00E944B150E2FE02F0881259672
:102E8A00089527970E946821E0E0EB87EC87E9899B
:102E9A00FA893196E98BFA8B3197E4912E2FE0303B
:102EAA0011F40C943C180E94C71D61F00E94CC1DBD
:102EBA002E2FE03019F00E94C71D09F401C0F6CF89
:102ECA002C87D4C0253211F00C94311840E0E989DE
:102EDA00FA892591E98BFA8B203310F02A3308F00E
:102EEA0009C0A42FEAE0EA9FF0014E2FE22FE05337
:102EFA004E0FEDCF203009F4BAC00E94CC1D3E2FF0
:102F0A00EA930E94171EE030C1F7303009F4A8C0D6
:102F1A003C87403009F44FEF50E0E22FE33639F4B2
:102F2A000E94D61D0E94CC1DD801EC9391C0E337B4
:102F3A00E1F40E94D61DE42F4150E03091F00E9446
:102F4A00CC1D2E2FE03019F00E94C71D09F009C0D0
:102F5A001F930F930F5F1F4FE22FAF91BF91EC9317
:102F6A00EACFD801E0E0EC9373C0EC3631F451E0DB
:102F7A00E989FA892591E98BFA8BE1E0EA87E22F60
:102F8A00E43611F0E93619F4E0E0EA8702C0E537E1
:102F9A0011F43AE009C0E83711F430E105C0E5322E
:102FAA0009F45AC0EB8564C0E0E0EE83EF83E8875A
:102FBA00E987E42F4150E03089F10E94CC1D2E2F81
:102FCA00E132B8F0EA85E03039F42D3219F4EFEF46
:102FDA00EA87EFCFE1E0EA87203358F0213610F094
:102FEA00275505C0213410F0275301C02053231759
:102FFA0010F02C8713C0E32F0E94821DFF2766273B
:10300A0077270E94041FDF01CB01E22FFF276627E3
:10301A0077270E94CC1E0E941C1DCBCFEA850E94F6
:10302A00821D0E94EC1E0E94041F0E941C1D50302B
:10303A0041F00E94D61D0E94EC19D8010E947E1F01
:10304A0007C00E94D61DEE81FF81D801ED93FC9343
:10305A00EB85EF5FEB870AC00E94CC1DE21731F0C7
:10306A00EB85E03011F4EFEF03C001C010CFEB8520
:10307A000E946F2163960895FF920E94AD1D0E94DF
:10308A004617198108812496FF900895B981A8816D
:10309A00EC91EA930E94171EEE2311F01196F8CFD5
:1030AA00E894EC91ED3211F4689402C0EB3209F421
:1030BA00119666277727EC91EA930E940F1EEE235A
:1030CA0081F0E62FF72F660F771F660F771F6E0FB7
:1030DA007F1F660F771FED91FF27E0536E0F7F1F4B
:1030EA00EACFE62FF72F1EF4E095F0953196229657
:1030FA0008952A970E946821E0E0E887E987EA872D
:10310A00EB87A889B989EC914E2FEA930E94171E82
:10311A00E03031F0E889F9893196E88BF98BF1CF03
:10312A00E0E0EF834B3209F404C04D3239F4E1E0B8
:10313A00EF83E889F9893196E88BF98BE0E05E2F15
:10314A004E2F08891989A889B989EC91EA930E94B6
:10315A000F1EE03049F4A889B989AC91EEE20E94C9
:10316A00F71E4E2FE03039F0542BE889F989319651
:10317A00E88BF98BE8CF28893989503011F1E88931
:10318A00F9893197E88BF98BA889B989AC91AE3264
:10319A00C1F0A889B989EC91E05390D3FF2766273B
:1031AA0077270E943B200E947920DF01CB01F9D3C7
:1031BA000E94F92096D4E889F9893197E88BF98B2E
:1031CA00E3CFA0D4CDD0A889B9891197A88BB98BA0
:1031DA00A017B10770F0EC91E053C7D0FF2766271C
:1031EA0077270E943B200E94C72068D353D3E2D49A
:1031FA00EACFD9012F5F3F4F4C91453619F045343C
:10320A0009F04CC0E0E05E2FEE83D9014C914B32BD
:10321A0009F404C04D3221F4E1E0EE832F5F3F4F01
:10322A00D9012F5F3F4FEC914E2FEA930E940F1E58
:10323A00E03041F0A52FEAE0EA9FF001E40FE05305
:10324A005E2FEECF573268F0EF81E03029F0EFEFD2
:10325A00FFEF6FE77FEF2AC0EFEFFFEF6FE77FE740
:10326A0025C040E24FD47CD0403041F01AD378D008
:10327A00E52FE42309F09ED44695F6CFEE81E0309F
:10328A0029F061D41BD30E94F92004C05CD416D360
:10329A000E94C720E887F9876A877B87EF81E03039
:1032AA0021F0FED30E94DF1F1CD4FAD30E946F21A3
:1032BA0062960895E881EFB9779BFECFEFB1219628
:1032CA000895E881E370E883EA81E03019F0E88143
:1032DA00E06AE883A981A13019F4E881E46007C0B3
:1032EA00A981A23019F4E881E86001C0E0E0E8832E
:1032FA0066D4E0E9EA93E98168D430C0E5E86ED49F
:10330A00AC81BD81EC93E3E869D4AA81BB81EC93DB
:10331A00E1E864D4A881B981EC9317C050D4E4E8F9
:10332A0063D4E2E869D4E0E86FD418C0E7E856D479
:10333A00AC81BD81EC93E9E851D4AA81BB81EC93BD
:10334A00EDE84CD4A881B981EC932696089537D438
:10335A00E6E84AD4E8E850D4ECE856D4239608952F
:10336A00EC87FD876E877F870895AC85BD858E853E
:10337A009F8508950E94881F0E9472200895F0DF99
:10338A00EC85FD856E857F850895A885B9850E949F
:10339A00781F08950E94F920E883F9836A837B8362
:1033AA000895E881F9816A817B8108950E94F92054
:1033BA00AE81BF810E947E1F0895A881B9818A814A
:1033CA009B810895AE81BF810E94781F0895EE8186
:1033DA00FF816885798508950E94F920DF01CB0174
:1033EA000895E0E0F0E06AE774E40E94F9200895A5
:1033FA00E8ECF0E0FA93EA9380E00E941D17229627
:10340A00E0EFF0E0FA93EA93E0E1F5E06627772748
:10341A000E94831FEAE1F5E0662777270E94831F4F
:10342A0088E00E941D172A96EBE0F1E0FA93EA93EE
:10343A0080E00E941D172296E5E2F1E0FA93EA93F2
:10344A00ACE2B0E00E949A1F0E94F21E0E94831F03
:10345A0084E00E941D172696E4E4F1E0FA93EA93C9
:10346A00A0E0B0E00E94951F0E94831F84E00E94A2
:10347A001D172696E7E5F1E0FA93EA93A4E0B0E097
:10348A000E94951F08950E94831F84E00E941D17C1
:10349A0026960895EAE6F1E0FA93EA93A8E0B0E006
:1034AA000E949A1F0E94F21EEECFE6E8F1E0FA931C
:1034BA00EA93AAE0B0E00E949A1F0E94F21EE3CFAC
:1034CA00E2E9F1E0FA93EA93ACE0B0E00E94951FDA
:1034DA00DACFE3EBF1E0FA93EA93A0E1B0E00E94DD
:1034EA00951FD1CFE4EDF1E0FA93EA93A4E1B0E0BD
:1034FA000E94951F0E94831FA8E1B0E00E94951FB9
:10350A000E94831F88E00E941D172A960895FA9345
:10351A00EA93ACE1B0E00E94951FB5CFEBE0F2E090
:10352A00FA93EA93A0E2B0E00E94951FACCFFA9317
:10353A00EA93A4E2B0E00E94951FA5CFECE3F2E083
:10354A00FA93EA93A8E2B0E00E94951F9CCFE0E0CC
:10355A00F0E060E070E00895DE01A05CBF4FED93FB
:10356A00FD936D937C930895DE01AC5BBF4FED93A1
:10357A00FD936D937C930895DE01A85BBF4FED9395
:10358A00FD936D937C930895DE01A45BBF4FED9389
:10359A00FD936D937C930895E4E0F0E0FA93EA9347
:1035AA00E5E0F0E0FA93EA930895FA93EA93A6CE57
:1035BA00E0E0F0E0FA93EA930895DE01A45BBF4FDE
:1035CA000D901D908D919C91D0010E94F21E0E9437
:1035DA003B200895E1E0F0E0FA93EA930895DE01D2
:1035EA00A85BBF4F0D901D908D919C91D0010E94B8
:1035FA00F21E0E943B200895FA93EA93D9CFDE0186
:10360A00AC5BBF4F0D901D908D919C91D0010E9493
:10361A00F21E0E943B200895DE01A05CBF4F0D9070
:10362A001D908D919C91D0010E94F21E0E943B2018
:10363A000895E6E0F0E0B9CFA8E0B0E00E949A1F52
:10364A0008950E94781F0E94831F0895A0E0B0E0A9
:10365A000E94951F0E94831F0895A4E2B0E00E9471
:10366A00951F0E94831F0895A8E2B0E00E94951F4B
:10367A000E94831F0895AAE0B0E00E949A1F0E9448
:10368A00F21E0E943B200E94831F0895ACE0B0E026
:10369A000E94951F08950E94831FA8E1B0E00E942E
:1036AA00951F08950E94831FFE01F496FA93EA93E8
:1036BA00FE01F296FA93EA93FE01F096FA93EA93E0
:1036CA000E94BB08EC8DFD8D6E8D7F8D0E94831F3D
:1036DA00EC8DFD8D6E8D7F8D0E94831F0C94940856
:1036EA00EC8BFD8B6E8B7F8B0895A0E1B0E00E947E
:1036FA00951F0895E88BF98B6A8B7B8B0895A4E05C
:10370A00B0E00E94951F0E94831F0895ACE1B0E0CB
:10371A000E94951F0E94831F0895A0E2B0E00E94B4
:10372A00951F0E94831F0895ECA1FDA16EA17FA1A0
:10373A000E94831F0895E9E0F0E0FA93EA93EAE031
:10374A00F0E0FA93EA93EBE0F0E0FA93EA93EECD35
:10375A00FA93EA93ACE2B0E00E949A1F0E94F21E2A
:10376A000E94831F0895EB2DFF27662777270E9463
:10377A00831FEA2DFF27662777270E94831FE92DDB
:10378A00FF27662777270E94831F0895E42DFF27C6
:10379A00662777270E94831FE52DFF27662777274D
:1037AA000E94831FE62DFF27662777270E94831F23
:1037BA0008950E94F21E0E94831F08950E94831F8B
:1037CA00FE01E25CFF4F0190119061917081F0015E
:1037DA000895E5E0F0E0FA93EA93FCCE0E94A70B85
:1037EA008F010895EC83FD836E837F830895EC81B6
:1037FA00FD816E817F8108950E94F21E0E943B2006
:10380A000895EA83FB836C837D830895FA93EA9390
:10381A000C94361EE0E1F5E0662777270E94831FA5
:10382A00EAE1F5E0662777270E94831F089588E07A
:10383A000E941D172A960895FA93EA9380E00E943F
:10384A001D17229608958CE00E941D172E96089542
:10385A00FA93EA9388CFEDEEF0E0EECF220F331F12
:10386A00569547955695479556954795F9010E945D
:10387A00E31EE40FF51FEA87FB870895ECA1FDA17B
:10388A00662777270E943B200895A88DB98D8A8DD7
:10389A009B8D08950E947920E887F9876A877B873C
:1038AA000895EC85FD856E857F855FDD0E94C720C2
:1038BA000895E883F9836A837B830895A885B98587
:1038CA008A859B85089516DFE889F9896A897B8943
:1038DA000895A0E0B0E080E89FE30895E42DF0E0C9
:1038EA00A0E1BEE00E94FC1EBF01A52DECE3EA9F09
:1038FA00F001DB01F0E0AE0FBF1FE62DF0E0EA0FAA
:10390A00FB1F6627772708950E94831F8CE00E9479
:10391A0041182E960895FA93EA938EDE0E94F21EBB
:10392A00B2CDE32FF42FDE011D96EA0FFB1F089597
:10393A00EC93ECE5F9E0FA93EA93DE011F96A30F04
:10394A00B41FEC91FF27662777279DCDDE011D96D0
:10395A00A30FB41FAC910895FE013D96FA93EA9322
:10396A00C8DBDF01CB010895FE013D96FA93EA9385
:10397A00C0CBFA93EA93A0E0B0E00E94951F83CDF2
:10398A00E5E9FFEB66ED73E30E943A210895E0EF63
:10399A00F9E052CFFA93EA93A8E2B0E00E94951FA9
:1039AA0072CDE0E0F0E060E271E40895E0E0F0E07A
:1039BA006AEF73E40E943A210895FA93EA93A0E227
:1039CA00B0E00E94951F5FCDFA93EA93A4E0B0E0BD
:1039DA000E94951F58CDFA93EA9358DE54CDE0E041
:1039EA00F0E46CE177E40E943A210895E0E0F0E423
:1039FA006CE975E40E943A210895FA93EA9375DE18
:103A0A0042CDFA93EA93A4E1B0E00E94951F3BCD20
:103A1A00FA93EA93ACE2B0E00E949A1F0E94F21E67
:103A2A0032CDFE013D96FA93EA930C944B18EE833D
:103A3A00FF8368877987089580E20E941D17A296FE
:103A4A000895F801DE0196960E94E71EEA0FFB1F11
:103A5A000895F801A2E3B5E0EE0FFF1FAE0FBF1FF6
:103A6A000E94741FC9CEE8A5F9A56AA57BA50E9484
:103A7A00831FE8A9F9A96AA97BA90E94831FE8AD57
:103A8A00F9AD6AAD7BAD0E94831FFE01E05CFF4F7A
:103A9A000190119061917081F0010E94831F089535
:103AAA00E885F9856A857B850895DF01CB01EC817C
:103ABA00FD81A2DE0E94F9200895A2E3B5E0EE0F8F
:103ACA00FF1FEA0FFB1F0895E0912E05F0912F05C5
:103ADA0060913005709131050895D7DE0E94C720A4
:103AEA000895E887F9876A877B870895AC89BD8935
:103AFA008E899F890E94C7200895AE81BF818885DB
:103B0A0099850895E0E0F0E060E87FE308953A934C
:103B1A00EB89FC89FA93EA930C945515AC89BD8913
:103B2A001497AC8BBD8B14960895EA93EB89FC89A4
:103B3A00FA93EA930C9455150E94741FEE83FF833F
:103B4A00FA93EA930895EC85FD856E857F8508953D
:103B5A00F82E22971A930A93DE010E94C81E8D013D
:103B6A00E0E0EA83EB83DE0114960E94C81E0E94FD
:103B7A00741FFA93EA931A930A93FE013696FA93FC
:103B8A00EA9308952A930E94171EE0300895FE01D1
:103B9A003C96FA93EA93EF85F889FA93EA930C94A0
:103BAA002317AF85B8891497AF87B88B14960D91F0
:103BBA001C910895DADBF5DE0E94C720D1CBEEE82E
:103BCA00EA93E0E0EA930C94701EEA930E94701E56
:103BDA00EEE8EA93E0E8EA930C94701EEA930E94F6
:103BEA00571EEA930C94421EEA93EB81EA930E94D1
:103BFA004E1EEA930C94701EEA93EA81EA930E949D
:103C0A004E1EEA930C94701EEA93E981EA930E948D
:103C1A004E1EDBCFE1E0F991F03310F0FA3308F0F1
:103C2A00EE270895E1E0F991F03229F0F93010F029
:103C3A00FE3008F0EE270895A991B991EE27FF27E3
:103C4A006D91662311F03196FBCF0895AA27BB2701
:103C5A00E991F9910590002011F01196FBCFFD0131
:103C6A000895E991F991309639F08AE993E001973C
:103C7A00F1F7A8953197C9F70895E881E295EF70B1
:103C8A00AE2FAA0FAA0FEA0FEE0FA991AF70EA0F93
:103C9A000895A991EE27AA5012F0E05FFCCFA65F23
:103CAA00EA0F0895E991E1601DD0C498BC98A8E094
:103CBA008894B4990894E795C59A82E08A95F1F7B1
:103CCA00C59882E08A95F1F7AA9591F7C69886E099
:103CDA008A95F1F70895E981EE7F04D0E88109D049
:103CEA002296F4CFBD9ABC9ABE9AC69A86E08A9565
:103CFA00F1F7A8E0E795C49808F4C49A0000000018
:103D0A0000000000C59A82E08A95F1F7C59882E022
:103D1A008A95F1F7AA9571F7089524975F939F8181
:103D2A00992311F4289622C212F4289625C24F9399
:103D3A0042E48E81BD81AC8188839983AA83BB8347
:103D4A00FD01BC01AC81BD818E819F814DD28881EC
:103D5A009981AA81BB81C8D14DD17A9531D1888107
:103D6A009981AA81BB81AE27A87F21F4BF17860754
:103D7A00970729F04A9519F0DF01CB01DDCF4F9162
:103D8A005F91289608950024AF0DB01D0895EA0F9B
:103D9A00FB1F681F791F0895EA1BFB0B680B790B41
:103DAA000895E095F09531960895E095F09560951F
:103DBA007095EF5FFF4F6F4F7F4F0895EE0FFF1F14
:103DCA00EE0FFF1FEE0FFF1FEE0FFF1F0895FE2FCE
:103DDA00FF0FFF0B6F2F7F2F08956F2F660F660B54
:103DEA00762F0895EA17E1E009F0EE270895FA9F81
:103DFA00F02DEB9FF00DEA9FE02DF10D08957A9FCB
:103E0A00702D6B9F700DF89F700DE99F700D6A9F62
:103E1A00602D710DFB9F600D711DE89F600D711D76
:103E2A008827FA9FF02D610D781FEB9FF00D611D19
:103E3A00781FEA9FE02DF10D681F781F089500246E
:103E4A00112490E1AA0FBB1F001C111C0E1A1F0A95
:103E5A0018F40E0E1F1E01C0A1609A9599F7FD0174
:103E6A00D00108952ED0EBDF0EF49BDF08953F9327
:103E7A004F935F93002411243327442750E2AA0F5B
:103E8A00BB1F881F991F001C111C331F441F0E1AC9
:103E9A001F0A360B470B28F40E0E1F1E361F471F2C
:103EAA0001C0A1605A9559F7FD01BC01D001832FC9
:103EBA00942F5F914F913F910895D9DFFD01BC0185
:103ECA000895E894F7FF02C06CDF6894B7FF06C054
:103EDA00A095B095119600F8039400FA0895ED9113
:103EEA00FC9111970895ED91FD916D917C91139735
:103EFA000895ED93FD936D937C9308957A936A9355
:103F0A00FA93EA930895182E862F612D192E972F6A
:103F1A00712D1B2EBF2FF12D1A2EAE2FE12D0895D4
:103F2A00129603D07F2F6E2F1297119602D0FE2F72
:103F3A001197E199FECFFF93FFB7F894AEBBBFBBD1
:103F4A00E09AEDB3FFBFFF9108950AD012960E2EA4
:103F5A001F2EE62FF72F04D0E02DF12D129708958A
:103F6A0007D01196EF93EF2F03D0EF911197089591
:103F7A00E199FECF9FB7F894AEBBBFBBE09A8DB371
:103F8A00E81719F0EDBBE29AE19A9FBF0895A9914B
:103F9A00B991E991F9916991799177FB660F771F48
:103FAA0088277E57880B7D938C937EE77695679555
:103FBA000EF0089530976040704009F070580895E7
:103FCA0050E8572711F45F93D1C05F3F31F0660F75
:103FDA00000C57956795752F08955F9300200AF096
:103FEA00CBC0BEC050E8192E1522880F991F9527FD
:103FFA00550F879550E8072E0522660F771F7527FC
:10400A00550F679508955F93F5DF703818F07F3F75
:10401A0008F4ACC056E1571B92F45195583028F079
:10402A00EFEFFFEF6FEF7FE71AC077275523B9F05D
:10403A00EE0FFF1F661F771F5A95D1F710C077271B
:10404A00583028F0EF2FF62F672F5850F9CF552305
:10405A0031F076956795F795E7955A95D1F700204F
:10406A000AF4A3DE5F910895689401C0E89430973A
:10407A0060407040B1F0002426F0772312F40094D7
:10408A0094DE172E7EE1112032F07A95EE0FFF1F93
:10409A00661F111CF9CFEF2FF62F612D5F9390DF6A
:1040AA005F9108955E2FEA2FA52F5F2FFB2FB52F63
:1040BA00562F682F852F572F792F952F502D012C8A
:1040CA00152E0895EA0FFB1F681F0895E095F095D5
:1040DA006095EF5FFF4F6F4F08955F9383DF9038CE
:1040EA0071F150E8152604C05F937CDF903839F1EE
:1040FA00703821F1572F591B13F112F4D3DFFACF7D
:10410A00583118F0AA27BB278827583028F0AB2F38
:10411A00B82F88275850F9CF552329F08695B79597
:10412A00A7955A95D9F7502D512562F0CBDF38F46F
:10413A006795F795E795739513F41EC0B3DF40DFD3
:10414A005F910895EA1BFB0B680B81F010F4009451
:10415A00BDDF6623A2F3EE0FFF1F661F7A95CBF72A
:10416A00EFEFFFEF6FE77FEF5F910895EE27FF27ED
:10417A00662777275F910895EFEFFFEF6FE77FE7F5
:10418A005F9108955F932EDF703881F3903871F351
:10419A0001240894791F23F44CF300200AF3ECCF8E
:1041AA003F934F93112433274427552798E1330F20
:1041BA00441F551FEE1FFF1F661F30F43A0F4B1F97
:1041CA00581FE11DF11D611D9A9589F74F913F9185
:1041DA0066232AF0550FEE1FFF1F661F02C0739554
:1041EA00E3F2EEDE5F9108955F93FCDE703819F416
:1041FA00112012F6B5CF903809F4B8CF01240894EB
:10420A00970B1BF4D4F30020F4CF792F6695F7951A
:10421A00E7958695B795A7954F9311244427552777
:10422A0098E1AE17BF07860728F0AE1BBF0B860BB7
:10423A00089401C08894111C441F551FAA1FBB1F54
:10424A00881F9A9571F7E12DF42F652FA695E91F1E
:10425A00F91F691F4F9166232AF0EE0FFF1F661F91
:10426A007A955BF2ADDE5F91089599239AF07723F0
:10427A0042F0971748F029F4AE17BF07860720F0D7
:10428A0031F098948894089598940894089518940D
:10429A00889408957723C2F7971798F3A9F7EA172E
:1042AA00FB07680788F399F3ECCF309760407040BA
:1042BA000895109780409040089500240A160B062E
:1042CA000806090608955A934A933A932A931A9329
:1042DA000A9308955D814C813B812A811981088165
:1042EA000895AC0FBD1F05900D928A95E1F70895C8
:00000001FF
