:020000000C945E
:1000020020080C9400000C9400000C9400000C9446
:1000120000000C9400000C9400000C9400000C945E
:1000220000000C9400000C9400000C9400000C944E
:1000320000000C9400000C9400000C9400000C943E
:1000420000000C9400000C9400000C9400000C942E
:1000520000000C9400000C9400000C9400000C941E
:1000620000000C9400000C9400000C9400000C940E
:1000720000000C9400000C9400000C9400000C94FE
:1000820000000C9400000C94000012CF5B3B39A2DC
:10009200AC3980348A3690E030B4312E3137620088
:1000A200323030392C30332C313233938843B96CAF
:1000B200863A0D617B39389325340D0A2A2A2A2083
:1000C200524144494F4D4554455220414E414C4FB7
:1000D2004720544F204449474954414C20494E54EB
:1000E200455246414345202852414429202A2A2A82
:1000F2000D0A0020536F667477617265205665722F
:1001020073696F6E2025732C2025730D0A0020441D
:1001120069676974616C20496E74657266616365B2
:1001220020426F617264202D2052657620432E207A
:1001320046656220323030390D0A002043757272F2
:10014200656E7420454550524F4D2076616C756541
:10015200733A0D0A00204964656E746966696572B6
:10016200204865616465723D20245749522530322A
:10017200640D0A002050535020436F6566663D208F
:10018200252E32450D0A002050495220436F6566E4
:10019200663D20252E32450D0A0020496E74657297
:1001A20076616C2054696D65202873656373293DFF
:1001B2002025640D0A0020436D61783D2025640DE1
:1001C2000A00205265666572656E6365205265732A
:1001D2006973746F7220436173653D20252E316609
:1001E2000D0A00205265666572656E636520526570
:1001F200736973746F7220446F6D653D20252E31D3
:10020200660D0A002056746865726D3D20252E34F5
:10021200662C20566164633D20252E34660D0A004B
:100222002050495220414443204F66667365743D15
:1002320020252E3266206D760D0A0020504952206C
:10024200414443204761696E3D20252E32660D0AE6
:10025200002050535020414443204F66667365741A
:100262003D20252E3266206D760D0A002050535017
:1002720020414443204761696E3D20252E32660DA0
:100282000A002049442020202044415445202020B7
:1002920020202054494D45202020202020202320AA
:1002A2002020504952202020204C5720202020205E
:1002B200205443415345202054444F4D4520202093
:1002C20020205357202020542D41565220202042D6
:1002D2004154540D0A002D2D2D2D2D2D2D2D2D2D5A
:1002E2002D2D2D2D2D2D2D2D2D2D2D2D2D2D2D2D3C
:1002F2002D2D2D2D2D2D2D2D2D2D2D2D2D2D2D2D2C
:100302002D2D2D2D2D2D2D2D2D2D2D2D2D2D2D2D1B
:100312002D2D2D2D2D2D2D2D2D2D2D2D2D2D2D2D0B
:100322002D2D2D2D2D2D2D0D0A002457495225300E
:1003320032642C253032642F253032642F2530323E
:10034200642C253032643A253032643A25303264E6
:100352002C2534642C25372E31662C25372E326617
:100362002C25362E32662C25362E32662C25372E3B
:1003720032662C25352E31662C25352E31660D0A36
:1003820000436F6D6D616E643F3E000D0A54494D2E
:10039200454F55543A2052657475726E20746F2021
:1003A20073616D706C696E670D0A00574952253092
:1003B200326420424F41524420285245562042295D
:1003C2002056455253494F4E3A2025732C2056450C
:1003D2005253494F4E20444154453A2025730D0A49
:1003E2000043757272656E74206461746574696D20
:1003F200653A202530326425303264253032642C4F
:100402002530326425303264253032640D0A0020F2
:100412002D2D2D2D2D5053502053455454494E47C8
:10042200530D0A00276B27202D2D3E536574205053
:10043200535020636F656666696369656E74202830
:10044200252E324520762F28572F6D5E3229290D11
:100452000A00276727202D2D3E53657420505350E4
:1004620020616D706C6966696572206761696E20D2
:1004720076616C75652E2028252E3166290D0A00BD
:10048200276F27202D2D3E53657420505350206135
:100492006D706C6966696572206F66667365742C2F
:1004A200206D762E2028252E3166206D76290D0AA4
:1004B20000202D2D2D2D2D504952205345545449A5
:1004C2004E47530D0A00274B27202D2D3E536574AE
:1004D2002050495220636F656666696369656E7470
:1004E2002028252E324520762F28572F6D5E32295F
:1004F200290D0A00274727202D2D3E5365742050D1
:10050200495220616D706C69666965722067616924
:100512006E2076616C75652E2028252E3166290D98
:100522000A00274F27202D2D3E5365742050495233
:1005320020616D706C6966696572206F66667365AD
:10054200742C206D762E2028252E3166206D76297A
:100552000D0A00274327202D2D3E53657420436149
:10056200736520527265662028252E3166206F68D9
:100572006D73292E0D0A00274427202D2D3E536529
:100582007420446F6D6520527265662028252E31D5
:1005920066206F686D73292E0D0A00275627202DBD
:1005A2002D3E53657420546865726D6973746F7261
:1005B200205265666572656E63652026204144435C
:1005C200205265666572656E636520566F6C746154
:1005D20067652028252E3166206D56292E0D0A00CA
:1005E200202D2D2D2D2D2D2D2D2D444154452026F0
:1005F2002054494D452053455454494E472D2D2DE5
:100602002D2D2D2D2D2D2D2D2D2D2D2D2D2D2D2D18
:100612002D2D2D2D2D2D2D2D0D0A00275427202D6A
:100622002D3E5365742074686520646174652F746F
:10063200696D652E0D0A00202D2D2D2D2D2D2D2DB0
:100642002D54494D494E472053455454494E472D48
:100652002D2D2D2D2D2D2D2D2D2D2D2D2D2D2D2DC8
:100662002D2D2D2D2D2D2D2D2D2D2D2D2D2D2D0DD8
:100672000A00274C27202D2D3E536574204F757498
:100682007075742074696D6520696E207365636F7F
:100692006E64732E20282564290D0A00202D2D2D2D
:1006A2002D2D2D2D2D2D2D2D2D2D2D2D2D2D2D2D78
:1006B2002D2D2D2D2D2D2D2D2D2D2D2D2D2D2D2D68
:1006C2002D2D2D2D2D2D2D2D2D2D2D2D2D2D2D2D58
:1006D2002D2D2D2D0D0A00275327202D2D3E536140
:1006E2006D706C6520313220626974204120746F14
:1006F20020442E0D0A00274127202D2D3E436861FC
:100702006E6765204964656E746966696572205317
:100712007472696E672E202825303264290D0A0012
:10072200275827202D2D3E457869742074686973F7
:10073200206D656E752C2072657475726E20746FF3
:10074200206F7065726174696F6E2E0D0A003D3DF7
:100752003D3D3D3D3D3D3D3D3D3D3D3D3D3D3D3DC7
:100762003D3D3D3D3D3D3D3D3D3D3D3D3D3D3D3DB7
:100772003D3D3D3D3D3D3D3D3D3D3D3D3D3D3D3DA7
:100782003D3D3D3D3D3D3D0D0A0053797374656D20
:10079200206461746574696D65202879794D4D64B2
:1007A2006468686D6D737329206973202530326423
:1007B200253032642530326425303264253032648B
:1007C200253032640D0A00456E746572206E6577BD
:1007D200206461746574696D652065786163746C09
:1007E20079202879794D4D646468686D6D73732939
:1007F2003A2020006461746574696D6520657272C7
:100802006F722C2025630D0A006461746574696D32
:1008120065206572726F72320D0A000D0A6461748E
:100822006574696D6520737472696E67203D202559
:10083200730D0A007972203D2025640D0A0064615F
:10084200746574696D65206572726F720D0A00536A
:100852006574206461746574696D653A202530326F
:100862006425303264253032642C253032642530E0
:100872003264253032640D0A004368616E67652078
:100882004F757470757420496E74657276616C2050
:10089200696E20736563730D0A0043757272656E2B
:1008A2007420496E74657276616C2069733A2025F2
:1008B2006420736563730D0A00456E746572206E61
:1008C2006577206F757470757420696E74657276C1
:1008D200616C20696E20736563733A2000256300A2
:1008E2000D0A4F7574206F662052616E67652E0D7A
:1008F2000A000D0A4C6F6F7074696D652069732070
:100902006E6F772073657420746F20256420736581
:10091200636F6E64732E0D0A004368616E67652013
:1009220050535020436F656666696369656E740D46
:100932000A0043757272656E742050535020436FE3
:10094200656666696369656E742069733A20252E4F
:1009520032450D0A00456E746572204E657720504F
:10096200535020436F656666696369656E743A2009
:10097200000D0A4F7574206F662052616E67650D17
:100982000A000D0A50535020436F65666669636919
:10099200656E74206973206E6F772073657420749E
:1009A2006F20252E32450D0A004368616E6765206F
:1009B20050535020416D706C6966696572204761C1
:1009C200696E2056616C75650D0A00437572726519
:1009D2006E742050535020416D706C696669657267
:1009E200204761696E2056616C75653A20252E326A
:1009F200660D0A00456E746572204E65772050536D
:100A02005020416D706C6966696572204761696E3C
:100A12002056616C75653A20000D0A5053502041F2
:100A22006D706C6966696572204761696E206973D1
:100A3200206E6F772073657420746F20252E3266C6
:100A42000D0A004368616E67652050535020416D66
:100A5200706C6966696572204F66667365742056AC
:100A6200616C75650D0A0043757272656E74205073
:100A7200535020416D706C6966696572204F6666DD
:100A82007365742056616C75653A20252E32660DA9
:100A92000A00456E746572204E65772050535020CF
:100AA200416D706C6966696572204F666673657424
:100AB2002056616C75653A20000D0A505350204152
:100AC2006D706C6966696572204F66667365742025
:100AD2006973206E6F772073657420746F20252EE2
:100AE20032660D0A004368616E67652050495220E4
:100AF200416D706C6966696572204761696E205646
:100B0200616C75650D0A0043757272656E742050D2
:100B1200495220416D706C6966696572204761694E
:100B22006E2056616C75653A20252E32660D0A00DC
:100B3200456E746572204E65772050495220416D92
:100B4200706C6966696572204761696E2056616CD6
:100B520075653A20000D0A50495220416D706C694A
:100B620066696572204761696E206973206E6F77CE
:100B72002073657420746F20252E32660D0A00439F
:100B820068616E67652050495220416D706C6966DC
:100B9200696572204F66667365742056616C75656F
:100BA2000D0A0043757272656E74205049522041DD
:100BB2006D706C6966696572204F66667365742034
:100BC20056616C75653A20252E32660D0A00456E17
:100BD200746572204E65772050495220416D706CC9
:100BE2006966696572204F66667365742056616C2A
:100BF20075653A20000D0A50495220416D706C69AA
:100C020066696572204F6666736574206973206E2B
:100C12006F772073657420746F20252E32660D0A5B
:100C2200004368616E67652050495220436F6566D4
:100C320066696369656E740D0A0043757272656E4A
:100C4200742050495220436F656666696369656E18
:100C5200742069733A2025450D0A00456E74657249
:100C6200204E65772050495220436F65666669635E
:100C720069656E743A20000D0A50495220436F652F
:100C82006666696369656E74206973206E6F77208A
:100C920073657420746F2025450D0A004368616EE8
:100CA20067652043617365205265666572656E6390
:100CB20065205265736973746F7220285238290D4A
:100CC2000A0043757272656E742043617365205227
:100CD20065666572656E6365205265736973746FCC
:100CE200722069733A20252E31660D0A00456E7412
:100CF2006572204E65772043617365205265666593
:100D020072656E636520526573697374616E6365A3
:100D12003A20000D0A43617365205265666572656B
:100D22006E6365205265736973746F7220697320F4
:100D32006E6F772073657420746F20252E31660DD7
:100D42000A004368616E676520446F6D65205265D5
:100D5200666572656E6365205265736973746F723E
:100D620020285239290D0A0043757272656E74206B
:100D7200446F6D65205265666572656E63652052CB
:100D820065736973746F722069733A20252E316618
:100D92000D0A00456E746572204E657720446F6DB2
:100DA20065205265666572656E636520526573697A
:100DB2007374616E63653A20000D0A446F6D65209D
:100DC2005265666572656E636520526573697374F8
:100DD2006F72206973206E6F772073657420746F51
:100DE20020252E31660D0A004368616E6765205426
:100DF2006865726D6973746F72205265666572659B
:100E02006E636520566F6C746167650D0A004375E9
:100E12007272656E7420546865726D6973746F7254
:100E2200205265666572656E636520566F6C7461EB
:100E320067652069733A20252E346620566F6C74DC
:100E4200730D0A00456E746572204E6577205468F2
:100E520065726D6973746F72205265666572656E34
:100E6200636520566F6C746167652028766F6C6FBE
:100E72007473293A20000D0A546865726D6973749F
:100E82006F72205265666572656E636520566F6C7F
:100E920074616765206973206E6F772073657420B3
:100EA200746F20252E346620766F6C74730D0A00E1
:100EB2004368616E6765204964656E746966696539
:100EC2007220416464726573730D0A004375727215
:100ED200656E74204964656E746966696572204145
:100EE2006464726573733A20245749522530326420
:100EF2000D0A00456E746572204E6577204964655F
:100F02006E746966696572204164647265737320E8
:100F12002830302D3939293A20000D0A4964656E8E
:100F220074696669657220537472696E67206E6FA8
:100F3200772073657420746F3A2024574952253004
:100F420032640D0A0052455455524E20544F2053DC
:100F5200414D504C450D0A00496E76616C69642022
:100F62006B65790D0A002537642025376420253703
:100F720064202537642025376420253764202537EF
:100F820064202537640D0A0025372E326620253766
:100F92002E32662025372E32662025372E326620E5
:100FA20025372E32662025372E32662025372E32FF
:100FB200662025372E32660D0A0025372E3266202E
:100FC20025372E32662025372E32662025372E32DF
:100FD200662025372E32662025372E3266202537A9
:100FE2002E32662025372E32660D0A0D0A002D4E4E
:100FF200414E000001002D4E414E00000400040548
:101002008C000000040008059000000004000C059C
:101012009400000004001005980000000500160569
:101022009C0000000A002005A20000000400000548
:10103200AC00000001004405F60F00000000F89427
:10104200EE27ECBBF1E0F5BFE5BFE0936C00F8E101
:10105200F1BDE1BD8DE0A2E0BB27ED938A95E9F7F2
:1010620080E090E1A0E0B1E0ED930197E9F78BBF5A
:10107200EEEFFFE0D0E0DBBF87919791009781F020
:10108200A791B79107901790C791D791BF01DBB78E
:10109200F001CBBF07900D920197E1F7FB01EBCF77
:1010A200EFEFEDBFE0E1EEBFC0E0D5E00C945908F0
:1010B200EF976597E0E0E0931405E0931505AAE049
:1010C200B0E0E0E0F8E00E9456220E9486100E9402
:1010D2007910ECEBF0E060E070E00E94971CE5EF25
:1010E200F0E060E070E00E949E1C88E00E946D19B2
:1010F2002C96E0E1F1E060E070E00E94971CEDE3E5
:10110200F1E060E070E00E94971CE7E5F1E060E04A
:1011120070E00E94AD1C0E94B81CE6E7F1E060E0BE
:1011220070E00E94BD1C0E94B81CE9E8F1E060E09A
:1011320070E00E94C61C0E94B81CECE9F1E060E07D
:1011420070E00E94CF1C0E94DA1CE4ECF1E060E047
:1011520070E00E94E91C0E94B81CE5EEF1E060E03C
:1011620070E00E94F21C0E94B81CE6E0F2E060E02F
:1011720070E00E94FB1C0E94041D88E00E946D1911
:101182002C96E2E2F2E060E070E00E940B1DEDE3DB
:10119200F2E060E070E00E94141D0E94B81CE3E5DA
:1011A200F2E060E070E00E941D1DEEE6F2E060E019
:1011B20070E00E94261D0E94B81C0E942F1D0E94F2
:1011C200341D0E94391D0E943F1DECABFDAB6EAB7E
:1011D2007FABE8AFF9AF6AAF7BAFECAFFDAF6EAFFD
:1011E2007FAFDE01A05CBF4FED93FD936D937C93C7
:1011F2000E94441D0E944C1D0E94541D0E945C1DB1
:10120200E0E0E8ABE9ABEAABEBAB0E94641D0F0197
:10121200A8E0B0E00E943E22D0010E94BB216F01F3
:10122200A8E0B0E00E943E22D60111960E949021D1
:101232006F010E94641D5F010E94F610309761F0F9
:101242000E9471161E2F143509F41ED1183421F490
:101252000E942F1D0E94341DAC14BD0454F4E0E121
:10126200FEE0EC15FD0521F400240A140B0409F03C
:1012720001C03BC00E947E1D0E947E1DBFD70E94FE
:10128200831D0E948C1D0E945C1D0E94931D0E9462
:101292007E1DB4D70E94981D0E948C1D0E94541D71
:1012A200E2E0F0E00E94A11DA9D70E94A41D0E94C5
:1012B2008C1D0E944C1DE3E0F0E00E94A11D9ED710
:1012C2000E94AD1D0E948C1D0E94441DE4E6F0E0C8
:1012D2000E94B61D0E94BA1DEF5FFF4F6F4F7F4FF6
:1012E200E8ABF9AB6AAB7BABA4CF02D70E94BA1DC5
:1012F2000E94831D0E94BF1D0E945C1D0E94BA1D98
:101302000E94981D0E94BF1D0E94541D0E94BA1D7A
:101312000E94A41D0E94BF1D0E944C1D0E94BA1D66
:101322000E94AD1D0E94BF1D0E94441DA9D6ECA7BC
:10133200FDA76EA77FA7BFD6ECA3FDA36EA37FA3D5
:101342007FD6E8A7F9A76AA77BA70E94C41D0E94BF
:10135200BD1CA4E2B0E00E943A220E94261DFE01BA
:101362007C96FA93EA930E94BA14FE01E85BFF4F5F
:101372000190119061917081F0010E94CD1D0E9437
:10138200E91C0E94041D0E94041D0E94D81D0E9497
:10139200F41DFE01EC5BFF4F019011906191708191
:1013A200F0010E94CD1D0E94F21C0E94041D0E94A9
:1013B200041D0E94D81DE88BF98B6A8B7B8BFE0182
:1013C200E45BFF4F0190119061917081F0010E94E6
:1013D200C61CACE1B0E00E943A220E94141D0E9499
:1013E200F91D0E94F91DE0E0F0E060E870E40E945F
:1013F2002822FE01B496FA93EA93FE01B296FA937A
:10140200EA93FE01B096FA93EA930E94D7140E94DF
:10141200001EECE2F3E060E070E00E94AD1C0E946E
:101422001C1E0E94C41D0E942822FE01E059FF4F8B
:101432000190119061917081F0010E9428220E9416
:10144200BA1D0E94411E0E94411E0E94411E0E941E
:101452002822FE01E05AFF4F0190119061917081A4
:10146200F0010E942822FE01E859FF4F01901190DD
:1014720061917081F0010E9428228CE30E946D1913
:10148200EF962196A0CEFFCF6B970E943324E3E81C
:10149200F3E060E070E00E94971C0E944C1E0E94E4
:1014A200701EA3D6309721F00E9471161E2F1DC008
:1014B2000E944C1E0E94751E0E947A1E0E947F1E70
:1014C2000E945E21FA93EA930E948D197F9760F041
:1014D200EDE8F3E060E070E00E94971CE1E0F0E0EC
:1014E2000E943A24A1960895DCCFE12FEF3321F038
:1014F200EF3211F00C94260B0E94001E0E94841EF3
:10150200EDEAF3E060E070E00E942822ACE2B0E095
:101512000E943E220E947E210E949E1C8CE00E941C
:101522006D196096E1E1F1E060E070E00E94971CC5
:101532000E94891E0E94901EE1E1F4E060E070E0EA
:101542000E94971CE6E2F4E060E070E00E94BD1C9D
:101552000E94B81CE4E5F4E060E070E00E94261D01
:101562000E94B81CE2E8F4E060E070E00E941D1DF9
:10157200E3EBF4E060E070E00E94971CE8ECF4E03A
:1015820060E070E00E94C61C0E94B81CE6EFF4E026
:1015920060E070E00E94141D0E94B81CE4E2F5E0D5
:1015A20060E070E00E940B1DE5E5F5E060E070E0B0
:1015B2000E94E91C0E94B81CE9E7F5E060E070E0D7
:1015C2000E94F21C0E94B81CEDE9F5E060E070E0B8
:1015D2000E94FB1C0E94B81C0E94DA1CE2EEF5E09D
:1015E20060E070E00E94971CEDE1F6E060E070E0E0
:1015F2000E94971CE9E3F6E060E070E00E94971C0D
:10160200E4E7F6E060E070E00E94CF1CEEE9F6E06D
:1016120060E070E00E94971CE9EDF6E060E070E0A7
:101622000E94971CE8EFF6E060E070E00E94AD1CBB
:101632000E94B81CE2E2F7E060E070E00E94971CB2
:10164200E0E5F7E060E070E0F0C4E43521F0E43773
:1016520011F00C94FC0B0E94001EECE8F7E060E035
:1016620070E00E9428220E941C1E0E94901EE9EC3B
:10167200F7E060E070E00E94971C40E050E04C30E0
:10168200E0E05E07ECF40E94951EFF93EF930E9448
:101692007116AF91BF91EC930E949B1E0E944A1C4F
:1016A200E03039F4E6EFF7E060E070E00E94A21E5D
:1016B20007C00E949B1E0E9475164F5F5F4FDFCFCF
:1016C2004C30E0E05E072CF4EBE0F8E060E070E024
:1016D200ACC40E94AF1EE0E0EC93EC8BEDE1F8E0CD
:1016E20060E070E00E942822FE0179966627772743
:1016F2000E9428220E94B81CED89EA8BEE890E9482
:10170200B41E8E2EEF89EA8BE88D0E94B41E9E2EA7
:10171200E98DEA8BEA8D0E94B41E6E2EEB8DEA8B68
:10172200EC8D0E94B41E5E2EED8DEA8BEE8D0E9432
:10173200B41E4E2EEF8DEA8BE8A10E94B41E7E2EBF
:10174200E6E3F8E060E070E00E942822E82DFF273F
:10175200662777270E9428220E94B81CE7E0E81536
:1017620018F4E3E6E81508F424C0E0E0E91518F4FB
:10177200ECE0E91508F41DC0E0E0E61518F4EFE12D
:10178200E61508F416C0E0E05E1618F0E7E1E5158C
:1017920008F40FC0E0E04E1618F0EBE3E41508F48D
:1017A20008C0E0E07E1618F0EBE3E71508F401C08C
:1017B20007C0E0E4F8E060E070E00E94971C14C00B
:1017C200E1E5F8E060E070E00E9428220E941C1E21
:1017D2000E94901E5A924A927A920E9439166A92F6
:1017E2009A928A920E945A160E94001E0E94891E94
:1017F2000E94901E20C4EC3421F0EC3611F00C94BF
:101802005D0CEBE7F8E060E070E00E94971CECE909
:10181200F8E060E070E00E94CF1CEBEBF8E060E0E3
:1018220070E00E94971C40E050E04530E0E05E0727
:10183200E4F40E94951EFF93EF930E947116AF91FC
:10184200BF910E94BB1E0E94AF1EAC91AA3029F02C
:101852000E94AF1EAC91AD3029F40E94AF1EE0E0B1
:10186200EC9303C04F5F5F4FE0CF0E94C11EE0E0E8
:10187200F0E061E675E40E94092419F010F00C947E
:10188200470C0E94C11E0E942D242CF0E2EEF8E0CB
:1018920060E070E0CAC30E94CA1E0E94B7229F0184
:1018A200F901A8E0B0E00E945622E4EFF8E060E01F
:1018B20070E00E94CF1CBFC3EB3611F00C94BB0C3E
:1018C200EBE1F9E060E070E00E94971CE4E3F9E0EC
:1018D20060E070E00E94BD1C0E94B81CE7E5F9E0E0
:1018E20060E070E00E94971C40E050E04C30E0E085
:1018F2005E07E4F40E94951EFF93EF930E94711617
:10190200AF91BF910E94BB1E0E94AF1EAC91AA3044
:1019120029F00E94AF1EAC91AD3029F40E94AF1E97
:10192200E0E0EC9303C04F5F5F4FE0CF0E94C11E27
:10193200ECEAF5EC67EA77E30E94092448F40E9496
:10194200C11E0E94D01E09F010F40C94A90C03C011
:101952000E94D71E6AC30E94CA1EA0E0B0E00E9485
:101962004E22E4E8F9E060E070E00E94BD1C0E94B3
:10197200B81C61C3E73611F00C94190DEBEAF9E0DB
:1019820060E070E00E94971CEDECF9E060E070E02E
:101992000E94261D0E94B81CE6EFF9E060E070E0AC
:1019A2000E94971C40E050E04431E0E05E07D4F42E
:1019B2000E94951EFF93EF930E947116AF91BF9103
:1019C2000E94BB1E0E94AF1EAC91AA3029F00E9459
:1019D200AF1EAC91AD3019F44150504003C04F5F7F
:1019E2005F4FE2CF0E94C11EE0E0F0E066E973E4DF
:1019F2000E94092458F40E94C11E0E94DC1E0E940B
:101A0200092409F010F40C94070D03C00E94D71E9C
:101A12000CC30E94CA1EA8E2B0E00E944E22EBE173
:101A2200FAE060E070E00E94261D0E94B81C03C329
:101A3200EF3611F00C94700DE5E4FAE060E070E02E
:101A42000E94971CE9E6FAE060E070E00E941D1D2A
:101A5200E4E9FAE060E070E00E94971C40E050E0A8
:101A62004431E0E05E07D4F40E94951EFF93EF93A9
:101A72000E947116AF91BF910E94BB1E0E94AF1EC1
:101A8200AC91AA3029F00E94AF1EAC91AD3019F48E
:101A92004150504003C04F5F5F4FE2CF0E94C11ED2
:101AA2000E94E11E19F010F00C94600D0E94C11EFC
:101AB200E0E0F0E06AEF73EC0E94092418F40E945F
:101AC200D71EB3C20E94CA1EA4E2B0E00E944E22F8
:101AD200EBEBFAE060E070E00E941D1DACC2E7345F
:101AE20011F00C94CD0DE7EEFAE060E070E00E9498
:101AF200971CE9E0FBE060E070E00E94141D0E9488
:101B0200B81CE2E3FBE060E070E00E94971C40E05A
:101B120050E04C30E0E05E07E4F40E94951EFF9333
:101B2200EF930E947116AF91BF910E94BB1E0E945B
:101B3200AF1EAC91AA3029F00E94AF1EAC91AD301D
:101B420029F40E94AF1EE0E0EC9303C04F5F5F4FA9
:101B5200E0CF0E94C11EE0E0F0E86BEB74E40E946B
:101B6200092419F010F00C94BB0D0E94C11E0E94B2
:101B7200E11E18F40E94D71E58C20E94CA1EA0E29B
:101B8200B0E00E944E22E7E5FBE060E070E00E94D8
:101B9200141D0E94B81C4FC2EF3411F00C942A0E8F
:101BA200E1E8FBE060E070E00E94971CE5EAFBE000
:101BB20060E070E00E940B1DE0EDFBE060E070E091
:101BC2000E94971C40E050E04C30E0E05E07E4F4F5
:101BD2000E94951EFF93EF930E947116AF91BF91E1
:101BE2000E94BB1E0E94AF1EAC91AA3029F00E9437
:101BF200AF1EAC91AD3029F40E94AF1EE0E0EC9331
:101C020003C04F5F5F4FE0CF0E94C11EE0E0F0E0F3
:101C120061E674E40E94092419F010F00C941A0E83
:101C22000E94C11EE0E0F0E061E674EC0E9409242B
:101C320018F40E94D71EF9C10E94CA1EACE1B0E09E
:101C42000E944E22E7EFFBE060E070E00E940B1D75
:101C5200F2C1EB3411F00C94880EE3E2FCE060E098
:101C620070E00E94971CECE3FCE060E070E00E94F0
:101C7200C61C0E94B81CEDE5FCE060E070E00E942A
:101C8200971C40E050E04C30E0E05E07E4F40E9434
:101C9200951EFF93EF930E947116AF91BF910E9420
:101CA200BB1E0E94AF1EAC91AA3029F00E94AF1E4B
:101CB200AC91AD3029F40E94AF1EE0E0EC9303C07A
:101CC2004F5F5F4FE0CF0E94C11EECEAF5EC67E286
:101CD20077E30E94092448F40E94C11E0E94D01E8C
:101CE20009F010F40C94760E03C00E94D71E9DC119
:101CF2000E94CA1EA4E0B0E00E944E22E9E7FCE086
:101D020060E070E00E94C61C0E94B81C94C1E334DB
:101D120011F00C94E10EEEE9FCE060E070E00E944C
:101D2200971CE4ECFCE060E070E00E94E91C0E9479
:101D3200B81CEFEEFCE060E070E00E94971C40E00F
:101D420050E04C30E0E05E07E4F40E94951EFF9301
:101D5200EF930E947116AF91BF910E94BB1E0E9429
:101D6200AF1EAC91AA3029F00E94AF1EAC91AD30EB
:101D720029F40E94AF1EE0E0EC9303C04F5F5F4F77
:101D8200E0CF0E94C11E0E94E81E19F010F00C94D0
:101D9200CF0E0E94C11E0E94EF1E18F40E94D71E91
:101DA20044C10E94CA1EACE0B0E00E944E22E5E1AE
:101DB200FDE060E070E00E94E91C0E94B81C3BC19B
:101DC200E43411F00C943A0FE4E4FDE060E070E0DA
:101DD2000E94971CEAE6FDE060E070E00E94F21CBF
:101DE2000E94B81CE5E9FDE060E070E00E94971CEB
:101DF20040E050E04C30E0E05E07E4F40E94951EC3
:101E0200FF93EF930E947116AF91BF910E94BB1E88
:101E12000E94AF1EAC91AA3029F00E94AF1EAC9175
:101E2200AD3029F40E94AF1EE0E0EC9303C04F5F97
:101E32005F4FE0CF0E94C11E0E94E81E19F010F011
:101E42000C94280F0E94C11E0E94EF1E18F40E94DB
:101E5200D71EEBC00E94CA1EA0E1B0E00E944E2233
:101E6200EBEBFDE060E070E00E94F21C0E94B81C07
:101E7200E2C0E63511F00C94A30FEAEEFDE060E05B
:101E820070E00E94971CE0E1FEE060E070E00E94DA
:101E9200FB1C0E94B81CE6E4FEE060E070E00E94D9
:101EA200971C40E050E04C30E0E05E07E4F40E9412
:101EB200951EFF93EF930E947116AF91BF910E94FE
:101EC200BB1E0E94AF1EAC91AA3029F00E94AF1E29
:101ED200AC91AD3029F40E94AF1EE0E0EC9303C058
:101EE2004F5F5F4FE0CF0E94C11EE0E0F0E060EC88
:101EF20070E40E94092419F010F00C94890F0E94DA
:101F0200C11EE0E0F0E060E070E40E94092418F4F1
:101F12000E94D71E8AC00E94CA1EA4E1B0E00E949D
:101F22004E22A4E1B0E00E943A22A8E1B0E00E9471
:101F32004E22E8E7FEE060E070E00E94FB1C0E9497
:101F4200B81C79C0E13421F0E13611F00C94FB0F9A
:101F5200E2EBFEE060E070E00E94971CEEECFEE037
:101F620060E070E00E94AD1C0E94B81CE5EFFEE04C
:101F720060E070E00E94971C40E050E04230E0E0F8
:101F82005E07E4F40E94951EFF93EF930E94711680
:101F9200AF91BF910E94BB1E0E94AF1EAC91AA30AE
:101FA20029F00E94AF1EAC91AD3029F40E94AF1E01
:101FB200E0E0EC9303C04F5F5F4FE0CF0E94F61E5C
:101FC200E436A0E0FA0724F40E94F61EFF231AF476
:101FD2000E94D71E2AC00E94F61EACE2B0E00E9408
:101FE2005622ECE1FFE060E070E00E94AD1C0E942E
:101FF200B81C21C0E33511F0E33711F45BD21BC0EA
:10200200E83511F0E83769F4E7E4FFE060E070E0FA
:102012000E94971C0E942F1D0E94341DE1E0F0E0F7
:102022000BC0EAE5FFE060E070E00E94282280E059
:102032000E946D19249628DA0E943A24A1960895E6
:1020420024970E943524E6E0F0E00E94FC1ED6D0E0
:102052009F013A932A93AAE0B0E00E943E22FA93AB
:10206200EA93E0E0F8E66CE176E40E942822A9D146
:102072000E94FF1E0E94041F0E943C24289608957D
:1020820024971A930A93E7E0F0E00E94FC1EB6D070
:102092008F01F8010E94091FDF01CB01E0E0F0E0AF
:1020A20068EC72E40E94C423AAE9B9E989E99FE3D2
:1020B2000E94282313C024971A930A93E5E0F0E0C4
:1020C2000E94FC1E9BD08F01F801EE0FFF1FDF0163
:1020D200E8EEF3E00E94BB210E94091FEA83FB8322
:1020E2006C837D830E940E1F1981088126960895B4
:1020F200E4E0E3B9EFE0F0E00E94B61DE0E0E3B90E
:10210200E4EFF1E00E94B61D0895E0E0EBBBEABB0C
:10211200E3E0E5BBE4BBE0E0E2BBE1BBE3B9E4E062
:10212200E2B9E0E0E0936200E0936100E0936500D1
:10213200E0936400E0BFE3BFE2BFE1BFEFBDEEBDED
:10214200EDBDECBDEBBDEABDE9BDE8BDE0937900B4
:10215200E0937800E5BDE4BDE3BDE0938B00E0933E
:102162008A00E0938900E0938800E0938700E0937F
:102172008600E0938500E0938400E0938300E0937F
:102182008200E0936A00EABFE9BFE7BFE0937D0007
:10219200EBB9E8E1EAB9E6E0E0939500E0E0E0932C
:1021A2009000E7E1E9B9E0E0E0939B00E8E1E09329
:1021B2009A00E6E0E0939D00E0E0E0939800E3E31C
:1021C200E0939900E0E8E8B9E0E0E0BDE1E0E8BBD7
:1021D200E7E0E7BBE1E5EDB9E1E0EEB9E0E0EA9383
:1021E200EA93EA930E940E160895EBB1EF3718F0C6
:1021F200E1E0F0E00895E0E0F0E0089526970E9423
:102202003324E0E0EA87EB87E0E0F0E0AF019F01F2
:102212008F01AC85BD85119711F00C945C11EE8590
:10222200FF85309729F4EFE8F0E060E070E03EC00F
:10223200AE85BF85119729F4EFECF0E060E070E025
:1022420035C0AE85BF85129729F4EFE9F0E060E072
:1022520070E02CC0AE85BF85139729F4EFEDF0E056
:1022620060E070E023C0AE85BF85149729F4EFEAE1
:10227200F0E060E070E01AC0AE85BF85159729F4E2
:10228200EFEEF0E060E070E011C0AE85BF8516971A
:1022920029F4EFEBF0E060E070E008C0AE85BF85A6
:1022A200179741F4EFEFF0E060E070E0EE83FF8318
:1022B200688779874BC0EE85FF85309729F4E7E878
:1022C200F0E060E070E03EC0AE85BF85119729F472
:1022D200E7ECF0E060E070E035C0AE85BF851297B4
:1022E20029F4E7E9F0E060E070E02CC0AE85BF853C
:1022F200139729F4E7EDF0E060E070E023C0AE85CB
:10230200BF85149729F4E7EAF0E060E070E01AC0B4
:10231200AE85BF85159729F4E7EEF0E060E070E046
:1023220011C0AE85BF85169729F4E7EBF0E060E0B7
:1023320070E008C0AE85BF85179741F4E7EFF0E083
:1023420060E070E0EE83FF8368877987E7E0E8BBAF
:10235200E6E0E8BBEE81EA930E94BA150E2F112740
:10236200E0E0EA930E94BA152E2F3327E0E0EA93C9
:102372000E94BA154E2F5527E7E0E8BBAC85BD8514
:10238200119719F40E94131F16C0EC85FD85309732
:1023920079F40E94131FAA85BB85A030E8E0BE072E
:1023A20034F0EA85FB85E050F041EA87FB8703C001
:1023B200E0E0EA87EB87EA85FB850E943A24609693
:1023C20008956897EE8DFF8D662777270E94EE228B
:1023D2000E94231F7F936F93FF93EF93EC8DFD8DEC
:1023E200EE0FFF1FAE8DBF8DEA1BFB0B6627772713
:1023F2000E94EE22AF91BF918F919F910E94C423C0
:102402000E942A1F0E94301F0E94C4230E94282279
:102412000E94BA1BE88BF98B6A8B7B8B0E94351F5B
:10242200A0910805B091090580910A0590910B05CC
:102432000E947623A0910405B091050580910605BE
:10244200909107050E943A1F0E94411FA0910C051E
:10245200B0910D0580910E0590910F050E94762393
:102462000E94491F0E94411F0E944E1F0E94762314
:10247200A0911005B091110580911205909113055C
:102482000E94531F0E94561F0E945B1F0E94282316
:102492000E94601F0E94651FDF01CB01E0E0F0E0B7
:1024A2006BE873E40E94721F0E94771F0E947C1FD8
:1024B200A0960895EF9721970E94332449E15CEF9B
:1024C2000E943F1DDE01AE5BBF4FED93FD936D9306
:1024D2007C93DE01A25CBF4FED93FD936D937C93E1
:1024E200EAAFFBAF6CAF7DAFEEABFFAB68AF79AFDE
:1024F200EAABFBAB6CAB7DABEEA7FFA768AB79ABEE
:10250200EAA7FBA76CA77DA7EEA3FFA368A779A7FD
:102512000E943F1DEAA3FBA36CA37DA3EE8FFF8F56
:1025220068A379A3EA8FFB8F6C8F7D8FEE8BFF8B75
:10253200688F798FEA8BFB8B6C8B7D8B0E94701E70
:102542000E94751E0E94811F20E030E00E94841EBE
:102552004CDE309711F00C943B13E8E0F0E0FA9374
:10256200EA935AD1E8E6FFE060E070E00E94282298
:10257200E0913405F09135050E94861FE091360501
:10258200F09137050E94861FE0913805F0913905D8
:102592000E94861FE0913A05F0913B050E94861F3A
:1025A200E0913C05F0913D050E94861FE0913E05B9
:1025B200F0913F050E94861FE0914005F091410590
:1025C2000E94861FE0914205F09143050E94861FFA
:1025D2000E948B1F00E010E00830E0E01E0714F0BC
:1025E2000C9435130E94901FFF93EF93DF010E941A
:1025F20013227F936F93FF93EF930E94981FAF91E3
:10260200BF918F919F910E942823AF91BF910E9409
:102612001E22F801DE0116960E947321EA0FFB1FAB
:10262200FF93EF93DF010E9413227F936F93FF9337
:10263200EF930E94981F7F936F93FF93EF930E94F3
:10264200981FAF91BF918F919F910E947623AF9176
:10265200BF918F919F910E942823AF91BF910E94B9
:102662001E220F5F1F4FB8CF2F5F3F4F0E94391DB1
:102672003FDD6ECF0E94841E00E010E00830E0E0F3
:102682001E07C4F40E94901FFA93EA93F801DE0138
:1026920018960E947321EA0FFB1FFA93EA933A936A
:1026A2002A93FA010E94091F0E94282255D00F5F27
:1026B2001F4FE4CFEAE8FFE060E070E00E94A21F53
:1026C200FE01E65BFF4F0190119061917081F00174
:1026D2000E942822FE01EE5AFF4F01901190619153
:1026E2007081F0010E942822FE01E65AFF4F0190FC
:1026F200119061917081F0010E942822FE01EE5931
:10270200FF4F0190119061917081F0010E94282287
:102712000E948B1FECEBFFE060E070E00E94282239
:102722000E947F1E0E9428220E94C11F0E9428220E
:10273200EA8DFB8D6C8D7D8D0E942822EAA1FBA182
:102742006CA17DA10E94A21F0E948B1FD1DC0E945E
:102752003A24EF9627960895AC81BD8113973CF4F5
:102762000E947C1FA885B9850E94C61F50C0A885FB
:10277200B985BF93AF930E94C91FAF91BF910E94C9
:10278200D31F0E94C91F7F936F93FF93EF930E9401
:10279200D81F7F936F93FF93EF930E94D81FAF913F
:1027A200BF918F919F910E947623AF91BF918F919C
:1027B2009F910E94721FAE81BF810E94D31F0E940F
:1027C2001322DF01CB01EC81FD810E94091F0E94CF
:1027D2007623DF01CB01EC81FD8131970E94091F35
:1027E2000E94C423AE81BF810E94D31F0E94132284
:1027F20077232AF4AE81BF810E943F1D0AC0AE81B9
:10280200BF810E9413220E9428220E942421AE81AD
:10281200BF810E941E22ABC11A930A93AA81BB8177
:102822001897C1F400E010E00830E0E01E078CF4D5
:10283200F8010E94DD1FFF93EF931A930A930E94FF
:102842007E1DDCDCAF91BF91ED93FC930F5F1F4FB8
:10285200EBCF17C0AB81AA2322F0AA81BB811897C4
:102862000CF00FC0EA81FB810E94DD1FFF93EF9302
:10287200EA81FB810E94A11DC1DCAF91BF91ED9362
:10288200FC93198108812496089560978CE0A0E05A
:10289200B0E0E0EBF0E060E00E944124FE01FA9338
:1028A200EA93EE89FF89688D798D0E9428221CD1D6
:1028B2000E94E41F0E944E1FEFE6F2E163E87BE311
:1028C2000E94C4230E945B1F0E94721F0E94E41F89
:1028D2000E94E91F689608952497AA8DBB8D8C8D5E
:1028E2009D8DE0E0F0E060E070E40E94C423AA85E0
:1028F200BB858C859D850E947623DF01CB01EE8905
:10290200FF89688D798D0E94C423A885B9850E94AC
:102912001E220E94D81F0E947A1E0E94721FDF018F
:10292200CB010E94C11F0E94EE1F0E94D81FDF012F
:10293200CB010E947C1F0E94C423AE81BF810E94F2
:10294200C61F0E94F11F0E9476237F936F93FF930D
:10295200EF93AE81BF810E941322AF91BF918F91FD
:102962009F910E947623AC81BD810E941E226E96A9
:1029720008952497AA85BB858C859D850E94C11FD9
:102982000E942123DF01CB010E94F61F0E94FB1F40
:10299200DF01CB010E9406200E94EE1F0E947C1FD5
:1029A200AC81BD810E94C61F669608956C97E0E0D7
:1029B200EC87ED87E0E8EE87EFE3EF87EFE4E88B63
:1029C200E6E8E98BE3E7EA8BE3E3EB8BAAA9BBA991
:1029D2008CA99DA9EAADFBAD6CAD7DAD0E94212312
:1029E200DF01CB01EEA5FFA568A979A90E94FB1F13
:1029F200DF01CB01EEA9FFA968AD79AD0E94EE1F00
:102A02000E940B20AAA5BBA58CA59DA50E942823E8
:102A1200E88FF98F6A8F7B8F0E940B20AEA1BFA136
:102A220088A599A50E9428230E942A1F0E94231F7D
:102A32000E94231F0E94231F0E94491FEC89FD89C7
:102A42006E897F890E94301F0E9476230E94301F68
:102A52000E9476230E94301F0E94531F0E94351F3E
:102A62000E945B1F0E9414200E947623AE8DBF8DB0
:102A72000E941E22EAA1FBA16CA17DA10E948222DA
:102A82000E944E1F0E9476237F936F93FF93EF93D2
:102A92000E941B200E94041F0E942123AF91BF911C
:102AA2008F919F910E947623AC8DBD8D0E941E2234
:102AB200AE8DBF8D0E9413220E94F11F0E94282317
:102AC2007F936F93FF93EF93AC8DBD8D0E94132282
:102AD200AF91BF918F919F910E942823A8A1B9A184
:102AE2000E941E22EE96089524970E94041F0E94BF
:102AF20028220E94BA1B0E94771F0E94D81F7F9330
:102B02006F93FF93EF93E885F985A481B581868160
:102B120097819F938F93BF93AF93A085B185828551
:102B220093850E947C1F0E9476230E94F11F0E94BF
:102B32007623AF91BF918F919F910E9428230E948B
:102B4200F11F0E947623AF91BF918F919F910E94B6
:102B5200651FA0910005B091010580910205909139
:102B620003050E9421230E94771F0E947C1F2A9640
:102B72000895E881EFB9779BFECFEFB10C947916F7
:102B8200C69887E08A95F1F70895BD9ABC9ABE9AD5
:102B9200C69A87E08A95F1F7E881EA9302D00C940D
:102BA2007916E991A8E0E795C49808F4C49A000060
:102BB200000000000000C59A83E08A95F1F7C598ED
:102BC20083E08A95F1F7AA9571F70895E881E160AB
:102BD200EA930E94C615C498BC98A8E08894B49958
:102BE2000894E795C59A83E08A95F1F7C59883E042
:102BF2008A95F1F7AA9591F70E94C1150C9479165E
:102C0200E981EE7FEA930E94C615E881EA930E9469
:102C1200D2150E94C11522960895E881E370E883D7
:102C2200EA81E03019F0E881E06AE883A981A13005
:102C320019F4E881E46007C0A981A23019F4E8819F
:102C4200E86001C0E0E0E8830E942020E0E9EA9326
:102C5200E9813DC0E5E80E942620AC81BD81EC936C
:102C6200E3E80E942620AA81BB81EC93E1E817C029
:102C72000E942020E4E80E942C20E2E80E943420F6
:102C8200E0E820C0E7E80E942620AC81BD81EC93F9
:102C9200E9E80E942620AA81BB81EC93EDE8EA9341
:102CA20095DFEA930E945C1CA881B981EC93269679
:102CB20008950E942020E6E80E942C20E8E80E9465
:102CC2003420ECE8EA93E981EA930E94681CEA93D3
:102CD20097DFEEE8EA93E0E8EA9392DF239608951D
:102CE2005F9BFECFECB108955D9BFECFE881ECB90E
:102CF200219608951A930A93AC81BD810E940F22F6
:102D02003097D9F0AA81BB810E940F228F013097A0
:102D120049F00230E0E01E0778F0F80131978F01A8
:102D2200ED93FC93AC81BD81ED91FD913196FE93C3
:102D3200EE933197AE81A08303C0EE81EA93D4DF94
:102D420019810881279608952497E0E0E883E983B2
:102D5200E0E8EA83EFE3EB830E943524EE85FF850A
:102D6200EF3FAFEFFA0759F4E885F985FA93EA9352
:102D7200E0EFFFE060E070E00E943C209CC0EF3F8B
:102D8200AFE7FA0759F4E885F985FA93EA93E1EF98
:102D9200FFE060E070E00E943C208DC0AB85A73070
:102DA20010F0E6E0EB871B85E12F1150E03019F0BF
:102DB2000E944020F9CF0E94E91F0E94292421F499
:102DC20030E00E94402024C03B850E94432009F04D
:102DD20010F40C94F5160E9440200E94432018F033
:102DE2000E944820FACF09C00E94432020F40E948A
:102DF20052203150F9CF0E9440200E94E91F0E94C8
:102E020057200E943A1F0E94432010F00E9448203F
:102E120010E0EB85E11750F10E94601F0E945C20D8
:102E22000E9463200E94FF1E0E94041F0E945B1FDB
:102E32000E94C4230E94B5220E2F0E946A200E9483
:102E420071200E9476200E94601F0E9476230E94B9
:102E52005B1F0E94721F0E94E41FE12F1F5FE03080
:102E6200C1F60E946A20EEE2EC93D3CF0E947C204E
:102E7200AA85A08330302CF40E946A20EDE2EC9304
:102E820031953A3054F00E947C20BF01A32FEAE032
:102E92000E94A321E05DDB01EC930E947C20BF0134
:102EA200A32FEAE00E94E521E05DDB01EC93A88517
:102EB200B985E0E0EC930E943C2460960895EF9778
:102EC20061970E94332410E0FE01EA5AFF4F0190FD
:102ED200F081E02DEA8BFB8BDE01A45ABF4F0E94EA
:102EE20083202E2FE03011F40C946819E12FE0308A
:102EF20039F4253211F411E002C00E949220E6C199
:102F0200E130C1F4253219F40E949220DEC112E0B0
:102F1200E0E0ED8B00E02D3211F401E0D7C12B325D
:102F220019F4EBE2ED8BD2C1203219F4E0E2ED8B21
:102F3200CDC102C0E23039F450E013E0203311F485
:102F42000068C4C102C0E330A1F4203310F02A3378
:102F520008F009C0A52FEAE0EA9FF0015E2FE22FF8
:102F6200E0535E0FB3C140E02E3211F414E0AEC163
:102F720011C0E430A9F4203310F02A3308F00AC05B
:102F82000062A42FEAE0EA9FF0014E2FE22FE05305
:102F92004E0F9CC12C3619F4026015E097C104C093
:102FA200E53011F00C946719E22FE33659F40E94D0
:102FB200A1200E94A8200E94A120A481AA930E947D
:102FC200AF2083C1E53411F0E53609F404C0E636DA
:102FD20011F00C943618FE017696EA87FB870E9460
:102FE200BD200E9413220E94811F0E94C420A98535
:102FF200AA2322F0AD89AB3249F017C00E94F61F16
:103002000E9482220E94811FEDE2ED8B07FF05C024
:10301200ED89EA930E94AF2008C0EA85FB853196CC
:10302200EA87FB873197AD89A08305FF46E0263604
:1030320061F40E94F61F0E9428224A93EF85F889C4
:10304200FA93EA930E94C6190BC00E94F61F0E94CF
:1030520028224A932A93E889F989FA93EA9374DE3B
:10306200FE0176960E94C62023C0E33739F40E94FF
:10307200C4200E94CE200E94C62013C0E037E9F48B
:103082000E94C4200E94BD2014960E9413220E9416
:10309200751E0E947F1E0E9428220E94891C1E2FDC
:1030A20008600F77403011F0411708F001C0142F6B
:1030B20040E0E0E0EC8B30E06EC0E43611F0E9363F
:1030C20011F4046002C0E537A1F4EAE0EC8B01FFE1
:1030D20008C0E0E0FAEC6AE97BE30E94701E1AE0A5
:1030E20023C0E0E1F7E260E070E00E94701E15E0AC
:1030F2001BC0E83511F4086004C0E83711F00C94E5
:103102006619E0E1EC8B01FF08C0E0E0F0E060E06E
:1031120070E10E94701E18E007C0E0E0F0E160E09C
:1031220070E00E94701E14E0403011F00F7701C071
:1031320041E001FF08C00E94C4200E94BD201496F5
:103142000E9413220FC002FF07C00E94C4200E94E7
:10315200CE200E947E2106C00E94C4200E94CE2062
:1031620066277727EE83FF836887798702FF12C07D
:10317200A985AA2342F40E94F61F0E9467210E9499
:10318200811FEDE2ED8BED89E03019F01F5F4F5F9B
:1031920001C00B7F342F00FD14C0151710F4351732
:1031A20008F00FC007FF08C002FF04C00B7F2D8983
:1031B200115001C020E301C020E20E949220515030
:1031C200ECCF141790F4006102FF06C00E94D320D6
:1031D20009F0515011504150E0E3EA930E94AF20B0
:1031E200503009F051504150ECCF312FEC89E03092
:1031F200B9F43030A1F003FF05C0DE011A960E9437
:10320200832005C0AA85BB85ED91AA87BB87EA9377
:103212000E94AF20503009F051503150EACF4BC0DC
:103222000E94E7200E94C0212E2F2A3030F003FF97
:1032320002C0295C01C0295A01C0205D04FD1FC0E3
:10324200213350F40E947A1EA130E0E0BE07E0E094
:103252008E07E0E09E0709F40BC0431740F45317B2
:1032620010F000FF01C010C020E207FF08C020E3F9
:10327200006102FF04C00E94D32009F051500E9455
:103282009220503009F0515031500E94E7200E94A4
:10329200F1210E94811FEC890E947A1EFF27662776
:1032A20077270E94C0210E94701E0E9406200E9461
:1032B200292409F0B5CF00FF08C0503031F0515039
:1032C200E0E2EA930E94AF20F8CF10E005CE0E9420
:1032D2003A24EF96A1960895FF92F82E22971A9318
:1032E2000A93DE010E945A218D01E0E0EA83EB831A
:1032F200DE0114960E945A210E9413220E94282263
:103302001A930A93FE0138960E94A11DD8DD1981F5
:1033120008812496FF900895E991F99130971AF463
:10332200E095F09531960895B981A881EC91EA93E0
:103332000E94521CEE2311F01196F8CFE894EC9102
:10334200ED3211F4689402C0EB3209F4119666274B
:103352007727EC91EA930E944A1CEE2379F0FB0155
:10336200660F771F660F771F6E0F7F1F660F771F1F
:10337200ED91FF27E0536E0F7F1FEBCFFB011EF491
:10338200E095F0953196229608952497E0E0E8833F
:10339200E983EA83EFE3EB831A930A93EB85FC85D7
:1033A200EF3FAFEFFA0759F4EE81FF81FA93EA9308
:1033B200E8EFFFE060E070E00E943C20A0C0EF3F39
:1033C200AFE7FA0759F4EE81FF81FA93EA93E9EF46
:1033D200FFE060E070E00E943C2091C0AC85AA232F
:1033E20062F4E985FA856B857C850E9482220E94BF
:1033F200ED200E94F220EDE2EC93A885A73010F0B8
:10340200E6E0E8871885E12F1150E03039F00E949C
:10341200F9200E945C200E94FE20F5CF0E94032129
:103422000E9428230E94ED2010E00E9409210E94A0
:10343200FE200E9403210E94092450F00E94F920DC
:103442000E94DC1E0E9476230E94FE201F5FF1CFA5
:10345200103029F40E94F220E0E3EC9324C0E12F23
:103462001150E03001F10E94F9200E945C200E947C
:1034720063200E94FE200E9403210E94C4230E9416
:10348200B5220E2F0E94F2200E9471200E94F92084
:103492000E9476200E9476230E940E210E94721FB3
:1034A2000E94ED20DCCFE885E03029F10E94F22075
:1034B200EEE2EC93E885E150E887EF5FE1F00E94ED
:1034C2000E210E94DC1E0E9476230E94ED20E985D7
:1034D200FA856B857C850E94B5220E2F0E94F22010
:1034E2000E9471200E940E210E9476200E94721F6B
:1034F2000E94ED20DFCFAE81BF81E0E0EC93198125
:1035020008812D9608952A970E943324E0E0E887E7
:10351200E987EA87EB87A889B989EC915E2FEA935C
:103522000E94521CE03031F0E889F9893196E88B2B
:10353200F98BF1CFE0E0EF835B3221F05D3239F4B9
:10354200E1E0EF83E889F9893196E88BF98BE0E0D5
:103552004E2F5E2F08891989A889B989EC91EA93BF
:103562000E944A1CE03049F4A889B989AC91EEE284
:103572000E9483215E2FE03039F0452BE889F989DA
:103582003196E88BF98BE8CF28893989403011F1DF
:10359200E889F9893197E88BF98BA889B989AC91C7
:1035A200AE32C1F0A889B989EC91E0530E941B2088
:1035B2000E9476200E942823DF01CB010E94DC1E9C
:1035C2000E94C4230E94491FE889F9893197E88B38
:1035D200F98BE3CF0E9409210E94E41FA889B989CF
:1035E2001197A88BB98BA017B10778F0EC91E05333
:1035F2000E945B1F0E9476200E9414200E942823B2
:103602000E94491F0E945220E9CFD9012F5F3F4FEC
:103612005C91553619F0553409F058C0E0E04E2F50
:10362200EE83D9015C915B3221F05D3221F4E1E05D
:10363200EE832F5F3F4FD9012F5F3F4FEC915E2FFB
:10364200EA930E944A1CE03041F0A42FEAE0EA9F8C
:10365200F001E50FE0534E2FEECF473268F0EF81D5
:10366200E03029F0EFEFFFEF6FE77FEF3AC0EFEFC7
:10367200FFEF6FE77FE735C050E20E9409210E9409
:10368200E41F503079F00E94E91F0E945B1F0E94E4
:1036920076230E94E41FE42FE52311F00E945220BA
:1036A2005695EFCFEE81E03039F00E94E91F0E947B
:1036B2001B200E94C42306C00E94E91F0E941B20F7
:1036C2000E947623E887F9876A877B87EF81E0305B
:1036D20031F00E94561F0E9482220E94491F0E94BE
:1036E200561F0E943A24629608957B816A81F9816D
:1036F200E88177FB770F67FD7160972F9E5781F006
:1037020078F0983190F4AA27BB27882708948795E8
:10371200B795A7959A95D1F7EA23FB23682305C0AD
:10372200E8947727EE27FF2766276F77769508F4C8
:10373200606877F9A991B99189919991EA17FB0784
:103742006807790797FB08950E947C1F0E94282230
:103752000E94761B0E94771F19F40E947C1F07C0EB
:10376200E6F70E94F11F0E9409210E94721F24960F
:10377200089524971A930A930E9413210E942D24DC
:103782002CF0EFEFFFEF6FE77FEF7FC00E94F61F95
:103792000E942822EDB7FEB73197FA93EA931F935E
:1037A2000F930E946F220F911F910E94811F0E940E
:1037B2001321E3EFF4E065E37FE30E94092450F470
:1037C2000E94F61F0E9413210E9428230E94811F3B
:1037D200015010400E9413210E9409210E94721F71
:1037E2007F936F93FF93EF930E94F61FA0E0B0E0E8
:1037F20080E89FE30E942823AF91BF918F919F9110
:103802000E94C4230E94811F0E94F61F0E9413215E
:103812000E9476230E94FE200E940E1FA6E2B2E4BE
:1038220085E69FE30E947623DF01CB01EEE4F1E11E
:1038320064E570E40E94721F0E9413210E947623A5
:103842007F936F93FF93EF930E94F920EDE4F1E1F0
:1038520064ED7FE30E94721FAF91BF918F919F91A0
:103862000E94C4237F936F93FF93EF93F8010E940A
:10387200091FA8E1B2E781E39FE30E947623AF919B
:10388200BF918F919F910E942823198108812A96C6
:103892000895E1E0F991F03310F0FA3308F0EE27E1
:1038A2000895E1E0F991F03229F0F93010F0FE309C
:1038B20008F0EE270895E881E295EF70AE2FAA0F87
:1038C200AA0FEA0FEE0FA991AF70EA0F0895A9911E
:1038D200EE27AA5012F0E05FFCCFA65FEA0F089530
:1038E200E991F99169917991A991B991CD016BBF52
:1038F20007900D920020E1F7FC010895A991B9917A
:10390200EE27FF276D91662311F03196FBCF0895C4
:10391200AA27BB27E991F991699179916BBF079029
:10392200002011F01196FBCFFD0108950E9428227C
:1039320080E00E946D19249608950E942822E6E1F3
:10394200F5E0662777270E942822E0E2F5E0662765
:1039520077270E94282208950E942822ACE2B0E034
:103962000E943E220E947E210E942822089584E025
:103972000E946D19289608950E942822A0E0B0E0C6
:103982000E943A220E94282208950E942822A4E03E
:10399200B0E00E943A220E94282208950E94282222
:1039A200A8E0B0E00E943E220E947E210E942822CE
:1039B200DECFE8EBF1E060E070E00E942822AAE0AE
:1039C200B0E00E943E220E947E210E942822CFCF98
:1039D2000E942822ACE0B0E00E943A220E942822F3
:1039E20008950E942822A0E1B0E00E943A220E949B
:1039F200282208950E942822A4E1B0E00E943A22DF
:103A02000E9428220895A8E1B0E00E943A220E9472
:103A1200282208950E942822ACE1B0E00E943A22B6
:103A22000E942822A4CF0E942822A0E2B0E00E9495
:103A32003A220E94282208950E942822A4E2B0E09D
:103A42000E943A220E94282292CF0E942822A8E2B3
:103A5200B0E00E943A220E9428220895E4E8F2E0AF
:103A620060E070E063CFE8EDF2E060E070E05ECF2E
:103A7200E8EEF3E0FA93EA930C941821E0E0F0E028
:103A820060E070E00895DE01AC5BBF4FED93FD9303
:103A92006D937C930895DE01A85BBF4FED93FD9378
:103AA2006D937C930895DE01A45BBF4FED93FD936C
:103AB2006D937C930895DE01A05BBF4FED93FD9360
:103AC2006D937C930895E5E0F0E0FA93EA93E4E0E5
:103AD200F0E0FA93EA93E7E0F0E0FA93EA930E94C7
:103AE2002B16A42DB0E0ECE3F0E00E949021DF0160
:103AF200E72DF0E0EA0FFB1F0895E0E0F0E0FA9313
:103B0200EA930895DE01A05BBF4F0D901D908D9149
:103B12009C91D00108950E947E210E94EE220E9473
:103B220028230895E1E0F0E0FA93EA930895DE0194
:103B3200A45BBF4F0D901D908D919C91D001089573
:103B4200FA93EA93DACFDE01A85BBF4F0D901D9086
:103B52008D919C91D0010895DE01AC5BBF4F0D9019
:103B62001D908D919C91D0010895FA93EA930C9443
:103B72001821E8A9F9A96AA97BA908950E94EC2253
:103B82000E94C4230895FE01E05BFF4F0190119053
:103B920061917081F00108950E942822AAE0B0E0AC
:103BA2000E943E220E947E210E94EE220895FE0182
:103BB200F496FA93EA93FE01F296FA93EA93FE01DF
:103BC200F096FA93EA930E946D14EC8DFD8D6E8D42
:103BD2007F8D0E942822EC8DFD8D6E8D7F8D0E943F
:103BE20028220C944614EC8BFD8B6E8B7F8B0895F0
:103BF200ECA1FDA16EA17FA10E9428220895E6E01A
:103C0200F0E0FA93EA93E9E0F0E0FA93EA93E8E06D
:103C1200F0E0FA93EA930E944316E5E0F0E0FA93AB
:103C2200EA93E4E0F0E0FA93EA93E7E0F0E0FA9353
:103C3200EA930C942B16E82DFF27662777270E941C
:103C42002822E92DFF27662777270E942822E62DC2
:103C5200FF27662777270E942822E52DFF27662760
:103C620077270E942822E42DFF27662777270E94C4
:103C72002822E72DFF27662777270E94282208950A
:103C82000E942822FE01E05CFF4F01901190619199
:103C92007081F0010895E5E0F0E0FA93EA93E4E040
:103CA200F0E0FA93EA93E7E0F0E0FA93EA930E94F5
:103CB2002B16A52DB0E0E0E1FEE00E948821BF01B5
:103CC200A42DECE3EA9FF001DB01F0E0AE0FBF1F91
:103CD200E72DF0E0EA0FFB1F662777270895EE87AE
:103CE200FF87688B798B0895EA87FB876C877D87CE
:103CF2000895AE85BF85888999890895EA85FB85EF
:103D02006C857D850895E2EFF0E060E070E00ECE14
:103D1200E3EEF3E060E070E00E9428228CCF88E1BD
:103D22000E946D196C960895FA01DE015596EA0F0C
:103D3200FB1F0895DE015596A40FB51FEC91EA937F
:103D420008950E942822DE015996A40FB51FEC9116
:103D5200FF27662777270E94282209CEDE01559683
:103D6200A40FB51F0895EB8BFE017296FA93EA93A6
:103D72000C949519EC93EFEDF8E060E070E0E1CF80
:103D8200FE017596FA93EA930E94841ADF01CB0131
:103D92000895FE017596FA93EA930C94841AE5E964
:103DA200FFEB66ED73E30E9409240895E3E7F9E06F
:103DB20060E070E00895E0E0F0E060E271E4089510
:103DC200E0E0F0E06AEF73E40E9409240895E0E085
:103DD200F0E46CE177E40E9409240895E0E0F0E465
:103DE2006CE975E40E9409240895FE017596FA9320
:103DF200EA930C949519FA93EA9394CEEC83FD839B
:103E02006E837F830895EC81FD816E817F810895A9
:103E12000E947E210E94EE220895EA81FB816C813C
:103E22007D810895220F331F5695479556954795E4
:103E320056954795F9010E946F21E40FF51FEA8715
:103E4200FB870895A88DB98D8A8D9B8D0E9476235C
:103E52000895C9DEE88DF98D6A8D7B8D0895AC8950
:103E6200BD898E899F890895E889F9896A897B8944
:103E720008950E942823EC87FD876E877F87089527
:103E8200F3DFA889B9898A899B890E9476230895DC
:103E9200E887F9876A877B870895A889B9898A891B
:103EA2009B8908950E947623A9CFE885F9856A85C2
:103EB2007B850895AC85BD858E859F850895AC81EF
:103EC200BD818E819F8108950E942823E883F98312
:103ED2006A837B83A0E0B0E080E89FE30E94C42372
:103EE20008950E942D220E9421230895E883F983D8
:103EF2006A837B830895E881F9816A817B810895D1
:103F0200EE83FF836887798708950E947E210E944D
:103F12002822089580E20E946D19A4960895F8015E
:103F2200DE0196960E947321EA0FFB1F0895F801A5
:103F3200A4E3B5E0EE0FFF1FAE0FBF1F0E940F22DA
:103F420067CF0E942822EAA5FBA56CA57DA50E9449
:103F52002822EAA9FBA96CA97DA90E942822EAAD20
:103F6200FBAD6CAD7DAD0E942822FE01EE5BFF4FE2
:103F72000190119061917081F0010E9428220895B0
:103F8200EA89FB896C897D8908950E941E22B3CF3C
:103F92000E941322DF01CB01EC81FD8139DF0E94F7
:103FA200C42308950E941E22AE81BF810895A88570
:103FB200B9850E9413220895A4E3B5E0EE0FFF1F16
:103FC200EA0FFB1F0895EC87FD876E877F870895B0
:103FD200EC85FD856E857F8508950E94C42386CF7A
:103FE200A881B9818A819B810895EE81FF816885CC
:103FF200798508950E94C423DF01CB01E0E0F0E05F
:104002006AE774E40E94C4230895EE85FF856889F7
:1040120079890895E0910005F0910105609102050A
:104022007091030508950E947623A885B9858A8533
:104032009B850895A885B9858A859B850895EEE8B4
:10404200EA93E0E0EA930C940116EA930E94E715E2
:10405200EA930C945C1CEA93EB81EA930E94681C3D
:10406200EA930C940116EA93EA81EA930E94681C8F
:10407200EA930C9401160E9428220C94711C1FDFF3
:104082009ADE10CFC0DE16DF0E940924089512DFE7
:10409200EDECFCEC6CEC7DE30E94762394DF3F5F59
:1040A200089508DF88DE0E9476238DCFA0E0B0E07D
:1040B20080E09FE30895EDECFCEC6CEC7DE30E9464
:1040C20076230895F3DF0E9428230E9428220C946D
:1040D200A51BA885B9851196A887B9871197089558
:1040E200E02FE05DEC93E02F0895FF276627772706
:1040F2000E94EE220895E885F9853196E887F987CE
:10410200319708950E941922EF5FFF4F6F4F7F4F43
:104112000E942322E150F040604070406BBFE69164
:1041220008952A93FE01E75AFF4F0190F081E02D96
:10413200FA93EA93FE017596FA93EA930C947B162E
:10414200FE01E65AFF4F0190F081E02D0895349769
:10415200DE01A65ABF4FED93FC930895FE01E75A84
:10416200FF4F0190F081E02DFA93EA93FE017596DC
:10417200FA93EA930C947B16DE01A65ABF4F0D9078
:10418200BC91A02D0895DCDFE2CFEA87FB87FA938A
:10419200EA930E947F1C1E2F0895EEDF14960E9460
:1041A2000F2208950B7FED89EA93FE01E75AFF4F34
:1041B2000190F081E02DFA93EA93FE01E75AFF4F56
:1041C200FA93EA930E947B16503008951EDFAE8167
:1041D200BF81888599850895E987FA876B877C87EF
:1041E2000895AE81BF811196AE83BF831197089562
:1041F200AA81BB818C819D810895EA83FB836C83B4
:104202007D8308950ADEA985BA858B859C850895EC
:10421200E0E0F0E060E87FE30895A985BA858B8548
:104222009C850895AE81BF81888599850895E9911D
:10423200F991309639F088EE93E00197F1F7A8955D
:104242003197C9F7089524975F939F81992311F4B9
:10425200289639C212F4289642C24F9342E48E81C4
:10426200BD81AC8188839983AA83BB83FD01BC0194
:10427200AC81BD818E819F8186D288819981AA81FC
:10428200BB81E5D168D17A954CD188819981AA8187
:10429200BB81AE27A87F21F4BF178607970729F0B5
:1042A2004A9519F0DF01CB01DDCF4F915F9128963E
:1042B20008950024AF0DB01D0895EA1BFB0B680B97
:1042C200790B0895F195E195F0400895F095609588
:1042D2007095E195FF4F6F4F7F4F0895EE0FFF1FCF
:1042E200EE0FFF1FEE0FFF1FEE0FFF1F0895FE2FB1
:1042F200FF0FFF0B6F2F7F2F08956F2F660F660B37
:10430200762F0895EA17E1E009F0EE270895FA9F63
:10431200F02DEB9FF00DEA9FE02DF10D089570D086
:10432200F6DF0EF4CFDF0895002498E0AA0F001CF8
:104332000E1A10F40E0E01C0A1609A95B9F7EA2F79
:10434200A02D089551D0F0DF0EF4E19508950024D8
:10435200112490E1AA0FBB1F001C111C0E1A1F0A88
:1043620018F40E0E1F1E01C0A1609A9599F7FD0167
:10437200D001089545D0EBDF0EF4A4DF08953F93FA
:104382004F935F93002411244427552730E2AA0F4C
:10439200BB1F881F991F001C111C441F551F0E1A9A
:1043A2001F0A460B570B28F40E0E1F1E461F571FDF
:1043B20001C0A1603A9559F7FD01BC01D001CA01C3
:1043C2005F914F913F910895E894A7FF02C0A19594
:1043D2006894E7FDE195A8DFEA2F0EF4E1950895D0
:1043E200CEDFFD01BC010895E894E7FF02C0E1952C
:1043F2006894A7FF04C0A19500F8039400FA0895F9
:10440200E894F7FF02C05EDF6894B7FF06C0A0958C
:10441200B095119600F8039400FA0895ED91FC917D
:1044220011970895ED91FD916D917C9113970895E7
:10443200ED91FD916D917D910895ED93FD936D93B5
:104442007C9308957E936E93FE93EE9308957A93F0
:104452006A93FA93EA930895182E862F612D192EE6
:10446200972F712D1B2EBF2FF12D1A2EAE2FE12D5E
:104472000895129602D0BF011297119602D0FE2F14
:104482001197E199FECFFF93FFB7F894AEBBBFBB84
:10449200E09AEDB3FFBFFF91089507D012960F0186
:1044A200FB0103D0F0011297089507D01196EF9304
:1044B200EF2F03D0EF9111970895E19B02C0A895C9
:1044C200FCCF9FB7F894AEBBBFBBE09A8DB3E817A1
:1044D20019F0EDBBE29AE19A9FBF0895A991B991B3
:1044E200E991F9916991799177FB660F771F882796
:1044F2007E57880B7D938C937EE7769567950EF0B9
:10450200089530976040704009F07058089555231F
:1045120042F4503811F4E0FF04C03196691F791F4C
:104522006BF050E8572711F45F93CDC05F3F31F035
:10453200660F000C57956795752F08955F930020BD
:104542000AF0CDC0C6C050E8192E1522880F991F57
:104552009527550F879550E8072E0522660F771F7E
:104562007527550F67950895689401C0E8945F9385
:10457200F2DF703818F07F3F08F4A5C056E1571BF0
:10458200AAF4519558300EF4593030F0EFEFFFEFA6
:104592006FEF7FE777F91AC077275523B9F0EE0F4F
:1045A200FF1F661F771F5A95D1F710C07727583023
:1045B20028F0EF2FF62F672F5850F9CF552331F0FF
:1045C20076956795F795E7955A95D1F700200AF405
:1045D2007DDE5F910895689401C0E8943097604051
:1045E2007040B1F0002426F0772312F400946EDEBE
:1045F200172E7EE1112032F07A95EE0FFF1F661F13
:10460200111CF9CFEF2FF62F612D5F938ADF5F9197
:1046120008954F93AF01FD01DA01AB01BC01CA015C
:10462200402D012C142E4F910895EA0FFB1F681F95
:104632000895E095F0956095EF5FFF4F6F4F0895F5
:104642005F9381DF903871F150E8152604C05F93C3
:104652007ADF903839F1703821F1572F591B13F155
:1046620012F4D7DFFACF583118F0AA27BB278827D0
:10467200583028F0AB2FB82F88275850F9CF552340
:1046820029F08695B795A7955A95D9F7502D5125BA
:1046920062F0CBDF38F46795F795E795739513F4DD
:1046A2001EC0B7DF3EDF5F910895EA1BFB0B680B6C
:1046B20051F010F40094BDDF6623A2F3EE0FFF1F4A
:1046C200661F7A95CBF7EE27FF27662777275F913C
:1046D2000895EFEFFFEF6FE77FEF5F910895EFEF40
:1046E200FFEF6FE77FE75F9108955F932CDF7038EC
:1046F20051F3903841F301240894791F23F41CF3F9
:1047020000203AF3ECCF0F921F932F933F934F93D6
:10471200112722279927689FA0018F9F302D410DD5
:10472200591F6B9F300D411D591F8E9F27D0BF9F70
:1047320025D06A9F23D0BE9F1DD0AF9F1BD0AE9FB6
:10474200110D291F391F491F591FE32FF42F652F00
:10475200522F4F913F912F911F910F9066232AF074
:10476200550FEE1FFF1F661F02C073954BF2CFDE7F
:104772005F910895100D211D391F02C0200D311DBA
:10478200491F591F08955F93DEDE703821F411200E
:104792000AF49FCFA4CF903809F495CF012408944E
:1047A200970B1BF4D4F30020F3CF792F1F932F9391
:1047B2003F934F931124112722273327442755274C
:1047C20090E2AE17BF078607410730F0AE1BBF0B62
:1047D200860B410B089401C08894551F221F331F7A
:1047E200111CAA1FBB1F881F441F9A9551F7F9017C
:1047F200612D4F913F912F911F91662332F0550FFA
:10480200EE1FFF1F661F7A9543F281DE5F910895C6
:1048120099239AF0772342F0971748F029F4AE17BC
:10482200BF07860720F031F09894889408959894F1
:10483200089408951894889408957723C2F79717D7
:1048420098F3A9F7EA17FB07680788F399F3ECCF07
:10485200309760407040089500240A160B0608063F
:10486200090608955A934A933A932A931A930A93FC
:1048720008955D814C813B812A81198108810895C7
:10488200AC0FBD1F6BBF07900D928A95E1F708959B
:00000001FF
