:0A0000000C9405080C9400000C9409
:10000A0000000C9400000C9400000C9400000C9466
:10001A0000000C9400000C9400000C9400000C9456
:10002A0000000C9400000C9400000C9400000C9446
:10003A0000000C9400000C9400000C9400000C9436
:10004A0000000C9400000C9400000C9400000C9426
:10005A0000000C9400000C9400000C9400000C9416
:10006A0000000C9400000C9400000C9400000C9406
:10007A0000000C9400000C9400000C9400000C94F6
:10008A00000012CF5B3B39A2AC3980348A3690E04B
:10009A0030B4339388430000803F4F8673330000A7
:1000AA000000B96C863A0D617B393893253448E1F2
:1000BA00FA3ECDCC4C3D0AD7A33B6F12033A17B791
:1000CA005138ACC5A7360A0D2A2A2A2A2A20534DA6
:1000DA00415254204449474954414C20494E5445C1
:1000EA005246414345202A2A2A2A2A0A0D00205329
:1000FA006F6674776172652056657273696F6E20D8
:10010A00312E31312C20323030362F31302F3038E9
:10011A000A0D002043757272656E7420454550526F
:10012A004F4D2076616C7565733A0A0D002049645B
:10013A00656E746966696572204865616465723DB9
:10014A002024524144253032640A0D002050535075
:10015A0020436F6566663D20252E32450A0D002034
:10016A0050495220436F6566663D20252E32450A66
:10017A000D0020496E74657276616C2054696D6554
:10018A00202873656373293D2025640A0D002043E6
:10019A006D61783D2025640A0D00205265666572FE
:1001AA00656E6365205265736973746F722043616B
:1001BA0073653D20252E31660A0D0020526566655D
:1001CA0072656E6365205265736973746F72204439
:1001DA006F6D653D20252E31660A0D002056746824
:1001EA0065726D3D20252E34662C20566164633D70
:1001FA0020252E34660A0D002050495220414443DE
:10020A00204F66667365743D20252E32660A0D00FE
:10021A002050495220414443204761696E3D2025C0
:10022A002E32660A0D002050535020414443204F7D
:10023A0066667365743D20252E32660A0D002050CD
:10024A00535020414443204761696E3D20252E3298
:10025A00660A0D0024524144253032642C2530327E
:10026A00642F253032642F253032642C25303264D5
:10027A003A253032643A253032642C25642C2564C0
:10028A002C252E32662C252E32662C252E32662CF3
:10029A00252E32662C252E31662C252E31660A0D26
:1002AA00000A0D0A0D4E4F414120524144494F4D1B
:1002BA004554455220494E544552464143452056DD
:1002CA00312E31312C20323030362F31302F303828
:1002DA000A0D0050726F6772616D205374617274F7
:1002EA002074696D652069733A20253032643A2595
:1002FA003032643A253032640A0D0050726F6772E8
:10030A00616D20537461727420646174652069732D
:10031A003A20253032642F253032642F253032645A
:10032A000A0D000A0D48697420616E79206B65799F
:10033A0020666F72204D61696E204D656E752E0ABA
:10034A000D000A0D204E4F414120524144494F4D64
:10035A004554455220494E54455246414345204250
:10036A004F4152442056455253494F4E3A20312E5E
:10037A0031312C2056455253494F4E204441544561
:10038A003A20323030362F30362F30310A0D0020E5
:10039A002D2D2D2D2D2D2D2D2D2D454550524F4DC9
:1003AA0020504152414D45544552532D2D2D2D2D4E
:1003BA002D2D2D2D2D2D2D2D2D2D2D2D2D2D2D2D63
:1003CA002D2D2D2D2D2D2D0A0D0050535020436F0C
:1003DA006566663D20252E32452C20504952204321
:1003EA006F6566663D20252E32450A0D005049523A
:1003FA006164635F6761696E3D20252E31662C203A
:10040A005049526164635F6F66667365743D202567
:10041A002E31660A0D005053506164635F6761694B
:10042A006E3D20252E31662C205053506164635F47
:10043A006F66667365743D20252E31660A0D0020AD
:10044A002D2D2D2D2D2D2D2D2D4441544520262089
:10045A0054494D452053455454494E472D2D2D2D71
:10046A002D2D2D2D2D2D2D2D2D2D2D2D2D2D2D2DB2
:10047A002D2D2D2D2D2D2D0A0D00275427202D2D04
:10048A003E5365742074686520646174652F7469CD
:10049A006D652E0A0D00202D2D2D2D2D2D2D2D2D86
:1004AA005053502053455454494E47532D2D2D2D0A
:1004BA002D2D2D2D2D2D2D2D2D2D2D2D2D2D2D2D62
:1004CA002D2D2D2D2D2D2D2D2D2D2D2D2D2D0A0D95
:1004DA0000277027202D2D3E53657420505350203D
:1004EA00636F656666696369656E742E0A0D002717
:1004FA006727202D2D3E5365742050535020616D7F
:10050A00706C6966696572206761696E2076616CD4
:10051A0075652E0A0D00276F27202D2D3E53657411
:10052A002050535020616D706C6966696572206F46
:10053A0066667365742076616C75652E0A0D0020F7
:10054A002D2D2D2D2D2D2D2D2D5049522053455415
:10055A0054494E47532D2D2D2D2D2D2D2D2D2D2D1D
:10056A002D2D2D2D2D2D2D2D2D2D2D2D2D2D2D2DB1
:10057A002D2D2D2D2D2D2D0A0D00274927202D2D0E
:10058A003E5365742050495220636F6566666963FD
:10059A0069656E742E0A0D00274727202D2D3E53BC
:1005AA0065742050495220616D706C696669657284
:1005BA00206761696E2076616C75652E0A0D0027C9
:1005CA004F27202D2D3E5365742050495220616DCE
:1005DA00706C6966696572206F66667365742076E9
:1005EA00616C75652E0A0D00274327202D2D3E5379
:1005FA0065742043617365205265666572656E6332
:10060A0065205265736973746F72202852392920E4
:10061A0076616C75652E0A0D00274427202D2D3E24
:10062A0053657420446F6D65205265666572656E08
:10063A006365205265736973746F72202852313072
:10064A00292076616C75652E0A0D00275627202D04
:10065A002D3E53657420546865726D6973746F72A8
:10066A002F414443205265666572656E6365205664
:10067A006F6C746167652028545033292076616C49
:10068A0075652E0A0D00202D2D2D2D2D2D2D2D2D8C
:10069A0054494D494E472053455454494E472D2DF0
:1006AA002D2D2D2D2D2D2D2D2D2D2D2D2D2D2D2D70
:1006BA002D2D2D2D2D2D2D2D2D2D2D2D2D2D0A0DA3
:1006CA0000274C27202D2D3E536574204F757470DA
:1006DA0075742074696D6520696E207365636F6E29
:1006EA0064732E0A0D00202D2D2D2D2D2D2D2D2D2F
:1006FA002D2D2D2D2D2D2D2D2D2D2D2D2D2D2D2D20
:10070A002D2D2D2D2D2D2D2D2D2D2D2D2D2D2D2D0F
:10071A002D2D2D2D2D2D2D2D2D2D2D2D2D2D0A0D42
:10072A0000275327202D2D3E53616D706C652031B3
:10073A003220626974204120746F20442E0A0D0011
:10074A00274127202D2D3E4368616E676520496445
:10075A00656E74696669657220537472696E672E74
:10076A000A0D00275827202D2D3E457869742074DC
:10077A00686973206D656E752C2072657475726E6A
:10078A0020746F206F7065726174696F6E2E0A0D26
:10079A00003D3D3D3D3D3D3D3D3D3D3D3D3D3D3DBC
:1007AA003D3D3D3D3D3D3D3D3D3D3D3D3D3D3D3D6F
:1007BA003D3D3D3D3D3D3D3D3D3D3D3D3D3D3D3D5F
:1007CA003D3D3D3D3D3D3D3D3D3D0A0D00436F6D87
:1007DA006D616E643F3E00202563000A0D53657407
:1007EA002054696D65202868686D6D7373293A20F5
:1007FA000020253264253264253264000A0D496ED0
:10080A00636F72726563742074696D6520656E74B6
:10081A00657265642C2074727920616761696E2E35
:10082A000A0D0054696D6520536574210A0D000A8A
:10083A000D5365742044617465202859594D4D44FF
:10084A0044293A20000A0D496E636F727265637417
:10085A00206461746520656E74657265642C207409
:10086A00727920616761696E0A0D004461746520BE
:10087A00536574210A0D004368616E6765204F75E0
:10088A007470757420496E74657276616C20696E35
:10089A0020736563730A0D0043757272656E742066
:1008AA00496E74657276616C2069733A20256420FA
:1008BA00736563730A0D00456E746572206E657701
:1008CA00206F757470757420696E74657276616CC8
:1008DA0020696E20736563733A20000A0D4F7574A0
:1008EA00206F662052616E67652E0A0D000A0D4C54
:1008FA006F6F7074696D65206973206E6F772073EE
:10090A00657420746F202564207365636F6E647349
:10091A002E0A0D004368616E6765205053502043CC
:10092A006F656666696369656E740A0D0043757260
:10093A0072656E742050535020436F656666696312
:10094A0069656E742069733A20252E32450A0D00B6
:10095A00456E746572204E65772050535020436F60
:10096A00656666696369656E743A20004F7574201E
:10097A006F662052616E67650A0D000A0D5053506A
:10098A0020436F656666696369656E7420697320C2
:10099A006E6F772073657420746F20252E32450A96
:1009AA000D004368616E67652050535020416D7099
:1009BA006C6966696572204761696E2056616C755B
:1009CA00650A0D0043757272656E7420505350208B
:1009DA00416D706C6966696572204761696E20565F
:1009EA00616C75653A20252E32660A0D00456E74D3
:1009FA006572204E65772050535020416D706C69A6
:100A0A0066696572204761696E2056616C75653A40
:100A1A0020000A0D50535020416D706C696669655B
:100A2A0072204761696E206973206E6F7720736543
:100A3A007420746F20252E32660A0D004368616E99
:100A4A0067652050535020416D706C696669657204
:100A5A00204F66667365742056616C75650A0D00D1
:100A6A0043757272656E742050535020416D706CDC
:100A7A006966696572204F66667365742056616C93
:100A8A0075653A20252E32660A0D00456E74657228
:100A9A00204E65772050535020416D706C6966690D
:100AAA006572204F66667365742056616C75653A87
:100ABA0020000A0D50535020416D706C69666965BB
:100ACA0072204F6666736574206973206E6F772093
:100ADA0073657420746F20252E32660A0D004368F0
:100AEA00616E67652050495220416D706C69666974
:100AFA006572204761696E2056616C75650A0D0042
:100B0A0043757272656E742050495220416D706C43
:100B1A006966696572204761696E2056616C756500
:100B2A003A20252E32660A0D00456E746572204EF3
:100B3A0065772050495220416D706C69666965720B
:100B4A00204761696E2056616C75653A20000A0D6E
:100B5A0050495220416D706C69666965722047611F
:100B6A00696E206973206E6F772073657420746FC5
:100B7A0020252E32660A0D004368616E6765205093
:100B8A00495220416D706C6966696572204F6666CC
:100B9A007365742056616C75650A0D00437572722F
:100BAA00656E742050495220416D706C69666965A2
:100BBA0072204F66667365742056616C75653A20BB
:100BCA00252E32660A0D00456E746572204E6577D1
:100BDA002050495220416D706C6966696572204FD8
:100BEA0066667365742056616C75653A20000A0D55
:100BFA0050495220416D706C6966696572204F6672
:100C0A0066736574206973206E6F7720736574202C
:100C1A00746F20252E32660A0D004368616E67657F
:100C2A002050495220436F656666696369656E7430
:100C3A000A0D0043757272656E7420504952204342
:100C4A006F656666696369656E742069733A202503
:100C5A00450A0D00456E746572204E65772050492D
:100C6A005220436F656666696369656E743A20004F
:100C7A000A0D50495220436F656666696369656E5D
:100C8A0074206973206E6F772073657420746F20E7
:100C9A0025450A0D004368616E67652043617365E7
:100CAA00205265666572656E636520526573697365
:100CBA00746F7220285239290A0D004375727265C1
:100CCA006E742043617365205265666572656E6352
:100CDA0065205265736973746F722069733A2025AF
:100CEA002E31660A0D00456E746572204E657720B6
:100CFA0043617365205265666572656E636520524D
:100D0A006573697374616E63653A20000A0D436105
:100D1A007365205265666572656E636520526573F8
:100D2A006973746F72206973206E6F7720736574AC
:100D3A0020746F20252E31660A0D004368616E67A4
:100D4A006520446F6D65205265666572656E6365E0
:100D5A00205265736973746F722028523130290AE0
:100D6A000D0043757272656E7420446F6D65205272
:100D7A0065666572656E6365205265736973746F23
:100D8A00722069733A20252E31660A0D00456E7469
:100D9A006572204E657720446F6D652052656665E1
:100DAA0072656E636520526573697374616E6365FB
:100DBA003A20000A0D446F6D6520526566657265BA
:100DCA006E6365205265736973746F72206973204C
:100DDA006E6F772073657420746F20252E31660A32
:100DEA000D004368616E676520546865726D6973AA
:100DFA00746F72205265666572656E636520566F00
:100E0A006C746167650A0D0043757272656E7420B1
:100E1A00546865726D6973746F7220526566657283
:100E2A00656E636520566F6C746167652069733AF5
:100E3A0020252E34660A0D00456E746572204E65B3
:100E4A007720546865726D6973746F722052656693
:100E5A006572656E636520566F6C746167653A20CA
:100E6A00000A0D546865726D6973746F7220526559
:100E7A00666572656E636520566F6C74616765207E
:100E8A006973206E6F772073657420746F20252E26
:100E9A0034660A0D004368616E6765204964656EB1
:100EAA0074696669657220416464726573730A0DB8
:100EBA000043757272656E74204964656E74696662
:100ECA0069657220416464726573733A20245241E1
:100EDA0044253032640A0D00456E746572204E65F1
:100EEA0077204964656E7469666965722041646435
:100EFA00726573732028302D3939293A20000A0D7A
:100F0A004964656E74696669657220537472696EA4
:100F1A0067206E6F772073657420746F3A202452AD
:100F2A004144253032640A0D000A0D205265747559
:100F3A00726E696E6720746F206F70657261746972
:100F4A006F6E2E2E2E0A0D0A0D00496E76616C699F
:100F5A0064206B65790A0D002537642025376420E3
:100F6A0025376420253764202537642025376420F7
:100F7A00253764202537640A0D0025372E3266206E
:100F8A0025372E32662025372E32662025372E3217
:100F9A00662025372E32662025372E3266202537E1
:100FAA002E32662025372E32660A0D0025372E325C
:100FBA00662025372E32662025372E3266202537C1
:100FCA002E32662025372E32662025372E326620AD
:100FDA0025372E32662025372E32660A0D0A0D0075
:100FEA00040000058C0004000405900004000805B4
:100FFA00940004000C059800040010059C000000F1
:10100A00F894EE27ECBBF1E0F5BFE5BFE0936C0086
:10101A00F8E1F1BDE1BD8DE0A2E0BB27ED938A9531
:10102A00E9F780E090E1A0E0B1E0ED930197E9F7FC
:10103A00EAEEFFE085919591009761F0A591B5914F
:10104A0005901590BF01F00105900D920197E1F707
:10105A00FB01F0CFEFEFEDBFE0E1EEBFC0E0D5E07E
:10106A000C943708EF972597CC24DD24AED185D18F
:10107A000E941E1B0E94631B0E94B41BEAE0EA93B3
:10108A000E944014EDE0EA930E9440140E94ED1B76
:10109A000E94FC1BE0E0E883E983EA83EB8338D112
:1010AA00ECAFFDAF6EAF7FAF4BD1ECABFDAB6EAB30
:1010BA007FAB0FD1E8AFF9AF6AAF7BAFE2E0F0E008
:1010CA000E94041CAF010E940C1C0E94141C0E9466
:1010DA001F1C0E94261CECA3FDA36EA37FA30E94E3
:1010EA00511C0E9499220E94561CE3E0F0E00E94E3
:1010FA00041CDE01AE5BBF4FED93FC93DE01AE5BD9
:10110A00BF4F0E945B1C0E94A3210E94141C0E94D4
:10111A00621C0E94261CE8A3F9A36AA37BA30E946F
:10112A00691C0E946E1CE1E0F0E00E94041C9F0111
:10113A00F9010E94751C0E947C1C0E94831C0E945B
:10114A008A1C0E94911C0E94911CE0E0F0E060E879
:10115A0070E40E94A321FE01BC96FA93EA93FE0171
:10116A00BA96FA93EA93FE01B896FA93EA930E9422
:10117A00CA120E94981CAC81BD818E819F810E94F7
:10118A0099220E949D1CE0E0F0E00E94041C0E944B
:10119A00A21C0E94751C0E94A51C0E94AC1C0E94E5
:1011AA00B31CFE01B496FA93EA930E941B140E94A0
:1011BA00BA1C0E94BF1C0E94C41C0E94ED1BA72DD2
:1011CA00BB27E82DF0E0AE1BBF0BBA93AA930E948F
:1011DA004C1A0F010E94CB1C0E161F0610F40C9419
:1011EA0063090E94D01CAC81BD818E819F810E94BF
:1011FA00D71C0E949D1C0E94D01C0E94511C0E9458
:10120A00D71C0E94561C0E94D01C0E94691C0E9476
:10121A00D71CE88FF98F6A8F7B8F0E94D01C0E949F
:10122A00BF1C0E94D71C0E94DE1C0E94E31C0E9465
:10123A00F01CECE0E41508F44E1AEEE5F2E00E9428
:10124A00FD1C0E94081D0E941B1DFE01E25AFF4F51
:10125A000190F081E02D0E942E1DF9010E942E1DA1
:10126A00EAA5FBA56CA57DA50E94331D0E94331D2E
:10127A000E94A321EAA9FBA96CA97DA90E94A32126
:10128A00FE01E259FF4F0190119061917081F001C6
:10129A000E94A321FE01EA58FF4F0190119061912B
:1012AA007081F0010E94A3218CE30E94C317EE967D
:1012BA000E94F01C862C0E94FC1B58D0DE01A05C08
:1012CA00BF4F0E943E1DEFD0309709F06FD2E7CE94
:1012DA00FFCF24970E948A230E94441D8F01E6E0D3
:1012EA00F0E00E944E1D9F013A932A93F801EE0FF7
:1012FA00FF1FFA93EA93EAE1F7E2FA93EA93D5D168
:10130A000E949D1C0E94561D0E94912328960895B2
:10131A0024971A930A93E7E0F0E00E944E1D0E9478
:10132A00A21C0E945B1D0E94601D0E941923AAE94B
:10133A00B9E989E99FE30E9499220E94671D12C0B8
:10134A0024971A930A930E94441D0E94A21CEE0F2E
:10135A00FF1FDF01E8EEF3E00E9437210E945B1DC8
:10136A000E94671D1981088126960895E1E00E946E
:10137A006C1DE3E00E946C1D0895A4D0EBEAF2E034
:10138A000E94731D0E94F01CECE0E41508F44E1A4A
:10139A00EDEDF2E0FA93EA930E941B1D8CE00E94A5
:1013AA00C3172E960E94E31CE5E0F3E0FA93EA9352
:1013BA000E94081D8CE00E94C3172E96EDE2F3E00E
:1013CA000E94731D0E947A1D0895E0E0EBBBEABB00
:1013DA00E3E0E5BBE4BBE0E0E2BBE1BBE3B9E2B9D1
:1013EA00E0936200E0936100E0936500E09364009B
:1013FA00E0BFE3BFE2BFE1BFEFBDEEBDEDBDECBDB7
:10140A00EBBDEABDE9BDE8BDE0937900E093780061
:10141A00E5BDE4BDE3BDE0938B00E0938A00E09371
:10142A008900E0938800E0938700E0938600E093C8
:10143A008500E0938400E0938300E0938200E093C8
:10144A006A00EABFE9BFE7BFE0937D00EBB9E8E1D4
:10145A00EAB9E6E0E0939500E0E0E0939000E9E184
:10146A00E9B9E0E0E0939B00E8E1E0939A00E6E066
:10147A00E0939D00E0E0E0939800E3E3E0939900B5
:10148A00E0E8E8B9E0E0E0BDE1E0E8BBE7E0E7BBBF
:10149A00E1E5EDB9E1E0EEB9EA93EA93E3E0EA9334
:1014AA000E94CF1A08951A930A93EBB1EF3728F0E6
:1014BA000CB11127E1E0F0E014C00CB11127E0E013
:1014CA00F0E00FC01A930A9300E010E00931E0E05F
:1014DA001E072CF40E947A1D0F5F1F4FF7CFE1E021
:1014EA00F0E009911991089526970E948823E0E077
:1014FA00EA87EB87E0E0F0E0AF019F018F01AC855E
:10150A00BD85119711F00C94D60AEE85FF853097A8
:10151A0029F4EFE8F0E060E070E03EC0AE85BF85F8
:10152A00119729F4EFECF0E060E070E035C0AE8589
:10153A00BF85129729F4EFE9F0E060E070E02CC073
:10154A00AE85BF85139729F4EFEDF0E060E070E017
:10155A0023C0AE85BF85149729F4EFEAF0E060E076
:10156A0070E01AC0AE85BF85159729F4EFEEF0E05A
:10157A0060E070E011C0AE85BF85169729F4EFEBE5
:10158A00F0E060E070E008C0AE85BF85179741F4CF
:10159A00EFEFF0E060E070E0EE83FF836887798721
:1015AA004BC0EE85FF85309729F4E7E8F0E060E06C
:1015BA0070E03EC0AE85BF85119729F4E7ECF0E0F4
:1015CA0060E070E035C0AE85BF85129729F4E7E97F
:1015DA00F0E060E070E02CC0AE85BF85139729F477
:1015EA00E7EDF0E060E070E023C0AE85BF851497B8
:1015FA0029F4E7EAF0E060E070E01AC0AE85BF8542
:10160A00159729F4E7EEF0E060E070E011C0AE85CE
:10161A00BF85169729F4E7EBF0E060E070E008C0B8
:10162A00AE85BF85179741F4E7EFF0E060E070E020
:10163A00EE83FF8368877987E7E0E8BBE6E0E8BBEB
:10164A00EE81EA930E94451A0E2F1127E0E0EA93F1
:10165A000E94451A2E2F3327E0E0EA930E94451A8A
:10166A004E2F5527E7E0E8BBAC85BD85119719F4E5
:10167A000E947D1D12C0EC85FD85309781F40E9481
:10168A007D1DEA87FB87AA85BB85A030E8E0BE07F7
:10169A0034F0EA85FB85E050F041EA87FB87EA856A
:1016AA00FB850E948F2360960895A097EAA1FBA16B
:1016BA000E945B1DDF01CB010E948B1D0E94921DBF
:1016CA000E94561CE8A1F9A10E945B1D0E94511CB0
:1016DA000E941923EC8BFD8B6E8B7F8B0E948B1DD6
:1016EA00DF01CB010E94BA1C0E941923E88FF98FEF
:1016FA006A8F7B8FE8A1F9A10E945B1D0E94691C79
:10170A000E9419230E94A3210E94541A0E94971D25
:10171A000E949C1DA0910405B091050580910605C3
:10172A00909107050E94E722A0910005B09101055A
:10173A0080910205909103050E94A11D0E94A81D97
:10174A00A0910805B091090580910A0590910B05B1
:10175A000E94E7220E949D1C0E94A81D0E94B01DA3
:10176A00A0910C05B0910D0580910E0590910F0581
:10177A000E94E7220E94DE1C0E94561D0E94B71D8D
:10178A000E9499220E94BF1C0E9499220E94BC1D9D
:10179A000E94C11DDF01CB01E0E0F0E06BE873E4D9
:1017AA000E94921D0E94BC1DA69608952E970E9423
:1017BA0088230E947A1DECE4F3E00E94731DE9E994
:1017CA00F3E00E94731DE4EDF3E00E94C81D0E943D
:1017DA007C1C0E94CB1DE7EFF3E00E94D01D0E9403
:1017EA00831C0E94CB1DE0E2F4E00E94D31D0E94FC
:1017FA00AC1C0E94CB1DE9E4F4E00E94731DE4E8EE
:10180A00F4E00E94731DE0EAF4E00E94731DEBED20
:10181A00F4E00E94731DE9EFF4E00E94731DE0E218
:10182A00F5E00E94731DE9E4F5E00E94731DE4E807
:10183A00F5E00E94731DE2EAF5E00E94731DE9ECEF
:10184A00F5E00E94731DE2EFF5E00E94731DE3E2EA
:10185A00F6E00E94731DE5E5F6E00E94731DE0E9DB
:10186A00F6E00E94731DEBECF6E00E94731DE0EFB8
:10187A00F6E00E94731DEBE2F7E00E94731DEAE4B2
:10188A00F7E00E94731DEDE6F7E00E94731DEBE995
:10189A00F7E00E94731DE7EDF7E00E94731DE1EE89
:1018AA00F7E0FA93EA93EDB7FEB70E94A1210F93EE
:1018BA0084E00E94FE1826960F91E02FF0E0E435AE
:1018CA00A0E0FA0731F0E437A0E0FA0711F00C942F
:1018DA00D60CE5EEF7E00E94731DEBEFF7E0FA9302
:1018EA00EA93EDB7FEB70E94A1211F93E5E0F0E06D
:1018FA0060E070E00E94A321E6E0F0E060E070E0C2
:10190A000E94D61D1F91183128F4ECE35E1610F4DC
:10191A006E1618F0E6E0F8E043C41A935A926A92F7
:10192A000E94FC1AEDE2F8E00E94731DE9E3F8E078
:10193A000E94731DEBEFF7E0FA93EA93EDB7FEB757
:10194A000E94A1212F93EAE0F0E060E070E00E949B
:10195A00A321EBE0F0E060E070E00E94D61D2F9139
:10196A00213010F0203208F00FC0E0E0EA1518F438
:10197A00ECE0EA1508F408C0E6E0BE1618F0E3E663
:10198A00EB1508F401C003C0EFE4F8E009C42A9398
:10199A00AA92BA920E94151BE5E7F8E00E94731D0D
:1019AA0005C4EC34A0E0FA0731F0EC36A0E0FA07FF
:1019BA0011F00C94320DE1E8F8E00E94731DE2EA9E
:1019CA00F8E00E94DD1D0E94E11DE1ECF8E00E94B2
:1019DA00731DE0E0EE83EF83AE81BF811597DCF4DF
:1019EA000E94E61DEA0FFB1FFF93EF9340D7AF91CA
:1019FA00BF910E94EB1D0E94E61D0E94FD1D29F069
:101A0A000E94E61D0E94021E19F40E94071E03C0CE
:101A1A000E940D1EE1CF0E94131EE0E0F0E066E195
:101A2A0074E40E945A2328F40E94131E0E948223FF
:101A3A001CF0E5EEF8E0B4C30E941C1E0E942822A6
:101A4A00AF01FA01A9E0B0E00E94D521E7EFF8E082
:101A5A000E94DD1D0E94E11DA9C3E037A0E0FA073C
:101A6A0011F00C94860DEEE1F9E00E94731DE7E394
:101A7A00F9E00E94C81D0E94E11DEAE5F9E00E9412
:101A8A00731DE0E0EE83EF83AE81BF815497DCF4EF
:101A9A000E94E61DEA0FFB1FFF93EF93E8D6AF9172
:101AAA00BF910E94EB1D0E94E61D0E94FD1D29F0B8
:101ABA000E94E61D0E94021E19F40E94071E03C01E
:101ACA000E940D1EE1CF0E94131E0E94221E48F49E
:101ADA000E94131E0E94291E09F010F40C94760D20
:101AEA0003C0E6E7F9E05CC30E941C1EA1E0B0E077
:101AFA000E94CA21E5E8F9E00E94C81D0E94E11D82
:101B0A0055C3E736A0E0FA0711F00C94E00DECEAB1
:101B1A00F9E00E94731DEEECF9E00E94D31D0E94C9
:101B2A00E11DE7EFF9E00E94731DE0E0EE83EF8329
:101B3A00AE81BF815497DCF40E94E61DEA0FFB1FB9
:101B4A00FF93EF9394D6AF91BF910E94EB1D0E9431
:101B5A00E61D0E94FD1D29F00E94E61D0E94021E3C
:101B6A0019F40E94071E03C00E940D1EE1CF0E94B5
:101B7A00131EE0E0F0E066E173E40E945A2358F491
:101B8A000E941C1E0E94601D0E945A2309F010F434
:101B9A000C94D00D03C0E6E7F9E002C30E941C1EB4
:101BAA00A9E2B0E00E94CA21ECE1FAE00E94D31D4A
:101BBA000E94E11DFBC2EF36A0E0FA0711F00C9477
:101BCA003F0EE6E4FAE00E94731DEAE6FAE0FA93B1
:101BDA00EA930E94AC1C0E94E11DE5E9FAE00E942A
:101BEA00731DE0E0EE83EF83AE81BF815497DCF48E
:101BFA000E94E61DEA0FFB1FFF93EF9338D6AF91C1
:101C0A00BF910E94EB1D0E94E61D0E94FD1D29F056
:101C1A000E94E61D0E94021E19F40E94071E03C0BC
:101C2A000E940D1EE1CF0E94131EE0E0F0E068E47E
:101C3A0072E40E945A2319F010F00C942D0E0E949F
:101C4A00131EE0E0F0E068E472EC0E945A2318F4F4
:101C5A00E6E7F9E0A5C20E941C1EA5E2B0E00E94D8
:101C6A00CA21ECEBFAE0FA93EA930E94AC1C0E94B8
:101C7A00E11D9CC2E734A0E0FA0711F00C949A0E19
:101C8A00E8EEFAE00E94731DEAE0FBE00E94D01D34
:101C9A000E94E11DE3E3FBE00E94731DE0E0EE8396
:101CAA00EF83AE81BF815497DCF40E94E61DEA0FF0
:101CBA00FB1FFF93EF93DBD5AF91BF910E94EB1D02
:101CCA000E94E61D0E94FD1D29F00E94E61D0E9449
:101CDA00021E19F40E94071E03C00E940D1EE1CFC6
:101CEA000E94131EE0E0F0E061E674E40E945A23C9
:101CFA0019F010F00C948A0E0E94131EE0E0F0E036
:101D0A0068E474E40E945A2318F4E6E7F9E048C24A
:101D1A000E941C1EA1E2B0E00E94CA21E8E5FBE095
:101D2A000E94D01D0E94E11D41C2EF34A0E0FA07D3
:101D3A0011F00C94F90EE2E8FBE00E94731DE6EA4A
:101D4A00FBE0FA93EA930E94831C0E94E11DE1EDF5
:101D5A00FBE00E94731DE0E0EE83EF83AE81BF815A
:101D6A005497DCF40E94E61DEA0FFB1FFF93EF93E2
:101D7A007ED5AF91BF910E94EB1D0E94E61D0E9485
:101D8A00FD1D29F00E94E61D0E94021E19F40E9400
:101D9A00071E03C00E940D1EE1CF0E94131EE0E041
:101DAA00F0E068EC71E40E945A2319F010F00C94E8
:101DBA00E70E0E94131EE0E0F0E068EC71EC0E946E
:101DCA005A2318F4E6E7F9E0EBC10E941C1EADE1C4
:101DDA00B0E00E94CA21E8EFFBE0FA93EA930E947E
:101DEA00831C0E94E11DE2C1E934A0E0FA0711F068
:101DFA000C94510FE4E2FCE00E94731DEDE3FCE059
:101E0A00FA93EA930E947C1C0E94E11DEEE5FCE035
:101E1A000E94731DE0E0EE83EF83AE81BF81549789
:101E2A00DCF40E94E61DEA0FFB1FFF93EF931FD518
:101E3A00AF91BF910E94EB1D0E94E61D0E94FD1DFD
:101E4A0029F00E94E61D0E94021E19F40E94071E34
:101E5A0003C00E940D1EE1CF0E94131E0E94221E83
:101E6A0048F40E94131E0E94291E09F010F40C94D3
:101E7A003F0F03C0E6E7F9E093C10E941C1EA5E0EC
:101E8A00B0E00E94CA21EAE7FCE0FA93EA930E94D2
:101E9A007C1C0E94E11D8AC1E334A0E0FA0711F01C
:101EAA000C94A80FEFE9FCE00E94731DE5ECFCE03E
:101EBA00FA93EA930E941F1C0E94E11DE0EFFCE0E6
:101ECA000E94731DE0E0EE83EF83AE81BF815497D9
:101EDA00DCF40E94E61DEA0FFB1FFF93EF93C7D4C1
:101EEA00AF91BF910E94EB1D0E94E61D0E94FD1D4D
:101EFA0029F00E94E61D0E94021E19F40E94071E84
:101F0A0003C00E940D1EE1CF0E94131E0E94301EC4
:101F1A0019F010F00C94960F0E94131E0E94371E9F
:101F2A0018F4E6E7F9E03CC10E941C1EADE0B0E0FF
:101F3A000E94CA21E6E1FDE0FA93EA930E941F1C7F
:101F4A000E94E11D33C1E434A0E0FA0711F00C94B9
:101F5A00FF0FE5E4FDE00E94731DECE6FDE0FA9355
:101F6A00EA930E94621C0E94E11DE7E9FDE00E94DB
:101F7A00731DE0E0EE83EF83AE81BF815497DCF4FA
:101F8A000E94E61DEA0FFB1FFF93EF9370D4AF91F7
:101F9A00BF910E94EB1D0E94E61D0E94FD1D29F0C3
:101FAA000E94E61D0E94021E19F40E94071E03C029
:101FBA000E940D1EE1CF0E94131E0E94301E19F0CE
:101FCA0010F00C94ED0F0E94131E0E94371E18F495
:101FDA00E6E7F9E0E5C00E941C1EA1E1B0E00E941C
:101FEA00CA21EDEBFDE0FA93EA930E94621C0E947B
:101FFA00E11DDCC0E635A0E0FA0711F00C945E1092
:10200A00ECEEFDE00E94731DE2E1FEE00E943E1E3E
:10201A00E2E4FEE00E94731DE0E0EE83EF83AE810E
:10202A00BF815497DCF40E94E61DEA0FFB1FFF9361
:10203A00EF931DD4AF91BF910E94EB1D0E94E61D44
:10204A000E94FD1D29F00E94E61D0E94021E19F43D
:10205A000E94071E03C00E940D1EE1CF0E94131E9C
:10206A00E0E0F0E060E970E40E945A2319F010F011
:10207A000C9448100E94131EE0E0F0E060E870E45F
:10208A000E945A2318F4E6E7F9E08AC00E941C1E4F
:10209A00A5E1B0E00E94CA21A5E1B0E00E94B52105
:1020AA00A9E1B0E00E94CA21EBE6FEE00E943E1ED2
:1020BA007DC0E134A0E0FA0711F00C94AF10EFE90B
:1020CA00FEE00E94731DEBEBFEE00E94FD1C0E94E5
:1020DA00E11DE2EEFEE00E94731DE0E0EE83EF8375
:1020EA00AE81BF815497DCF40E94E61DEA0FFB1F04
:1020FA00FF93EF93BCD3AF91BF910E94EB1D0E9457
:10210A00E61D0E94FD1D29F00E94E61D0E94021E86
:10211A0019F40E94071E03C00E940D1EE1CF0E94FF
:10212A00471EE436A0E0FA072CF40E94471EDF019E
:10213A0010971CF4E6E7F9E033C00E94471EADE2AF
:10214A00B0E00E94D521E8E0FFE00E94FD1C0E9459
:10215A00E11D2CC0E835A0E0FA0721F0E837A0E03D
:10216A00FA0709F41BC0E335A0E0FA0711F422D0FC
:10217A001DC0EA35A0E0FA0721F0EA37A0E0FA0725
:10218A0049F40E941E1B0E94631B0E94B41BE5EFC8
:10219A00F0E006C0E4E5FFE00E94731DE3E3FFE020
:1021AA00FA93EA9380E00E94C31722960E948F2333
:1021BA0064960895EF9721970E94882349E15CEF7E
:1021CA000E944D1EDE01AE5BBF4FED93FD936D93F2
:1021DA007C93DE01A25CBF4FED93FD936D937C93DC
:1021EA00EAAFFBAF6CAF7DAFEEABFFAB68AF79AFD9
:1021FA00EAABFBAB6CAB7DABEEA7FFA768AB79ABE9
:10220A00EAA7FBA76CA77DA7EEA3FFA368A779A7F8
:10221A000E944D1EEAA3FBA36CA37DA3EE8FFF8F42
:10222A0068A379A3EA8FFB8F6C8F7D8FEE8BFF8B70
:10223A00688F798FEA8BFB8B6C8B7D8BEE87FF87A0
:10224A00688B798BEA87FB876C877D870E94521E91
:10225A0020E030E00E947A1D0E94580A309711F05F
:10226A000C94C311E8E0F0E0FA93EA9352D1E2E663
:10227A00FFE0FA93EA93E0911405F09115050E94A4
:10228A002E1DE0911605F09117050E942E1DE09172
:10229A001805F09119050E942E1DE0911A05F0917A
:1022AA001B050E942E1DE0911C05F0911D050E9440
:1022BA002E1DE0911E05F0911F050E942E1DE09132
:1022CA002005F09121050E942E1DE0912205F09132
:1022DA0023050E942E1D0E94571E00E010E00830C0
:1022EA00E0E01E0714F00C94BA110E945C1EFF93E2
:1022FA00EF93DF010E9490217F936F93FF93EF93F7
:10230A000E94641EAF91BF918F919F910E94992262
:10231A00AF91BF910E949621F801DE0116960E94A4
:10232A006C1EFF93EF93DF010E9490217F936F93BE
:10233A00FF93EF930E94641E7F936F93FF93EF9333
:10234A000E94641EAF91BF918F919F910E94E722D4
:10235A00AF91BF918F919F910E949922AF91BF91A6
:10236A000E9496210F5F1F4FBACF2F5F3F4FE8EEB3
:10237A00F3E0FA93EA930E9415206ECF0E947A1D29
:10238A0000E010E00830E0E01E079CF40E945C1EAA
:10239A00FA93EA93F801DE0118960E946C1EFA93EA
:1023AA00EA933A932A930E940C1C54D00F5F1F4F52
:1023BA00E9CFE4E8FFE0FA93EA930E94711EFE0176
:1023CA00E85BFF4F0190119061917081F0010E94CA
:1023DA00A321FE01E05BFF4F019011906191708192
:1023EA00F0010E94A321FE01E85AFF4F01901190CB
:1023FA0061917081F0010E94A321FE01E05AFF4F12
:10240A000190119061917081F0010E94A3210E94B4
:10241A00571EE6EBFFE0FA93EA930E948E1E0E9493
:10242A00A3210E94981C0E94A321E88DF98D6A8D30
:10243A007B8D0E94A321E8A1F9A16AA17BA10E9438
:10244A00A3210E94711E0E94571E0E948F23EF969D
:10245A0027960895AC81BD8113973CF40E94931E80
:10246A00A885B9850E94981E4FC0A885B985BF93D3
:10247A00AF930E949B1EAF91BF910E94A21E0E9421
:10248A009B1E7F936F93FF93EF930E94A71E7F93E8
:10249A006F93FF93EF930E94A71EAF91BF918F9105
:1024AA009F910E94E722AF91BF918F919F910E94C5
:1024BA00921DAE81BF810E94A21E0E949021DF015F
:1024CA00CB01EC81FD810E94AC1EDF01CB01EC81C6
:1024DA00FD8131970E94D71CAE81BF810E94A21E46
:1024EA000E949021DF01CB010E947E232CF4AE8151
:1024FA00BF810E944D1E0AC0AE81BF810E949021F9
:10250A000E94A3210E947120AE81BF810E94962160
:10251A0013C11A930A93AA81BB811897D9F400E0D0
:10252A0010E00830E0E01E07A4F4F8010E94B01E93
:10253A00FF93EF931A930A93E0E0F0E0FA93EA9399
:10254A000E94790AAF91BF91ED93FC930F5F1F4FE1
:10255A00E8CF17C0AA81BB81109724F0A830E0E029
:10256A00BE070CF00EC0EA81FB810E94B01EFF93E9
:10257A00EF93EA81FB810E94041CAF91BF91ED9316
:10258A00FC9319810881249608956C9788E0ACE041
:10259A00B0E0E0EAF0E00E949623AAA9BBA98CA9C0
:1025AA009DA9EAADFBAD6CAD7DAD0E949222DF0123
:1025BA00CB01EEA5FFA568A979A90E94B71EDF0184
:1025CA00CB01EEA9FFA968AD79AD0E94C21E0E9497
:1025DA00C51EAAA5BBA58CA59DA50E946E1C0E941E
:1025EA00C51EAEA1BFA188A599A50E949922EC8B10
:1025FA00FD8B6E8B7F8BE88DF98D6A8D7B8D0E94AA
:10260A00CE1E0E94CE1E0E94CE1E0E94D21E0E9484
:10261A00BA1C0E94D71E0E94D71E0E94D71E0E9473
:10262A009D1C0E94981C0E94B01D0E94B71D0E940A
:10263A00E722AE8DBF8D0E949621EAA1FBA16CA173
:10264A007DA10E94FF21A889B9898A899B890E9454
:10265A00E7227F936F93FF93EF930E94B71D0E9427
:10266A00561D0E949222AF91BF918F919F910E9415
:10267A00E722AC8DBD8D0E949621AE8DBF8D0E9442
:10268A0090210E94BF1C0E9499227F936F93FF930F
:10269A00EF93AC8DBD8D0E949021AF91BF918F9128
:1026AA009F910E949922A8A1B9A10E949621EE9613
:1026BA00089524970E94561D0E94A3210E94541A2D
:1026CA000E94DE1C0E94A71E7F936F93FF93EF93D5
:1026DA00E885F985A481B581868197819F938F9337
:1026EA00BF93AF93A085B185828593850E94931E7F
:1026FA000E94E7220E94DE1EAF91BF918F919F91A7
:10270A000E9499220E94DE1EAF91BF918F919F91E4
:10271A000E94C41C0E94931E0E94C11DA091100514
:10272A00B091110580911205909113050E94922291
:10273A000E94DE1C0E94931E2A96089560978CE0E0
:10274A00A0E0B0E0ECEAF0E00E949623FE01FA93E2
:10275A00EA93EE89FF89688D798D0E94A3210E94F0
:10276A005E130E94971DA889B9898A899B89EFE619
:10277A00F2E163E87BE30E9419230E94E21E0E94B1
:10278A00921D0E94971D0E949C1D68960895249789
:10279A00AA8DBB8D8C8D9D8DE0E0F0E060E070E449
:1027AA000E941923AA85BB858C859D850E94E722F4
:1027BA00DF01CB01EE89FF89688D798D0E9419238B
:1027CA00A885B9850E9496210E94A71EAE85BF855D
:1027DA00888999890E94921DDF01CB01EA89FB89C8
:1027EA006C897D890E94C21E0E94A71EDF01CB014F
:1027FA000E94931E0E941923AE81BF810E94981ED7
:10280A000E94DE1E7F936F93FF93EF93AE81BF8189
:10281A000E949021AF91BF918F919F910E94E722D0
:10282A00AC81BD810E9496216E9608952497AA854F
:10283A00BB858C859D85EA89FB896C897D890E9487
:10284A009222DF01CB010E94E71E0E94B71EDF0120
:10285A00CB01EE85FF85688979890E94C21E0E9494
:10286A00931EAC81BD810E94981E669608955F9B57
:10287A00FECFECB108955D9BFECFE881ECB92196BD
:10288A000895A881B9810E948C21309731F00E9465
:10289A003E1D3197AA81A08304C0EA81EA930E946F
:1028AA0040142396089524971A930A93A885A6306C
:1028BA0010F0E5E0E887E885F0E0A8EBB0E00E94D8
:1028CA006C1E0E949B210E94EC1E0E9499220E946B
:1028DA00F11E00E00E94F61EEA83FB836C837D836F
:1028EA00EA81FB816C817D810E94EC1E0E945A2341
:1028FA0050F00E94FB1E0E94E722EA83FB836C834E
:10290A007D830F5FEDCF003029F40E94041FE0E3BE
:10291A00EC9322C0E02F0150E030F1F00E94FB1E40
:10292A000E940B1F0E94671D0E94EC1E0E94192321
:10293A000E9428221E2F0E94041F0E94171FAA818C
:10294A00BB818C819D810E94AC1E0E94EC1E0E945C
:10295A00921D0E94F11EDECFE885E03029F4AE8197
:10296A00BF81E0E0EC9327C00E94041FEEE2EC93E3
:10297A00E885E150E887EF5FD1F00E94EC1E0E94E3
:10298A001D1F0E94F11EE985FA856B857C850E94D0
:10299A0028221E2F0E94041F0E94171F0E94EC1E4D
:1029AA000E945B1D0E94921D0E94F11EE1CFAE8122
:1029BA00BF81E0E0EC93198108812D960895249750
:1029CA000E948B230E94F61E0E94241FAA85A6300D
:1029DA0010F0E5E0EA870A85E02F0150E03029F09F
:1029EA000E94291F0E94241FF7CFEB85FC856D8565
:1029FA007E850E947A2331F420E00E94291F0E94DA
:102A0A00241F36C02A850E942E1F09F010F40C9448
:102A1A001B150E94291F0E94241F0E942E1F28F0A6
:102A2A000E94391F0E943E1FF8CF0FC00E942E1F1E
:102A3A0040F40E94391F0E941D1F0E944A1F215004
:102A4A00F5CF0E94291F0E94241FEB85FC856D8506
:102A5A007E85A0E0B0E080E09FE30E9499220E9478
:102A6A004A1F0E942E1F20F00E94391F0E943E1FFB
:102A7A0000E0EA85E017B8F1AB81BC818D819E81C7
:102A8A00E0E0F0E060E271E40E940B1F0E94241F64
:102A9A00EB81FC816D817E810E94391F0E9419237E
:102AAA000E9428221E2F0E944F1FE12FE05DEC9307
:102ABA00E12FFF27662777270E945B22AB81BC8123
:102ACA008D819E810E94E7220E94391F0E94921DD9
:102ADA000E944A1FE02F0F5FE03059F60E944F1FF5
:102AEA00EEE2EC93C6CF0E94561FA985A083203040
:102AFA002CF40E944F1FEDE2EC9321952A304CF002
:102B0A000E94561FBF01A22FEAE00E941F210E94C5
:102B1A005D1F0E94561FBF01A22FEAE00E94622198
:102B2A000E945D1FAF81B885E0E0EC930E9492237A
:102B3A002F9608956C970E94882300E0EEA1FFA1CA
:102B4A003196EEA3FFA33197E4913E2FE03011F4C2
:102B5A000C94BF17E02FF0E0309739F4353211F4B6
:102B6A0001E002C00E94641F04C2E130A0E0FA073B
:102B7A00C1F4353219F40E94641FFAC102E0E0E0A0
:102B8A00E98B10E03D3211F411E0F3C13B3219F444
:102B9A00EBE2E98BEEC1303219F4E0E2E98BE9C1EC
:102BAA0004C0E230A0E0FA0739F440E003E0303331
:102BBA0011F41068DEC104C0E330A0E0FA07A9F4FA
:102BCA00303310F03A3308F00AC0A42FEAE0EA9F43
:102BDA00F0014E2FE32F0E946B1F4E0FCAC150E027
:102BEA003E3211F404E0C5C114C0E430A0E0FA0793
:102BFA00B1F4303310F03A3308F00BC01062A52F4D
:102C0A00EAE0EA9FF0015E2FE32F0E946B1F5E0F3E
:102C1A00B0C13C3619F4126005E0ABC106C0E5301C
:102C2A00A0E0FA0711F00C94BE17E32F0E946E1F62
:102C3A0031F40E94731FEC910E947A1F99C1E53406
:102C4A00A0E0FA0721F0E536A0E0FA0709F406C089
:102C5A00E636A0E0FA0711F00C947916FE01729696
:102C6A00EA87FB870E94731F0E9490210E94521ECE
:102C7A00DF01CB010E947E2324F0A989AB3249F0FF
:102C8A0012C00E94E71E0E94FF210E94521EEDE21E
:102C9A00E98B17FF04C0E9890E947A1F04C00E94C9
:102CAA00811FA989A08315FF55E0363661F40E9479
:102CBA00E71E0E94A3215A93EF85F889FA93EA93B3
:102CCA000E9458140CC00E94E71E0E94A3215A9326
:102CDA003A93E889F989FA93EA930E94E414FE0187
:102CEA0072960E94881F22C0E337A0E0FA0739F4DF
:102CFA000E94731F0E948C210E94881F10C0E03717
:102D0A00A0E0FA07C1F40E94731F0E948C21EA878F
:102D1A00FB87FA93EA930E940A200E2F18601F7706
:102D2A00503011F0501708F001C0052F50E0E0E0D4
:102D3A00E88B20E077C0E436A0E0FA0721F0E93614
:102D4A00A0E0FA0711F4146004C0E537A0E0FA071E
:102D5A00A1F4EAE0E88B11FF08C0E0E0FAEC6AE9C6
:102D6A007BE30E94971D0AE027C0E0E1F7E260E0FA
:102D7A0070E00E94971D05E01FC0E835A0E0FA0741
:102D8A0011F4186006C0E837A0E0FA0711F00C94B5
:102D9A00BD17E0E1E88B11FF08C0E0E0F0E060E079
:102DAA0070E10E94971D08E007C0E0E0F0E160E0F2
:102DBA0070E00E94971D04E0503011F01F7701C0A7
:102DCA0051E011FF05C00E94731F0E9490210FC09D
:102DDA0012FF07C00E94731F0E948C210E94FF20CD
:102DEA0006C00E94731F0E948C2166277727EE83F4
:102DFA00FF836887798712FF14C00E94901F0E9480
:102E0A007E2344F40E94E71E0E94E7200E94521E7D
:102E1A00EDE2E98BE989E03019F00F5F5F5F01C0ED
:102E2A001B7F252F10FD14C0041710F4241708F077
:102E3A000FC017FF08C012FF04C01B7F3989015059
:102E4A0001C030E301C030E20E94641F4150ECCF60
:102E5A000517A0F4106112FF09C01B7FE9890E94BF
:102E6A007A1F403009F0415001505150E0E30E946E
:102E7A007A1F403009F041505150EACF202FE8899B
:102E8A00E030D1F42030B9F013FF04C00E94811F52
:102E9A00E49105C0AA85BB85ED91AA87BB87EA9311
:102EAA00EBA1FCA1FA93EA930E944614403009F080
:102EBA0041502150E7CF53C00E949C1D0E94901F91
:102ECA000E943C213E2F3A3030F013FF02C0395C99
:102EDA0001C0395A01C0305D14FD23C0313350F4AA
:102EEA000E94E21EA130E0E0BE07E0E08E07E0E0CB
:102EFA009E0709F40CC0521708F008C0421710F0D8
:102F0A0010FF01C013C030E217FF0BC030E310619D
:102F1A0012FF07C01B7FE9890E947A1F403009F01F
:102F2A0041500E94641F403009F0415021500E94D4
:102F3A009C1D0E94901F0E946E210E94521EE889C9
:102F4A00F0E00E94E21E0E94FF200E943C210E94A3
:102F5A00971D0E949C1D0E947A2309F0ADCF10FF95
:102F6A0007C0403029F04150E0E20E947A1FF9CFB1
:102F7A0000E0E4CD0E948F23A8960895FF920E9454
:102F8A00951F0E949F153AC10A93AB81BC81EC91AF
:102F9A000E2FE03019F0E0E0EC9312C0A981BA815B
:102FAA000E948C21309749F00E948C21E0810E2FDB
:102FBA00E03011F00E943E1D03C00E943C140E2F07
:102FCA00E02F08812596089524970E948823E0E03F
:102FDA00E9875E2FEE85FF853196EE87FF87319769
:102FEA00E4912E2FE03011F40C94F9180E94AF1FCF
:102FFA0091F0EDB7FEB7FA93EA935F930E94B41F7C
:10300A005F912E2FE03019F00E94AF1F09F401C022
:10301A00F0CF522FE8C0253211F00C94E41840E0AA
:10302A00EE85FF852591EE87FF87203310F02A333E
:10303A0008F00AC0A42FEAE0EA9FF0014E2FE22F1F
:10304A000E946B1F4E0FECCF203009F4CDC0EDB7B4
:10305A00FEB7FA93EA935F930E94B41F5F913E2FE3
:10306A00EA930E94F61FE03091F7303009F4B5C0B8
:10307A00532F403009F44FEFE22F0E946E1F69F47C
:10308A000E94BA1FEDB7FEB7FA93EA935F930E94C4
:10309A00B41F5F91D801EC938EC0E337A0E0FA0722
:1030AA0011F50E94BA1FE42F4150E030C1F0EDB78C
:1030BA00FEB7FA93EA935F930E94B41F5F912E2F93
:1030CA00E03019F00E94AF1F09F009C01F930F9357
:1030DA000F5F1F4FE22FAF91BF91EC93E4CFD8015E
:1030EA00E0E0EC9368C0E1E0E887E22FF0E0E43644
:1030FA00A0E0FA0721F0E936A0E0FA0719F4E0E0C7
:10310A00E88704C0E537A0E0FA0711F43AE00DC0F9
:10311A00E837A0E0FA0711F430E107C0E532A0E091
:10312A00FA0709F44CC0E98560C0E0E0EE83EF835A
:10313A00E42F4150E03091F1EDB7FEB7FA93EA93EC
:10314A005F930E94B41F5F912E2FE132B8F0E88599
:10315A00E03039F42D3219F4EFEFE887E9CFE1E0F6
:10316A00E887203358F0213610F0275505C021345E
:10317A0010F0275301C02053231710F0522F0EC00E
:10318A00E32FF0E0AE81BF810E940921DF01E22F27
:10319A00F0E0EA0FFB1FEE83FF83CACF0E94BA1F3B
:1031AA00E885F0E0E7FDFFEFAE81BF810E940921CB
:1031BA00D801ED93FC93E985EF5FE98714C0EDB779
:1031CA00FEB7FA93EA935F930E94B41F5F91F0E00F
:1031DA00A22FB0E0EA17FB0731F0E985E03011F4DD
:1031EA00EFEF03C001C0F6CEE9850E948F236096F7
:1031FA000895FF920E94951F0E94E917198108817C
:10320A002496FF900895B981A881EC91EA930E94CF
:10321A00F61FEE2311F01196F8CFE894EC91ED32F7
:10322A0011F4689402C0EB3209F4119666277727E5
:10323A00EC91EA930E94EE1FEE2381F0E62FF72F1E
:10324A00660F771F660F771F6E0F7F1F660F771F38
:10325A00ED91FF27E0536E0F7F1FEACFE62FF72F7E
:10326A001EF4E095F0953196229608952A970E94C9
:10327A008823E0E0E887E987EA87EB87A889B989A4
:10328A00EC914E2FEA930E94F61FE03031F0E88964
:10329A00F9893196E88BF98BF1CFE0E0EF834B3275
:1032AA0009F404C04D3239F4E1E0EF83E889F98981
:1032BA003196E88BF98BE0E05E2F4E2F0889198949
:1032CA00A889B989EC91EA930E94EE1FE03049F48B
:1032DA00A889B989AC91EEE20E9404214E2FE03010
:1032EA0049F0E42FF0E05E2BE889F9893196E88B02
:1032FA00F98BE6CF28893989503029F1E889F9898B
:10330A003197E88BF98BA889B989AC91AE32D9F09B
:10331A00A889B989EC910E946B1F0E94B71D0E946F
:10332A005B1D0E949922DF01CB01E0E0F0E060E240
:10333A0071E40E9419230E94D21EE889F989319703
:10334A00E88BF98BE0CF0E94F61E0E94971DA88990
:10335A00B9891197A88BB98BA017B10790F0EC9196
:10336A000E946B1F0E94E21E0E94AC1E0E94B71DA3
:10337A000E94A11D0E94E21E0E941D1F0E94971D0D
:10338A00E6CFD9012F5F3F4F4C91453619F04534AE
:10339A0009F067C0E0E05E2FEE83D9014C914B3211
:1033AA0009F404C04D3221F4E1E0EE832F5F3F4F70
:1033BA00D9012F5F3F4FEC914E2FEA930E94EE1FE7
:1033CA00E03089F0A52FEAE0EA9FF001AE2FE42F62
:1033DA00F0E0B0E0AE0FBF1FE0E3F0E00E94AE21E4
:1033EA00EA1B5E2FE5CF573268F0EF81E03029F013
:1033FA00EFEFFFEF6FE77FEF3FC0EFEFFFEF6FE712
:10340A007FE73AC040E20E94F61E0E94971D4030B4
:10341A00A1F00E94A81D0E94971DE52FF0E0A42F9D
:10342A00B0E0EA23FB23309731F00E94E21E0E94AB
:10343A001D1F0E94971D4695EACFEE81E03039F0B4
:10344A000E949C1D0E94B71D0E94192306C00E945B
:10345A009C1D0E94B71D0E94E722E887F9876A87A8
:10346A007B87EF81E03031F00E948E1E0E94FF219F
:10347A000E94D21E0E948E1E0E948F236296089579
:10348A00E881EFB9779BFECFEFB121960895E991D4
:10349A00F99130971AF4E095F095319608952497AA
:1034AA001A930A9338D50E9482232CF0EFEFFFEF8C
:1034BA006FE77FEF6BC086D40E94A321EDB7FEB7FA
:1034CA003197FA93EA931F930F930E94EC210F917D
:1034DA001F91E3D320D5E3EFF4E065E37FE30E9495
:1034EA005A2338F46FD417D50E949922D6D30150A3
:1034FA00104011D576D411D37F936F93FF93EF9336
:10350A0061D4A0E0B0E080E89FE30E949922AF91E5
:10351A00BF918F919F910E941923BFD353D4FBD49B
:10352A000E94E722CFD2A6E2B2E485E69FE30E9498
:10353A00E722DF01CB01EEE4F1E164E570E4EDD2CC
:10354A00EAD40E94E7227F936F93FF93EF93AA81B5
:10355A00BB818C819D81EDE4F1E164ED7FE3DDD2F5
:10356A00AF91BF918F919F910E9419237F936F937F
:10357A00FF93EF93F801A8E1B2E781E39FE3E7D372
:10358A00AF91BF918F919F910E94992219810881D1
:10359A002A960895E881E370E883EA81E03019F019
:1035AA00E881E06AE883A981A13019F4E881E4603E
:1035BA0007C0A981A23019F4E881E86001C0E0E0FF
:1035CA00E883DCD4E0E9EA93E981DED430C0E5E8B7
:1035DA00E4D4AC81BD81EC93E3E8DFD4AA81BB815A
:1035EA00EC93E1E8DAD4A881B981EC9317C0C6D488
:1035FA00E4E8D9D4E2E8DFD4E0E8E5D418C0E7E8A3
:10360A00CCD4AC81BD81EC93E9E8C7D4AA81BB8153
:10361A00EC93EDE8C2D4A881B981EC93269608957B
:10362A00ADD4E6E8C0D4E8E8C6D4ECE8CCD4239616
:10363A000895E0EDF0E0FA93EA9380E00E94C31760
:10364A002296E8EFF0E0FA93EA9380E00E94C3172B
:10365A002296EDE1F1E0FA93EA9380E00E94C31723
:10366A002296E7E3F1E0FA93EA93ADE2B0E00E9432
:10367A00BA210E94FF200E94A32184E00E94C3175E
:10368A002696E6E5F1E0FA93EA93A1E0B0E00E941B
:10369A00B5210E94A32184E00E94C3172696E9E679
:1036AA00F1E0FA93EA93A5E0B0E00E94B5210E9406
:1036BA00A32184E00E94C31726960895ECE7F1E05F
:1036CA00FA93EA93A9E0B0E00E94BA210E94FF208F
:1036DA000E94A32184E00E94C3172696E8E9F1E03C
:1036EA00FA93EA93ABE0B0E00E94BA210E94FF206D
:1036FA000E94A32184E00E94C3172696E4EAF1E01F
:10370A00FA93EA93ADE0B0E00E94B5210E94A321AA
:10371A0084E00E94C3172696E5ECF1E0FA93EA9357
:10372A00A1E1B0E00E94B5210E94A32184E00E9499
:10373A00C3172696E6EEF1E0FA93EA93A5E1B0E024
:10374A000E94B5210E94A321A9E1B0E00E94B521FF
:10375A000E94A32188E00E94C3172A960895E2E0F6
:10376A00F2E0FA93EA93ADE1B0E00E94B5210E943B
:10377A00A32184E00E94C3172696EAE1F2E0FA93B5
:10378A00EA93A1E2B0E00E94B5210E94A32184E05D
:10379A000E94C3172696E0E3F2E0FA93EA93A5E2C1
:1037AA00B0E00E94B5210E94A32184E00E94C317C1
:1037BA002696E8E4F2E0FA93EA93A9E2B0E00E94DE
:1037CA00B5210E94A32184E00E94C317269608957A
:1037DA00E4E0F0E0FA93EA93E5E0F0E0FA93EA93A2
:1037EA00E6E0F0E0FA93EA93F2DE762C0895E1E05F
:1037FA00F0E0DE01A05CBF4FED93FC930895FA93CD
:10380A00EA93E0E0F0E0FA93EA930C94790AFA0179
:10381A000E94FF200E945B220E94A3210895ABE030
:10382A00B0E00E94BA210E94FF200E945B220E94FF
:10383A00A3210895ADE0B0E00E94B5210E94A32122
:10384A000895A5E1B0E00E94B5210E94A321A9E153
:10385A00B0E00E94B5210E94A321FE01EC5BFF4F5C
:10386A00FA93EA93FE01EE5BFF4FFA93EA93FE01A5
:10387A00E05CFF4FFA93EA930E94CC13ECA5FDA5F6
:10388A006EA57FA50E94A321ECA5FDA56EA57FA527
:10389A000E94A3210C94A313AC8DBD8D8E8D9F8D98
:1038AA000895EC8FFD8F6E8F7F8F08950E948C2173
:1038BA000E94FF200E945B220895A1E1B0E00E94CD
:1038CA00B5210E94A3210895A88DB98D8A8D9B8D5B
:1038DA0008950E949922E88FF98F6A8F7B8F089545
:1038EA000E94FF200E945B220E94A3210895A5E066
:1038FA00B0E00E94B5210E94A3210895ADE1B0E095
:10390A000E94B5210E94A3210895A1E2B0E00E947D
:10391A00B5210E94A3210895ECA9FDA96EA97FA94A
:10392A000E94A3210895E889F9896A897B89089503
:10393A00EC83FD836E837F8308958F01F8010895D8
:10394A00A1E0B0E00E94B5210E94A3210895A5E25A
:10395A00B0E00E94B5210E94A3210895A9E2B0E037
:10396A000E94B5210E94A3210895EC89FD896E89E0
:10397A007F890895A881B9818A819B8108950E94CF
:10398A009922E883F9836A837B830895A9E0B0E0EA
:10399A000E94BA210895FE01E05CFF4F0190F08178
:1039AA00E02D08950E94FF200E945B220E941923A5
:1039BA000895E883F9836A837B830895E9E0F0E058
:1039CA00FA93EA93EAE0F0E0FA93EA93EBE0F0E0A4
:1039DA00FA93EA9314CEE4E0F0E0FA93EA93E5E08E
:1039EA00F0E0FA93EA93E6E0F0E0FA93EA93EFCD97
:1039FA00FA93EA93ADE2B0E00E94BA210E94FF2056
:103A0A000E94A3210895EB2DFF27662777270E949E
:103A1A00A321EA2DFF27662777270E94A321E92DF4
:103A2A00FF27662777270E94A3210895E42DFF2701
:103A3A00662777270E94A321E52DFF276627772788
:103A4A000E94A321E62DFF27662777270E94A3213C
:103A5A0008950E94FF200E94A32108950E94A32195
:103A6A00FE01EA5BFF4F0190119061917081F001B4
:103A7A000895ED91FD913196FE93EE930895E5E058
:103A8A00F0E0FA93EA93E1E0F0E0FA93EA930C9417
:103A9A00790AFA93EA93E1E0F0E0FA93EA930C9454
:103AAA00790AEC81FD816E817F8108950E94FF2051
:103ABA000E945B220895DF01CB01E0E0F0E068ECB0
:103ACA0072E40895EA83FB836C837D830895E5BBE2
:103ADA00E2E3F0E0FA93EA930C941520FA93EA935E
:103AEA0080E00E94C31722960895E5EFF0E0F6CF32
:103AFA00220F331F569547955695479556954795E4
:103B0A00F9010E94F020E40FF51F0895ECA1FDA130
:103B1A00662777270E945B2208950E94A8210E94A7
:103B2A0092220895EC87FD876E877F870895EC853A
:103B3A00FD856E857F8508950E949922E887F98719
:103B4A006A877B870895F3DFAC85BD858E859F855F
:103B5A000E94E7220895AC85BD858E859F850E94C7
:103B6A00E7220895A885B9858A859B850895E88BFB
:103B7A00F98B6A8B7B8BD7CEA0E0B0E080E89FE31D
:103B8A000E9419230895FA93EA93DACE88E00E94F4
:103B9A00C3172A960895FA93EA93B7CEFA93EA934B
:103BAA00DDCE0E94A3218CE00E94FE182E96089575
:103BBA00FA93EA93EBDE4DCF84E00E94C317269670
:103BCA000895EE81FF81DE0118960895EC93E2EEE6
:103BDA00F7E0FA93EA93E885F985DE011A96AE0FC3
:103BEA00BF1FEC91FF27662777270E94A321E4CF06
:103BFA00AE0FBF1FAC91AA300895AE0FBF1FAC9194
:103C0A00AD300895EE81FF813197EE83FF830895E9
:103C1A00EE81FF813196EE83FF830895FE01389687
:103C2A00FA93EA930E943B19DF01CB010895FE0142
:103C3A003896FA93EA930C943B19ECEAF5EC67E2AE
:103C4A0077E30E945A230895E5E9FFEB66ED73E3F3
:103C5A000E945A230895E0E0F0E46CE177E40E94C0
:103C6A005A230895E0E0F0E46CE975E40E945A23CF
:103C7A000895FA93EA93A5E1B0E00E94B5210E9463
:103C8A00A3219ACFFE013896FA93EA930C94081965
:103C9A00E0E0F0E060E070E00895EE83FF8368877B
:103CAA007987089580E20E94C317A2960895F801C1
:103CBA00DE0196960E94F420EA0FFB1F0895F80190
:103CCA00A4E1B5E0EE0FFF1FAE0FBF1FEFCD0E94BC
:103CDA00F420EA0FFB1F0895E8A5F9A56AA57BA5BC
:103CEA000E94A321E8A9F9A96AA97BA90E94A32194
:103CFA00E8ADF9AD6AAD7BAD0E94A321FE01E05C9F
:103D0A00FF4F0190119061917081F0010E94A321EF
:103D1A000895E885F9856A857B850895E881F981A2
:103D2A006A817B8108950E949621F8CF0E94902192
:103D3A00DF01CB01EC81FD8135CE0E949621AE8157
:103D4A00BF810895A885B9850E9490210895AEDEA5
:103D5A000E94E7220895A4E1B5E0EE0FFF1FEA0FE3
:103D6A00FB1F08950E941923DF01CB01E0E0F0E078
:103D7A006AE774E40E94192308950E94192319CE50
:103D8A00E0911005F09111056091120570911305EB
:103D9A0008959ADD0E94E7220895E887F9876A87DD
:103DAA007B870895AC89BD898E899F890E94E72205
:103DBA000895E0DD0E94E7220895AC85BD858E85D1
:103DCA009F850895EE81FF81688579850895A98583
:103DDA00BA858B859C850895E987FA876B877C87E6
:103DEA000895E0E0F0E060E87FE30895AA81BB81EE
:103DFA008C819D81E0E0F0E060E271E40895AE819B
:103E0A00BF811196AE83BF83119708950E9419232B
:103E1A00A0E0B0E080E09FE30E9499220E94A321E3
:103E2A000C94D620E12FE05DEC93E12FF0E00895A9
:103E3A00E0E0F0E060E271E40E94E7220895EB839B
:103E4A00FC836D837E830895AB81BC818D819E81C5
:103E5A00EFCFEB81FC816D817E81AB85BC858D8541
:103E6A009E850E945A230895AB85BC858D859E85C3
:103E7A000895E0E0F0E060E271E40E941923EB8724
:103E8A00FC876D877E872F5F0895EB87FC876D8798
:103E9A007E870895AF81B8851196AF83B887119749
:103EAA000895EF81F8853196EF83F8873197089561
:103EBA00F0E0E7FDFFEFF096DB01EC9308953A930B
:103ECA00EBA1FCA1FA93EA930C944614E053F0E0B8
:103EDA000895F0E0E336A0E0FA070895ACA1BDA189
:103EEA001497ACA3BDA314960895EA93EBA1FCA181
:103EFA00FA93EA930C944614EA85FB853196EA878D
:103F0A00FB8731970895EA87FB87FA93EA930E9421
:103F1A0000200E2F0895AE81BF8188859985089566
:103F2A00F82E22971A930A93DE010E94DF208D0150
:103F3A00E0E0EA83EB83DE0114960E94DF200E9410
:103F4A008C21FA93EA931A930A93FE013696FA930E
:103F5A00EA9308952A930E94F61FE0300895EC85AB
:103F6A00FD85FA93EA930C94C917AC85BD8514971D
:103F7A00AC87BD8714960D911C910895EEE8EA93DB
:103F8A00E0E0EA930C944F20EA930E944F20EEE877
:103F9A00EA93E0E8EA930C944F20EA930E943620D1
:103FAA00EA930C942120EA93EB81EA930E942D2054
:103FBA00EA930C944F20EA93EA81EA930E942D2017
:103FCA00EA930C944F20EA93E981EA930E942D2008
:103FDA00DBCFE1E0F991F03310F0FA3308F0EE2785
:103FEA000895E1E0F991F03229F0F93010F0FE304D
:103FFA0008F0EE270895A991B991EE27FF276D9150
:10400A00662311F03196FBCF0895AA27BB27E991C1
:10401A00F9910590002011F01196FBCFFD0108954A
:10402A00E991F991309639F080ED97E00197F1F72F
:10403A00A8953197C9F70895E881E295EF70AE2FF8
:10404A00AA0FAA0FEA0FEE0FA991AF70EA0F08950F
:10405A00A991EE27AA5012F0E05FFCCFA65FEA0F03
:10406A000895E991E1601DD0C498BC98A8E08894AD
:10407A00B4990894E795C59A85E08A95F1F7C598A9
:10408A0085E08A95F1F7AA9591F7C6988DE08A9509
:10409A00F1F70895E981EE7F04D0E88109D02296EC
:1040AA00F4CFBD9ABC9ABE9AC69A8DE08A95F1F76A
:1040BA00A8E0E795C49808F4C49A0000000000003C
:1040CA000000C59A85E08A95F1F7C59885E08A953A
:1040DA00F1F7AA9571F7089524975F939F81992321
:1040EA0011F4289663C212F4289666C24F9342E4EA
:1040FA008E81BD81AC8188839983AA83BB83FD01AC
:10410A00BC01AC81BD818E819F818ED288819981CB
:10411A00AA81BB8109D28ED17A9572D1888199817F
:10412A00AA81BB81AE27A87F21F4BF17860797070C
:10413A0029F04A9519F0DF01CB01DDCF4F915F914C
:10414A00289608957B816A81F981E88177FB770F48
:10415A0067FD7160972F9E5781F078F0983190F43F
:10416A00AA27BB27882708948795B795A7959A9574
:10417A00D1F7EA23FB23682305C0E8947727EE27C3
:10418A00FF2766276F77769508F4606877F9A99113
:10419A00B99189919991EA17FB076807790797FB03
:1041AA000895D0DF09F40895F6F79FEBAA27BB27F5
:1041BA0080E8BAC10024AF0DB01D0895E095F095CE
:1041CA0031960895E095F09560957095EF5FFF4FF1
:1041DA006F4F7F4F0895EE0FFF1FEE0FFF1FEE0F79
:1041EA00FF1FEE0FFF1F0895FE2FFF0FFF0B6F2F0C
:1041FA007F2F08956F2F660F660B762F0895EA17A3
:10420A00E1E009F0EE270895FA9FF02DEB9FF00DFB
:10421A00EA9FE02DF10D0895002498E0AA0F001CF2
:10422A000E1A10F40E0E01C0A1609A95B9F7EA2F82
:10423A00A02D089552D0F0DF0EF4E19508950024E0
:10424A00112490E1AA0FBB1F001C111C0E1A1F0A91
:10425A0018F40E0E1F1E01C0A1609A9599F7FD0170
:10426A00D001089546D0EBDF0EF4A8DF08953F93FE
:10427A004F935F93002411243327442750E2AA0F57
:10428A00BB1F881F991F001C111C331F441F0E1AC5
:10429A001F0A360B470B28F40E0E1F1E361F471F28
:1042AA0001C0A1605A9559F7FD01BC01D001832FC5
:1042BA00942F5F914F913F910895E894A7FF02C010
:1042CA00A1956894E7FDE195A7DFEA2F0EF4E19541
:1042DA000895CDDFFD01BC010895E894E7FF02C00F
:1042EA00E1956894A7FF04C0A19500F8039400FA29
:1042FA000895E894F7FF02C061DF6894B7FF06C02B
:10430A00A095B095119600F8039400FA0895ED91DE
:10431A00FC9111970895ED91FD916D917C91139700
:10432A000895ED93FD936D937C93089505901590F0
:10433A0065917491F001089560E070E07A936A9350
:10434A00FA93EA930895182E862F612D192E972F26
:10435A00712D1B2EBF2FF12D1A2EAE2FE12D089590
:10436A00129603D07F2F6E2F1297119602D0FE2F2E
:10437A001197E199FECFFF93FFB7F894AEBBBFBB8D
:10438A00E09AEDB3FFBFFF9108950AD012960E2E60
:10439A001F2EE62FF72F04D0E02DF12D1297089546
:1043AA0007D01196EF93EF2F03D0EF91119708954D
:1043BA00E199FECF9FB7F894AEBBBFBBE09A8DB32D
:1043CA00E81719F0EDBBE29AE19A9FBF0895A99107
:1043DA00B991E991F9916991799177FB660F771F04
:1043EA0088277E57880B7D938C937EE77695679511
:1043FA000EF0089530976040704009F070580895A3
:10440A0050E8572711F45F93D1C05F3F31F0660F30
:10441A00000C57956795752F08955F9300200AF051
:10442A00CBC0BEC050E8192E1522880F991F9527B8
:10443A00550F879550E8072E0522660F771F7527B7
:10444A00550F679508955F93F5DF703818F07F3F31
:10445A0008F4ACC056E1571B92F45195583028F035
:10446A00EFEFFFEF6FEF7FE71AC077275523B9F019
:10447A00EE0FFF1F661F771F5A95D1F710C07727D7
:10448A00583028F0EF2FF62F672F5850F9CF5523C1
:10449A0031F076956795F795E7955A95D1F700200B
:1044AA000AF490DE5F910895689401C0E894309709
:1044BA0060407040B1F0002426F0772312F4009493
:1044CA0081DE172E7EE1112032F07A95EE0FFF1F62
:1044DA00661F111CF9CFEF2FF62F612D5F9390DF26
:1044EA005F9108955E2FEA2FA52F5F2FFB2FB52F1F
:1044FA00562F682F852F572F792F952F502D012C46
:10450A00152E0895EA0FFB1F681F0895E095F09590
:10451A006095EF5FFF4F6F4F08955F9383DF903889
:10452A0071F150E8152604C05F937CDF903839F1A9
:10453A00703821F1572F591B13F112F4D3DFFACF38
:10454A00583118F0AA27BB278827583028F0AB2FF4
:10455A00B82F88275850F9CF552329F08695B79553
:10456A00A7955A95D9F7502D512562F0CBDF38F42B
:10457A006795F795E795739513F41EC0B3DF40DF8F
:10458A005F910895EA1BFB0B680B81F010F400940D
:10459A00BDDF6623A2F3EE0FFF1F661F7A95CBF7E6
:1045AA00EFEFFFEF6FE77FEF5F910895EE27FF27A9
:1045BA00662777275F910895EFEFFFEF6FE77FE7B1
:1045CA005F9108955F932EDF703881F3903871F30D
:1045DA0001240894791F23F44CF300200AF3ECCF4A
:1045EA003F934F93112433274427552798E1330FDC
:1045FA00441F551FEE1FFF1F661F30F43A0F4B1F53
:10460A00581FE11DF11D611D9A9589F74F913F9140
:10461A0066232AF0550FEE1FFF1F661F02C073950F
:10462A00E3F2EEDE5F9108955F93FCDE703819F4D1
:10463A00112012F6B5CF903809F4B8CF01240894A6
:10464A00970B1BF4D4F30020F4CF792F6695F795D6
:10465A00E7958695B795A7954F9311244427552733
:10466A0098E1AE17BF07860728F0AE1BBF0B860B73
:10467A00089401C08894111C441F551FAA1FBB1F10
:10468A00881F9A9571F7E12DF42F652FA695E91FDA
:10469A00F91F691F4F9166232AF0EE0FFF1F661F4D
:1046AA007A955BF2ADDE5F91089599239AF07723AC
:1046BA0042F0971748F029F4AE17BF07860720F093
:1046CA0031F09894889408959894089408951894C9
:1046DA00889408957723C2F7971798F3A9F7EA17EA
:1046EA00FB07680788F399F3ECCF30976040704076
:1046FA000895109780409040089500240A160B06EA
:10470A000806090608955A934A933A932A931A93E4
:10471A000A9308955D814C813B812A811981088120
:10472A000895AC0FBD1F05900D928A95E1F7089583
:00000001FF
