:100000000C9420080C9400000C9400000C94000048
:100010000C9400000C9400000C9400000C94000060
:100020000C9400000C9400000C9400000C94000050
:100030000C9400000C9400000C9400000C94000040
:100040000C9400000C9400000C9400000C94000030
:100050000C9400000C9400000C9400000C94000020
:100060000C9400000C9400000C9400000C94000010
:100070000C9400000C9400000C9400000C94000000
:100080000C9400000C9400000C94000012CF5B3B19
:1000900039A2AC3980348A3690E030B4312E313711
:1000A0006100323030392C30322C31323393884376
:1000B000B96C863A0D617B39389325340D0A2A2AAA
:1000C0002A20524144494F4D4554455220414E410A
:1000D0004C4F4720544F204449474954414C2049F4
:1000E0004E54455246414345202852414429202A36
:1000F0002A2A0D0A0020536F6674776172652056B4
:10010000657273696F6E2025732C2025730D0A00AC
:10011000204469676974616C20496E746572666118
:10012000636520426F617264202D20526576204302
:100130002E2046656220323030390D0A002043758A
:100140007272656E7420454550524F4D2076616C39
:100150007565733A0D0A00204964656E74696669B5
:100160006572204865616465723D202457495225B7
:100170003032640D0A002050535020436F6566668C
:100180003D20252E32450D0A002050495220436F54
:100190006566663D20252E32450D0A0020496E74A5
:1001A000657276616C2054696D6520287365637390
:1001B000293D2025640D0A0020436D61783D2025EE
:1001C000640D0A00205265666572656E6365205293
:1001D00065736973746F7220436173653D20252ECA
:1001E00031660D0A00205265666572656E63652092
:1001F0005265736973746F7220446F6D653D20257D
:100200002E31660D0A002056746865726D3D2025FA
:100210002E34662C20566164633D20252E34660DF5
:100220000A002050495220414443204F66667365BE
:10023000743D20252E3266206D760D0A002050492F
:100240005220414443204761696E3D20252E32668D
:100250000D0A002050535020414443204F666673DE
:1002600065743D20252E3266206D760D0A002050E3
:10027000535020414443204761696E3D20252E3272
:10028000660D0A0020494420202020444154452086
:10029000202020202054494D4520202020202020AF
:1002A00023202020504952202020204C572020205D
:1002B0002020205443415345202054444F4D452095
:1002C000202020205357202020542D4156522020FA
:1002D00020424154540D0A002D2D2D2D2D2D2D2D54
:1002E0002D2D2D2D2D2D2D2D2D2D2D2D2D2D2D2D3E
:1002F0002D2D2D2D2D2D2D2D2D2D2D2D2D2D2D2D2E
:100300002D2D2D2D2D2D2D2D2D2D2D2D2D2D2D2D1D
:100310002D2D2D2D2D2D2D2D2D2D2D2D2D2D2D2D0D
:100320002D2D2D2D2D2D2D2D2D0D0A00245749520B
:10033000253032642C253032642F253032642F254D
:100340003032642C253032643A253032643A25301C
:1003500032642C2534642C25372E31662C25372E1B
:1003600032662C25362E32662C25362E32662C250A
:10037000372E32662C25352E31662C25352E3166EA
:100380000D0A00436F6D6D616E643F3E000D0A54AF
:10039000494D454F55543A2052657475726E20741C
:1003A0006F2073616D706C696E670D0A005749525A
:1003B0002530326420424F41524420285245562075
:1003C00042292056455253494F4E3A2025732C203E
:1003D00056455253494F4E20444154453A202573C7
:1003E0000D0A0043757272656E74206461746574E1
:1003F000696D653A2025303264253032642530320B
:10040000642C2530326425303264253032640D0A84
:1004100000202D2D2D2D2D5053502053455454493F
:100420004E47530D0A00276B27202D2D3E53657430
:100430002050535020636F656666696369656E740A
:100440002028252E324520762F28572F6D5E322901
:10045000290D0A00276727202D2D3E536574205053
:10046000535020616D706C696669657220676169BF
:100470006E2076616C75652E2028252E3166290D3B
:100480000A00276F27202D2D3E53657420505350AE
:1004900020616D706C6966696572206F6666736550
:1004A000742C206D762E2028252E3166206D76291D
:1004B0000D0A00202D2D2D2D2D504952205345542D
:1004C00054494E47530D0A00274B27202D2D3E53EC
:1004D00065742050495220636F656666696369657B
:1004E0006E742028252E324520762F28572F6D5EDA
:1004F0003229290D0A00274727202D2D3E536574E8
:100500002050495220616D706C6966696572206780
:1005100061696E2076616C75652E2028252E316606
:10052000290D0A00274F27202D2D3E53657420509A
:10053000495220616D706C6966696572206F6666EC
:100540007365742C206D762E2028252E3166206D43
:1005500076290D0A00274327202D2D3E5365742050
:100560004361736520527265662028252E3166200E
:100570006F686D73292E0D0A00274427202D2D3E0C
:1005800053657420446F6D6520527265662028257E
:100590002E3166206F686D73292E0D0A00275627AD
:1005A000202D2D3E53657420546865726D697374F7
:1005B0006F72205265666572656E63652026204104
:1005C0004443205265666572656E636520566F6CA4
:1005D000746167652028252E3166206D56292E0D01
:1005E0000A00202D2D2D2D2D2D2D2D2D444154452E
:1005F00020262054494D452053455454494E472DFB
:100600002D2D2D2D2D2D2D2D2D2D2D2D2D2D2D2D1A
:100610002D2D2D2D2D2D2D2D2D2D0D0A002754275F
:10062000202D2D3E536574207468652064617465C7
:100630002F74696D652E0D0A00202D2D2D2D2D2D69
:100640002D2D2D54494D494E472053455454494E64
:10065000472D2D2D2D2D2D2D2D2D2D2D2D2D2D2DB0
:100660002D2D2D2D2D2D2D2D2D2D2D2D2D2D2D2DBA
:100670002D0D0A00274C27202D2D3E536574204F49
:1006800075747075742074696D6520696E2073656A
:10069000636F6E64732E20282564290D0A00202DB7
:1006A0002D2D2D2D2D2D2D2D2D2D2D2D2D2D2D2D7A
:1006B0002D2D2D2D2D2D2D2D2D2D2D2D2D2D2D2D6A
:1006C0002D2D2D2D2D2D2D2D2D2D2D2D2D2D2D2D5A
:1006D0002D2D2D2D2D2D0D0A00275327202D2D3E9C
:1006E00053616D706C652031322062697420412045
:1006F000746F20442E0D0A00274127202D2D3E43E4
:1007000068616E6765204964656E746966696572C3
:1007100020537472696E672E202825303264290DAB
:100720000A00275827202D2D3E45786974207468CB
:100730006973206D656E752C2072657475726E20FC
:10074000746F206F7065726174696F6E2E0D0A0090
:100750003D3D3D3D3D3D3D3D3D3D3D3D3D3D3D3DC9
:100760003D3D3D3D3D3D3D3D3D3D3D3D3D3D3D3DB9
:100770003D3D3D3D3D3D3D3D3D3D3D3D3D3D3D3DA9
:100780003D3D3D3D3D3D3D3D3D0D0A00537973747A
:10079000656D206461746574696D65202879794D93
:1007A0004D646468686D6D7373292069732025300A
:1007B000326425303264253032642530326425308D
:1007C0003264253032640D0A00456E746572206E05
:1007D0006577206461746574696D6520657861630F
:1007E000746C79202879794D4D646468686D6D73F7
:1007F00073293A2020006461746574696D65206511
:1008000072726F722C2025630D0A00646174657426
:10081000696D65206572726F72320D0A000D0A648F
:1008200061746574696D6520737472696E67203DCB
:100830002025730D0A007972203D2025640D0A00E1
:100840006461746574696D65206572726F720D0AFA
:1008500000536574206461746574696D653A202580
:1008600030326425303264253032642C25303264D5
:1008700025303264253032640D0A004368616E67AA
:1008800065204F757470757420496E746572766159
:100890006C20696E20736563730D0A004375727274
:1008A000656E7420496E74657276616C2069733A66
:1008B00020256420736563730D0A00456E746572AC
:1008C000206E6577206F757470757420696E74651D
:1008D0007276616C20696E20736563733A2000251F
:1008E00063000D0A4F7574206F662052616E676554
:1008F0002E0D0A000D0A4C6F6F7074696D652069CA
:1009000073206E6F772073657420746F20256420C8
:100910007365636F6E64732E0D0A004368616E67C2
:10092000652050535020436F656666696369656E44
:10093000740D0A0043757272656E74205053502016
:10094000436F656666696369656E742069733A20F2
:10095000252E32450D0A00456E746572204E65776E
:100960002050535020436F656666696369656E74F5
:100970003A20000D0A4F7574206F662052616E6731
:10098000650D0A000D0A50535020436F6566666975
:100990006369656E74206973206E6F772073657468
:1009A00020746F20252E32450D0A004368616E6762
:1009B000652050535020416D706C696669657220E6
:1009C0004761696E2056616C75650D0A004375724A
:1009D00072656E742050535020416D706C69666969
:1009E0006572204761696E2056616C75653A2025F5
:1009F0002E32660D0A00456E746572204E657720B2
:100A000050535020416D706C696669657220476172
:100A1000696E2056616C75653A20000D0A5053507E
:100A200020416D706C6966696572204761696E204E
:100A30006973206E6F772073657420746F20252E84
:100A400032660D0A004368616E676520505350207E
:100A5000416D706C6966696572204F666673657476
:100A60002056616C75650D0A0043757272656E746F
:100A70002050535020416D706C6966696572204F3B
:100A800066667365742056616C75653A20252E3252
:100A9000660D0A00456E746572204E6577205053CE
:100AA0005020416D706C6966696572204F6666738F
:100AB00065742056616C75653A20000D0A505350DC
:100AC00020416D706C6966696572204F666673655A
:100AD00074206973206E6F772073657420746F20A3
:100AE000252E32660D0A004368616E676520504905
:100AF0005220416D706C6966696572204761696E4C
:100B00002056616C75650D0A0043757272656E74CE
:100B10002050495220416D706C69666965722047AA
:100B200061696E2056616C75653A20252E32660D1E
:100B30000A00456E746572204E6577205049522038
:100B4000416D706C6966696572204761696E2056F7
:100B5000616C75653A20000D0A50495220416D7054
:100B60006C6966696572204761696E206973206EE1
:100B70006F772073657420746F20252E32660D0AFE
:100B8000004368616E67652050495220416D706C6A
:100B90006966696572204F66667365742056616C7C
:100BA00075650D0A0043757272656E742050495266
:100BB00020416D706C6966696572204F6666736569
:100BC000742056616C75653A20252E32660D0A0038
:100BD000456E746572204E65772050495220416DF4
:100BE000706C6966696572204F666673657420561D
:100BF000616C75653A20000D0A50495220416D70B4
:100C00006C6966696572204F6666736574206973E6
:100C1000206E6F772073657420746F20252E3266E6
:100C20000D0A004368616E67652050495220436F8A
:100C3000656666696369656E740D0A004375727254
:100C4000656E742050495220436F6566666963691A
:100C5000656E742069733A2025450D0A00456E744F
:100C60006572204E65772050495220436F65666655
:100C7000696369656E743A20000D0A504952204339
:100C80006F656666696369656E74206973206E6F4F
:100C9000772073657420746F2025450D0A00436822
:100CA000616E676520436173652052656665726594
:100CB0006E6365205265736973746F7220285238B1
:100CC000290D0A0043757272656E74204361736565
:100CD000205265666572656E63652052657369733F
:100CE000746F722069733A20252E31660D0A004513
:100CF0006E746572204E657720436173652052657E
:100D0000666572656E636520526573697374616EA2
:100D100063653A20000D0A4361736520526566657C
:100D200072656E6365205265736973746F722069B2
:100D300073206E6F772073657420746F20252E31B9
:100D4000660D0A004368616E676520446F6D65201B
:100D50005265666572656E6365205265736973746A
:100D60006F7220285239290D0A0043757272656E20
:100D70007420446F6D65205265666572656E6365AB
:100D8000205265736973746F722069733A20252E3F
:100D900031660D0A00456E746572204E65772044F9
:100DA0006F6D65205265666572656E63652052657C
:100DB00073697374616E63653A20000D0A446F6D48
:100DC00065205265666572656E636520526573695C
:100DD00073746F72206973206E6F7720736574204F
:100DE000746F20252E31660D0A004368616E6765B9
:100DF00020546865726D6973746F72205265666500
:100E000072656E636520566F6C746167650D0A00CC
:100E100043757272656E7420546865726D6973747F
:100E20006F72205265666572656E636520566F6CE1
:100E3000746167652069733A20252E346620566FE9
:100E40006C74730D0A00456E746572204E657720D0
:100E5000546865726D6973746F722052656665724D
:100E6000656E636520566F6C746167652028766FC8
:100E70006C6F7473293A20000D0A546865726D69AD
:100E800073746F72205265666572656E6365205675
:100E90006F6C74616765206973206E6F772073656E
:100EA0007420746F20252E346620766F6C74730D59
:100EB0000A004368616E6765204964656E746966FF
:100EC00069657220416464726573730D0A0043752D
:100ED0007272656E74204964656E746966696572C4
:100EE00020416464726573733A2024574952253057
:100EF00032640D0A00456E746572204E6577204994
:100F000064656E74696669657220416464726573B4
:100F100073202830302D3939293A20000D0A4964D0
:100F2000656E74696669657220537472696E6720B4
:100F30006E6F772073657420746F3A20245749527E
:100F4000253032640D0A0052455455524E20544FFC
:100F50002053414D504C450D0A00496E76616C6935
:100F600064206B65790D0A002537642025376420DD
:100F700025376420253764202537642025376420F1
:100F8000253764202537640D0A0025372E32662068
:100F900025372E32662025372E32662025372E3211
:100FA000662025372E32662025372E3266202537DB
:100FB0002E32662025372E32660D0A0025372E3256
:100FC000662025372E32662025372E3266202537BB
:100FD0002E32662025372E32662025372E326620A7
:100FE00025372E32662025372E32660D0A0D0A006F
:100FF0002D4E414E000001002D4E414E00000400D8
:1010000004058C00000004000805900000000400A6
:101010000C05940000000400100598000000050075
:1010200016059C0000000A002005A2000000040034
:101030000005AC00000001004405F60F00000000B0
:10104000F894EE27ECBBF1E0F5BFE5BFE0936C0050
:10105000F8E1F1BDE1BD8DE0A2E0BB27ED938A95FB
:10106000E9F780E090E1A0E0B1E0ED930197E9F7C6
:101070008BBFEEEFFFE0D0E0DBBF87919791009749
:1010800081F0A791B79107901790C791D791BF01B1
:10109000DBB7F001CBBF07900D920197E1F7FB01A1
:1010A000EBCFEFEFEDBFE0E1EEBFC0E0D5E00C9499
:1010B0005908EF976597E0E0E0931405E093150574
:1010C000AAE0B0E0E0E0F8E00E945D220E947F101C
:1010D0000E947210ECEBF0E060E070E00E94901C67
:1010E000E5EFF0E060E070E00E94971C88E00E946D
:1010F00066192C96E0E1F1E060E070E00E94901C3F
:10110000EDE3F1E060E070E00E94901CE7E5F1E0C3
:1011100060E070E00E94A61C0E94B11CE6E7F1E0CE
:1011200060E070E00E94B61C0E94B11CE9E8F1E0AA
:1011300060E070E00E94BF1C0E94B11CECE9F1E08D
:1011400060E070E00E94C81C0E94D31CE4ECF1E057
:1011500060E070E00E94E21C0E94B11CE5EEF1E04C
:1011600060E070E00E94EB1C0E94B11CE6E0F2E03F
:1011700060E070E00E94F41C0E94FD1C88E00E9468
:1011800066192C96E2E2F2E060E070E00E94041D35
:10119000EDE3F2E060E070E00E940D1D0E94B11CE2
:1011A000E3E5F2E060E070E00E94161DEEE6F2E09A
:1011B00060E070E00E941F1D0E94B11C0E94281D6B
:1011C0000E942D1D0E94321D0E94381DECABFDAB0C
:1011D0006EAB7FABE8AFF9AF6AAF7BAFECAFFDAF03
:1011E0006EAF7FAFDE01A05CBF4FED93FD936D93BB
:1011F0007C930E943D1D0E94451D0E944D1D0E9432
:10120000551DE0E0E8ABE9ABEAABEBAB0E945D1D3E
:101210000F01A8E0B0E00E944522D0010E94B42155
:101220006F01A8E0B0E00E944522D60111960E940D
:101230008921DF01E0E1FEE00E94EA216F010E94C6
:101240005D1D5F01CCD7309761F00E946A161E2F9A
:10125000143509F413D1183421F40E94281D0E947A
:101260002D1DAC14BD04DCF50E94771D0E94771D76
:10127000BFD70E947C1D0E94851D0E94551D0E94A3
:101280008C1D0E94771DB4D70E94911D0E94851D60
:101290000E944D1DE2E0F0E00E949A1DA9D70E9435
:1012A0009D1D0E94851D0E94451DE3E0F0E00E9407
:1012B0009A1D9ED70E94A61D0E94851D0E943D1D5D
:1012C000E4E6F0E00E94AF1D0E94B31DEF5FFF4F08
:1012D0006F4F7F4FE8ABF9AB6AAB7BABB0CF02D7B8
:1012E0000E94B31D0E947C1D0E94B81D0E94551DC6
:1012F0000E94B31D0E94911D0E94B81D0E944D1DA9
:101300000E94B31D0E949D1D0E94B81D0E94451D94
:101310000E94B31D0E94A61D0E94B81D0E943D1D83
:10132000A9D6ECA7FDA76EA77FA7BFD6ECA3FDA308
:101330006EA37FA37FD6E8A7F9A76AA77BA70E9421
:10134000BD1D0E94B61CA4E2B0E00E9441220E9492
:101350001F1DFE017C96FA93EA930E94B314FE01CE
:10136000E85BFF4F0190119061917081F0010E9444
:10137000C61D0E94E21C0E94FD1C0E94FD1C0E94D2
:10138000D11D0E94ED1DFE01EC5BFF4F01901190FD
:1013900061917081F0010E94C61D0E94EB1C0E94A9
:1013A000FD1C0E94FD1C0E94D11DE88BF98B6A8BED
:1013B0007B8BFE01E45BFF4F019011906191708186
:1013C000F0010E94BF1CACE1B0E00E9441220E94EB
:1013D0000D1D0E94F21D0E94F21DE0E0F0E060E8A9
:1013E00070E40E942F22FE01B496FA93EA93FE0164
:1013F000B296FA93EA93FE01B096FA93EA930E94AA
:10140000D0140E94F91DECE2F3E060E070E00E946D
:10141000A61C0E94151E0E94BD1D0E942F22FE01C7
:10142000E059FF4F0190119061917081F0010E948D
:101430002F220E94B31D0E943A1E0E943A1E0E9453
:101440003A1E0E942F22FE01E05AFF4F0190119098
:1014500061917081F0010E942F22FE01E859FF4F37
:101460000190119061917081F0010E942F228CE314
:101470000E946619EF962196A7CEFFCF6B970E9428
:101480003A24E3E8F3E060E070E00E94901C0E94E0
:10149000451E0E94691EA3D6309721F00E946A164D
:1014A0001E2F1DC00E94451E0E946E1E0E94731EAC
:1014B0000E94781E0E945721FA93EA930E9486198F
:1014C0007F9760F0EDE8F3E060E070E00E94901C30
:1014D000E1E0F0E00E944124A1960895DCCFE12FE5
:1014E000EF3321F0EF3211F00C941F0B0E94F91D25
:1014F0000E947D1EEDEAF3E060E070E00E942F2282
:10150000ACE2B0E00E9445220E9477210E94971C25
:101510008CE00E9466196096E1E1F1E060E070E025
:101520000E94901C0E94821E0E94891EE1E1F4E04C
:1015300060E070E00E94901CE6E2F4E060E070E0A1
:101540000E94B61C0E94B11CE4E5F4E060E070E08B
:101550000E941F1D0E94B11CE2E8F4E060E070E010
:101560000E94161DE3EBF4E060E070E00E94901C26
:10157000E8ECF4E060E070E00E94BF1C0E94B11C47
:10158000E6EFF4E060E070E00E940D1D0E94B11CE7
:10159000E4E2F5E060E070E00E94041DE5E5F5E0BE
:1015A00060E070E00E94E21C0E94B11CE9E7F5E0F7
:1015B00060E070E00E94EB1C0E94B11CEDE9F5E0D8
:1015C00060E070E00E94F41C0E94B11C0E94D31CD9
:1015D000E2EEF5E060E070E00E94901CEDE1F6E0E4
:1015E00060E070E00E94901CE9E3F6E060E070E0EB
:1015F0000E94901CE4E7F6E060E070E00E94C81CE6
:10160000EEE9F6E060E070E00E94901CE9EDF6E0A3
:1016100060E070E00E94901CE8EFF6E060E070E0AF
:101620000E94A61C0E94B11CE2E2F7E060E070E0BC
:101630000E94901CE0E5F7E060E070E0F0C4E43563
:1016400021F0E43711F00C94F50B0E94F91DECE841
:10165000F7E060E070E00E942F220E94151E0E94B9
:10166000891EE9ECF7E060E070E00E94901C40E029
:1016700050E04C30E0E05E07ECF40E948E1EFF93D9
:10168000EF930E946A16AF91BF91EC930E94941E53
:101690000E94431CE03039F4E6EFF7E060E070E0D0
:1016A0000E949B1E07C00E94941E0E946E164F5FF0
:1016B0005F4FDFCF4C30E0E05E072CF4EBE0F8E06A
:1016C00060E070E0ACC40E94A81EE0E0EC93EC8BFC
:1016D000EDE1F8E060E070E00E942F22FE017996D3
:1016E000662777270E942F220E94B11CED89EA8B82
:1016F000EE890E94AD1E8E2EEF89EA8BE88D0E9446
:10170000AD1E9E2EE98DEA8BEA8D0E94AD1E6E2ED7
:10171000EB8DEA8BEC8D0E94AD1E5E2EED8DEA8B7B
:10172000EE8D0E94AD1E4E2EEF8DEA8BE8A10E9439
:10173000AD1E7E2EE6E3F8E060E070E00E942F220E
:10174000E82DFF27662777270E942F220E94B11CD1
:10175000E7E0E81518F4E3E6E81508F424C0E0E053
:10176000E91518F4ECE0E91508F41DC0E0E0E61511
:1017700018F4EFE1E61508F416C0E0E05E1618F084
:10178000E7E1E51508F40FC0E0E04E1618F0EBE3D2
:10179000E41508F408C0E0E07E1618F0EBE3E71566
:1017A00008F401C007C0E0E4F8E060E070E00E94E7
:1017B000901C14C0E1E5F8E060E070E00E942F2288
:1017C0000E94151E0E94891E5A924A927A920E9485
:1017D00032166A929A928A920E9453160E94F91DBA
:1017E0000E94821E0E94891E20C4EC3421F0EC3637
:1017F00011F00C94560CEBE7F8E060E070E00E940A
:10180000901CECE9F8E060E070E00E94C81CEBEB93
:10181000F8E060E070E00E94901C40E050E045304D
:10182000E0E05E07E4F40E948E1EFF93EF930E94B7
:101830006A16AF91BF910E94B41E0E94A81EAC917F
:10184000AA3029F00E94A81EAC91AD3029F40E9464
:10185000A81EE0E0EC9303C04F5F5F4FE0CF0E9413
:10186000BA1EE0E0F0E061E675E40E94102419F091
:1018700010F00C94400C0E94BA1E0E9434242CF0EC
:10188000E2EEF8E060E070E0CAC30E94C31E0E946E
:10189000BE229F01F901A8E0B0E00E945D22E4EFC2
:1018A000F8E060E070E00E94C81CBFC3EB3611F0A6
:1018B0000C94B40CEBE1F9E060E070E00E94901C45
:1018C000E4E3F9E060E070E00E94B61C0E94B11C05
:1018D000E7E5F9E060E070E00E94901C40E050E035
:1018E0004C30E0E05E07E4F40E948E1EFF93EF931D
:1018F0000E946A16AF91BF910E94B41E0E94A81E5A
:10190000AC91AA3029F00E94A81EAC91AD3029F408
:101910000E94A81EE0E0EC9303C04F5F5F4FE0CF52
:101920000E94BA1EECEAF5EC67EA77E30E94102405
:1019300048F40E94BA1E0E94C91E09F010F40C94CB
:10194000A20C03C00E94D01E6AC30E94C31EA0E066
:10195000B0E00E945522E4E8F9E060E070E00E9407
:10196000B61C0E94B11C61C3E73611F00C94120D35
:10197000EBEAF9E060E070E00E94901CEDECF9E029
:1019800060E070E00E941F1D0E94B11CE6EFF9E0CC
:1019900060E070E00E94901C40E050E04431E0E0E4
:1019A0005E07D4F40E948E1EFF93EF930E946A1686
:1019B000AF91BF910E94B41E0E94A81EAC91AA30A4
:1019C00029F00E94A81EAC91AD3019F4415050404E
:1019D00003C04F5F5F4FE2CF0E94BA1EE0E0F0E02D
:1019E00066E973E40E94102458F40E94BA1E0E9413
:1019F000D51E0E94102409F010F40C94000D03C0B1
:101A00000E94D01E0CC30E94C31EA8E2B0E00E9438
:101A10005522EBE1FAE060E070E00E941F1D0E9499
:101A2000B11C03C3EF3611F00C94690DE5E4FAE044
:101A300060E070E00E94901CE9E6FAE060E070E08F
:101A40000E94161DE4E9FAE060E070E00E94901C3C
:101A500040E050E04431E0E05E07D4F40E948E1E86
:101A6000FF93EF930E946A16AF91BF910E94B41E3C
:101A70000E94A81EAC91AA3029F00E94A81EAC9129
:101A8000AD3019F44150504003C04F5F5F4FE2CF7B
:101A90000E94BA1E0E94DA1E19F010F00C94590D23
:101AA0000E94BA1EE0E0F0E06AEF73EC0E9410249E
:101AB00018F40E94D01EB3C20E94C31EA4E2B0E07C
:101AC0000E945522EBEBFAE060E070E00E94161DE8
:101AD000ACC2E73411F00C94C60DE7EEFAE060E01A
:101AE00070E00E94901CE9E0FBE060E070E00E9482
:101AF0000D1D0E94B11CE2E3FBE060E070E00E947B
:101B0000901C40E050E04C30E0E05E07E4F40E94BE
:101B10008E1EFF93EF930E946A16AF91BF910E94B1
:101B2000B41E0E94A81EAC91AA3029F00E94A81EE3
:101B3000AC91AD3029F40E94A81EE0E0EC9303C004
:101B40004F5F5F4FE0CF0E94BA1EE0E0F0E86BEB22
:101B500074E40E94102419F010F00C94B40D0E944B
:101B6000BA1E0E94DA1E18F40E94D01E58C20E94AB
:101B7000C31EA0E2B0E00E945522E7E5FBE060E072
:101B800070E00E940D1D0E94B11C4FC2EF3411F095
:101B90000C94230EE1E8FBE060E070E00E94901CF2
:101BA000E5EAFBE060E070E00E94041DE0EDFBE090
:101BB00060E070E00E94901C40E050E04C30E0E0BB
:101BC0005E07E4F40E948E1EFF93EF930E946A1654
:101BD000AF91BF910E94B41E0E94A81EAC91AA3082
:101BE00029F00E94A81EAC91AD3029F40E94A81ED5
:101BF000E0E0EC9303C04F5F5F4FE0CF0E94BA1E5E
:101C0000E0E0F0E061E674E40E94102419F010F0C6
:101C10000C94130E0E94BA1EE0E0F0E061E674EC52
:101C20000E94102418F40E94D01EF9C10E94C31E05
:101C3000ACE1B0E00E945522E7EFFBE060E070E02D
:101C40000E94041DF2C1EB3411F00C94810EE3E20A
:101C5000FCE060E070E00E94901CECE3FCE060E0DF
:101C600070E00E94BF1C0E94B11CEDE5FCE060E04A
:101C700070E00E94901C40E050E04C30E0E05E07D5
:101C8000E4F40E948E1EFF93EF930E946A16AF91B8
:101C9000BF910E94B41E0E94A81EAC91AA3029F0E8
:101CA0000E94A81EAC91AD3029F40E94A81EE0E06D
:101CB000EC9303C04F5F5F4FE0CF0E94BA1EECEA87
:101CC000F5EC67E277E30E94102448F40E94BA1E04
:101CD0000E94C91E09F010F40C946F0E03C00E94FC
:101CE000D01E9DC10E94C31EA4E0B0E00E945522F8
:101CF000E9E7FCE060E070E00E94BF1C0E94B11CBC
:101D000094C1E33411F00C94DA0EEEE9FCE060E0EB
:101D100070E00E94901CE4ECFCE060E070E00E9447
:101D2000E21C0E94B11CEFEEFCE060E070E00E945B
:101D3000901C40E050E04C30E0E05E07E4F40E948C
:101D40008E1EFF93EF930E946A16AF91BF910E947F
:101D5000B41E0E94A81EAC91AA3029F00E94A81EB1
:101D6000AC91AD3029F40E94A81EE0E0EC9303C0D2
:101D70004F5F5F4FE0CF0E94BA1E0E94E11E19F034
:101D800010F00C94C80E0E94BA1E0E94E81E18F4AF
:101D90000E94D01E44C10E94C31EACE0B0E00E946D
:101DA0005522E5E1FDE060E070E00E94E21C0E9447
:101DB000B11C3BC1E43411F00C94330FE4E4FDE0BA
:101DC00060E070E00E94901CEAE6FDE060E070E0F8
:101DD0000E94EB1C0E94B11CE5E9FDE060E070E0B0
:101DE0000E94901C40E050E04C30E0E05E07E4F4DC
:101DF0000E948E1EFF93EF930E946A16AF91BF91CF
:101E00000E94B41E0E94A81EAC91AA3029F00E9424
:101E1000A81EAC91AD3029F40E94A81EE0E0EC931E
:101E200003C04F5F5F4FE0CF0E94BA1E0E94E11EC9
:101E300019F010F00C94210F0E94BA1E0E94E81EA7
:101E400018F40E94D01EEBC00E94C31EA0E1B0E0B7
:101E50000E945522EBEBFDE060E070E00E94EB1C7D
:101E60000E94B11CE2C0E63511F00C949C0FEAEE22
:101E7000FDE060E070E00E94901CE0E1FEE060E0C8
:101E800070E00E94F41C0E94B11CE6E4FEE060E0F9
:101E900070E00E94901C40E050E04C30E0E05E07B3
:101EA000E4F40E948E1EFF93EF930E946A16AF9196
:101EB000BF910E94B41E0E94A81EAC91AA3029F0C6
:101EC0000E94A81EAC91AD3029F40E94A81EE0E04B
:101ED000EC9303C04F5F5F4FE0CF0E94BA1EE0E07B
:101EE000F0E060EC70E40E94102419F010F00C9403
:101EF000820F0E94BA1EE0E0F0E060E070E40E9411
:101F0000102418F40E94D01E8AC00E94C31EA4E1AF
:101F1000B0E00E945522A4E1B0E00E944122A8E175
:101F2000B0E00E945522E8E7FEE060E070E00E9429
:101F3000F41C0E94B11C79C0E13421F0E13611F0AB
:101F40000C94F40FE2EBFEE060E070E00E94901C65
:101F5000EEECFEE060E070E00E94A61C0E94B11C66
:101F6000E5EFFEE060E070E00E94901C40E050E091
:101F70004230E0E05E07E4F40E948E1EFF93EF9390
:101F80000E946A16AF91BF910E94B41E0E94A81EC3
:101F9000AC91AA3029F00E94A81EAC91AD3029F472
:101FA0000E94A81EE0E0EC9303C04F5F5F4FE0CFBC
:101FB0000E94EF1EE436A0E0FA0724F40E94EF1E10
:101FC000FF231AF40E94D01E2AC00E94EF1EACE22A
:101FD000B0E00E945D22ECE1FFE060E070E00E9472
:101FE000A61C0E94B11C21C0E33511F0E33711F4A7
:101FF0005BD21BC0E83511F0E83769F4E7E4FFE095
:1020000060E070E00E94901C0E94281D0E942D1D1F
:10201000E1E0F0E00BC0EAE5FFE060E070E00E9484
:102020002F2280E00E946619249628DA0E9441241B
:10203000A196089524970E943C24E6E0F0E00E94D7
:10204000F51ED6D09F013A932A93AAE0B0E00E94F1
:102050004522FA93EA93E0E0F8E66CE176E40E9428
:102060002F22A9D10E94F81E0E94FD1E0E94432427
:102070002896089524971A930A93E7E0F0E00E94C7
:10208000F51EB6D08F01F8010E94021FDF01CB01BF
:10209000E0E0F0E068EC72E40E94CB23AAE9B9E941
:1020A00089E99FE30E942F2313C024971A930A9370
:1020B000E5E0F0E00E94F51E9BD08F01F801EE0FE5
:1020C000FF1FDF01E8EEF3E00E94B4210E94021F2F
:1020D000EA83FB836C837D830E94071F198108813B
:1020E00026960895E4E0E3B9EFE0F0E00E94AF1D2A
:1020F000E0E0E3B9E4EFF1E00E94AF1D0895E0E015
:10210000EBBBEABBE3E0E5BBE4BBE0E0E2BBE1BB89
:10211000E3B9E4E0E2B9E0E0E0936200E09361005B
:10212000E0936500E0936400E0BFE3BFE2BFE1BF7E
:10213000EFBDEEBDEDBDECBDEBBDEABDE9BDE8BD5B
:10214000E0937900E0937800E5BDE4BDE3BDE09362
:102150008B00E0938A00E0938900E0938800E0938D
:102160008700E0938600E0938500E0938400E0938D
:102170008300E0938200E0936A00EABFE9BFE7BF13
:10218000E0937D00EBB9E8E1EAB9E6E0E093950081
:10219000E0E0E0939000E7E1E9B9E0E0E0939B0044
:1021A000E8E1E0939A00E6E0E0939D00E0E0E09350
:1021B0009800E3E3E0939900E0E8E8B9E0E0E0BDEF
:1021C000E1E0E8BBE7E0E7BBE1E5EDB9E1E0EEB96E
:1021D000E0E0EA93EA93EA930E9407160895EBB1D0
:1021E000EF3718F0E1E0F0E00895E0E0F0E0089566
:1021F00026970E943A24E0E0EA87EB87E0E0F0E0EF
:10220000AF019F018F01AC85BD85119711F00C9432
:102210005511EE85FF85309729F4EFE8F0E060E096
:1022200070E03EC0AE85BF85119729F4EFECF0E079
:1022300060E070E035C0AE85BF85129729F4EFE904
:10224000F0E060E070E02CC0AE85BF85139729F404
:10225000EFEDF0E060E070E023C0AE85BF8514973D
:1022600029F4EFEAF0E060E070E01AC0AE85BF85C7
:10227000159729F4EFEEF0E060E070E011C0AE8554
:10228000BF85169729F4EFEBF0E060E070E008C03E
:10229000AE85BF85179741F4EFEFF0E060E070E0A6
:1022A000EE83FF83688779874BC0EE85FF85309783
:1022B00029F4E7E8F0E060E070E03EC0AE85BF855D
:1022C000119729F4E7ECF0E060E070E035C0AE85EE
:1022D000BF85129729F4E7E9F0E060E070E02CC0D8
:1022E000AE85BF85139729F4E7EDF0E060E070E07C
:1022F00023C0AE85BF85149729F4E7EAF0E060E0DB
:1023000070E01AC0AE85BF85159729F4E7EEF0E0BE
:1023100060E070E011C0AE85BF85169729F4E7EB49
:10232000F0E060E070E008C0AE85BF85179741F42B
:10233000E7EFF0E060E070E0EE83FF836887798785
:10234000E7E0E8BBE6E0E8BBEE81EA930E94B31564
:102350000E2F1127E0E0EA930E94B3152E2F3327AA
:10236000E0E0EA930E94B3154E2F5527E7E0E8BB63
:10237000AC85BD85119719F40E940C1F16C0EC8521
:10238000FD85309779F40E940C1FAA85BB85A0308B
:10239000E8E0BE0734F0EA85FB85E050F041EA87CB
:1023A000FB8703C0E0E0EA87EB87EA85FB850E94B4
:1023B0004124609608956897EE8DFF8D66277727F4
:1023C0000E94F5220E941C1F7F936F93FF93EF934F
:1023D000EC8DFD8DEE0FFF1FAE8DBF8DEA1BFB0B4D
:1023E000662777270E94F522AF91BF918F919F9129
:1023F0000E94CB230E94231F0E94291F0E94CB23EF
:102400000E942F220E94B31BE88BF98B6A8B7B8B77
:102410000E942E1FA0910805B091090580910A0520
:1024200090910B050E947D23A0910405B0910505B4
:1024300080910605909107050E94331F0E943A1F64
:10244000A0910C05B0910D0580910E0590910F059E
:102450000E947D230E94421F0E943A1F0E94471F34
:102460000E947D23A0911005B09111058091120565
:10247000909113050E944C1F0E944F1F0E94541FF1
:102480000E942F230E94591F0E945E1FDF01CB0173
:10249000E0E0F0E06BE873E40E946B1F0E94701FA5
:1024A0000E94751FA0960895EF9721970E943A24E5
:1024B00049E15CEF0E94381DDE01AE5BBF4FED933A
:1024C000FD936D937C93DE01A25CBF4FED93FD9372
:1024D0006D937C93EAAFFBAF6CAF7DAFEEABFFAB20
:1024E00068AF79AFEAABFBAB6CAB7DABEEA7FFA7F8
:1024F00068AB79ABEAA7FBA76CA77DA7EEA3FFA308
:1025000068A779A70E94381DEAA3FBA36CA37DA34B
:10251000EE8FFF8F68A379A3EA8FFB8F6C8F7D8F7F
:10252000EE8BFF8B688F798FEA8BFB8B6C8B7D8BAF
:102530000E94691E0E946E1E0E947A1F20E030E0F9
:102540000E947D1E4CDE309711F00C943413E8E0AD
:10255000F0E0FA93EA935AD1E8E6FFE060E070E039
:102560000E942F22E0913405F09135050E947F1FD3
:10257000E0913605F09137050E947F1FE091380504
:10258000F09139050E947F1FE0913A05F0913B05DB
:102590000E947F1FE0913C05F0913D050E947F1F46
:1025A000E0913E05F0913F050E947F1FE0914005BC
:1025B000F09141050E947F1FE0914205F091430593
:1025C0000E947F1F0E94841F00E010E00830E0E0BE
:1025D0001E0714F00C942E130E94891FFF93EF9393
:1025E000DF010E941A227F936F93FF93EF930E9463
:1025F000911FAF91BF918F919F910E942F23AF9117
:10260000BF910E942522F801DE0116960E946C21DE
:10261000EA0FFB1FFF93EF93DF010E941A227F93C3
:102620006F93FF93EF930E94911F7F936F93FF939C
:10263000EF930E94911FAF91BF918F919F910E9444
:102640007D23AF91BF918F919F910E942F23AF91D6
:10265000BF910E9425220F5F1F4FB8CF2F5F3F4FC2
:102660000E94321D3FDD6ECF0E947D1E00E010E013
:102670000830E0E01E07C4F40E94891FFA93EA9331
:10268000F801DE0118960E946C21EA0FFB1FFA93F5
:10269000EA933A932A93FA010E94021F0E942F2282
:1026A00055D00F5F1F4FE4CFEAE8FFE060E070E035
:1026B0000E949B1FFE01E65BFF4F0190119061910C
:1026C0007081F0010E942F22FE01EE5AFF4F01900F
:1026D000119061917081F0010E942F22FE01E65A53
:1026E000FF4F0190119061917081F0010E942F22A3
:1026F000FE01EE59FF4F0190119061917081F00140
:102700000E942F220E94841FECEBFFE060E070E04B
:102710000E942F220E94781E0E942F220E94BA1F20
:102720000E942F22EA8DFB8D6C8D7D8D0E942F22C1
:10273000EAA1FBA16CA17DA10E949B1F0E94841FA6
:10274000D1DC0E944124EF9627960895AC81BD818B
:1027500013973CF40E94751FA885B9850E94BF1F7E
:1027600050C0A885B985BF93AF930E94C21FAF9197
:10277000BF910E94CC1F0E94C21F7F936F93FF9353
:10278000EF930E94D11F7F936F93FF93EF930E946B
:10279000D11FAF91BF918F919F910E947D23AF91E7
:1027A000BF918F919F910E946B1FAE81BF810E944C
:1027B000CC1F0E941A22DF01CB01EC81FD810E9417
:1027C000021F0E947D23DF01CB01EC81FD81319747
:1027D0000E94021F0E94CB23AE81BF810E94CC1FAA
:1027E0000E941A2277232AF4AE81BF810E94381DED
:1027F0000AC0AE81BF810E941A220E942F220E942D
:102800001D21AE81BF810E942522ABC11A930A937C
:10281000AA81BB811897C1F400E010E00830E0E025
:102820001E078CF4F8010E94D61FFF93EF931A93B2
:102830000A930E94771DDCDCAF91BF91ED93FC936E
:102840000F5F1F4FEBCF17C0AB81AA2322F0AA81E5
:10285000BB8118970CF00FC0EA81FB810E94D61F44
:10286000FF93EF93EA81FB810E949A1DC1DCAF9137
:10287000BF91ED93FC931981088124960895609788
:102880008CE0A0E0B0E0E0EBF0E060E00E944824E3
:10289000FE01FA93EA93EE89FF89688D798D0E9493
:1028A0002F221CD10E94DD1F0E94471FEFE6F2E19C
:1028B00063E87BE30E94CB230E94541F0E946B1F9E
:1028C0000E94DD1F0E94E21F689608952497AA8D3A
:1028D000BB8D8C8D9D8DE0E0F0E060E070E40E94A7
:1028E000CB23AA85BB858C859D850E947D23DF0136
:1028F000CB01EE89FF89688D798D0E94CB23A88555
:10290000B9850E9425220E94D11F0E94731E0E9439
:102910006B1FDF01CB010E94BA1F0E94E71F0E94BC
:10292000D11FDF01CB010E94751F0E94CB23AE8116
:10293000BF810E94BF1F0E94EA1F0E947D237F93D8
:102940006F93FF93EF93AE81BF810E941A22AF91E4
:10295000BF918F919F910E947D23AC81BD810E9488
:1029600025226E9608952497AA85BB858C859D8522
:102970000E94BA1F0E942823DF01CB010E94EF1F93
:102980000E94F41FDF01CB010E94FF1F0E94E71F7E
:102990000E94751FAC81BD810E94BF1F669608957D
:1029A0006C97E0E0EC87ED87E0E8EE87EFE3EF87F8
:1029B000EFE4E88BE6E8E98BE3E7EA8BE3E3EB8B14
:1029C000AAA9BBA98CA99DA9EAADFBAD6CAD7DAD53
:1029D0000E942823DF01CB01EEA5FFA568A979A9F4
:1029E0000E94F41FDF01CB01EEA9FFA968AD79AD0C
:1029F0000E94E71F0E940420AAA5BBA58CA59DA547
:102A00000E942F23E88FF98F6A8F7B8F0E9404200A
:102A1000AEA1BFA188A599A50E942F230E94231FC4
:102A20000E941C1F0E941C1F0E941C1F0E94421F0C
:102A3000EC89FD896E897F890E94291F0E947D2370
:102A40000E94291F0E947D230E94291F0E944C1F63
:102A50000E942E1F0E94541F0E940D200E947D2361
:102A6000AE8DBF8D0E942522EAA1FBA16CA17DA1A4
:102A70000E9489220E94471F0E947D237F936F93AB
:102A8000FF93EF930E9414200E94FD1E0E942823B2
:102A9000AF91BF918F919F910E947D23AC8DBD8D91
:102AA0000E942522AE8DBF8D0E941A220E94EA1F2D
:102AB0000E942F237F936F93FF93EF93AC8DBD8D77
:102AC0000E941A22AF91BF918F919F910E942F2354
:102AD000A8A1B9A10E942522EE96089524970E94EC
:102AE000FD1E0E942F220E94B31B0E94701F0E9495
:102AF000D11F7F936F93FF93EF93E885F985A481AE
:102B0000B581868197819F938F93BF93AF93A08563
:102B1000B185828593850E94751F0E947D230E9446
:102B2000EA1F0E947D23AF91BF918F919F910E94D8
:102B30002F230E94EA1F0E947D23AF91BF918F91A6
:102B40009F910E945E1FA0910005B09101058091A8
:102B50000205909103050E9428230E94701F0E9485
:102B6000751F2A960895E881EFB9779BFECFEFB1E4
:102B70000C947216C69887E08A95F1F70895BD9A6D
:102B8000BC9ABE9AC69A87E08A95F1F7E881EA93E3
:102B900002D00C947216E991A8E0E795C49808F465
:102BA000C49A0000000000000000C59A83E08A95E6
:102BB000F1F7C59883E08A95F1F7AA9571F7089522
:102BC000E881E160EA930E94BF15C498BC98A8E030
:102BD0008894B4990894E795C59A83E08A95F1F7AB
:102BE000C59883E08A95F1F7AA9591F70E94BA15E6
:102BF0000C947216E981EE7FEA930E94BF15E8817A
:102C0000EA930E94CB150E94BA1522960895E88196
:102C1000E370E883EA81E03019F0E881E06AE88354
:102C2000A981A13019F4E881E46007C0A981A2302C
:102C300019F4E881E86001C0E0E0E8830E9419200F
:102C4000E0E9EA93E9813DC0E5E80E941F20AC81FC
:102C5000BD81EC93E3E80E941F20AA81BB81EC9325
:102C6000E1E817C00E941920E4E80E942520E2E86C
:102C70000E942D20E0E820C0E7E80E941F20AC81E0
:102C8000BD81EC93E9E80E941F20AA81BB81EC93EF
:102C9000EDE8EA9395DFEA930E94551CA881B9817B
:102CA000EC93269608950E941920E6E80E942520BC
:102CB000E8E80E942D20ECE8EA93E981EA930E947B
:102CC000611CEA9397DFEEE8EA93E0E8EA9392DF8B
:102CD000239608955F9BFECFECB108955D9BFECFD8
:102CE000E881ECB9219608951A930A93AC81BD81CD
:102CF0000E9416223097D9F0AA81BB810E94162229
:102D00008F01309749F00230E0E01E0778F0F801BB
:102D100031978F01ED93FC93AC81BD81ED91FD91D5
:102D20003196FE93EE933197AE81A08303C0EE817E
:102D3000EA93D4DF19810881279608952497E0E06B
:102D4000E883E983E0E8EA83EFE3EB830E943C2435
:102D5000EE85FF85EF3FAFEFFA0759F4E885F98577
:102D6000FA93EA93E0EFFFE060E070E00E94352024
:102D70009CC0EF3FAFE7FA0759F4E885F985FA936D
:102D8000EA93E1EFFFE060E070E00E9435208DC043
:102D9000AB85A73010F0E6E0EB871B85E12F1150E3
:102DA000E03019F00E943920F9CF0E94E21F0E9402
:102DB000302421F430E00E94392024C03B850E9459
:102DC0003C2009F010F40C94EE160E9439200E9469
:102DD0003C2018F00E944120FACF09C00E943C20FC
:102DE00020F40E944B203150F9CF0E9439200E94DC
:102DF000E21F0E9450200E94331F0E943C2010F0CE
:102E00000E94412010E0EB85E11750F10E94591F0C
:102E10000E9455200E945C200E94F81E0E94FD1E08
:102E20000E94541F0E94CB230E94BC220E2F0E949E
:102E300063200E946A200E946F200E94591F0E94F6
:102E40007D230E94541F0E946B1F0E94DD1FE12FF3
:102E50001F5FE030C1F60E946320EEE2EC93D3CF17
:102E60000E947520AA85A08330302CF40E94632034
:102E7000EDE2EC9331953A3054F00E947520BF0199
:102E8000A32FEAE00E949C21E05DDB01EC930E940D
:102E90007520BF01A32FEAE00E94DE21E05DDB0187
:102EA000EC93A885B985E0E0EC930E9443246096FA
:102EB0000895EF9761970E943A2410E0FE01EA5AC4
:102EC000FF4F0190F081E02DEA8BFB8BDE01A45ACD
:102ED000BF4F0E947C202E2FE03011F40C9461191A
:102EE000E12FE03039F4253211F411E002C00E94E4
:102EF0008B20E6C1E130C1F4253219F40E948B2009
:102F0000DEC112E0E0E0ED8B00E02D3211F401E0D3
:102F1000D7C12B3219F4EBE2ED8BD2C1203219F478
:102F2000E0E2ED8BCDC102C0E23039F450E013E0B5
:102F3000203311F40068C4C102C0E330A1F420338F
:102F400010F02A3308F009C0A52FEAE0EA9FF0014B
:102F50005E2FE22FE0535E0FB3C140E02E3211F43A
:102F600014E0AEC111C0E430A9F4203310F02A33CC
:102F700008F00AC00062A42FEAE0EA9FF0014E2F99
:102F8000E22FE0534E0F9CC12C3619F4026015E07D
:102F900097C104C0E53011F00C946019E22FE336BC
:102FA00059F40E949A200E94A1200E949A20A48194
:102FB000AA930E94A82083C1E53411F0E53609F4F4
:102FC00004C0E63611F00C942F18FE017696EA87BD
:102FD000FB870E94B6200E941A220E947A1F0E943C
:102FE000BD20A985AA2322F0AD89AB3249F017C0D4
:102FF0000E94EF1F0E9489220E947A1FEDE2ED8B52
:1030000007FF05C0ED89EA930E94A82008C0EA8561
:10301000FB853196EA87FB873197AD89A08305FF51
:1030200046E0263661F40E94EF1F0E942F224A9349
:10303000EF85F889FA93EA930E94BF190BC00E94AA
:10304000EF1F0E942F224A932A93E889F989FA9365
:10305000EA9374DEFE0176960E94BF2023C0E33718
:1030600039F40E94BD200E94C7200E94BF2013C0D7
:10307000E037E9F40E94BD200E94B62014960E9419
:103080001A220E946E1E0E94781E0E942F220E9409
:10309000821C1E2F08600F77403011F0411708F096
:1030A00001C0142F40E0E0E0EC8B30E06EC0E4366D
:1030B00011F0E93611F4046002C0E537A1F4EAE04A
:1030C000EC8B01FF08C0E0E0FAEC6AE97BE30E94C8
:1030D000691E1AE023C0E0E1F7E260E070E00E94C0
:1030E000691E15E01BC0E83511F4086004C0E8371C
:1030F00011F00C945F19E0E1EC8B01FF08C0E0E0F7
:10310000F0E060E070E10E94691E18E007C0E0E0B6
:10311000F0E160E070E00E94691E14E0403011F0C0
:103120000F7701C041E001FF08C00E94BD200E944E
:10313000B62014960E941A220FC002FF07C00E94F8
:10314000BD200E94C7200E94772106C00E94BD209A
:103150000E94C72066277727EE83FF8368877987D9
:1031600002FF12C0A985AA2342F40E94EF1F0E9409
:1031700060210E947A1FEDE2ED8BED89E03019F0BD
:103180001F5F4F5F01C00B7F342F00FD14C0151768
:1031900010F4351708F00FC007FF08C002FF04C085
:1031A0000B7F2D89115001C020E301C020E20E9455
:1031B0008B205150ECCF141790F4006102FF06C031
:1031C0000E94CC2009F0515011504150E0E3EA93A5
:1031D0000E94A820503009F051504150ECCF312FBF
:1031E000EC89E030B9F43030A1F003FF05C0DE0116
:1031F0001A960E947C2005C0AA85BB85ED91AA87FE
:10320000BB87EA930E94A820503009F051503150FA
:10321000EACF4BC00E94E0200E94B9212E2F2A3015
:1032200030F003FF02C0295C01C0295A01C0205DB3
:1032300004FD1FC0213350F40E94731EA130E0E052
:10324000BE07E0E08E07E0E09E0709F40BC04317DD
:1032500040F4531710F000FF01C010C020E207FF38
:1032600008C020E3006102FF04C00E94CC2009F0E6
:1032700051500E948B20503009F0515031500E9423
:10328000E0200E94F8210E947A1FEC890E94731EA0
:10329000FF27662777270E94B9210E94691E0E9496
:1032A000FF1F0E94302409F0B5CF00FF08C0503046
:1032B00031F05150E0E2EA930E94A820F8CF10E0EC
:1032C00005CE0E944124EF96A1960895FF92F82E14
:1032D00022971A930A93DE010E9453218D01E0E0A8
:1032E000EA83EB83DE0114960E9453210E941A2286
:1032F0000E942F221A930A93FE0138960E949A1D6B
:10330000D8DD198108812496FF900895E991F991FB
:1033100030971AF4E095F09531960895B981A88117
:10332000EC91EA930E944B1CEE2311F01196F8CF1A
:10333000E894EC91ED3211F4689402C0EB3209F498
:10334000119666277727EC91EA930E94431CEE239F
:1033500079F0FB01660F771F660F771F6E0F7F1FD7
:10336000660F771FED91FF27E0536E0F7F1FEBCFA6
:10337000FB011EF4E095F09531962296089524976E
:10338000E0E0E883E983EA83EFE3EB831A930A93AF
:10339000EB85FC85EF3FAFEFFA0759F4EE81FF8133
:1033A000FA93EA93E8EFFFE060E070E00E943520D6
:1033B000A0C0EF3FAFE7FA0759F4EE81FF81FA931F
:1033C000EA93E9EFFFE060E070E00E94352091C0F1
:1033D000AC85AA2362F4E985FA856B857C850E9419
:1033E00089220E94E6200E94EB20EDE2EC93A88562
:1033F000A73010F0E6E0E8871885E12F1150E030A3
:1034000039F00E94F2200E9455200E94F720F5CF4B
:103410000E94FC200E942F230E94E62010E00E94C0
:1034200002210E94F7200E94FC200E94102450F0EC
:103430000E94F2200E94D51E0E947D230E94F72048
:103440001F5FF1CF103029F40E94EB20E0E3EC93F2
:1034500024C0E12F1150E03001F10E94F2200E94BF
:1034600055200E945C200E94F7200E94FC200E94B0
:10347000CB230E94BC220E2F0E94EB200E946A20C8
:103480000E94F2200E946F200E947D230E9407214B
:103490000E946B1F0E94E620DCCFE885E03029F116
:1034A0000E94EB20EEE2EC93E885E150E887EF5FC5
:1034B000E1F00E9407210E94D51E0E947D230E94F8
:1034C000E620E985FA856B857C850E94BC220E2F5B
:1034D0000E94EB200E946A200E9407210E946F2018
:1034E0000E946B1F0E94E620DFCFAE81BF81E0E02B
:1034F000EC93198108812D9608952A970E943A2409
:10350000E0E0E887E987EA87EB87A889B989EC9149
:103510005E2FEA930E944B1CE03031F0E889F98974
:103520003196E88BF98BF1CFE0E0EF835B3221F04D
:103530005D3239F4E1E0EF83E889F9893196E88B6F
:10354000F98BE0E04E2F5E2F08891989A889B98987
:10355000EC91EA930E94431CE03049F4A889B989B0
:10356000AC91EEE20E947C215E2FE03039F0452BD9
:10357000E889F9893196E88BF98BE8CF2889398970
:10358000403011F1E889F9893197E88BF98BA889E6
:10359000B989AC91AE32C1F0A889B989EC91E053F8
:1035A0000E9414200E946F200E942F23DF01CB0174
:1035B0000E94D51E0E94CB230E94421FE889F989F0
:1035C0003197E88BF98BE3CF0E9402210E94DD1F27
:1035D000A889B9891197A88BB98BA017B10778F082
:1035E000EC91E0530E94541F0E946F200E940D2016
:1035F0000E942F230E94421F0E944B20E9CFD90135
:103600002F5F3F4F5C91553619F0553409F058C083
:10361000E0E04E2FEE83D9015C915B3221F05D3208
:1036200021F4E1E0EE832F5F3F4FD9012F5F3F4F41
:10363000EC915E2FEA930E94431CE03041F0A42FEE
:10364000EAE0EA9FF001E50FE0534E2FEECF47325C
:1036500068F0EF81E03029F0EFEFFFEF6FE77FEFE9
:103660003AC0EFEFFFEF6FE77FE735C050E20E940F
:1036700002210E94DD1F503079F00E94E21F0E945B
:10368000541F0E947D230E94DD1FE42FE52311F0CB
:103690000E944B205695EFCFEE81E03039F00E942A
:1036A000E21F0E9414200E94CB2306C00E94E21F4A
:1036B0000E9414200E947D23E887F9876A877B8710
:1036C000EF81E03031F00E944F1F0E9489220E945A
:1036D000421F0E944F1F0E944124629608957B81E1
:1036E0006A81F981E88177FB770F67FD7160972F19
:1036F0009E5781F078F0983190F4AA27BB2788274D
:1037000008948795B795A7959A95D1F7EA23FB2357
:10371000682305C0E8947727EE27FF2766276F7791
:10372000769508F4606877F9A991B9918991999192
:10373000EA17FB076807790797FB08950E94751F32
:103740000E942F220E946F1B0E94701F19F40E947A
:10375000751F07C0E6F70E94EA1F0E9402210E941F
:103760006B1F2496089524971A930A930E940C21A4
:103770000E9434242CF0EFEFFFEF6FE77FEF7FC064
:103780000E94EF1F0E942F22EDB7FEB73197FA93E8
:10379000EA931F930F930E9476220F911F910E942C
:1037A0007A1F0E940C21E3EFF4E065E37FE30E94BF
:1037B000102450F40E94EF1F0E940C210E942F231E
:1037C0000E947A1F015010400E940C210E94022189
:1037D0000E946B1F7F936F93FF93EF930E94EF1FE5
:1037E000A0E0B0E080E89FE30E942F23AF91BF915B
:1037F0008F919F910E94CB230E947A1F0E94EF1FFE
:103800000E940C210E947D230E94F7200E94071F26
:10381000A6E2B2E485E69FE30E947D23DF01CB01AF
:10382000EEE4F1E164E570E40E946B1F0E940C215C
:103830000E947D237F936F93FF93EF930E94F2206A
:10384000EDE4F1E164ED7FE30E946B1FAF91BF9166
:103850008F919F910E94CB237F936F93FF93EF9360
:10386000F8010E94021FA8E1B2E781E39FE30E94F2
:103870007D23AF91BF918F919F910E942F2319813A
:1038800008812A960895E1E0F991F03310F0FA33B7
:1038900008F0EE270895E1E0F991F03229F0F930CF
:1038A00010F0FE3008F0EE270895E881E295EF7001
:1038B000AE2FAA0FAA0FEA0FEE0FA991AF70EA0F71
:1038C0000895A991EE27AA5012F0E05FFCCFA65F01
:1038D000EA0F0895E991F99169917991A991B991C6
:1038E000CD016BBF07900D920020E1F7FC01089518
:1038F000A991B991EE27FF276D91662311F03196BA
:10390000FBCF0895AA27BB27E991F9916991799195
:103910006BBF0790002011F01196FBCFFD010895B9
:103920000E942F2280E00E946619249608950E942A
:103930002F22E6E1F5E0662777270E942F22E0E2BA
:10394000F5E0662777270E942F2208950E942F22F4
:10395000ACE2B0E00E9445220E9477210E942F2213
:10396000089584E00E946619289608950E942F22E7
:10397000A0E0B0E00E9441220E942F2208950E9400
:103980002F22A4E0B0E00E9441220E942F2208953D
:103990000E942F22A8E0B0E00E9445220E947721D9
:1039A0000E942F22DECFE8EBF1E060E070E00E94A1
:1039B0002F22AAE0B0E00E9445220E9477210E94B7
:1039C0002F22CFCF0E942F22ACE0B0E00E944122F4
:1039D0000E942F2208950E942F22A0E1B0E00E94B1
:1039E00041220E942F2208950E942F22A4E1B0E0DC
:1039F0000E9441220E942F220895A8E1B0E00E9477
:103A000041220E942F2208950E942F22ACE1B0E0B3
:103A10000E9441220E942F22A4CF0E942F22A0E2C6
:103A2000B0E00E9441220E942F2208950E942F227E
:103A3000A4E2B0E00E9441220E942F2292CF0E9475
:103A40002F22A8E2B0E00E9441220E942F22089576
:103A5000E4E8F2E060E070E063CFE8EDF2E060E01F
:103A600070E05ECFE8EEF3E0FA93EA930C94112154
:103A7000E0E0F0E060E070E00895DE01AC5BBF4F95
:103A8000ED93FD936D937C930895DE01A85BBF4F8A
:103A9000ED93FD936D937C930895DE01A45BBF4F7E
:103AA000ED93FD936D937C930895DE01A05BBF4F72
:103AB000ED93FD936D937C930895E5E0F0E0FA9328
:103AC000EA93E4E0F0E0FA93EA93E7E0F0E0FA93B7
:103AD000EA930E942416A42DB0E0ECE3F0E00E94EB
:103AE0008921DF01E72DF0E0EA0FFB1F0895E0E0F8
:103AF000F0E0FA93EA930895DE01A05BBF4F0D90CA
:103B00001D908D919C91D00108950E9477210E9473
:103B1000F5220E942F230895E1E0F0E0FA93EA9362
:103B20000895DE01A45BBF4F0D901D908D919C9177
:103B3000D0010895FA93EA93DACFDE01A85BBF4F74
:103B40000D901D908D919C91D0010895DE01AC5B8C
:103B5000BF4F0D901D908D919C91D0010895FA93C7
:103B6000EA930C941121E8A9F9A96AA97BA90895FF
:103B70000E94F3220E94CB230895FE01E05BFF4FD9
:103B80000190119061917081F00108950E942F229F
:103B9000AAE0B0E00E9445220E9477210E94F5220F
:103BA0000895FE01F496FA93EA93FE01F296FA93D1
:103BB000EA93FE01F096FA93EA930E946614EC8D64
:103BC000FD8D6E8D7F8D0E942F22EC8DFD8D6E8D73
:103BD0007F8D0E942F220C943F14EC8BFD8B6E8BFB
:103BE0007F8B0895ECA1FDA16EA17FA10E942F22E1
:103BF0000895E6E0F0E0FA93EA93E9E0F0E0FA9362
:103C0000EA93E8E0F0E0FA93EA930E943C16E5E0DC
:103C1000F0E0FA93EA93E4E0F0E0FA93EA93E7E065
:103C2000F0E0FA93EA930C942416E82DFF27662718
:103C300077270E942F22E92DFF27662777270E94EA
:103C40002F22E62DFF27662777270E942F22E52DBA
:103C5000FF27662777270E942F22E42DFF2766275C
:103C600077270E942F22E72DFF27662777270E94BC
:103C70002F2208950E942F22FE01E05CFF4F019049
:103C8000119061917081F0010895E5E0F0E0FA9300
:103C9000EA93E4E0F0E0FA93EA93E7E0F0E0FA93E5
:103CA000EA930E942416A52DB0E0E0E1FEE00E9418
:103CB0008121BF01A42DECE3EA9FF001DB01F0E0DC
:103CC000AE0FBF1FE72DF0E0EA0FFB1F6627772737
:103CD0000895EE87FF87688B798B0895EA87FB87C5
:103CE0006C877D870895AE85BF85888999890895F9
:103CF000EA85FB856C857D850895E2EFF0E060E064
:103D000070E00ECEE3EEF3E060E070E00E942F2260
:103D10008CCF88E10E9466196C960895FA01DE0145
:103D20005596EA0FFB1F0895DE015596A40FB51FA7
:103D3000EC91EA9308950E942F22DE015996A40F78
:103D4000B51FEC91FF27662777270E942F2209CE07
:103D5000DE015596A40FB51F0895EB8BFE017296F8
:103D6000FA93EA930C948E19EC93EFEDF8E060E08F
:103D700070E0E1CFFE017596FA93EA930E947D1AF6
:103D8000DF01CB010895FE017596FA93EA930C9436
:103D90007D1AE5E9FFEB66ED73E30E9410240895B8
:103DA000E3E7F9E060E070E00895E0E0F0E060E271
:103DB00071E40895E0E0F0E06AEF73E40E941024FB
:103DC0000895E0E0F0E46CE177E40E9410240895A7
:103DD000E0E0F0E46CE975E40E9410240895FE012F
:103DE0007596FA93EA930C948E19FA93EA9394CE0B
:103DF000EC83FD836E837F830895EC81FD816E816A
:103E00007F8108950E9477210E94F5220895EA811A
:103E1000FB816C817D810895220F331F5695479554
:103E20005695479556954795F9010E946821E40FEC
:103E3000F51FEA87FB870895A88DB98D8A8D9B8D24
:103E40000E947D230895C9DEE88DF98D6A8D7B8DF2
:103E50000895AC89BD898E899F890895E889F9897B
:103E60006A897B8908950E942F23EC87FD876E87DE
:103E70007F870895F3DFA889B9898A899B890E9481
:103E80007D230895E887F9876A877B870895A88945
:103E9000B9898A899B8908950E947D23A9CFE885E5
:103EA000F9856A857B850895AC85BD858E859F855E
:103EB0000895AC81BD818E819F8108950E942F233A
:103EC000E883F9836A837B83A0E0B0E080E89FE326
:103ED0000E94CB2308950E9434220E942823089533
:103EE000E883F9836A837B830895E881F9816A8195
:103EF0007B810895EE83FF836887798708950E9408
:103F000077210E942F22089580E20E946619A496CC
:103F10000895F801DE0196960E946C21EA0FFB1FBE
:103F20000895F801A4E3B5E0EE0FFF1FAE0FBF1F29
:103F30000E94162267CF0E942F22EAA5FBA56CA53E
:103F40007DA50E942F22EAA9FBA96CA97DA90E9448
:103F50002F22EAADFBAD6CAD7DAD0E942F22FE019C
:103F6000EE5BFF4F0190119061917081F0010E9412
:103F70002F220895EA89FB896C897D8908950E9422
:103F80002522B3CF0E941A22DF01CB01EC81FD81F3
:103F900039DF0E94CB2308950E942522AE81BF8184
:103FA0000895A885B9850E941A220895A4E3B5E072
:103FB000EE0FFF1FEA0FFB1F0895EC87FD876E874A
:103FC0007F870895EC85FD856E857F8508950E9425
:103FD000CB2386CFA881B9818A819B810895EE8108
:103FE000FF816885798508950E94CB23DF01CB018D
:103FF000E0E0F0E06AE774E40E94CB230895EE85E8
:10400000FF85688979890895E0910005F09101059F
:10401000609102057091030508950E947D23A88593
:10402000B9858A859B850895A885B9858A859B85EC
:104030000895EEE8EA93E0E0EA930C94FA15EA9327
:104040000E94E015EA930C94551CEA93EB81EA93E5
:104050000E94611CEA930C94FA15EA93EA81EA93B0
:104060000E94611CEA930C94FA150E942F220C9472
:104070006A1C1FDF9ADE10CFC0DE16DF0E941024FC
:10408000089512DFEDECFCEC6CEC7DE30E947D23E7
:1040900094DF3F5F089508DF88DE0E947D238DCF87
:1040A000A0E0B0E080E09FE30895EDECFCEC6CEC68
:1040B0007DE30E947D230895F3DF0E942F230E9459
:1040C0002F220C949E1BA885B9851196A887B987C5
:1040D00011970895E02FE05DEC93E02F0895FF27FE
:1040E000662777270E94F5220895E885F98531969D
:1040F000E887F987319708950E942022EF5FFF4FEC
:104100006F4F7F4F0E942A22E150F0406040704084
:104110006BBFE69108952A93FE01E75AFF4F019085
:10412000F081E02DFA93EA93FE017596FA93EA93F3
:104130000C947416FE01E65AFF4F0190F081E02DB9
:1041400008953497DE01A65ABF4FED93FC9308956E
:10415000FE01E75AFF4F0190F081E02DFA93EA93B8
:10416000FE017596FA93EA930C947416DE01A65A32
:10417000BF4F0D90BC91A02D0895DCDFE2CFEA8700
:10418000FB87FA93EA930E94781C1E2F0895EEDFB6
:1041900014960E94162208950B7FED89EA93FE0182
:1041A000E75AFF4F0190F081E02DFA93EA93FE0168
:1041B000E75AFF4FFA93EA930E947416503008951D
:1041C0001EDFAE81BF81888599850895E987FA87CA
:1041D0006B877C870895AE81BF811196AE83BF83C4
:1041E00011970895AA81BB818C819D810895EA83EE
:1041F000FB836C837D8308950ADEA985BA858B8550
:104200009C850895E0E0F0E060E87FE30895A985EB
:10421000BA858B859C850895AE81BF8188859985F7
:104220000895E991F991309639F088EE93E001977D
:10423000F1F7A8953197C9F7089524975F939F8167
:10424000992311F4289647C212F4289650C24F932E
:1042500042E48E81BD81AC8188839983AA83BB832C
:10426000FD01BC01AC81BD818E819F8194D288818A
:104270009981AA81BB81F3D176D17A955AD188816F
:104280009981AA81BB81AE27A87F21F4BF17860739
:10429000970729F04A9519F0DF01CB01DDCF4F9147
:1042A0005F91289608950024AF0DB01D0895EA1B74
:1042B000FB0B680B790B0895F195E195F04008959B
:1042C000F09560957095E195FF4F6F4F7F4F089582
:1042D000EE0FFF1FEE0FFF1FEE0FFF1FEE0FFF1F72
:1042E0000895FE2FFF0FFF0B6F2F7F2F08956F2F65
:1042F000660F660B762F0895EA17E1E009F0EE27C6
:104300000895FA9FF02DEB9FF00DEA9FE02DF10D3F
:1043100008957ED0F6DF0EF4CFDF0895002498E0F4
:10432000AA0F001C0E1A10F40E0E01C0A1609A957F
:10433000B9F7EA2FA02D08955FD0F0DF0EF4E195D4
:1043400008950024112490E1AA0FBB1F001C111C2A
:104350000E1A1F0A18F40E0E1F1E01C0A1609A95B6
:1043600099F7FD01D001089553D0EBDF0EF4A4DFDF
:1043700008953F934F935F930024112444275527BA
:1043800030E2AA0FBB1F881F991F001C111C441F7D
:10439000551F0E1A1F0A460B570B28F40E0E1F1E30
:1043A000461F571F01C0A1603A9559F7FD01BC0196
:1043B000D001CA015F914F913F910895E894A7FF02
:1043C00002C0A1956894E7FDE195A8DFEA2F0EF4FD
:1043D000E1950895E894B7FF04C0A095B0951196B3
:1043E0006894F7FD69DFADDFFD010EF465DF089528
:1043F000C0DFFD01BC010895E894E7FF02C0E1952C
:104400006894A7FF04C0A19500F8039400FA0895EA
:10441000E894F7FF02C050DF6894B7FF06C0A0958C
:10442000B095119600F8039400FA0895ED91FC916F
:1044300011970895ED91FD916D917C9113970895D9
:10444000ED91FD916D917D910895ED93FD936D93A7
:104450007C9308957E936E93FE93EE9308957A93E2
:104460006A93FA93EA930895182E862F612D192ED8
:10447000972F712D1B2EBF2FF12D1A2EAE2FE12D50
:104480000895129602D0BF011297119602D0FE2F06
:104490001197E199FECFFF93FFB7F894AEBBBFBB76
:1044A000E09AEDB3FFBFFF91089507D012960F0178
:1044B000FB0103D0F0011297089507D01196EF93F6
:1044C000EF2F03D0EF9111970895E19B02C0A895BB
:1044D000FCCF9FB7F894AEBBBFBBE09A8DB3E81793
:1044E00019F0EDBBE29AE19A9FBF0895A991B991A5
:1044F000E991F9916991799177FB660F771F882788
:104500007E57880B7D938C937EE7769567950EF0AA
:10451000089530976040704009F070580895552311
:1045200042F4503811F4E0FF04C03196691F791F3E
:104530006BF050E8572711F45F93CDC05F3F31F027
:10454000660F000C57956795752F08955F930020AF
:104550000AF0CDC0C6C050E8192E1522880F991F49
:104560009527550F879550E8072E0522660F771F70
:104570007527550F67950895689401C0E8945F9377
:10458000F2DF703818F07F3F08F4A5C056E1571BE2
:10459000AAF4519558300EF4593030F0EFEFFFEF98
:1045A0006FEF7FE777F91AC077275523B9F0EE0F41
:1045B000FF1F661F771F5A95D1F710C07727583015
:1045C00028F0EF2FF62F672F5850F9CF552331F0F1
:1045D00076956795F795E7955A95D1F700200AF4F7
:1045E0006FDE5F910895689401C0E8943097604051
:1045F0007040B1F0002426F0772312F4009460DEBE
:10460000172E7EE1112032F07A95EE0FFF1F661F04
:10461000111CF9CFEF2FF62F612D5F938ADF5F9189
:1046200008954F93AF01FD01DA01AB01BC01CA014E
:10463000402D012C142E4F910895EA0FFB1F681F87
:104640000895E095F0956095EF5FFF4F6F4F0895E7
:104650005F9381DF903871F150E8152604C05F93B5
:104660007ADF903839F1703821F1572F591B13F147
:1046700012F4D7DFFACF583118F0AA27BB278827C2
:10468000583028F0AB2FB82F88275850F9CF552332
:1046900029F08695B795A7955A95D9F7502D5125AC
:1046A00062F0CBDF38F46795F795E795739513F4CF
:1046B0001EC0B7DF3EDF5F910895EA1BFB0B680B5E
:1046C00051F010F40094BDDF6623A2F3EE0FFF1F3C
:1046D000661F7A95CBF7EE27FF27662777275F912E
:1046E0000895EFEFFFEF6FE77FEF5F910895EFEF32
:1046F000FFEF6FE77FE75F9108955F932CDF7038DE
:1047000051F3903841F301240894791F23F41CF3EA
:1047100000203AF3ECCF0F921F932F933F934F93C8
:10472000112722279927689FA0018F9F302D410DC7
:10473000591F6B9F300D411D591F8E9F27D0BF9F62
:1047400025D06A9F23D0BE9F1DD0AF9F1BD0AE9FA8
:10475000110D291F391F491F591FE32FF42F652FF2
:10476000522F4F913F912F911F910F9066232AF066
:10477000550FEE1FFF1F661F02C073954BF2CFDE71
:104780005F910895100D211D391F02C0200D311DAC
:10479000491F591F08955F93DEDE703821F4112000
:1047A0000AF49FCFA4CF903809F495CF0124089440
:1047B000970B1BF4D4F30020F3CF792F1F932F9383
:1047C0003F934F931124112722273327442755273E
:1047D00090E2AE17BF078607410730F0AE1BBF0B54
:1047E000860B410B089401C08894551F221F331F6C
:1047F000111CAA1FBB1F881F441F9A9551F7F9016E
:10480000612D4F913F912F911F91662332F0550FEB
:10481000EE1FFF1F661F7A9543F281DE5F910895B8
:1048200099239AF0772342F0971748F029F4AE17AE
:10483000BF07860720F031F09894889408959894E3
:10484000089408951894889408957723C2F79717C9
:1048500098F3A9F7EA17FB07680788F399F3ECCFF9
:10486000309760407040089500240A160B06080631
:10487000090608955A934A933A932A931A930A93EE
:1048800008955D814C813B812A81198108810895B9
:10489000AC0FBD1F6BBF07900D928A95E1F708958D
:00000001FF
