:060000000C9483080C942F
:1000060000000C9400000C9400000C9400000C946A
:1000160000000C9400000C9400000C9400000C945A
:1000260000000C9400000C9400000C9400000C944A
:1000360000000C9400000C9400000C9400000C943A
:1000460000000C9400000C9400000C9400000C942A
:1000560000000C9400000C9400000C9400000C941A
:1000660000000C9400000C9400000C9400000C940A
:1000760000000C9400000C9400000C9400000C94FA
:1000860000000C94000012CF5B3B39A2AC398034DF
:100096008A3690E030B4312E3137323030382F3155
:1000A600302F333033938843B96C863A0D617B39F0
:1000B600389325340D0A2A2A2A2A2A20534D4152DA
:1000C60054204449474954414C20494E54455246D0
:1000D600414345202A2A2A2A2A0D0A0020536F6600
:1000E60074776172652056657273696F6E20257329
:1000F6002C2025730D0A002043757272656E7420DC
:10010600454550524F4D2076616C7565733A0D0A20
:1001160000204964656E7469666965722048656188
:100126006465723D2024574952253032640D0A0019
:100136002050535020436F6566663D20252E32457C
:100146000D0A002050495220436F6566663D202502
:100156002E32450D0A0020496E74657276616C2058
:1001660054696D65202873656373293D2025640DE8
:100176000A0020436D61783D2025640D0A00205257
:1001860065666572656E6365205265736973746F23
:100196007220436173653D20252E31660D0A0020CD
:1001A6005265666572656E63652052657369737420
:1001B6006F7220446F6D653D20252E31660D0A0055
:1001C6002056746865726D3D20252E34662C2056A7
:1001D6006164633D20252E34660D0A002050495285
:1001E60020414443204F66667365743D20252E32B8
:1001F60066206D760D0A0020504952204144432066
:100206004761696E3D20252E32660D0A0020505347
:100216005020414443204F66667365743D20252E69
:100226003266206D760D0A0020505350204144431B
:10023600204761696E3D20252E32660D0A00204951
:1002460044202020204441544520202020202054B2
:10025600494D4520202020202020232020205049C1
:100266005220202020204C57202020205443415348
:10027600452020202054444F4D4520202020205347
:1002860057202020542D41565220202042415454BC
:100296000D0A002D2D2D2D2D2D2D2D2D2D2D2D2DF8
:1002A6002D2D2D2D2D2D2D2D2D2D2D2D2D2D2D2D78
:1002B6002D2D2D2D2D2D2D2D2D2D2D2D2D2D2D2D68
:1002C6002D2D2D2D2D2D2D2D2D2D2D2D2D2D2D2D58
:1002D6002D2D2D2D2D2D2D2D2D2D2D2D2D2D2D2D48
:1002E6002D2D2D2D2D2D0D0A0020494420202020B6
:1002F6004441544520202020202054494D452020AB
:100306002020202020232020205049522020202059
:10031600204C57202020544341534520202054444C
:100326004F4D45202020205357202020542D415644
:1003360052202020424154540D0A00245749522588
:100346003032642C253032642F253032642F25302C
:1003560032642C253032643A253032643A25303204
:10036600642C2534642C25362E31662C25362E3207
:10037600662C25362E32662C25362E32662C2537EF
:100386002E32662C25352E31662C25352E31660DFE
:100396000A000D0A0D0A5349474E4F4E205241445A
:1003A600494F4D4554455220494E544552464143C6
:1003B60045205625732C2025730D0A000D0A446925
:1003C600676974616C20496E746572666163652045
:1003D600426F617264202D2052657620422E204E97
:1003E6006F7620323030370D0A0050726F677261B7
:1003F6006D2053746172742074696D652069733A57
:1004060020253032643A253032643A253032640D84
:100416000A0050726F6772616D20537461727420A6
:10042600646174652069733A20253032642F253063
:1004360032642F253032640D0A000D0A4869742093
:1004460027542720666F72204D61696E204D656EB8
:10045600752E0D0A00436F6D6D616E643F3E000D93
:100466000A54494D454F55543A2052657475726E7B
:1004760020746F2073616D706C696E670D0A000DD4
:100486000A205749522530326420424F41524420B7
:10049600285245562042292056455253494F4E3A36
:1004A6002025732C2056455253494F4E2044415423
:1004B600453A2025730D0A0043757272656E7420E5
:1004C6006461746574696D653A202530326425303F
:1004D6003264253032642C2530326425303264256E
:1004E6003032640D0A00202D2D2D2D2D5053502015
:1004F60053455454494E47530D0A00276B27202D68
:100506002D3E5365742050535020636F65666669AF
:100516006369656E742028252E324520762F28576C
:100526002F6D5E3229290D0A00276727202D2D3EC3
:100536005365742050535020616D706C696669650F
:1005460072206761696E2076616C75652E2028259C
:100556002E3166290D0A00276F27202D2D3E536563
:10056600742050535020616D706C69666965722005
:100576006F66667365742C206D762E2028252E31C5
:1005860066206D76290D0A00202D2D2D2D2D504922
:10059600522053455454494E47530D0A00274B27C2
:1005A600202D2D3E5365742050495220636F656699
:1005B60066696369656E742028252E324520762F7C
:1005C60028572F6D5E3229290D0A00274727202D2F
:1005D6002D3E5365742050495220616D706C6966DA
:1005E600696572206761696E2076616C75652E207B
:1005F60028252E3166290D0A00274F27202D2D3E4E
:100606005365742050495220616D706C6966696546
:1006160072206F66667365742C206D762E202825F1
:100626002E3166206D76290D0A00274327202D2DB1
:100636003E536574204361736520527265662028B7
:10064600252E3166206F686D73292E0D0A0027440A
:1006560027202D2D3E53657420446F6D6520527200
:1006660065662028252E3166206F686D73292E0D4C
:100676000A00275627202D2D3E53657420546865A1
:10068600726D6973746F72205265666572656E630A
:1006960065202620414443205265666572656E6377
:1006A6006520566F6C746167652028252E3166209B
:1006B6006D56292E0D0A00202D2D2D2D2D2D2D2D7B
:1006C6002D4441544520262054494D452053455438
:1006D60054494E472D2D2D2D2D2D2D2D2D2D2D2DC6
:1006E6002D2D2D2D2D2D2D2D2D2D2D2D2D2D2D0D54
:1006F6000A00275427202D2D3E5365742074686503
:1007060020646174652F74696D652E0D0A00202DB5
:100716002D2D2D2D2D2D2D2D54494D494E47205330
:10072600455454494E472D2D2D2D2D2D2D2D2D2D36
:100736002D2D2D2D2D2D2D2D2D2D2D2D2D2D2D2DE3
:100746002D2D2D2D2D2D0D0A00274C27202D2D3E2C
:10075600536574204F75747075742074696D6520C7
:10076600696E207365636F6E64732E202825642975
:100776000D0A00202D2D2D2D2D2D2D2D2D2D2D2D20
:100786002D2D2D2D2D2D2D2D2D2D2D2D2D2D2D2D93
:100796002D2D2D2D2D2D2D2D2D2D2D2D2D2D2D2D83
:1007A6002D2D2D2D2D2D2D2D2D2D2D0D0A002753C3
:1007B60027202D2D3E53616D706C652031322062ED
:1007C6006974204120746F20442E0D0A00274127AA
:1007D600202D2D3E4368616E6765204964656E7401
:1007E600696669657220537472696E672E202825C2
:1007F600303264290D0A00275827202D2D3E4578D2
:1008060069742074686973206D656E752C20726535
:100816007475726E20746F206F7065726174696F83
:100826006E2E0D0A003D3D3D3D3D3D3D3D3D3D3D70
:100836003D3D3D3D3D3D3D3D3D3D3D3D3D3D3D3DE2
:100846003D3D3D3D3D3D3D3D3D3D3D3D3D3D3D3DD2
:100856003D3D3D3D3D3D3D3D3D3D3D3D3D3D0D0A25
:100866000053797374656D206461746574696D6590
:10087600202879794D4D646468686D6D73732920FD
:100886006973202530326425303264253032642580
:1008960030326425303264253032640D0A00456EEC
:1008A600746572206E6577206461746574696D6520
:1008B6002065786163746C79202879794D4D64647C
:1008C60068686D6D7373293A2020006461746574DD
:1008D600696D65206572726F722C2025630D0A00A2
:1008E6006461746574696D65206572726F72320D2C
:1008F6000A000D0A6461746574696D65207374720B
:10090600696E67203D2025730D0A007972203D200F
:1009160025640D0A006461746574696D65206572ED
:10092600726F720D0A005365742064617465746990
:100936006D653A20253032642530326425303264C4
:100946002C2530326425303264253032640D0A009D
:100956004368616E6765204F757470757420496EC3
:1009660074657276616C20696E20736563730D0A17
:100976000043757272656E7420496E746572766195
:100986006C2069733A20256420736563730D0A0031
:10099600456E746572206E6577206F757470757418
:1009A60020696E74657276616C20696E207365636A
:1009B600733A20002563000D0A4F7574206F662078
:1009C60052616E67652E0D0A000D0A4C6F6F7074CA
:1009D600696D65206973206E6F7720736574207466
:1009E6006F202564207365636F6E64732E0D0A0095
:1009F6004368616E67652050535020436F65666695
:100A0600696369656E740D0A0043757272656E746A
:100A16002050535020436F656666696369656E743E
:100A26002069733A20252E32450D0A00456E7465FD
:100A360072204E65772050535020436F6566666975
:100A46006369656E743A20000D0A4F7574206F66EF
:100A56002052616E67650D0A000D0A5053502043FF
:100A66006F656666696369656E74206973206E6F6B
:100A7600772073657420746F20252E32450D0A0089
:100A86004368616E67652050535020416D706C69F4
:100A960066696572204761696E2056616C75650DE1
:100AA6000A0043757272656E742050535020416D72
:100AB600706C6966696572204761696E2056616C63
:100AC60075653A20252E32660D0A00456E746572EC
:100AD600204E65772050535020416D706C696669D1
:100AE6006572204761696E2056616C75653A200013
:100AF6000D0A50535020416D706C6966696572200D
:100B06004761696E206973206E6F77207365742064
:100B1600746F20252E32660D0A004368616E676584
:100B26002050535020416D706C6966696572204F84
:100B360066667365742056616C75650D0A004375AB
:100B46007272656E742050535020416D706C6966E8
:100B5600696572204F66667365742056616C7565AB
:100B66003A20252E32660D0A00456E746572204EB7
:100B760065772050535020416D706C6966696572C7
:100B8600204F66667365742056616C75653A200061
:100B96000D0A50535020416D706C6966696572206C
:100BA6004F6666736574206973206E6F7720736570
:100BB6007420746F20252E32660D0A004368616E1C
:100BC60067652050495220416D706C69666965728F
:100BD600204761696E2056616C75650D0A00437584
:100BE6007272656E742050495220416D706C696650
:100BF600696572204761696E2056616C75653A2099
:100C0600252E32660D0A00456E746572204E657794
:100C16002050495220416D706C69666965722047A3
:100C260061696E2056616C75653A20000D0A50495F
:100C36005220416D706C6966696572204761696E04
:100C4600206973206E6F772073657420746F20257A
:100C56002E32660D0A004368616E67652050495260
:100C660020416D706C6966696572204F66667365B2
:100C7600742056616C75650D0A0043757272656E57
:100C8600742050495220416D706C69666965722006
:100C96004F66667365742056616C75653A20252E1D
:100CA60032660D0A00456E746572204E65772050D7
:100CB600495220416D706C6966696572204F66669F
:100CC6007365742056616C75653A20000D0A5049AB
:100CD6005220416D706C6966696572204F66667355
:100CE6006574206973206E6F772073657420746F46
:100CF60020252E32660D0A004368616E6765205016
:100D0600495220436F656666696369656E740D0AAC
:100D16000043757272656E742050495220436F65A8
:100D26006666696369656E742069733A2025450DA8
:100D36000A00456E746572204E6577205049522030
:100D4600436F656666696369656E743A20000D0ACD
:100D560050495220436F656666696369656E742003
:100D66006973206E6F772073657420746F20254534
:100D76000D0A004368616E67652043617365205202
:100D860065666572656E6365205265736973746F17
:100D96007220285238290D0A0043757272656E74E6
:100DA6002043617365205265666572656E636520D2
:100DB6005265736973746F722069733A20252E31F8
:100DC600660D0A00456E746572204E657720436194
:100DD6007365205265666572656E6365205265733C
:100DE600697374616E63653A20000D0A4361736529
:100DF600205265666572656E636520526573697318
:100E0600746F72206973206E6F7720736574207417
:100E16006F20252E31660D0A004368616E676520D6
:100E2600446F6D65205265666572656E6365205216
:100E360065736973746F7220285239290D0A00434D
:100E4600757272656E7420446F6D652052656665B5
:100E560072656E6365205265736973746F7220697B
:100E6600733A20252E31660D0A00456E7465722090
:100E76004E657720446F6D65205265666572656EB6
:100E8600636520526573697374616E63653A200009
:100E96000D0A446F6D65205265666572656E636501
:100EA600205265736973746F72206973206E6F7751
:100EB6002073657420746F20252E31660D0A004359
:100EC60068616E676520546865726D6973746F72C8
:100ED600205265666572656E636520566F6C746137
:100EE60067650D0A0043757272656E7420546865F5
:100EF600726D6973746F72205265666572656E6392
:100F06006520566F6C746167652069733A20252EDB
:100F160034660D0A00456E746572204E657720545E
:100F26006865726D6973746F722052656665726565
:100F36006E636520566F6C746167653A20000D0A12
:100F4600546865726D6973746F7220526566657256
:100F5600656E636520566F6C7461676520697320E2
:100F66006E6F772073657420746F20252E34660D9E
:100F76000A004368616E6765204964656E74696638
:100F860069657220416464726573730D0A00437566
:100F96007272656E74204964656E746966696572FD
:100FA60020416464726573733A2024574952253090
:100FB60032640D0A00456E746572204E65772049CD
:100FC60064656E74696669657220416464726573EE
:100FD60073202830302D3939293A20000D0A49640A
:100FE600656E74696669657220537472696E6720EE
:100FF6006E6F772073657420746F3A2024574952B8
:10100600253032640D0A0052455455524E20544F35
:101016002053414D504C450D0A00496E76616C696E
:1010260064206B65790D0A00253764202537642016
:10103600253764202537642025376420253764202A
:10104600253764202537640D0A0025372E326620A1
:1010560025372E32662025372E32662025372E324A
:10106600662025372E32662025372E326620253714
:101076002E32662025372E32660D0A0025372E328F
:10108600662025372E32662025372E3266202537F4
:101096002E32662025372E32662025372E326620E0
:1010A60025372E32662025372E32660D0A0D0A00A8
:1010B6002D4E414E000001002D4E414E0000040011
:1010C60004058C00000004000805900000000400E0
:1010D6000C059400000004001005980000000400B0
:1010E60016059C0000000A002005A0000000040070
:1010F6000005AA00000001004405BC100000000025
:10110600F894EE27ECBBF1E0F5BFE5BFE0936C0089
:10111600F8E1F1BDE1BD8DE0A2E0BB27ED938A9534
:10112600E9F780E090E1A0E0B1E0ED930197E9F7FF
:101136008BBFE4ECF0E1D0E0DBBF8791979100979D
:1011460081F0A791B79107901790C791D791BF01EA
:10115600DBB7F001CBBF07900D920197E1F7FB01DA
:10116600EBCFEFEFEDBFE0E1EEBFC0E0D5E00C94D2
:10117600BC08EF976597E0E0E0931405E09315054A
:10118600AAE0B0E0E0E0F8E00E9428230E941C11EB
:10119600DCD10E940F11EAEBF0E060E070E00E9403
:1011A600631DE2EEF0E060E070E00E946A1DEDEF84
:1011B600F0E060E070E00E94631DE7E1F1E060E0CE
:1011C60070E00E947D1D0E94881DE6E3F1E060E06C
:1011D60070E00E948D1D0E94881DE9E4F1E060E048
:1011E60070E00E94961D0E94881DECE5F1E060E02B
:1011F60070E00E949F1D0E94AA1DE4E8F1E060E0F5
:1012060070E00E94B91D0E94881DE5EAF1E060E0E9
:1012160070E00E94C21D0E94881DE6ECF1E060E0CD
:1012260070E00E94CB1D0E94D41D88E00E94351AF2
:101236002C96E2EEF1E060E070E00E94DB1DEDEF3F
:10124600F1E060E070E00E94E41D0E94881DE3E189
:10125600F2E060E070E00E94ED1DEEE2F2E060E098
:1012660070E00E94F61D0E94881DE4E4F2E060E052
:1012760070E00E94631DE9E9F2E060E070E00E9420
:10128600631D0E94FF1D0E94051EECABFDAB6EABFD
:101296007FABE8AFF9AF6AAF7BAFECAFFDAF6EAF38
:1012A6007FAFDE01A05CBF4FED93FD936D937C9302
:1012B6000E940A1E0E94121E0E941A1E0E94221ED0
:1012C600E0E0E8ABE9ABEAABEBAB0E942A1E0F010C
:1012D600A8E0B0E00E941023D0010E947F226F0197
:1012E600A8E0B0E00E941023D60111960E94542275
:1012F600DF01E0E1FEE00E94B5226F010E942A1E96
:101306005F010E948C11309761F00E9431171E2FE9
:10131600143509F446D1183421F40E94441E0E9463
:10132600491EAC14BD040CF03FC00E944E1E0E9424
:101336004E1E0E94A7110E94531E0E945C1E0E9410
:10134600221E0E94631E0E944E1E0E94A7110E942A
:10135600681E0E945C1E0E941A1EE2E0F0E00E94D7
:10136600711E0E94A7110E94741E0E945C1E0E949C
:10137600121EE3E0F0E00E94711E0E94A7110E9477
:101386007D1E0E945C1E0E940A1EE4E6F0E00E949A
:10139600861E0E948A1EEF5FFF4F6F4F7F4FE8AB9E
:1013A600F9AB6AAB7BABAACF37D70E948A1E0E94E5
:1013B600531E0E948F1E0E94221E0E948A1E0E9499
:1013C600681E0E948F1E0E941A1E0E948A1E0E947C
:1013D600741E0E948F1E0E94121E0E948A1E0E9468
:1013E6007D1E0E948F1E0E940A1EDED6ECA7FDA758
:1013F6006EA77FA7F6D6ECA3FDA36EA37FA3B1D6F7
:10140600E8A7F9A76AA77BA70E94941E0E948D1DD4
:10141600A4E2B0E00E940C230E94F61DFE017C9619
:10142600FA93EA930E946E15FE01E85BFF4F019066
:10143600119061917081F0010E949D1E0E94B91D5C
:101446000E94D41D0E94D41D0E94A81E0E94C41E84
:10145600FE01EC5BFF4F0190119061917081F001EC
:101466000E949D1E0E94C21D0E94D41D0E94D41D72
:101476000E94A81E0E94C91EFE01E45BFF4F019058
:10148600119061917081F0010E94961DACE1B0E06F
:101496000E940C230E94E41D0E94CE1E0E94CE1EB6
:1014A600E0E0F0E060E870E40E94FA22FE01B49603
:1014B600FA93EA93FE01B296FA93EA93FE01B09686
:1014C600FA93EA930E948B150E94D51E0E94E31E92
:1014D600E1E4F3E060E070E00E947D1D0E94F11EF1
:1014E6000E94041F0E94941E0E94FA22FE01E059E7
:1014F600FF4F0190119061917081F0010E94FA22D4
:101506000E948A1E0E94171F0E94171F0E94171F03
:101516000E94FA22FE01E05AFF4F0190119061915C
:101526007081F0010E94FA22FE01E859FF4F0190F6
:10153600119061917081F0010E94FA228CE30E9461
:10154600351AEF9621969FCEFFCFECD6E8E9F3E069
:1015560060E070E00E946A1DE2ECF3E060E070E09B
:101566000E94631D0E94E31EE0EFF3E060E070E07E
:101576000E94FA220E94041F0E94221F0E94D51E6A
:10158600E8E1F4E060E070E00E94271F0E94221F5D
:10159600E0E4F4E060E070E00E94631D0E942A1F10
:1015A60008956B970E940525EBE5F4E060E070E096
:1015B6000E94631D0E94E31E0E942F1F0E94451F6A
:1015C600A8D6309721F00E9431171E2F1FC00E9407
:1015D600E31E0E942F1F0E944A1F0E944F1F0E9457
:1015E600541F0E942222FA93EA930E94551A7F976B
:1015F60060F0E5E6F4E060E070E00E94631DE1E083
:10160600F0E00E940C25A1960895DACFE12FEF3382
:1016160021F0EF3211F00C94B50B0E94D51E0E94FA
:10162600E31E0E942A1FE5E8F4E060E070E00E94F5
:101636007D1DE6E1F5E00E94591FE0E2F5E00E941B
:10164600591F0E94221F0E945E1F0E94041F0E94B3
:10165600631FECEEF4E060E070E00E94631DE1E0E1
:10166600F5E060E070E00E948D1D0E94881DEFE2AB
:10167600F5E060E070E00E94F61D0E94881DEDE531
:10168600F5E060E070E00E94ED1DEEE8F5E060E058
:1016960070E00E94631DE3EAF5E060E070E00E94FE
:1016A600961D0E94881DE1EDF5E060E070E00E9465
:1016B600E41D0E94881DEFEFF5E060E070E00E94F7
:1016C600DB1DE0E3F6E060E070E00E94B91D0E94D9
:1016D600881DE4E5F6E060E070E00E94C21D0E940D
:1016E600881DE8E7F6E060E070E00E94CB1D0E94EE
:1016F600881D0E94AA1DEDEBF6E060E070E00E94F6
:10170600631DE8EFF6E060E070E00E94631DE4E12F
:10171600F7E060E070E00E94631DEFE4F7E060E050
:1017260070E00E949F1DE9E7F7E060E070E00E942C
:10173600631DE4EBF7E060E070E00E94631DE3EDFB
:10174600F7E060E070E00E947D1D0E94881DEDEFCD
:10175600F7E060E070E00E94631DEBE2F8E060E015
:1017660070E0F4C4E43521F0E43711F00C948F0CEA
:101776000E94D51E0E94E31EE7E6F8E060E070E0F6
:101786000E94271F0E94041F0E94631FE4EAF8E0DC
:1017960060E070E00E94631D40E050E04C30E0E005
:1017A6005E07ECF40E94681FFF93EF930E943117C7
:1017B600AF91BF91EC930E946E1F0E94161DE03000
:1017C60039F4E1EDF8E060E070E00E94751F07C0B3
:1017D6000E946E1F0E9435174F5F5F4FDFCF4C3060
:1017E600E0E05E072CF4E6EEF8E060E070E0AEC400
:1017F6000E94821FE0E0EC93EC8BE8EFF8E060E0FB
:1018060070E00E94FA22FE0179960E94591F0E94FA
:10181600881DED89EA8BEE890E94871F8E2EEF893F
:10182600EA8BE88D0E94871F9E2EE98DEA8BEA8D52
:101836000E94871F6E2EEB8DEA8BEC8D0E94871F10
:101846005E2EED8DEA8BEE8D0E94871F4E2EEF8D5C
:10185600EA8BE8A10E94871F7E2EE1E1F9E060E0B5
:1018660070E00E94FA22E82DFF27662777270E945C
:10187600FA220E94881DE7E0E81518F4E3E6E81569
:1018860008F424C0E0E0E91518F4ECE0E91508F4E2
:101896001DC0E0E0E61518F4EFE1E61508F416C001
:1018A600E0E05E1618F0E7E1E51508F40FC0E0E0A9
:1018B6004E1618F0EBE3E41508F408C0E0E07E16D7
:1018C60018F0EBE3E71508F401C007C0EBE1F9E017
:1018D60060E070E00E94631D14C0ECE2F9E060E095
:1018E60070E00E94271F0E94041F0E94631F5A92E5
:1018F6004A927A920E94F9166A929A928A920E9463
:101906001A170E94D51E0E94E31E0E945E1F0E94A7
:10191600041F0E94631F20C4EC3421F0EC3611F042
:101926000C94F00CE6E5F9E060E070E00E94631DBF
:10193600E7E7F9E060E070E00E949F1DE6E9F9E064
:1019460060E070E00E94631D40E050E04530E0E05A
:101956005E07E4F40E94681FFF93EF930E9431171D
:10196600AF91BF910E948E1F0E94821FAC91AA3038
:1019760029F00E94821FAC91AD3029F40E94821F8B
:10198600E0E0EC9303C04F5F5F4FE0CF0E94941FEF
:10199600E0E0F0E061E675E40E94DB2419F010F067
:1019A6000C94DA0C0E94941F0E94FF242CF0EDEB9D
:1019B600F9E060E070E0CAC30E949D1F0E9489237F
:1019C6009F01F901A8E0B0E00E942823EFECF9E0BE
:1019D60060E070E00E949F1DBFC3EB3611F00C94CF
:1019E6004E0DE6EFF9E060E070E00E94631DEFE067
:1019F600FAE060E070E00E948D1D0E94881DE2E31F
:101A0600FAE060E070E00E94631D40E050E04C3078
:101A1600E0E05E07E4F40E94681FFF93EF930E94E4
:101A26003117AF91BF910E948E1F0E94821FAC9109
:101A3600AA3029F00E94821FAC91AD3029F40E9491
:101A4600821FE0E0EC9303C04F5F5F4FE0CF0E9440
:101A5600941FECEAF5EC67EA77E30E94DB2448F48E
:101A66000E94941F0E94A31F09F010F40C943C0DD1
:101A760003C00E94AA1F6AC30E949D1FA0E0B0E097
:101A86000E942023EFE5FAE060E070E00E948D1DE1
:101A96000E94881D61C3E73611F00C94AC0DE6E890
:101AA600FAE060E070E00E94631DE8EAFAE060E0B8
:101AB60070E00E94F61D0E94881DE1EDFAE060E0EC
:101AC60070E00E94631D40E050E04431E0E05E07B4
:101AD600D4F40E94681FFF93EF930E943117AF91D1
:101AE600BF910E948E1F0E94821FAC91AA3029F0DE
:101AF6000E94821FAC91AD3019F44150504003C092
:101B06004F5F5F4FE2CF0E94941FE0E0F0E066E98E
:101B160073E40E94DB2458F40E94941F0E94AF1FB6
:101B26000E94DB2409F010F40C949A0D03C00E9465
:101B3600AA1F0CC30E949D1FA8E2B0E00E942023AA
:101B4600E6EFFAE060E070E00E94F61D0E94881D54
:101B560003C3EF3611F00C94030EE0E2FBE060E005
:101B660070E00E94631DE4E4FBE060E070E00E9428
:101B7600ED1DEFE6FBE060E070E00E94631D40E0D3
:101B860050E04431E0E05E07D4F40E94681FFF9302
:101B9600EF930E943117AF91BF910E948E1F0E9452
:101BA600821FAC91AA3029F00E94821FAC91AD3001
:101BB60019F44150504003C04F5F5F4FE2CF0E947F
:101BC600941F0E94B41F19F010F00C94F30D0E949C
:101BD600941FE0E0F0E06AEF73EC0E94DB2418F457
:101BE6000E94AA1FB3C20E949D1FA4E2B0E00E94F9
:101BF6002023E6E9FBE060E070E00E94ED1DACC248
:101C0600E73411F00C94600EE2ECFBE060E070E06B
:101C16000E94631DE4EEFBE060E070E00E94E41DBC
:101C26000E94881DEDE0FCE060E070E00E94631D0C
:101C360040E050E04C30E0E05E07E4F40E94681FAC
:101C4600FF93EF930E943117AF91BF910E948E1FB1
:101C56000E94821FAC91AA3029F00E94821FAC918B
:101C6600AD3029F40E94821FE0E0EC9303C04F5F81
:101C76005F4FE0CF0E94941FE0E0F0E86BEB74E466
:101C86000E94DB2419F010F00C944E0E0E94941F53
:101C96000E94B41F18F40E94AA1F58C20E949D1FDA
:101CA600A0E2B0E00E942023E2E3FCE060E070E006
:101CB6000E94E41D0E94881D4FC2EF3411F00C945F
:101CC600BD0EECE5FCE060E070E00E94631DE0E81C
:101CD600FCE060E070E00E94DB1DEBEAFCE060E007
:101CE60070E00E94631D40E050E04C30E0E05E078B
:101CF600E4F40E94681FFF93EF930E943117AF919F
:101D0600BF910E948E1F0E94821FAC91AA3029F0BB
:101D16000E94821FAC91AD3029F40E94821FE0E040
:101D2600EC9303C04F5F5F4FE0CF0E94941FE0E04B
:101D3600F0E061E674E40E94DB2419F010F00C94E4
:101D4600AD0E0E94941FE0E0F0E061E674EC0E94A4
:101D5600DB2418F40E94AA1FF9C10E949D1FACE162
:101D6600B0E00E942023E2EDFCE060E070E00E941B
:101D7600DB1DF2C1EB3411F00C941B0FEEEFFCE00F
:101D860060E070E00E94631DE7E1FDE060E070E066
:101D96000E94961D0E94881DE8E3FDE060E070E069
:101DA6000E94631D40E050E04C30E0E05E07E4F442
:101DB6000E94681FFF93EF930E943117AF91BF9166
:101DC6000E948E1F0E94821FAC91AA3029F00E94A9
:101DD600821FAC91AD3029F40E94821FE0E0EC93A3
:101DE60003C04F5F5F4FE0CF0E94941FECEAF5EC13
:101DF60067E277E30E94DB2448F40E94941F0E9466
:101E0600A31F09F010F40C94090F03C00E94AA1F27
:101E16009DC10E949D1FA4E0B0E00E942023E4E53E
:101E2600FDE060E070E00E94961D0E94881D94C14E
:101E3600E33411F00C94740FE9E7FDE060E070E024
:101E46000E94631DEFE9FDE060E070E00E94B91DAD
:101E56000E94881DEAECFDE060E070E00E94631DD0
:101E660040E050E04C30E0E05E07E4F40E94681F7A
:101E7600FF93EF930E943117AF91BF910E948E1F7F
:101E86000E94821FAC91AA3029F00E94821FAC9159
:101E9600AD3029F40E94821FE0E0EC9303C04F5F4F
:101EA6005F4FE0CF0E94941F0E94BB1F19F010F0F5
:101EB6000C94620F0E94941F0E94C21F18F40E9485
:101EC600AA1F44C10E949D1FACE0B0E00E942023DF
:101ED600E0EFFDE060E070E00E94B91D0E94881D01
:101EE6003BC1E43411F00C94CD0FEFE1FEE060E06D
:101EF60070E00E94631DE5E4FEE060E070E00E9491
:101F0600C21D0E94881DE0E7FEE060E070E00E94CE
:101F1600631D40E050E04C30E0E05E07E4F40E94D0
:101F2600681FFF93EF930E943117AF91BF910E94F4
:101F36008E1F0E94821FAC91AA3029F00E94821F38
:101F4600AC91AD3029F40E94821FE0E0EC9303C00F
:101F56004F5F5F4FE0CF0E94941F0E94BB1F19F096
:101F660010F00C94BB0F0E94941F0E94C21F18F41D
:101F76000E94AA1FEBC00E949D1FA0E1B0E00E9434
:101F86002023E6E9FEE060E070E00E94C21D0E94A8
:101F9600881DE2C0E63511F00C943610E5ECFEE043
:101FA60060E070E00E94631DEBEEFEE060E070E032
:101FB6000E94CB1D0E94881DEBE1FFE060E070E00F
:101FC6000E94631D40E050E04C30E0E05E07E4F420
:101FD6000E94681FFF93EF930E943117AF91BF9144
:101FE6000E948E1F0E94821FAC91AA3029F00E9487
:101FF600821FAC91AD3029F40E94821FE0E0EC9381
:1020060003C04F5F5F4FE0CF0E94941FE0E0F0E017
:1020160060EC70E40E94DB2419F010F00C941C10A4
:102026000E94941FE0E0F0E060E070E40E94DB2490
:1020360018F40E94AA1F8AC00E949D1FA4E1B0E066
:102046000E942023A4E1B0E00E940C23A8E1B0E0A6
:102056000E942023E4E4FFE060E070E00E94CB1DD4
:102066000E94881D79C0E13421F0E13611F00C940C
:102076008E10E8E7FFE060E070E00E94631DE4E98F
:10208600FFE060E070E00E947D1D0E94881DEBEB82
:10209600FFE060E070E00E94631D40E050E04230E7
:1020A600E0E05E07E4F40E94681FFF93EF930E944E
:1020B6003117AF91BF910E948E1F0E94821FAC9173
:1020C600AA3029F00E94821FAC91AD3029F40E94FB
:1020D600821FE0E0EC9303C04F5F5F4FE0CF0E94AA
:1020E600C91FE436A0E0FA0724F40E94C91FFF23A3
:1020F6001AF40E94AA1F2AC00E94C91FACE2B0E0CF
:102106000E942823E2EEFFE060E070E00E947D1D61
:102116000E94881D21C0E33511F0E33711F47AD20D
:102126001BC0E83511F0E83769F4EDE0F0E160E056
:1021360070E00E94631D0E94441E0E94491EE1E059
:10214600F0E00BC0E0E2F0E160E070E00E94FA220D
:1021560080E00E94351A249624DA0E940C25A19666
:10216600089524970E9407250E94CF1FEDD08F0166
:10217600E6E0F0E0FA93EA930E94631EE5D09F0141
:102186003A932A93F801EE0FFF1FFA93EA93EAE1D6
:10219600F7E2FA93EA93BBD10E94D41F0E94D91F9B
:1021A6000E940E252896089524971A930A93E7E02D
:1021B600F0E0FA93EA930E94631EC6D08F01F801FD
:1021C6000E94DE1FDF01CB01E0E0F0E068EC72E484
:1021D6000E949624AAE9B9E989E99FE30E94FA23B5
:1021E60011C024971A930A930E94CF1FADD08F0176
:1021F600F801EE0FFF1FDF01E8EEF3E00E947F22F9
:102206000E94DE1FEA83FB836C837D830E94E31FAB
:102216001981088126960895E4E0E3B9EFE0F0E03D
:102226000E94861EE0E0E3B9E4EFF1E00E94861E1C
:102236000895E0E0EBBBEABBE3E0E5BBE4BBE0E02E
:10224600E2BBE1BBE3B9E4E0E2B9E0E0E0936200BF
:10225600E0936100E0936500E0936400E0BFE3BFB4
:10226600E2BFE1BFEFBDEEBDEDBDECBDEBBDEABD2E
:10227600E9BDE8BDE0937900E0937800E5BDE4BDF3
:10228600E3BDE0938B00E0938A00E0938900E0933E
:102296008800E0938700E0938600E0938500E09352
:1022A6008400E0938300E0938200E0936A00EABF33
:1022B600E9BFE7BFE0937D00EBB9E8E1EAB9E6E004
:1022C600E0939500E0E0E0939000EBE0E9B9E0E010
:1022D600E0939B00E8E1E0939A00E6E0E0939D003E
:1022E600E0E0E0939800E3E3E0939900E0E8E8B9E2
:1022F600E0E0E0BDE1E0E8BBE7E0E7BBE1E5EDB942
:10230600E1E0EEB9E0E0EA93EA93EA930E94CE16A2
:102316000895EBB1EF3718F0E1E0F0E00895E0E062
:10232600F0E008951A930A9300E010E00931E0E026
:102336001E072CF40E942A1F0F5F1F4FF7CFE1E004
:10234600F0E009911991089526970E940525E0E08D
:10235600EA87EB87E0E0F0E0AF019F018F01AC85F3
:10236600BD85119711F00C940412EE85FF85309708
:1023760029F4EFE8F0E060E070E03EC0AE85BF858E
:10238600119729F4EFECF0E060E070E035C0AE851F
:10239600BF85129729F4EFE9F0E060E070E02CC009
:1023A600AE85BF85139729F4EFEDF0E060E070E0AD
:1023B60023C0AE85BF85149729F4EFEAF0E060E00C
:1023C60070E01AC0AE85BF85159729F4EFEEF0E0F0
:1023D60060E070E011C0AE85BF85169729F4EFEB7B
:1023E600F0E060E070E008C0AE85BF85179741F465
:1023F600EFEFF0E060E070E0EE83FF8368877987B7
:102406004BC0EE85FF85309729F4E7E8F0E060E001
:1024160070E03EC0AE85BF85119729F4E7ECF0E089
:1024260060E070E035C0AE85BF85129729F4E7E914
:10243600F0E060E070E02CC0AE85BF85139729F40C
:10244600E7EDF0E060E070E023C0AE85BF8514974D
:1024560029F4E7EAF0E060E070E01AC0AE85BF85D7
:10246600159729F4E7EEF0E060E070E011C0AE8564
:10247600BF85169729F4E7EBF0E060E070E008C04E
:10248600AE85BF85179741F4E7EFF0E060E070E0B6
:10249600EE83FF8368877987E7E0E8BBE6E0E8BB81
:1024A600EE81EA930E947A160E2F1127E0E0EA9356
:1024B6000E947A162E2F3327E0E0EA930E947A16BE
:1024C6004E2F5527E7E0E8BBAC85BD85119719F47B
:1024D6000E94E81F16C0EC85FD85309779F40E94AE
:1024E600E81FAA85BB85A030E8E0BE0734F0EA8580
:1024F600FB85E050F041EA87FB8703C0E0E0EA870E
:10250600EB87EA85FB850E940C2560960895A097C7
:10251600EAA1FBA10E94DE1FDF01CB010E94F81F8A
:102526000E94FF1FEC8FFD8F6E8F7F8FE8A1F9A1B0
:102536000E94DE1FAC8DBD8D8E8D9F8D0E949624D0
:102546000E94C41E0E94F81FDF01CB01EC89FD89A1
:102556006E897F890E949624E88FF98F6A8F7B8F18
:10256600E8A1F9A10E94DE1F0E9404200E94962481
:102576000E94FA220E94861C0E9409200E940E20B8
:10258600A0910805B091090580910A0590910B0567
:102596000E944824A0910405B09105058091060586
:1025A600909107050E9413200E941A20A0910C0505
:1025B600B0910D0580910E0590910F050E94222085
:1025C6000E941A200E9425200E944824A0911005EE
:1025D600B091110580911205909113050E9448242F
:1025E6000E942A200E94D91F0E942F200E94342078
:1025F6000E94FA230E943B200E944120DF01CB016A
:10260600E0E0F0E06BE873E40E94FF1F0E943B20CD
:10261600A6960895EF9721970E94052549E15CEF5C
:102626000E94051EDE01AE5BBF4FED93FD936D93D9
:102636007C93DE01A25CBF4FED93FD936D937C937B
:10264600EAAFFBAF6CAF7DAFEEABFFAB68AF79AF78
:10265600EAABFBAB6CAB7DABEEA7FFA768AB79AB88
:10266600EAA7FBA76CA77DA7EEA3FFA368A779A798
:102676000E94051EEAA3FBA36CA37DA3EE8FFF8F2A
:1026860068A379A3EA8FFB8F6C8F7D8FEE8BFF8B10
:10269600688F798FEA8BFB8B6C8B7D8B0E94451F35
:1026A6000E944A1F0E94482020E030E00E942A1F14
:1026B60030DE309711F00C94ED13E8E0F0E0FA9379
:1026C600EA935AD1EEE2F0E160E070E00E94FA226D
:1026D600E0913405F09135050E944D20E0913605D4
:1026E600F09137050E944D20E0913805F0913905AB
:1026F6000E944D20E0913A05F0913B050E944D2045
:10270600E0913C05F0913D050E944D20E0913E058B
:10271600F0913F050E944D20E0914005F091410562
:102726000E944D20E0914205F09143050E944D2004
:102736000E94522000E010E00830E0E01E0714F08E
:102746000C94E7130E945720FF93EF93DF010E943A
:10275600E5227F936F93FF93EF930E945F20AF91E3
:10276600BF918F919F910E94FA23AF91BF910E94D2
:10277600F022F801DE0116960E943722EA0FFB1FAF
:10278600FF93EF93DF010E94E5227F936F93FF9300
:10279600EF930E945F207F936F93FF93EF930E94C6
:1027A6005F20AF91BF918F919F910E944824AF9176
:1027B600BF918F919F910E94FA23AF91BF910E9482
:1027C600F0220F5F1F4FB8CF2F5F3F4F0E94FF1DB4
:1027D60023DD6ECF0E942A1F00E010E00830E0E003
:1027E6001E07C4F40E945720FA93EA93F801DE010B
:1027F60018960E943722EA0FFB1FFA93EA933A9340
:102806002A93FA010E94DE1F0E94FA2255D00F5F1A
:102816001F4FE4CFE0E5F0E160E070E00E94692040
:10282600FE01E65BFF4F0190119061917081F0010E
:102836000E94FA22FE01EE5AFF4F0190119061911B
:102846007081F0010E94FA22FE01E65AFF4F0190C4
:10285600119061917081F0010E94FA22FE01EE59F9
:10286600FF4F0190119061917081F0010E94FA2250
:102876000E945220E2E8F0E160E070E00E94FA2255
:102886000E94541F0E94FA220E9488200E94FA2267
:10289600EA8DFB8D6C8D7D8D0E94FA22EAA1FBA14B
:1028A6006CA17DA10E9469200E945220B5DC0E9485
:1028B6000C25EF9627960895AC81BD8113973CF4BD
:1028C6000E948D20A885B9850E94922050C0A885B7
:1028D600B985BF93AF930E949520AF91BF910E9497
:1028E6009F200E9495207F936F93FF93EF930E9402
:1028F600A4207F936F93FF93EF930E94A420AF9140
:10290600BF918F919F910E944824AF91BF918F9163
:102916009F910E94FF1FAE81BF810E949F200E944F
:10292600E522DF01CB01EC81FD810E94DE1F0E94C2
:102936004824DF01CB01EC81FD8131970E94DE1F27
:102946000E949624AE81BF810E949F200E94E522AC
:1029560077232AF4AE81BF810E94051E0AC0AE818C
:10296600BF810E94E5220E94FA220E94E821AE81E0
:10297600BF810E94F022B9C11A930A93AA81BB8132
:102986001897C1F400E010E00830E0E01E078CF470
:10299600F8010E94A920FF93EF931A930A930E94CD
:1029A6004E1ED2DCAF91BF91ED93FC930F5F1F4F8C
:1029B600EBCF17C0AB81AA2322F0AA81BB8118975F
:1029C6000CF00FC0EA81FB810E94A920FF93EF93D0
:1029D600EA81FB810E94711EB7DCAF91BF91ED9336
:1029E600FC93198108812496089560978CE0A0E0F5
:1029F600B0E0EEEAF0E060E00E941325FE01FA93F3
:102A0600EA93EE89FF89688D798D0E94FA2226D194
:102A16000E940920A889B9898A899B89EFE6F2E193
:102A260063E87BE30E9496240E9425200E94FF1FF4
:102A36000E9409200E940E20689608952497AA8D68
:102A4600BB8D8C8D9D8DE0E0F0E060E070E40E942F
:102A56009624AA85BB858C859D850E944824DF0126
:102A6600CB01EE89FF89688D798D0E949624A88511
:102A7600B9850E94F0220E94A4200E944F1F0E9446
:102A8600FF1FDF01CB010E9488200E94B0200E9418
:102A9600A420DF01CB010E948D200E949624AE81E6
:102AA600BF810E9492200E94B3200E9448247F93F7
:102AB6006F93FF93EF93AE81BF810E94E522AF91A2
:102AC600BF918F919F910E944824AC81BD810E9445
:102AD600F0226E9608952497AA85BB858C859D85E0
:102AE6000E9488200E94F323DF01CB010E94B820B8
:102AF6000E94BD20DF01CB010E94C8200E94B020A9
:102B06000E948D20AC81BD810E9492206696089518
:102B16006C97E0E0EC87ED87E0E8EE87EFE3EF8780
:102B2600EFE4E88BE6E8E98BE3E7EA8BE3E3EB8B9C
:102B3600AAA9BBA98CA99DA9EAADFBAD6CAD7DADDB
:102B46000E94F323DF01CB01EEA5FFA568A979A9B1
:102B56000E94BD20DF01CB01EEA9FFA968AD79ADCA
:102B66000E94B0200E94CD20AAA5BBA58CA59DA53C
:102B76000E94FA23E88FF98F6A8F7B8F0E94CD20FF
:102B8600AEA1BFA188A599A50E94FA230E94C41EE2
:102B9600E88DF98D6A8D7B8D0E94D6200E94D62005
:102BA6000E94D6200E94DA20EC89FD896E897F89F1
:102BB6000E94DF200E94DF20AC89BD898E899F8913
:102BC6000E942220E889F9896A897B890E9425204A
:102BD6000E9448240E942F200E944824AE8DBF8D5B
:102BE6000E94F022EAA1FBA16CA17DA10E945423C0
:102BF600A889B9898A899B890E9448247F936F9303
:102C0600FF93EF930E942F200E94D91F0E94F32367
:102C1600AF91BF918F919F910E944824AC8DBD8D3D
:102C26000E94F022AE8DBF8D0E94E5220E94B32045
:102C36000E94FA237F936F93FF93EF93AC8DBD8D24
:102C46000E94E522AF91BF918F919F910E94FA2336
:102C5600A8A1B9A10E94F022EE96089524970E9499
:102C6600D91F0E94FA220E94861C0E942A200E94D6
:102C7600A4207F936F93FF93EF93E885F985A48152
:102C8600B581868197819F938F93BF93AF93A085DC
:102C9600B185828593850E948D200E9448240E94DA
:102CA600B3200E944824AF91BF918F919F910E94BB
:102CB60034200E944824AF91BF918F919F910E942A
:102CC600FA230E942A200E948D200E944120A09172
:102CD6000005B091010580910205909103050E94BF
:102CE600F3230E942A200E948D202A960895E881C7
:102CF600EFB9779BFECFEFB10C943917C69887E0F2
:102D06008A95F1F70895BD9ABC9ABE9AC69A87E04D
:102D16008A95F1F7E881EA9302D00C943917E99184
:102D2600A8E0E795C49808F4C49A000000000000E3
:102D36000000C59A83E08A95F1F7C59883E08A95E5
:102D4600F1F7AA9571F70895E881E160EA930E9488
:102D56008616C498BC98A8E08894B4990894E79518
:102D6600C59A83E08A95F1F7C59883E08A95F1F7CD
:102D7600AA9591F70E9481160C943917E981EE7F86
:102D8600EA930E948616E881EA930E9492160E94B0
:102D9600811622960895E881E370E883EA81E0309F
:102DA60019F0E881E06AE883A981A13019F4E88185
:102DB600E46007C0A981A23019F4E881E86001C087
:102DC600E0E0E8830E94E620E0E9EA93E9813DC07D
:102DD600E5E80E94EC20AC81BD81EC93E3E80E941B
:102DE600EC20AA81BB81EC93E1E817C00E94E620A3
:102DF600E4E80E94F220E2E80E94FA20E0E820C01F
:102E0600E7E80E94EC20AC81BD81EC93E9E80E94E2
:102E1600EC20AA81BB81EC93EDE8EA9395DFEA9377
:102E26000E94281DA881B981EC93269608950E94D8
:102E3600E620E6E80E94F220E8E80E94FA20ECE8A4
:102E4600EA93E981EA930E94341DEA9397DFEEE85C
:102E5600EA93E0E8EA9392DF239608955F9BFECF1C
:102E6600ECB108955D9BFECFE881ECB921960895FB
:102E76001A930A93AC81BD810E94E1223097D9F062
:102E8600AA81BB810E94E1228F01309749F002306E
:102E9600E0E01E0778F0F80131978F01ED93FC937F
:102EA600AC81BD81ED91FD913196FE93EE93319704
:102EB600AE81A08303C0EE81EA93D4DF1981088135
:102EC600279608952497E0E0E883E983E0E8EA831B
:102ED600EFE3EB830E940725EE85FF85EF3FAFEF1B
:102EE600FA0759F4E885F985FA93EA93E6EBF0E1F7
:102EF60060E070E00E940221A4C0EF3FAFE7FA074E
:102F060059F4E885F985FA93EA93E7EBF0E160E096
:102F160070E00E94022195C0AB85A73010F0E6E074
:102F2600EB871B85E12F1150E03019F00E94062136
:102F3600F9CF0E940E200E94FB2421F430E00E946B
:102F4600062124C03B850E940C2109F010F40C9444
:102F5600B5170E9406210E940C2118F00E9411212B
:102F6600FACF09C00E940C2120F40E941B21315087
:102F7600F9CF0E9406210E940E200E9420210E9465
:102F860009200E940C2110F00E94112110E0EB850F
:102F9600E11790F1AC81BD818E819F810E9427212E
:102FA6000E9420210E94FA220E94711C0E94D41FB6
:102FB6000E94D91F0E9425200E9496240E948723E2
:102FC6000E2F0E942E210E9435210E943A21AC81AB
:102FD600BD818E819F810E9448240E9425200E94E7
:102FE600FF1F0E940920E12F1F5FE03081F60E943B
:102FF6002E21EEE2EC93CBCF0E944021AA85A0833E
:1030060030302CF40E942E21EDE2EC9331953A30CB
:1030160054F00E944021BF01A32FEAE00E946722DC
:10302600E05DDB01EC930E944021BF01A32FEAE0A3
:103036000E94A922E05DDB01EC93A885B985E0E05A
:10304600EC930E940E2560960895EF9761970E9473
:10305600052510E0FE01EA5AFF4F0190F081E02DB0
:10306600EA8BFB8BDE01A45ABF4F0E9447212E2F0D
:10307600E03011F40C94301AE12FE03039F42532A7
:1030860011F411E002C00E945621E6C1E130C1F4FC
:10309600253219F40E945621DEC112E0E0E0ED8BE4
:1030A60000E02D3211F401E0D7C12B3219F4EBE226
:1030B600ED8BD2C1203219F4E0E2ED8BCDC102C016
:1030C600E23039F450E013E0203311F40068C4C153
:1030D60002C0E330A1F4203310F02A3308F009C00F
:1030E600A52FEAE0EA9FF0015E2FE22FE0535E0F84
:1030F600B3C140E02E3211F414E0AEC111C0E43089
:10310600A9F4203310F02A3308F00AC00062A42F75
:10311600EAE0EA9FF0014E2FE22FE0534E0F9CC1EA
:103126002C3619F4026015E097C104C0E53011F0A1
:103136000C942F1AE22FE33659F40E9465210E945F
:103146006C210E946521A481AA930E94732183C1E8
:10315600E53411F0E53609F404C0E63611F00C94B6
:10316600FE18FE017696EA87FB870E9481210E945F
:10317600E5220E9448200E948821A985AA2322F0E0
:10318600AD89AB3249F017C00E94B8200E94542383
:103196000E944820EDE2ED8B07FF05C0ED89EA931A
:1031A6000E94732108C0EA85FB853196EA87FB8772
:1031B6003197AD89A08305FF46E0263661F40E946B
:1031C600B8200E94FA224A93EF85F889FA93EA9387
:1031D6000E948E1A0BC00E94B8200E94FA224A93BF
:1031E6002A93E889F989FA93EA936CDEFE017696CA
:1031F6000E948A2123C0E33739F40E9488210E9465
:1032060092210E948A2113C0E037E9F40E948821A6
:103216000E94812114960E94E5220E944A1F0E9464
:10322600541F0E94FA220E94551D1E2F08600F7718
:10323600403011F0411708F001C0142F40E0E0E0E3
:10324600EC8B30E06EC0E43611F0E93611F4046020
:1032560002C0E537A1F4EAE0EC8B01FF08C0E0E02C
:10326600FAEC6AE97BE30E94451F1AE023C0E0E11D
:10327600F7E260E070E00E94451F15E01BC0E835EC
:1032860011F4086004C0E83711F00C942E1AE0E13E
:10329600EC8B01FF08C0E0E0F0E060E070E10E9426
:1032A600451F18E007C0E0E0F0E160E070E00E9432
:1032B600451F14E0403011F00F7701C041E001FFD7
:1032C60008C00E9488210E94812114960E94E5224E
:1032D6000FC002FF07C00E9488210E9492210E940F
:1032E600422206C00E9488210E94922166277727E3
:1032F600EE83FF836887798702FF12C0A985AA2318
:1033060042F40E94B8200E942B220E944820EDE23F
:10331600ED8BED89E03019F01F5F4F5F01C00B7F29
:10332600342F00FD14C0151710F4351708F00FC020
:1033360007FF08C002FF04C00B7F2D89115001C092
:1033460020E301C020E20E9456215150ECCF141711
:1033560090F4006102FF06C00E94972109F05150C7
:1033660011504150E0E3EA930E947321503009F076
:1033760051504150ECCF312FEC89E030B9F4303068
:10338600A1F003FF05C0DE011A960E94472105C081
:10339600AA85BB85ED91AA87BB87EA930E94732114
:1033A600503009F051503150EACF4BC00E94AB214A
:1033B6000E9484222E2F2A3030F003FF02C0295C9F
:1033C60001C0295A01C0205D04FD1FC0213350F4FD
:1033D6000E944F1FA130E0E0BE07E0E08E07E0E06C
:1033E6009E0709F40BC0431740F4531710F000FF73
:1033F60001C010C020E207FF08C020E3006102FF01
:1034060004C00E94972109F051500E945621503065
:1034160009F0515031500E94AB210E94C3220E94F4
:103426004820EC890E944F1FFF27662777270E94B6
:1034360084220E94451F0E94C8200E94FB2409F096
:10344600B5CF00FF08C0503031F05150E0E2EA93AA
:103456000E947321F8CF10E005CE0E940C25EF964E
:10346600A1960895FF92F82E22971A930A93DE01E9
:103476000E941E228D01E0E0EA83EB83DE011496B2
:103486000E941E220E94E5220E94FA221A930A93A3
:10349600FE0138960E94711ED8DD19810881249696
:1034A600FF900895E991F99130971AF4E095F09517
:1034B60031960895B981A881EC91EA930E941E1D68
:1034C600EE2311F01196F8CFE894EC91ED3211F459
:1034D600689402C0EB3209F4119666277727EC91BF
:1034E600EA930E94161DEE2379F0FB01660F771F03
:1034F600660F771F6E0F7F1F660F771FED91FF27F1
:10350600E0536E0F7F1FEBCFFB011EF4E095F095A5
:103516003196229608952497E0E0E883E983EA83CA
:10352600EFE3EB831A930A93EB85FC85EF3FAFEF4E
:10353600FA0759F4EE81FF81FA93EA93EEEBF0E194
:1035460060E070E00E940221A4C0EF3FAFE7FA07F7
:1035560059F4EE81FF81FA93EA93EFEBF0E160E034
:1035660070E00E94022195C0AC85AA2362F4E98529
:10357600FA856B857C850E9454230E94B1210E94A6
:10358600B621EDE2EC93A885A73010F0E6E0E887D7
:103596001885E12F1150E03039F00E94BD210E94BC
:1035A60027210E94C221F5CF0E94C7210E94FA233B
:1035B6000E94B12110E00E94CD210E94C2210E94EA
:1035C600C7210E94DB2450F00E94BD210E94AF1F3C
:1035D6000E9448240E94C2211F5FF1CF103029F4B7
:1035E6000E94B621E0E3EC9328C0E12F1150E030B1
:1035F60021F10E94BD210E9427210E9420210E94C4
:10360600FA220E94711C0E94C2210E94C7210E94B8
:1036160096240E9487230E2F0E94B6210E943521F0
:103626000E94BD210E943A210E9448240E94D22174
:103636000E94FF1F0E94B121D8CFE885E03029F112
:103646000E94B621EEE2EC93E885E150E887EF5F51
:10365600E1F00E94D2210E94AF1F0E9448240E94DE
:10366600B121E985FA856B857C850E9487230E2F1B
:103676000E94B6210E9435210E94D2210E943A2141
:103686000E94FF1F0E94B121DFCFAE81BF81E0E023
:10369600EC93198108812D9608952A970E94052595
:1036A600E0E0E887E987EA87EB87A889B989EC91A2
:1036B6005E2FEA930E941E1DE03031F0E889F989F9
:1036C6003196E88BF98BF1CFE0E0EF835B3221F0A6
:1036D6005D3239F4E1E0EF83E889F9893196E88BC8
:1036E600F98BE0E04E2F5E2F08891989A889B989E0
:1036F600EC91EA930E94161DE03049F4A889B98935
:10370600AC91EEE20E9447225E2FE03039F0452B65
:10371600E889F9893196E88BF98BE8CF28893989C8
:10372600403011F1E889F9893197E88BF98BA8893E
:10373600B989AC91AE32C1F0A889B989EC91E05350
:103746000E942F200E943A210E94FA23DF01CB011A
:103756000E94AF1F0E9496240E94DA20E889F98908
:103766003197E88BF98BE3CF0E94CD210E94092087
:10377600A889B9891197A88BB98BA017B10778F0DA
:10378600EC91E0530E9425200E943A210E94482491
:103796000E942F200E9413200E941B21E9CFD901ED
:1037A6002F5F3F4F5C91553619F0553409F054C0E0
:1037B600E0E04E2FEE83D9015C915B3221F05D3261
:1037C60021F4E1E0EE832F5F3F4FD9012F5F3F4F9A
:1037D600EC915E2FEA930E94161DE03041F0A42F73
:1037E600EAE0EA9FF001E50FE0534E2FEECF4732B5
:1037F60068F0EF81E03029F0EFEFFFEF6FE77FEF42
:103806003AC0EFEFFFEF6FE77FE735C050E20E9467
:10381600CD210E940920503059F00E941A200E94A2
:103826000920E42FE52311F00E941B215695F3CFC2
:10383600EE81E03039F00E940E200E942F200E9477
:10384600962406C00E940E200E942F200E94482423
:10385600E887F9876A877B87EF81E03041F0E88562
:10386600F9856A857B850E9454230E94DA20E885C3
:10387600F9856A857B850E940C25629608957B8171
:103886006A81F981E88177FB770F67FD7160972F71
:103896009E5781F078F0983190F4AA27BB278827A5
:1038A60008948795B795A7959A95D1F7EA23FB23B0
:1038B600682305C0E8947727EE27FF2766276F77EA
:1038C600769508F4606877F9A991B99189919991EB
:1038D600EA17FB076807790797FB08950E948D2072
:1038E6000E94FA220E94421C0E942A2019F40E9479
:1038F6008D2007C0E6F70E94B3200E94CD210E94CA
:10390600FF1F2496089524971A930A930E94D7219D
:103916000E94FF242CF0EFEFFFEF6FE77FEF7FC0F1
:103926000E94B8200E94FA22EDB7FEB73197FA93AB
:10393600EA931F930F930E9441230F911F910E94B8
:1039460048200E94D721E3EFF4E065E37FE30E947D
:10395600DB2450F40E94B8200E94D7210E94FA234B
:103966000E944820015010400E94D7210E94CD217C
:103976000E94FF1F7F936F93FF93EF930E94B820DF
:10398600A0E0B0E080E89FE30E94FA23AF91BF91E8
:103996008F919F910E9496240E9448200E94B820F1
:1039A6000E94D7210E9448240E94C2210E94E31F40
:1039B600A6E2B2E485E69FE30E944824DF01CB013C
:1039C600EEE4F1E164E570E40E94FF1F0E94D72156
:1039D6000E9448247F936F93FF93EF930E94BD212B
:1039E600EDE4F1E164ED7FE30E94FF1FAF91BF912B
:1039F6008F919F910E9496247F936F93FF93EF93ED
:103A0600F8010E94DE1FA8E1B2E781E39FE30E946E
:103A16004824AF91BF918F919F910E94FA231981FB
:103A260008812A960895E1E0F991F03310F0FA330F
:103A360008F0EE270895E1E0F991F03229F0F93027
:103A460010F0FE3008F0EE270895E881E295EF7059
:103A5600AE2FAA0FAA0FEA0FEE0FA991AF70EA0FC9
:103A66000895A991EE27AA5012F0E05FFCCFA65F59
:103A7600EA0F0895E991F99169917991A991B9911E
:103A8600CD016BBF07900D920020E1F7FC01089570
:103A9600A991B991EE27FF276D91662311F0319612
:103AA600FBCF0895AA27BB27E991F99169917991EE
:103AB6006BBF0790002011F01196FBCFFD01089512
:103AC6000E94FA2280E00E94351A249608950E94E8
:103AD600FA22E6E1F5E0662777270E94FA22E0E27D
:103AE600F5E0662777270E94FA2288E00E94351AB9
:103AF6002C9608950E94FA22ACE2B0E00E941023B0
:103B06000E9442220E94FA22089584E00E94351AF9
:103B1600289608950E94FA22A0E0B0E00E940C23A5
:103B26000E94FA2208950E94FA22A4E0B0E00E94C0
:103B36000C230E94FA2208950E94FA22A8E0B0E01F
:103B46000E9410230E9442220E94FA22DECFE8E75A
:103B5600F1E060E070E00E94FA22AAE0B0E00E9484
:103B660010230E9442220E94FA22CFCF0E94FA22FC
:103B7600ACE0B0E00E940C230E94FA2208950E9455
:103B8600FA22A0E1B0E00E940C230E94FA220895D6
:103B96000E94FA22A4E1B0E00E940C230E94FA22BD
:103BA6000895A8E1B0E00E940C230E94FA2208952D
:103BB6000E94FA22ACE1B0E00E940C230E94FA2295
:103BC600A4CF0E94FA22A0E2B0E00E940C230E9439
:103BD600FA2208950E94FA22A4E2B0E00E940C2381
:103BE6000E94FA2292CF0E94FA22A8E2B0E00E9436
:103BF6000C230E94FA220895E8EEF3E0FA93EA9382
:103C06000C94DC21E0E0F0E060E070E00895DE0175
:103C1600AC5BBF4FED93FD936D937C930895DE01EE
:103C2600A85BBF4FED93FD936D937C930895DE01E2
:103C3600A45BBF4FED93FD936D937C930895DE01D6
:103C4600A05BBF4FED93FD936D937C930895E5E0E4
:103C5600F0E0FA93EA93E4E0F0E0FA93EA93E7E01F
:103C6600F0E0FA93EA930E94EB16A42DB0E0ECE3A1
:103C7600F0E00E945422DF01E72DF0E0EA0FFB1F7F
:103C86000895EFEEF2E060E070E01ACFEBE9F2E0C3
:103C960060E070E015CFE0E0F0E0FA93EA93089573
:103CA600DE01A05BBF4F0D901D908D919C91D001C0
:103CB60008950E9442220E94C0230E94FA2308957A
:103CC600E1E0F0E0FA93EA930895DE01A45BBF4FCA
:103CD6000D901D908D919C91D0010895FA93EA93D1
:103CE600DACFDE01A85BBF4F0D901D908D919C91A0
:103CF600D0010895DE01AC5BBF4F0D901D908D91F4
:103D06009C91D0010895FA93EA930C94DC21E8A9DA
:103D1600F9A96AA97BA908950E94BE230E94962448
:103D26000895FE01E05BFF4F019011906191708153
:103D3600F00108950E94FA22AAE0B0E00E94102342
:103D46000E9442220E94C0230895FE01F496FA932F
:103D5600EA93FE01F296FA93EA93FE01F096FA933D
:103D6600EA930E942115EC8DFD8D6E8D7F8D0E944C
:103D7600FA22EC8DFD8D6E8D7F8D0E94FA220C94B9
:103D8600F814EC8BFD8B6E8B7F8B0895E88BF98B8B
:103D96006A8B7B8B0895ECA1FDA16EA17FA10E9489
:103DA600FA220895E6E0F0E0FA93EA93E9E0F0E01B
:103DB600FA93EA93E8E0F0E0FA93EA930C94031797
:103DC600E5E0F0E0FA93EA93E4E0F0E0FA93EA93B0
:103DD600E7E0F0E0FA93EA930C94EB16E82DFF2760
:103DE600662777270E94FA22E92DFF27662777277D
:103DF6000E94FA22E62DFF27662777270E94FA22DD
:103E06000895E52DFF27662777270E94FA22E42DDD
:103E1600FF27662777270E94FA22E72DFF276627C6
:103E260077270E94FA2208950E94FA22FE01E05C9A
:103E3600FF4F0190119061917081F00108958CE01F
:103E46000E94351A609608950E94FA22C7CFEFEDB8
:103E5600F0E060E070E034CEA52DB0E0E0E1FEE0F9
:103E66000E944C22BF01A42DECE3EA9FF001DB0186
:103E7600F0E0AE0FBF1FE72DF0E0EA0FFB1F66274D
:103E860077270895EE87FF87688B798B0895EA87F1
:103E9600FB876C877D870895AE85BF85888999895C
:103EA6000895EA85FB856C857D85089566277727C5
:103EB6000E94FA220895EEEBF4E060E070E0C4CFD1
:103EC60088E10E94351A6C960895FA01DE0155962E
:103ED600EA0FFB1F0895DE015596A40FB51FEC915E
:103EE600EA9308950E94FA22DE015996A40FB51F9F
:103EF600EC91FF27662777270E94FA2206CEDE017D
:103F06005596A40FB51F0895EB8BFE017296FA9392
:103F1600EA930C945D1AEC93EAEBF9E060E070E04A
:103F2600E1CFFE017596FA93EA930E94501BDF01DA
:103F3600CB010895FE017596FA93EA930C94501BF3
:103F4600E5E9FFEB66ED73E30E94DB240895EEE4FA
:103F5600FAE060E070E00895E0E0F0E060E271E42D
:103F66000895E0E0F0E06AEF73E40E94DB24089530
:103F7600E0E0F0E46CE177E40E94DB240895E0E001
:103F8600F0E46CE975E40E94DB240895FE01759661
:103F9600FA93EA930C945D1AE5E0F0E0FA93EA935B
:103FA6008FCEEC83FD836E837F830895EC81FD8144
:103FB6006E817F8108950E9442220E94C023089547
:103FC600EA81FB816C817D810895220F331F56950E
:103FD60047955695479556954795F9010E94332280
:103FE600E40FF51FEA87FB870895ECA1FDA166277C
:103FF60077270E94C02308950E94FF220E94F32380
:104006000895A88DB98D8A8D9B8D0895EC87FD87BF
:104016006E877F870895EC85FD856E857F8508957B
:104026000E94FA23E887F9876A877B870895F3DF7A
:10403600AC85BD858E859F850E94482408950E9483
:104046004824AFCFAC85BD858E859F850895E883CE
:10405600F9836A837B830895A885B9858A859B85BC
:1040660008950E94FA23A881B9818A819B810895C7
:104076008DDEE889F9896A897B890895A0E0B0E038
:1040860080E89FE30E9496240895EE83FF83688765
:10409600798708950E9442220E94FA22089580E2BA
:1040A6000E94351AA4960895F801DE0196960E949C
:1040B6003722EA0FFB1F0895F801A4E3B5E0EE0FDF
:1040C600FF1FAE0FBF1F0E94E12275CF0E94FA228A
:1040D600EAA5FBA56CA57DA50E94FA22EAA9FBA983
:1040E6006CA97DA90E94FA22EAADFBAD6CAD7DAD4F
:1040F6000E94FA22FE01EE5BFF4F01901190619142
:104106007081F0010E94FA220895EA89FB896C8980
:104116007D890895E881F9816A817B8108950E94ED
:10412600F022F8CF0E94E522DF01CB01EC81FD8170
:1041360042DF0E94962408950E94F022AE81BF813C
:104146000895A885B9850E94E5220895A4E3B5E0FF
:10415600EE0FFF1FEA0FFB1F08950E94962477CFEC
:10416600A881B9818A819B810895EE81FF81688546
:10417600798508950E949624DF01CB01E0E0F0E006
:104186006AE774E40E9496240895EE85FF8568899F
:1041960079890895E0910005F09101056091020585
:1041A6007091030508952DDF0E9448240895E8873D
:1041B600F9876A877B870895AC89BD898E899F892F
:1041C6000E9448240895EEE8EA93E0E0EA930C940E
:1041D600C116EA930E94A716EA930C94281DEA9347
:1041E600EB81EA930E94341DEA930C94C116EA937C
:1041F600EA81EA930E94341DEA930C94C1160E9448
:10420600FA220C943D1DAC81BD818E819F81A4DE76
:1042160016CFCCDE17DF0E94DB24089513DFEDEC0A
:10422600FCEC6CEC7DE30E944824F0DE3F5F0895D1
:1042360009DF92DE0E944824E9CEA0E0B0E080E0EB
:104246009FE30E94FA230895EDECFCEC6CEC7DE311
:104256000E9448240895A885B9851196A887B9872C
:1042660011970895E02FE05DEC93E02F0895FF2766
:10427600662777270E94C0230895E885F985319639
:10428600E887F987319708950E94EB22EF5FFF4F89
:104296006F4F7F4F0E94F522E150F0406040704022
:1042A6006BBFE69108952A93FE01E75AFF4F0190EE
:1042B600F081E02DFA93EA93FE017596FA93EA935C
:1042C6000C943B17FE01E65AFF4F0190F081E02D5A
:1042D60008953497DE01A65ABF4FED93FC930895D7
:1042E600FE01E75AFF4F0190F081E02DFA93EA9321
:1042F600FE017596FA93EA930C943B17DE01A65AD3
:10430600BF4F0D90BC91A02D0895DCDFE2CFEA8768
:10431600FB87FA93EA930E944B1D1E2F0895EEDF4A
:1043260014960E94E12208950B7FED89EA93FE011F
:10433600E75AFF4F0190F081E02DFA93EA93FE01D0
:10434600E75AFF4FFA93EA930E943B1750300895BD
:104356001CDFAE81BF81888599850895E987FA8734
:104366006B877C870895AE81BF811196AE83BF832C
:1043760011970895AA81BB818C819D810895EA8356
:10438600FB836C837D8308951BDEA985BA858B85A7
:104396009C850895E0E0F0E060E87FE30895A98554
:1043A600BA858B859C850895AE81BF818885998560
:1043B6000895E991F991309639F088EE93E00197E6
:1043C600F1F7A8953197C9F7089524975F939F81D0
:1043D600992311F4289647C212F4289650C24F9397
:1043E60042E48E81BD81AC8188839983AA83BB8395
:1043F600FD01BC01AC81BD818E819F8194D28881F3
:104406009981AA81BB81F3D176D17A955AD18881D7
:104416009981AA81BB81AE27A87F21F4BF178607A1
:10442600970729F04A9519F0DF01CB01DDCF4F91AF
:104436005F91289608950024AF0DB01D0895EA1BDC
:10444600FB0B680B790B0895F195E195F040089503
:10445600F09560957095E195FF4F6F4F7F4F0895EA
:10446600EE0FFF1FEE0FFF1FEE0FFF1FEE0FFF1FDA
:104476000895FE2FFF0FFF0B6F2F7F2F08956F2FCD
:10448600660F660B762F0895EA17E1E009F0EE272E
:104496000895FA9FF02DEB9FF00DEA9FE02DF10DA8
:1044A60008957ED0F6DF0EF4CFDF0895002498E05D
:1044B600AA0F001C0E1A10F40E0E01C0A1609A95E8
:1044C600B9F7EA2FA02D08955FD0F0DF0EF4E1953D
:1044D60008950024112490E1AA0FBB1F001C111C93
:1044E6000E1A1F0A18F40E0E1F1E01C0A1609A951F
:1044F60099F7FD01D001089553D0EBDF0EF4A4DF48
:1045060008953F934F935F93002411244427552722
:1045160030E2AA0FBB1F881F991F001C111C441FE5
:10452600551F0E1A1F0A460B570B28F40E0E1F1E98
:10453600461F571F01C0A1603A9559F7FD01BC01FE
:10454600D001CA015F914F913F910895E894A7FF6A
:1045560002C0A1956894E7FDE195A8DFEA2F0EF465
:10456600E1950895E894B7FF04C0A095B09511961B
:104576006894F7FD69DFADDFFD010EF465DF089590
:10458600C0DFFD01BC010895E894E7FF02C0E19594
:104596006894A7FF04C0A19500F8039400FA089553
:1045A600E894F7FF02C050DF6894B7FF06C0A095F5
:1045B600B095119600F8039400FA0895ED91FC91D8
:1045C60011970895ED91FD916D917C911397089542
:1045D600ED91FD916D917D910895ED93FD936D9310
:1045E6007C9308957E936E93FE93EE9308957A934B
:1045F6006A93FA93EA930895182E862F612D192E41
:10460600972F712D1B2EBF2FF12D1A2EAE2FE12DB8
:104616000895129602D0BF011297119602D0FE2F6E
:104626001197E199FECFFF93FFB7F894AEBBBFBBDE
:10463600E09AEDB3FFBFFF91089507D012960F01E0
:10464600FB0103D0F0011297089507D01196EF935E
:10465600EF2F03D0EF9111970895E19B02C0A89523
:10466600FCCF9FB7F894AEBBBFBBE09A8DB3E817FB
:1046760019F0EDBBE29AE19A9FBF0895A991B9910D
:10468600E991F9916991799177FB660F771F8827F0
:104696007E57880B7D938C937EE7769567950EF013
:1046A600089530976040704009F07058089555237A
:1046B60042F4503811F4E0FF04C03196691F791FA7
:1046C6006BF050E8572711F45F93CDC05F3F31F090
:1046D600660F000C57956795752F08955F93002018
:1046E6000AF0CDC0C6C050E8192E1522880F991FB2
:1046F6009527550F879550E8072E0522660F771FD9
:104706007527550F67950895689401C0E8945F93DF
:10471600F2DF703818F07F3F08F4A5C056E1571B4A
:10472600AAF4519558300EF4593030F0EFEFFFEF00
:104736006FEF7FE777F91AC077275523B9F0EE0FA9
:10474600FF1F661F771F5A95D1F710C0772758307D
:1047560028F0EF2FF62F672F5850F9CF552331F059
:1047660076956795F795E7955A95D1F700200AF45F
:104776006FDE5F910895689401C0E89430976040B9
:104786007040B1F0002426F0772312F4009460DE26
:10479600172E7EE1112032F07A95EE0FFF1F661F6D
:1047A600111CF9CFEF2FF62F612D5F938ADF5F91F2
:1047B60008954F93AF01FD01DA01AB01BC01CA01B7
:1047C600402D012C142E4F910895EA0FFB1F681FF0
:1047D6000895E095F0956095EF5FFF4F6F4F089550
:1047E6005F9381DF903871F150E8152604C05F931E
:1047F6007ADF903839F1703821F1572F591B13F1B0
:1048060012F4D7DFFACF583118F0AA27BB2788272A
:10481600583028F0AB2FB82F88275850F9CF55239A
:1048260029F08695B795A7955A95D9F7502D512514
:1048360062F0CBDF38F46795F795E795739513F437
:104846001EC0B7DF3EDF5F910895EA1BFB0B680BC6
:1048560051F010F40094BDDF6623A2F3EE0FFF1FA4
:10486600661F7A95CBF7EE27FF27662777275F9196
:104876000895EFEFFFEF6FE77FEF5F910895EFEF9A
:10488600FFEF6FE77FE75F9108955F932CDF703846
:1048960051F3903841F301240894791F23F41CF353
:1048A60000203AF3ECCF0F921F932F933F934F9331
:1048B600112722279927689FA0018F9F302D410D30
:1048C600591F6B9F300D411D591F8E9F27D0BF9FCB
:1048D60025D06A9F23D0BE9F1DD0AF9F1BD0AE9F11
:1048E600110D291F391F491F591FE32FF42F652F5B
:1048F600522F4F913F912F911F910F9066232AF0CF
:10490600550FEE1FFF1F661F02C073954BF2CFDED9
:104916005F910895100D211D391F02C0200D311D14
:10492600491F591F08955F93DEDE703821F4112068
:104936000AF49FCFA4CF903809F495CF01240894A8
:10494600970B1BF4D4F30020F3CF792F1F932F93EB
:104956003F934F93112411272227332744275527A6
:1049660090E2AE17BF078607410730F0AE1BBF0BBC
:10497600860B410B089401C08894551F221F331FD4
:10498600111CAA1FBB1F881F441F9A9551F7F901D6
:10499600612D4F913F912F911F91662332F0550F54
:1049A600EE1FFF1F661F7A9543F281DE5F91089521
:1049B60099239AF0772342F0971748F029F4AE1717
:1049C600BF07860720F031F098948894089598944C
:1049D600089408951894889408957723C2F7971732
:1049E60098F3A9F7EA17FB07680788F399F3ECCF62
:1049F600309760407040089500240A160B0608069A
:104A0600090608955A934A933A932A931A930A9356
:104A160008955D814C813B812A8119810881089521
:104A2600AC0FBD1F6BBF07900D928A95E1F70895F5
:00000001FF
