:0C0000000C946D080C9400000C9400009F
:10000C000C9400000C9400000C9400000C94000064
:10001C000C9400000C9400000C9400000C94000054
:10002C000C9400000C9400000C9400000C94000044
:10003C000C9400000C9400000C9400000C94000034
:10004C000C9400000C9400000C9400000C94000024
:10005C000C9400000C9400000C9400000C94000014
:10006C000C9400000C9400000C9400000C94000004
:10007C000C9400000C9400000C9400000C940000F4
:10008C0012CF5B3B39A2AC3980348A3690E030B465
:10009C003393884300000000B96C863A0D617B39BC
:1000AC00389325340000803F4F86733348E1FA3E85
:1000BC00CDCC4C3D0AD7A33B6F12033A17B751383E
:1000CC00ACC5A736312E313500323030382F3036B2
:1000DC002F3235000A0D2A2A2A2A2A20534D415242
:1000EC0054204449474954414C20494E54455246AA
:1000FC00414345202A2A2A2A2A0A0D0020536F66DA
:10010C0074776172652056657273696F6E20257302
:10011C002C2025730A0D002043757272656E7420B5
:10012C00454550524F4D2076616C7565733A0A0DFA
:10013C0000204964656E7469666965722048656162
:10014C006465723D2024524144253032640A0D000E
:10015C002050535020436F6566663D20252E324556
:10016C000A0D002050495220436F6566663D2025DC
:10017C002E32450A0D0020496E74657276616C2032
:10018C0054696D65202873656373293D2025640AC5
:10019C000D0020436D61783D2025640A0D0020522E
:1001AC0065666572656E6365205265736973746FFD
:1001BC007220436173653D20252E31660A0D0020A7
:1001CC005265666572656E636520526573697374FA
:1001DC006F7220446F6D653D20252E31660A0D002F
:1001EC002056746865726D3D20252E34662C205681
:1001FC006164633D20252E34660A0D00205049525F
:10020C0020414443204F66667365743D20252E3291
:10021C0066206D760A0D002050495220414443203F
:10022C004761696E3D20252E32660A0D0020505321
:10023C005020414443204F66667365743D20252E43
:10024C003266206D760A0D002050535020414443F5
:10025C00204761696E3D20252E32660A0D000A0D7D
:10026C0024524144253032642C253032642F253001
:10027C0032642F253032642C253032643A253032EA
:10028C00643A253032642C2534642C2534642C25B6
:10029C00362E32662C25362E32662C25362E3266BC
:1002AC002C25372E32662C25352E31662C25352EF5
:1002BC0031660A0D000A0D0A0D5349474E4F4E2068
:1002CC00524144494F4D4554455220494E54455294
:1002DC0046414345205625732C2025730A0D000AF0
:1002EC000D4469676974616C20496E74657266614E
:1002FC00636520426F617264202D20526576204226
:10030C002E204E6F7620323030370A0D0050726F2F
:10031C006772616D2053746172742074696D65200D
:10032C0069733A20253032643A253032643A2530EC
:10033C0032640A0D0050726F6772616D20537461E4
:10034C00727420646174652069733A2025303264BC
:10035C002F253032642F253032640A0D000A0D48E7
:10036C0069742027542720666F72204D61696E20B6
:10037C004D656E752E0A0D000A0D20524144253034
:10038C00326420424F415244202852455620422983
:10039C002056455253494F4E3A2025732C20564532
:1003AC005253494F4E20444154453A2025730A0D6F
:1003BC0000202D2D2D2D2D2D2D2D2D2D4545505223
:1003CC004F4D20504152414D45544552532D2D2DEA
:1003DC002D2D2D2D2D2D2D2D2D2D2D2D2D2D2D2D41
:1003EC002D2D2D2D2D2D2D2D2D0A0D005053502042
:1003FC00436F6566663D20252E32452C20504952B0
:10040C0020436F6566663D20252E32450A0D00504F
:10041C0049526164635F6761696E3D20252E3166C8
:10042C002C205049526164635F6F66667365743D3E
:10043C0020252E31660A0D005053506164635F67AE
:10044C0061696E3D20252E31662C2050535061641D
:10045C00635F6F66667365743D20252E31660A0DE9
:10046C0000202D2D2D2D2D2D2D2D2D44415445208D
:10047C00262054494D452053455454494E472D2D63
:10048C002D2D2D2D2D2D2D2D2D2D2D2D2D2D2D2D90
:10049C002D2D2D2D2D2D2D2D2D0A0D0027542720E2
:1004AC002D2D3E5365742074686520646174652F2E
:1004BC0074696D652E0A0D00202D2D2D2D2D2D2DE1
:1004CC002D2D5053502053455454494E47532D2DE8
:1004DC002D2D2D2D2D2D2D2D2D2D2D2D2D2D2D2D40
:1004EC002D2D2D2D2D2D2D2D2D2D2D2D2D2D2D2D30
:1004FC000A0D00277027202D2D3E53657420505374
:10050C005020636F656666696369656E742E20277B
:10051C006727202D2D3E5365742050535020616D5C
:10052C00706C6966696572206761696E2076616CB2
:10053C0075652E0A0D00276F27202D2D3E536574EF
:10054C002050535020616D706C6966696572206F24
:10055C007574707574206F66667365742C206D7677
:10056C002E0A0D00202D2D2D2D2D2D2D2D2D5049EC
:10057C00522053455454494E47532D2D2D2D2D2D7E
:10058C002D2D2D2D2D2D2D2D2D2D2D2D2D2D2D2D8F
:10059C002D2D2D2D2D2D2D2D2D2D2D2D0A0D0027F5
:1005AC004927202D2D3E5365742050495220636FEE
:1005BC00656666696369656E742E20274727202D52
:1005CC002D3E5365742050495220616D706C6966E4
:1005DC00696572206761696E2076616C75652E0A9B
:1005EC000D00274F27202D2D3E5365742050495266
:1005FC0020616D706C6966696572206F75747075B9
:10060C0074206F66667365742C206D762E0A0D004F
:10061C00274327202D2D3E5365742043617365209D
:10062C00285238292076616C75652E2027442720A6
:10063C002D2D3E53657420446F6D65202852392949
:10064C002076616C75652E0A0D00275627202D2DFE
:10065C003E53657420546865726D6973746F722FA4
:10066C00414443205265666572656E636520566F22
:10067C006C746167652028545032292076616C7542
:10068C00652E0A0D00202D2D2D2D2D2D2D2D2D54AB
:10069C00494D494E472053455454494E472D2D2D15
:1006AC002D2D2D2D2D2D2D2D2D2D2D2D2D2D2D2D6E
:1006BC002D2D2D2D2D2D2D2D2D2D2D2D2D0A0D00CE
:1006CC00274C27202D2D3E536574204F7574707563
:1006DC00742074696D6520696E207365636F6E6438
:1006EC00732E0A0D00202D2D2D2D2D2D2D2D2D2D64
:1006FC002D2D2D2D2D2D2D2D2D2D2D2D2D2D2D2D1E
:10070C002D2D2D2D2D2D2D2D2D2D2D2D2D2D2D2D0D
:10071C002D2D2D2D2D2D2D2D2D2D2D2D2D0A0D006D
:10072C00275327202D2D3E53616D706C652031327F
:10073C0020626974204120746F20442E20274127A9
:10074C00202D2D3E4368616E6765204964656E748B
:10075C00696669657220537472696E672E0A0D00A2
:10076C00275827202D2D3E457869742074686973AD
:10077C00206D656E752C2072657475726E20746FA9
:10078C00206F7065726174696F6E2E0A0D003D3DAD
:10079C003D3D3D3D3D3D3D3D3D3D3D3D3D3D3D3D7D
:1007AC003D3D3D3D3D3D3D3D3D3D3D3D3D3D3D3D6D
:1007BC003D3D3D3D3D3D3D3D3D3D3D3D3D3D3D3D5D
:1007CC003D3D3D3D3D3D3D0A0D00436F6D6D616E00
:1007DC00643F3E000A0D54494D454F55543A205242
:1007EC00657475726E20746F2073616D706C696EB8
:1007FC00670A0D0053797374656D20646174652FFD
:10080C0074696D65202859592F4D4D2F44442C2067
:10081C0068683A6D6D3A73732920697320253032FC
:10082C00642F253032642F253032642C2025303251
:10083C00643A253032643A253032640A0D00456E34
:10084C00746572206E65772074696D652028686800
:10085C006D6D7373293A2020002025326425326493
:10086C00253264000A0D496E636F727265637420E1
:10087C0074696D6520656E74657265642C2063689F
:10088C0065636B20666F726D61742E0A0D000A0D24
:10089C00253032643A253032643A25303264207384
:1008AC00617665642E0A0D000A0D5365742044614F
:1008BC007465202844446D6D5959293A20000A0D5D
:1008CC00496E636F72726563742064617465206530
:1008DC006E74657265642C20636865636B20666F4B
:1008EC00726D61742E0A0D000A0D0A0D25303264EA
:1008FC002F253032642F2530326420736176656485
:10090C002E0A0D004368616E6765204F7574707513
:10091C007420496E74657276616C20696E20736503
:10092C0063730A0D0043757272656E7420496E74A0
:10093C00657276616C2069733A2025642073656357
:10094C00730A0D00456E746572206E6577206F75A5
:10095C007470757420696E74657276616C20696E42
:10096C0020736563733A20002563000A0D4F75747C
:10097C00206F662052616E67652E0A0D000A0D4CC1
:10098C006F6F7074696D65206973206E6F7720735B
:10099C00657420746F202564207365636F6E6473B7
:1009AC002E0A0D004368616E67652050535020433A
:1009BC006F656666696369656E740A0D00437572CE
:1009CC0072656E742050535020436F656666696380
:1009DC0069656E742069733A20252E32450A0D0024
:1009EC00456E746572204E65772050535020436FCE
:1009FC00656666696369656E743A20000A0D4F7509
:100A0C0074206F662052616E67650A0D000A0D50E6
:100A1C00535020436F656666696369656E7420691F
:100A2C0073206E6F772073657420746F20252E32BF
:100A3C00450A0D004368616E676520505350204194
:100A4C006D706C6966696572204761696E205661CC
:100A5C006C75650A0D0043757272656E7420505387
:100A6C005020416D706C6966696572204761696ED2
:100A7C002056616C75653A20252E32660A0D0045AC
:100A8C006E746572204E65772050535020416D7006
:100A9C006C6966696572204761696E2056616C7578
:100AAC00653A20000A0D50535020416D706C6966F8
:100ABC00696572204761696E206973206E6F7720BB
:100ACC0073657420746F20252E32660A0D004368FE
:100ADC00616E67652050535020416D706C6966697A
:100AEC006572204F66667365742056616C75650A75
:100AFC000D0043757272656E742050535020416D19
:100B0C00706C6966696572204F66667365742056F1
:100B1C00616C75653A20252E32660A0D00456E749F
:100B2C006572204E65772050535020416D706C6972
:100B3C0066696572204F66667365742056616C75C4
:100B4C00653A20000A0D50535020416D706C696657
:100B5C00696572204F6666736574206973206E6FC9
:100B6C00772073657420746F20252E32660A0D0071
:100B7C004368616E67652050495220416D706C6905
:100B8C0066696572204761696E2056616C75650AED
:100B9C000D0043757272656E742050495220416D80
:100BAC00706C6966696572204761696E2056616C6C
:100BBC0075653A20252E32660A0D00456E746572F5
:100BCC00204E65772050495220416D706C696669E2
:100BDC006572204761696E2056616C75653A20001C
:100BEC000A0D50495220416D706C6966696572201E
:100BFC004761696E206973206E6F7720736574206E
:100C0C00746F20252E32660A0D004368616E67658D
:100C1C002050495220416D706C6966696572204F95
:100C2C0066667365742056616C75650A0D004375B4
:100C3C007272656E742050495220416D706C6966F9
:100C4C00696572204F66667365742056616C7565B4
:100C5C003A20252E32660A0D00456E746572204EC0
:100C6C0065772050495220416D706C6966696572D8
:100C7C00204F66667365742056616C75653A20006A
:100C8C000A0D50495220416D706C6966696572207D
:100C9C004F6666736574206973206E6F7720736579
:100CAC007420746F20252E32660A0D004368616E25
:100CBC0067652050495220436F65666669636965B4
:100CCC006E740A0D0043757272656E742050495231
:100CDC0020436F656666696369656E742069733A53
:100CEC002025450A0D00456E746572204E657720EF
:100CFC0050495220436F656666696369656E743A44
:100D0C0020000A0D50495220436F6566666963697D
:100D1C00656E74206973206E6F7720736574207410
:100D2C006F2025450A0D004368616E67652043619D
:100D3C007365205265666572656E636520526573D6
:100D4C006973746F7220285239290A0D0043757229
:100D5C0072656E74204361736520526566657265B9
:100D6C006E6365205265736973746F722069733A90
:100D7C0020252E31660A0D00456E746572204E6575
:100D8C00772043617365205265666572656E636595
:100D9C0020526573697374616E63653A20000A0DA5
:100DAC0043617365205265666572656E636520529A
:100DBC0065736973746F72206973206E6F7720731B
:100DCC00657420746F20252E31660A0D004368610E
:100DDC006E676520446F6D65205265666572656E41
:100DEC006365205265736973746F722028523130B9
:100DFC00290A0D0043757272656E7420446F6D651F
:100E0C00205265666572656E636520526573697301
:100E1C00746F722069733A20252E31660A0D0045D5
:100E2C006E746572204E657720446F6D6520526537
:100E3C00666572656E636520526573697374616E65
:100E4C0063653A20000A0D446F6D65205265666536
:100E5C0072656E6365205265736973746F72206975
:100E6C0073206E6F772073657420746F20252E317C
:100E7C00660A0D004368616E676520546865726D83
:100E8C006973746F72205265666572656E63652056
:100E9C00566F6C746167650A0D0043757272656EEE
:100EAC007420546865726D6973746F722052656634
:100EBC006572656E636520566F6C74616765206939
:100ECC00733A20252E34660A0D00456E7465722027
:100EDC004E657720546865726D6973746F72205219
:100EEC0065666572656E636520566F6C74616765C7
:100EFC003A20000A0D546865726D6973746F722024
:100F0C005265666572656E636520566F6C746167B9
:100F1C0065206973206E6F772073657420746F2061
:100F2C00252E34660A0D004368616E67652049649E
:100F3C00656E746966696572204164647265737369
:100F4C000A0D0043757272656E74204964656E7487
:100F5C00696669657220416464726573733A202412
:100F6C00524144253032640A0D00456E746572207E
:100F7C004E6577204964656E7469666965722041B7
:100F8C006464726573732028302D3939293A200036
:100F9C000A0D4964656E74696669657220537472D2
:100FAC00696E67206E6F772073657420746F3A20BA
:100FBC0024524144253032640A0D000A0D2052653A
:100FCC007475726E696E6720746F206F70657261D4
:100FDC0074696F6E2E2E2E0A0D0A0D002050495288
:100FEC0020414443204F66667365743D20252E32A4
:100FFC00660A0D002050535020414443204F666632
:10100C007365743D20252E32660A0D00496E76619B
:10101C006C6964206B65790A0D00253764202537CF
:10102C006420253764202537642025376420253734
:10103C006420253764202537640A0D0025372E32AD
:10104C00662025372E32662025372E32662025372E
:10105C002E32662025372E32662025372E3266201A
:10106C0025372E32662025372E32660A0D0025379D
:10107C002E32662025372E32662025372E326620FA
:10108C0025372E32662025372E32662025372E3214
:10109C00662025372E32662025372E32660A0D0A39
:1010AC000D00040000058C000400040590000400F1
:1010BC000805940004000C05980005001005D000EC
:1010CC000B001A05D50004002E059C000000F894B6
:1010DC00EE27ECBBF1E0F5BFE5BFE0936C00F8E167
:1010EC00F1BDE1BD8DE0A2E0BB27ED938A95E9F758
:1010FC0080E090E1A0E0B1E0ED930197E9F78BBFC0
:10110C00EEEAF0E185919591009761F0A591B5918A
:10111C0005901590BF01F00105900D920197E1F734
:10112C00FB01F0CFEFEFEDBFE0E1EEBFC0E0D5E0AB
:10113C000C94A008EF972597CC24DD24E0E0F8E090
:10114C00AAE0B0E00E947622D4D1ADD19FD10E940A
:10115C00871B0E94D21B0E94D91B0E94E41B0E9479
:10116C00EF1B0E94F81B0E94011CE8E0F2E00E94B9
:10117C00161C0E941D1CE9E3F2E00E94261C0E9432
:10118C002D1CEAE0EA930E94AD14EDE0EA930E9474
:10119C00AD140E94361C0E94451CE0E0E883E983F4
:1011AC00EA83EB8341D1ECAFFDAF6EAF7FAF58D18B
:1011BC00ECABFDAB6EAB7FAB18D1E8AFF9AF6AAF60
:1011CC007BAFE2E0F0E00E944D1CAF010E94551C89
:1011DC000E945D1C0E94681C0E946D1C0E946D1C6C
:1011EC000E94741CECA3FDA36EA37FA30E94951C0C
:1011FC000E943A230E949A1CE3E0F0E00E944D1CEE
:10120C00DE01AE5BBF4FED93FC93DE01AE5BBF4FD7
:10121C000E949F1C0E9444220E945D1C0E94A61CDE
:10122C000E946D1C0E946D1C0E94741CE8A3F9A303
:10123C006AA37BA30E94AB1C0E94B01CE1E0F0E00F
:10124C000E944D1C9F01F9010E94B71C0E94BE1CFC
:10125C000E94C51C0E94CC1C0E94D31C0E94D31C53
:10126C00E0E0F0E060E870E40E944422FE01BC96ED
:10127C00FA93EA93FE01BA96FA93EA93FE01B896B2
:10128C00FA93EA930E94CE130E94DA1CAC81BD81C2
:10129C008E819F810E943A230E94DF1CE0E0F0E0E7
:1012AC000E944D1C0E94E41C0E94B71C0E94E71C6B
:1012BC000E94EE1C0E94F51CFE01B496FA93EA9370
:1012CC000E9436130E94FC1C0E94011D0E94061DE8
:1012DC000E94361CA72DBB27E82DF0E0AE1BBF0BE0
:1012EC00BA93AA930E94B51A0F010E940D1D0E16F7
:1012FC001F0610F40C94EB090E94121DAC81BD81E9
:10130C008E819F810E94191D0E94DF1C0E94121D5C
:10131C000E94951C0E94191D0E949A1C0E94121D6D
:10132C000E94AB1C0E94191DE88FF98F6A8F7B8F6E
:10133C000E94121D0E94011D0E94191D0E94201D59
:10134C000E94251D0E94321DEAE6F2E00E943F1D1C
:10135C000E944A1D0E945D1DFE01E25AFF4F019042
:10136C00F081E02D0E94701DF9010E94701DEAA50C
:10137C00FBA56CA57DA50E94751D0E94751D0E9484
:10138C004422EAA9FBA96CA97DA90E944422FE0172
:10139C00E259FF4F0190119061917081F0010E9410
:1013AC004422FE01EA58FF4F019011906191708127
:1013BC00F0010E9444228CE30E942C18EE960E94AD
:1013CC00321D862C0E94451C61D0DE01A05CBF4FF3
:1013DC000E94801DFED0309721F00E94A914E435A4
:1013EC0009F001C077D2DECEFFCF24970E942B24C8
:1013FC000E94861D8F01E6E0F0E00E94901D9F0187
:10140C003A932A93F801EE0FFF1FFA93EA93EAE15D
:10141C00F7E2FA93EA93DBD10E94DF1C0E94981D3D
:10142C000E9432242896089524971A930A93E7E091
:10143C00F0E00E94901D0E94E41C0E949D1DDF01A3
:10144C00CB01E0E0F0E068EC72E40E94BA23AAE978
:10145C00B9E989E99FE30E943A230E94A21D12C0B8
:10146C0024971A930A930E94861D0E94E41CEE0F87
:10147C00FF1FDF01E8EEF3E00E94DA210E949D1DC0
:10148C000E94A21D1981088126960895E4E0E3B913
:10149C00EFE0F0E00E94A71DE0E0E3B9E4EFF1E03B
:1014AC000E94A71D08959ED0E1ECF2E0FA93EA9316
:1014BC000E94AB1D0E94B81DEBEEF2E00E94BD1D18
:1014CC000E94321DE9E1F3E0FA93EA930E945D1D5C
:1014DC000E94C41D0E94251DE1E4F3E00E94C91D79
:1014EC000E94C41DE9E6F3E00E94BD1D0E94CC1DC4
:1014FC000895E0E0EBBBEABBE3E0E5BBE4BBE0E076
:10150C00E2BBE1BBE3B9E4E0E2B9E0E0E093620006
:10151C00E0936100E0936500E0936400E0BFE3BFFB
:10152C00E2BFE1BFEFBDEEBDEDBDECBDEBBDEABD75
:10153C00E9BDE8BDE0937900E0937800E5BDE4BD3A
:10154C00E3BDE0938B00E0938A00E0938900E09385
:10155C008800E0938700E0938600E0938500E09399
:10156C008400E0938300E0938200E0936A00EABF7A
:10157C00E9BFE7BFE0937D00EBB9E8E1EAB9E6E04B
:10158C00E0939500E0E0E0939000EBE0E9B9E0E057
:10159C00E0939B00E8E1E0939A00E6E0E0939D0085
:1015AC00E0E0E0939800E3E3E0939900E0E8E8B929
:1015BC00E0E0E0BDE1E0E8BBE7E0E7BBE1E5EDB989
:1015CC00E1E0EEB9E0E0EA93EA93EA930E94381B7B
:1015DC000895EBB1EF3718F0E1E0F0E00895E0E0AA
:1015EC00F0E008951A930A9300E010E00931E0E06E
:1015FC001E072CF40E94CC1D0F5F1F4FF7CFE1E0AC
:10160C00F0E009911991089526970E942924E0E0B1
:10161C00EA87EB87E0E0F0E0AF019F018F01AC853A
:10162C00BD85119711F00C94670BEE85FF853097F3
:10163C0029F4EFE8F0E060E070E03EC0AE85BF85D5
:10164C00119729F4EFECF0E060E070E035C0AE8566
:10165C00BF85129729F4EFE9F0E060E070E02CC050
:10166C00AE85BF85139729F4EFEDF0E060E070E0F4
:10167C0023C0AE85BF85149729F4EFEAF0E060E053
:10168C0070E01AC0AE85BF85159729F4EFEEF0E037
:10169C0060E070E011C0AE85BF85169729F4EFEBC2
:1016AC00F0E060E070E008C0AE85BF85179741F4AC
:1016BC00EFEFF0E060E070E0EE83FF8368877987FE
:1016CC004BC0EE85FF85309729F4E7E8F0E060E049
:1016DC0070E03EC0AE85BF85119729F4E7ECF0E0D1
:1016EC0060E070E035C0AE85BF85129729F4E7E95C
:1016FC00F0E060E070E02CC0AE85BF85139729F454
:10170C00E7EDF0E060E070E023C0AE85BF85149794
:10171C0029F4E7EAF0E060E070E01AC0AE85BF851E
:10172C00159729F4E7EEF0E060E070E011C0AE85AB
:10173C00BF85169729F4E7EBF0E060E070E008C095
:10174C00AE85BF85179741F4E7EFF0E060E070E0FD
:10175C00EE83FF8368877987E7E0E8BBE6E0E8BBC8
:10176C00EE81EA930E94AE1A0E2F1127E0E0EA9365
:10177C000E94AE1A2E2F3327E0E0EA930E94AE1A95
:10178C004E2F5527E7E0E8BBAC85BD85119719F4C2
:10179C000E94CF1D16C0EC85FD85309779F40E9410
:1017AC00CF1DAA85BB85A030E8E0BE0734F0EA85E2
:1017BC00FB85E050F041EA87FB8703C0E0E0EA8755
:1017CC00EB87EA85FB850E94302460960895A097EC
:1017DC00EAA1FBA10E949D1DDF01CB010E94DF1D30
:1017EC000E94E61D0E949A1CE8A1F9A10E949D1D71
:1017FC000E94951C0E94BA23EC8BFD8B6E8B7F8B09
:10180C000E94DF1DDF01CB010E94FC1C0E94BA2349
:10181C00E88FF98F6A8F7B8FE8A1F9A10E949D1D3B
:10182C000E94AB1C0E94BA230E9444220E94BD1A43
:10183C000E94EB1D0E94F01DA0910405B0910505BE
:10184C0080910605909107050E948823A0910005C0
:10185C00B091010580910205909103050E94F51D40
:10186C000E94FC1DA0910805B091090580910A0504
:10187C0090910B050E9488230E94DF1C0E94FC1D86
:10188C000E94041E0E948823A0910C05B0910D05A6
:10189C0080910E0590910F050E9488230E94201DB7
:1018AC000E94981D0E94091E0E943A230E94011D4D
:1018BC000E943A230E940E1E0E94131EDF01CB01D0
:1018CC00E0E0F0E06BE873E40E94E61D0E940E1E5F
:1018DC00A696089564970E942A240E94CC1DE4E8E1
:1018EC00F3E00E943F1D0E94AB1D0E94C41DEDEB56
:1018FC00F3E00E94BD1DE8EFF3E0FA93EA930E9437
:10190C00E71C0E94BE1C0E94B81DEBE1F4E0FA93A8
:10191C00EA930E94CC1C0E94C51C0E94B81DE4E4F2
:10192C00F4E0FA93EA930E94F51C0E94EE1C0E94CC
:10193C00B81DEDE6F4E00E94BD1DE8EAF4E00E945B
:10194C00BD1DE4ECF4E00E94BD1DEFEFF4E00E943D
:10195C00BD1DE2E4F5E00E94BD1DE0E7F5E00E944C
:10196C00BD1DEBEAF5E00E94BD1DEEEEF5E00E9418
:10197C00BD1DECE1F6E00E94BD1DE6E5F6E00E941F
:10198C00BD1DE1E9F6E00E94BD1DECECF6E00E9405
:10199C00BD1DE1EFF6E00E94BD1DECE2F7E00E94F8
:1019AC00BD1DECE6F7E00E94BD1DEAE9F7E00E94E0
:1019BC00BD1DE6EDF7E00E94BD1D0E94321D0E9488
:1019CC001A1E0E94311E0E94EF0A309719F0BBD7E5
:1019DC000E2F1FC00E94321D0E941A1EED83FE8323
:1019EC006F8378870E94361EED81FE816F8178852A
:1019FC000E945C21FA93EA930E94B51A7F9740F0FB
:101A0C00E0EEF7E00E94BD1D0E9431246996089516
:101A1C00DACFE02FF0E0E435A0E0FA0731F0E4375C
:101A2C00A0E0FA0711F00C949A0DE0E0F8E00E94A7
:101A3C00C91D0E945D1D88E10E942C186A96EAE47B
:101A4C00F8E00E94BD1DE5E6F8E0FA93EA93E4E0C5
:101A5C00F0E060E070E00E944422E5E0F0E060E03D
:101A6C0070E00E944422E6E0F0E060E070E00E944A
:101A7C003B1EE8E14E1628F4ECE35E1610F46E16ED
:101A8C0028F0E0E7F8E00E94BD1DF9C34A925A9293
:101A9C006A920E94651BEAE9F8E0FA93EA930E94C5
:101AAC005D1D0E94C41DE4EBF8E00E94BD1DE5E63F
:101ABC00F8E0FA93EA93E9E0F0E060E070E00E946D
:101ACC004422EAE0F0E060E070E00E944422EBE0A7
:101ADC00F0E060E070E00E943B1EE7E0EB1518F4CC
:101AEC00E3E6EB1508F40FC0E0E0EA1518F4ECE0BF
:101AFC00EA1508F408C0E0E0E91518F4EFE1E9157F
:101B0C0008F401C005C0EAECF8E00E94BD1DB7C3A3
:101B1C009A92AA92BA920E947E1BE4EFF8E00E947D
:101B2C00C91D0E94C41DABC3EC34A0E0FA0731F010
:101B3C00EC36A0E0FA0711F00C94F40DE0E1F9E0BA
:101B4C000E94BD1DE1E3F9E00E94421EE0E5F9E0D0
:101B5C000E94BD1D30E040E03530E0E04E07BCF4A3
:101B6C000E94481EFF93EF93EED6AF91BF910E9457
:101B7C004F1E0E945D1EAA3021F00E945D1EAD30EA
:101B8C0019F43150404003C03F5F4F4FE5CF0E94E6
:101B9C00631EE0E0F0E061E675E40E94FB2319F0BF
:101BAC0010F00C94DE0D0E94631E0E9423242CF076
:101BBC00E7E7F9E00E94BD1D62C30E946C1E0E9403
:101BCC00C9221E2F2F2FE12FF22FA8E0B0E00E9488
:101BDC007622E9E8F9E00E94421E51C3E037A0E00A
:101BEC00FA0711F00C94430EE0EBF9E00E94BD1DD6
:101BFC00E9ECF9E00E94721EECEEF9E00E94BD1DCA
:101C0C0030E040E03431E0E04E07BCF40E94481E66
:101C1C00FF93EF9398D6AF91BF910E944F1E0E94F5
:101C2C005D1EAA3021F00E945D1EAD3019F43150BA
:101C3C00404003C03F5F4F4FE5CF0E94631EECEA6C
:101C4C00F5EC67EA77E30E94FB2348F40E94631EDD
:101C5C000E94791E09F010F40C94350E03C00E94FA
:101C6C00801E0DC30E946C1EA0E0B0E00E946B228F
:101C7C00E9E1FAE00E94721E02C3E736A0E0FA071F
:101C8C0011F00C94940EE0E4FAE00E94BD1DE2E623
:101C9C00FAE00E94831EEBE8FAE00E94BD1D30E0E2
:101CAC0040E03431E0E04E07BCF40E94481EFF9344
:101CBC00EF9349D6AF91BF910E944F1E0E945D1EBB
:101CCC00AA3021F00E945D1EAD3019F43150404015
:101CDC0003C03F5F4F4FE5CF0E94631EE0E0F0E092
:101CEC0066E973E40E94FB2358F40E94631E0E9471
:101CFC008A1E0E94FB2309F010F40C94860E03C07C
:101D0C000E94801EBCC20E946C1EA8E2B0E00E9421
:101D1C006B22E0EBFAE00E94831EB1C2EF36A0E02A
:101D2C00FA0711F00C94E20EEAEDFAE00E94BD1DE8
:101D3C00EEEFFAE00E94261CE9E2FBE00E94BD1DDA
:101D4C0030E040E03431E0E04E07BCF40E94481E25
:101D5C00FF93EF93F8D5AF91BF910E944F1E0E9455
:101D6C005D1EAA3021F00E945D1EAD3019F4315079
:101D7C00404003C03F5F4F4FE5CF0E94631E0E945F
:101D8C008F1E19F010F00C94D40E0E94631EE0E02C
:101D9C00F0E06AEF73EC0E94FB2318F40E94801EA3
:101DAC006EC20E946C1EA4E2B0E00E946B22E0E5C1
:101DBC00FBE00E94261C63C2E734A0E0FA0711F096
:101DCC000C94300FECE7FBE00E94BD1DEEE9FBE04C
:101DDC000E94961EE7ECFBE00E94BD1D30E040E047
:101DEC003431E0E04E07BCF40E94481EFF93EF93A1
:101DFC00AAD5AF91BF910E944F1E0E945D1EAA30C2
:101E0C0021F00E945D1EAD3019F43150404003C0EA
:101E1C003F5F4F4FE5CF0E94631EE0E0F0E86BEBB5
:101E2C0074E40E94FB2319F010F00C94220F0E9412
:101E3C00631E0E948F1E18F40E94801E20C20E94F6
:101E4C006C1EA0E2B0E00E946B22ECEEFBE00E9464
:101E5C00961E15C2EF34A0E0FA0711F00C94820F15
:101E6C00E6E1FCE00E94BD1DEAE3FCE00E94161CCA
:101E7C00E5E6FCE00E94BD1D30E040E03431E0E0DE
:101E8C004E07BCF40E94481EFF93EF935CD5AF91B4
:101E9C00BF910E944F1E0E945D1EAA3021F00E942D
:101EAC005D1EAD3019F43150404003C03F5F4F4FC1
:101EBC00E5CF0E94631EE0E0F0E068E473E40E946A
:101ECC00FB2319F010F00C94740F0E94631EE0E0D9
:101EDC00F0E068E473EC0E94FB2318F40E94801E6F
:101EEC00CEC10E946C1EACE1B0E00E946B22ECE80B
:101EFC00FCE00E94161CC3C1E934A0E0FA0711F003
:101F0C000C94D10FE8EBFCE00E94BD1DE1EDFCE070
:101F1C000E949D1EE2EFFCE00E94BD1D30E040E0FF
:101F2C003431E0E04E07BCF40E94481EFF93EF935F
:101F3C000AD5AF91BF910E944F1E0E945D1EAA3020
:101F4C0021F00E945D1EAD3019F43150404003C0A9
:101F5C003F5F4F4FE5CF0E94631EECEAF5EC67E262
:101F6C0077E30E94FB2348F40E94631E0E94791EB3
:101F7C0009F010F40C94C30F03C00E94801E7FC1A3
:101F8C000E946C1EA4E0B0E00E946B22EEE0FDE02B
:101F9C000E949D1E74C1E334A0E0FA0711F00C946A
:101FAC001B10E3E3FDE00E94BD1DE9E5FDE00E948E
:101FBC00A41EE4E8FDE00E94BD1D30E040E0343199
:101FCC00E0E04E07BCF40E94481EFF93EF93BBD495
:101FDC00AF91BF910E944F1E0E945D1EAA3021F04E
:101FEC000E945D1EAD3019F43150404003C03F5F7C
:101FFC004F4FE5CF0E94631E0E94A81E19F010F0EF
:10200C000C940D100E94631E0E94AF1E18F40E94C7
:10201C00801E35C10E946C1EACE0B0E00E946B22A9
:10202C00EAEAFDE00E94A41E2AC1E434A0E0FA070B
:10203C0011F00C946510E9EDFDE00E94BD1DE0E08F
:10204C00FEE00E94B61EEBE2FEE00E94BD1D30E0F9
:10205C0040E03431E0E04E07BCF40E94481EFF9390
:10206C00EF9371D4AF91BF910E944F1E0E945D1EE1
:10207C00AA3021F00E945D1EAD3019F43150404061
:10208C0003C03F5F4F4FE5CF0E94631E0E94A81E06
:10209C0019F010F00C9457100E94631E0E94AF1E92
:1020AC0018F40E94801EEBC00E946C1EA0E1B0E0F0
:1020BC000E946B22E1E5FEE00E94B61EE0C0E63510
:1020CC00A0E0FA0711F00C94BF10E0E8FEE00E94CB
:1020DC00BD1DE6EAFEE00E94BA1EE6EDFEE00E949F
:1020EC00BD1D30E040E03431E0E04E07BCF40E940E
:1020FC00481EFF93EF9327D4AF91BF910E944F1EC0
:10210C000E945D1EAA3021F00E945D1EAD3019F4B4
:10211C003150404003C03F5F4F4FE5CF0E94631EDC
:10212C00E0E0F0E060EC70E40E94FB2319F010F0AA
:10213C000C94A9100E94631EE0E0F0E060E070E4F3
:10214C000E94FB2318F40E94801E99C00E946C1EF2
:10215C00A4E1B0E00E946B22A4E1B0E00E94562200
:10216C00A8E1B0E00E946B22EFEFFEE00E94BA1EE5
:10217C0086C0E134A0E0FA0711F00C940711E3E3F8
:10218C00FFE00E94BD1DEFE4FFE00E94C11EE6E7E8
:10219C00FFE00E94BD1D30E040E03431E0E04E072E
:1021AC00BCF40E94481EFF93EF93CDD3AF91BF9127
:1021BC000E944F1E0E945D1EAA3021F00E945D1EDF
:1021CC00AD3019F43150404003C03F5F4F4FE5CF65
:1021DC000E94CA1EE436A0E0FA072CF40E94CA1E24
:1021EC00DF0110971CF40E94801E49C00E94CA1E79
:1021FC00ACE2B0E00E947622ECE9FFE00E94C11E46
:10220C003EC0E835A0E0FA0721F0E837A0E0FA0775
:10221C0029F4E7ECFFE00E94BD1D33C0E335A0E0DC
:10222C00FA0711F432D02BC0EA35A0E0FA0721F0FE
:10223C00EA37A0E0FA07E9F40E94871B0E94D21B40
:10224C000E94D91B0E94E41B0E94EF1B0E94F81BEA
:10225C000E94011CE8EEFFE00E94161C0E941D1C4F
:10226C00E0E0F0E10E94261C0E942D1C0E94CC1D77
:10227C0006C0E8E1F0E10E94BD1D0E94700C0E94B6
:10228C00700C0E94312469960895EF9721970E9453
:10229C00292449E15CEF0E94D01EDE01AE5BBF4FEA
:1022AC00ED93FD936D937C93DE01A25CBF4FED9398
:1022BC00FD936D937C93EAAFFBAF6CAF7DAFEEAB50
:1022CC00FFAB68AF79AFEAABFBAB6CAB7DABEEA70A
:1022DC00FFA768AB79ABEAA7FBA76CA77DA7EEA31A
:1022EC00FFA368A779A70E94D01EEAA3FBA36CA347
:1022FC007DA3EE8FFF8F68A379A3EA8FFB8F6C8F82
:10230C007D8FEE8BFF8B688F798FEA8BFB8B6C8BC1
:10231C007D8BEE87FF87688B798BEA87FB876C87D1
:10232C007D870E94D51E20E030E00E94CC1D0E94CB
:10233C00EF0A309711F00C942F12E8E0F0E0FA93CA
:10234C00EA9354D1E6E2F0E1FA93EA93E091320594
:10235C00F09133050E94701DE0913405F091350524
:10236C000E94701DE0913605F09137050E94701D9A
:10237C00E0913805F09139050E94701DE0913A0505
:10238C00F0913B050E94701DE0913C05F0913D05DC
:10239C000E94701DE0913E05F0913F050E94701D5A
:1023AC00E0914005F09141050E94701D0E94DA1EDB
:1023BC0000E010E00830E0E01E0714F00C94261248
:1023CC000E94DF1EFF93EF93DF010E9433227F9365
:1023DC006F93FF93EF930E94E71EAF91BF918F9184
:1023EC009F910E943A23AF91BF910E943922F8012C
:1023FC00DE0116960E94EF1EFF93EF93DF010E9401
:10240C0033227F936F93FF93EF930E94E71E7F938A
:10241C006F93FF93EF930E94E71EAF91BF918F9143
:10242C009F910E948823AF91BF918F919F910E94A1
:10243C003A23AF91BF910E9439220F5F1F4FBACF41
:10244C002F5F3F4FE8EEF3E00E94A71D0E944C0A5D
:10245C006ECF0E94CC1D00E010E00830E0E01E07BB
:10246C009CF40E94DF1EFA93EA93F801DE011896A1
:10247C000E94EF1EFA93EA933A932A930E94551CFA
:10248C0056D00F5F1F4FE9CFE8E4F0E1FA93EA93DF
:10249C000E94F41EFE01E85BFF4F019011906191C8
:1024AC007081F0010E944422FE01E05BFF4F01901D
:1024BC00119061917081F0010E944422FE01E85A52
:1024CC00FF4F0190119061917081F0010E944422A4
:1024DC00FE01E05AFF4F0190119061917081F00163
:1024EC000E9444220E94DA1EEAE7F0E1FA93EA9392
:1024FC000E94111F0E9444220E94DA1C0E94442256
:10250C00E88DF98D6A8D7B8D0E944422E8A1F9A19A
:10251C006AA17BA10E9444220E94F41E0E94DA1E32
:10252C000E944C0A0E943024EF9627960895AC81A5
:10253C00BD8113973CF40E94161FA885B9850E9493
:10254C001B1F4FC0A885B985BF93AF930E941E1F58
:10255C00AF91BF910E94251F0E941E1F7F936F9306
:10256C00FF93EF930E942A1F7F936F93FF93EF9338
:10257C000E942A1FAF91BF918F919F910E94882337
:10258C00AF91BF918F919F910E94E61DAE81BF814B
:10259C000E94251F0E943322DF01CB01EC81FD81BB
:1025AC000E942F1FDF01CB01EC81FD8131970E942E
:1025BC00191DAE81BF810E94251F0E943322DF01AD
:1025CC00CB010E941F242CF4AE81BF810E94D01E2F
:1025DC000AC0AE81BF810E9433220E9444220E9415
:1025EC00E520AE81BF810E943922ABC11A930A93B8
:1025FC00AA81BB811897D9F400E010E00830E0E024
:10260C001E07A4F4F8010E94331FFF93EF931A9353
:10261C000A93E0E0F0E0FA93EA930E940A0BAF9180
:10262C00BF91ED93FC930F5F1F4FE8CF15C0AA81AC
:10263C00BB81109714F018970CF00EC0EA81FB8147
:10264C000E94331FFF93EF93EA81FB810E944D1C84
:10265C00AF91BF91ED93FC93198108812496089555
:10266C002497AA85BB858C859D85EA89FB896C8915
:10267C007D890E943323DF01CB010E943A1F0E9407
:10268C003F1FDF01CB01EE85FF85688979890E94A8
:10269C004A1F0E94161FAC81BD810E941B1F6696AB
:1026AC00089560978CE0A0E0B0E0E4EAF0E00E94CE
:1026BC003724FE01FA93EA93EE89FF89688D798DB0
:1026CC000E944422FBD00E94EB1DA889B9898A89FB
:1026DC009B89EFE6F2E163E87BE30E94BA230E9458
:1026EC00041E0E94E61D0E94EB1D0E94F01D6896C0
:1026FC0008952497AA8DBB8D8C8D9D8DE0E0F0E024
:10270C0060E070E40E94BA23AA85BB858C859D8508
:10271C000E948823DF01CB01EE89FF89688D798DBA
:10272C000E94BA23A885B9850E9439220E942A1FCB
:10273C00AE85BF85888999890E94E61DDF01CB0192
:10274C00EA89FB896C897D890E944A1F0E942A1F95
:10275C00DF01CB010E94161F0E94BA23AE81BF81FC
:10276C000E941B1F0E944D1F7F936F93FF93EF934B
:10277C00AE81BF810E943322AF91BF918F919F9107
:10278C000E948823AC81BD810E9439226E960895E7
:10279C006C9788E0ACE0B0E0E0EBF0E00E9437240E
:1027AC00AAA9BBA98CA99DA9EAADFBAD6CAD7DAD69
:1027BC000E943323DF01CB01EEA5FFA568A979A9FF
:1027CC000E943F1FDF01CB01EEA9FFA968AD79ADD7
:1027DC000E944A1F0E94511FAAA5BBA58CA59DA5AE
:1027EC000E94B01C0E94511FAEA1BFA188A599A543
:1027FC000E943A23EC8BFD8B6E8B7F8BE88DF98DD1
:10280C006A8D7B8D0E945A1F0E945A1F0E945A1F6C
:10281C000E945E1F0E94FC1C0E94631F0E94631F8B
:10282C000E94631F0E94DF1C0E94DA1C0E94041E7F
:10283C000E9488230E94091E0E948823AE8DBF8DA2
:10284C000E943922EAA1FBA16CA17DA10E94A022C9
:10285C00A889B9898A899B890E9488237F936F9361
:10286C00FF93EF930E94091E0E94981D0E94332330
:10287C00AF91BF918F919F910E948823AC8DBD8D9C
:10288C000E943922AE8DBF8D0E9433220E94011D01
:10289C000E943A237F936F93FF93EF93AC8DBD8D82
:1028AC000E943322AF91BF918F919F910E943A2346
:1028BC00A8A1B9A10E943922EE96089524970E94EE
:1028CC00981D0E9444220E94BD1A0E94201D0E9445
:1028DC002A1F7F936F93FF93EF93E885F985A4816B
:1028EC00B581868197819F938F93BF93AF93A0857A
:1028FC00B185828593850E94161F0E9488230E94B1
:10290C004D1FAF91BF918F919F910E943A230E94CE
:10291C004D1FAF91BF918F919F910E94061D0E94F8
:10292C00161F0E94131EA0912E05B0912F058091A9
:10293C003005909131050E9433230E94201D0E9486
:10294C00161F2A9608955F9BFECFECB108955D9BF0
:10295C00FECFE881ECB921960895A881B9810E9437
:10296C002F22309731F00E94801D3197AA81A083CD
:10297C0004C0EA81EA930E94AD142396089524972B
:10298C001A930A93A885A63010F0E5E0E887E8854D
:10299C00F0E0A8EBB0E00E94EF1E0E943E220E94E5
:1029AC00361E0E943A230E94311E00E00E946A1FCC
:1029BC00EA83FB836C837D83EA81FB816C817D815F
:1029CC000E94361E0E94FB2350F00E946F1F0E9433
:1029DC008823EA83FB836C837D830F5FEDCF00300C
:1029EC0029F40E94741FE0E3EC9322C0E02F015005
:1029FC00E030F1F00E946F1F0E947B1F0E94A21D0D
:102A0C000E94361E0E94BA230E94C9221E2F0E94C9
:102A1C00741F0E94871FAA81BB818C819D810E949B
:102A2C002F1F0E94361E0E94E61D0E94311EDECF13
:102A3C00E885E03029F4AE81BF81E0E0EC9327C05B
:102A4C000E94741FEEE2EC93E885E150E887EF5F9B
:102A5C00D1F00E94361E0E948D1F0E94311EE98506
:102A6C00FA856B857C850E94C9221E2F0E94741FDB
:102A7C000E94871F0E94361E0E949D1D0E94E61D0B
:102A8C000E94311EE1CFAE81BF81E0E0EC93198151
:102A9C0008812D96089524970E942C240E946A1F69
:102AAC000E94911FAA85A63010F0E5E0EA870A85FE
:102ABC00E02F0150E03029F00E94961F0E94911FD8
:102ACC00F7CFEB85FC856D857E850E941B2431F448
:102ADC0020E00E94961F0E94911F36C02A850E94FA
:102AEC009B1F09F010F40C9488150E94961F0E94ED
:102AFC00911F0E949B1F28F00E94A61F0E94AB1FD3
:102B0C00F8CF0FC00E949B1F40F40E94A61F0E948A
:102B1C008D1F0E94B41F2150F5CF0E94961F0E945A
:102B2C00911FEB85FC856D857E85A0E0B0E080E093
:102B3C009FE30E943A230E94B41F0E949B1F20F027
:102B4C000E94A61F0E94AB1F00E0EA85E017A8F1C7
:102B5C00AB81BC818D819E810E948A1E0E947B1F4D
:102B6C000E94911FEB81FC816D817E810E94A61FCA
:102B7C000E94BA230E94C9221E2F0E94B91FE12F66
:102B8C00E05DEC93E12FFF27662777270E94FC225C
:102B9C00AB81BC818D819E810E9488230E94A61FDF
:102BAC000E94E61D0E94B41FE02F0F5FE03069F613
:102BBC000E94B91FEEE2EC93C8CF0E94C01FA985FA
:102BCC00A08320302CF40E94B91FEDE2EC932195E8
:102BDC002A304CF00E94C01FBF01A22FEAE00E94D5
:102BEC00C2210E94C71F0E94C01FBF01A22FEAE092
:102BFC000E9405220E94C71FAF81B885E0E0EC93CC
:102C0C000E9433242F9608956C970E94292400E08B
:102C1C00EEA1FFA13196EEA3FFA33197E4913E2FD5
:102C2C00E03011F40C942818E02FF0E0309739F4D0
:102C3C00353211F401E002C00E94CE1F02C2E13015
:102C4C00A0E0FA07C1F4353219F40E94CE1FF8C186
:102C5C0002E0E0E0E98B10E03D3211F411E0F1C14B
:102C6C003B3219F4EBE2E98BECC1303219F4E0E2BF
:102C7C00E98BE7C104C0E230A0E0FA0739F440E088
:102C8C0003E0303311F41068DCC104C0E330A0E081
:102C9C00FA07A9F4303310F03A3308F00AC0A42F25
:102CAC00EAE0EA9FF0014E2FE32F0E94D51F4E0F52
:102CBC00C8C150E03E3211F404E0C3C114C0E4308A
:102CCC00A0E0FA07B1F4303310F03A3308F00BC03F
:102CDC001062A52FEAE0EA9FF0015E2FE32F0E941D
:102CEC00D51F5E0FAEC13C3619F4126005E0A9C1C8
:102CFC0006C0E530A0E0FA0711F00C942718E32F7A
:102D0C000E94D81F31F40E94DD1FEC910E94E41F39
:102D1C0097C1E534A0E0FA0721F0E536A0E0FA0708
:102D2C0009F406C0E636A0E0FA0711F00C94E2169E
:102D3C00FE017296EA87FB870E94DD1F0E943322F8
:102D4C000E94D51EDF01CB010E941F2424F0A9890B
:102D5C00AB3249F012C00E943A1F0E94A0220E947E
:102D6C00D51EEDE2E98B17FF04C0E9890E94E41F30
:102D7C0004C00E94EB1FA989A08315FF55E03636CD
:102D8C0051F40E943A1F0E9444225A930E94F21F4F
:102D9C000E94C5140CC00E943A1F0E9444225A93F0
:102DAC003A93E889F989FA93EA930E945115FE0146
:102DBC0072960E94F71F22C0E337A0E0FA0739F49D
:102DCC000E94DD1F0E942F220E94F71F10C0E037C7
:102DDC00A0E0FA07C1F40E94DD1F0E942F22EA87AF
:102DEC00FB87FA93EA930E947E200E2F18601F77C0
:102DFC00503011F0501708F001C0052F50E0E0E002
:102E0C00E88B20E077C0E436A0E0FA0721F0E93641
:102E1C00A0E0FA0711F4146004C0E537A0E0FA074B
:102E2C00A1F4EAE0E88B11FF08C0E0E0FAEC6AE9F3
:102E3C007BE30E94EB1D0AE027C0E0E1F7E260E0D3
:102E4C0070E00E94EB1D05E01FC0E835A0E0FA071A
:102E5C0011F4186006C0E837A0E0FA0711F00C94E2
:102E6C002618E0E1E88B11FF08C0E0E0F0E060E03C
:102E7C0070E10E94EB1D08E007C0E0E0F0E160E0CB
:102E8C0070E00E94EB1D04E0503011F01F7701C080
:102E9C0051E011FF05C00E94DD1F0E9433220FC0BC
:102EAC0012FF07C00E94DD1F0E942F220E947D216D
:102EBC0006C00E94DD1F0E942F2266277727EE8313
:102ECC00FF836887798712FF14C00E94FF1F0E943E
:102EDC001F2444F40E943A1F0E9465210E94D51EB3
:102EEC00EDE2E98BE989E03019F00F5F5F5F01C01B
:102EFC001B7F252F10FD14C0041710F4241708F0A5
:102F0C000FC017FF08C012FF04C01B7F3989015086
:102F1C0001C030E301C030E20E94CE1F4150ECCF23
:102F2C000517A0F4106112FF09C01B7FE9890E94EC
:102F3C00E41F403009F0415001505150E0E30E9431
:102F4C00E41F403009F041505150EACF202FE8895E
:102F5C00E030D1F42030B9F013FF04C00E94EB1F15
:102F6C00E49105C0AA85BB85ED91AA87BB87EA933E
:102F7C00EBA1FCA1FA93EA930E94B314403009F040
:102F8C0041502150E7CF53C00E94F01D0E94FF1FFB
:102F9C000E94DF213E2F3A3030F013FF02C0395C23
:102FAC0001C0395A01C0305D14FD23C0313350F4D7
:102FBC000E94041EA130E0E0BE07E0E08E07E0E0D6
:102FCC009E0709F40CC0521708F008C0421710F005
:102FDC0010FF01C013C030E217FF0BC030E31061CB
:102FEC0012FF07C01B7FE9890E94E41F403009F0E3
:102FFC0041500E94CE1F403009F0415021500E9498
:10300C00F01D0E94FF1F0E9411220E94D51EE8890C
:10301C00F0E00E94041E0E947D210E94DF210E948C
:10302C00EB1D0E94F01D0E941B2409F0ADCF10FF78
:10303C0007C0403029F04150E0E20E94E41FF9CF74
:10304C0000E0E6CD0E943024A8960895FF920E94DD
:10305C0004200E940A163CC10A93AB81BC81EC91FE
:10306C000E2FE03019F0E0E0EC9312C0A981BA8188
:10307C000E942F22309749F00E942F22E0810E2FC0
:10308C00E03011F00E94801D03C00E94A9140E2F85
:10309C00E02F08812596089527970E942924E0E0C7
:1030AC00EB87EC87E989FA893196E98BFA8B3197B2
:1030BC00E4912E2FE03011F40C9464190E941E2020
:1030CC0071F00E9423200E9432182E2FE03019F04C
:1030DC000E941E2009F401C0F4CF2C87EEC02532CB
:1030EC0011F00C94531940E0E989FA892591E98B88
:1030FC00FA8B203310F02A3308F00AC0A42FEAE030
:10310C00EA9FF0014E2FE22F0E94D51F4E0FECCFFD
:10311C00203009F4D3C00E9423200E9432183E2F85
:10312C00EA930E946A20E030B1F7303009F4BFC056
:10313C003C87403009F44FEF50E0E22F0E94D81F3B
:10314C0049F40E9428200E9423200E943218D801A2
:10315C00EC939FC0E337A0E0FA07F1F40E9428201B
:10316C00E42F4150E030A1F00E9423200E9432183D
:10317C002E2FE03019F00E941E2009F009C01F9379
:10318C000F930F5F1F4FE22FAF91BF91EC93E8CFDE
:10319C00D801E0E0EC937DC0EC36A0E0FA0731F406
:1031AC0051E0E989FA892591E98BFA8BE1E0EA870C
:1031BC00E22FF0E0E436A0E0FA0721F0E936A0E0D7
:1031CC00FA0719F4E0E0EA8704C0E537A0E0FA0753
:1031DC0011F43AE00DC0E837A0E0FA0711F430E141
:1031EC0007C0E532A0E0FA0709F457C0EB8567C0C9
:1031FC00E0E0EE83EF83E887E987E42F4150E0308D
:10320C0079F10E9423200E9432182E2FE132B8F05F
:10321C00EA85E03039F42D3219F4EFEFEA87EDCF7F
:10322C00E1E0EA87203358F0213610F0275505C02D
:10323C00213410F0275301C02053231710F02C8792
:10324C000FC0E32FF0E00E943120DF01CB01E22F11
:10325C00F0E00E947D210E9457210E94D51ECDCF07
:10326C00EA85F0E0E7FDFFEF0E9431200E94D51EB9
:10327C00503041F00E9428200E943A1FD8010E9431
:10328C00392207C00E942820EE81FF81D801ED93DE
:10329C00FC93EB85EF5FEB8710C00E9423200E940C
:1032AC003218F0E0A22FB0E0EA17FB0731F0EB8503
:1032BC00E03011F4EFEF03C001C0F4CEEB850E94B7
:1032CC00302463960895FF920E9404200E945218A5
:1032DC00198108812496FF900895B981A881EC91F9
:1032EC00EA930E946A20EE2311F01196F8CFE8942D
:1032FC00EC91ED3211F4689402C0EB3209F41196A2
:10330C0066277727EC91EA930E946220EE2381F0E6
:10331C00E62FF72F660F771F660F771F6E0F7F1F35
:10332C00660F771FED91FF27E0536E0F7F1FEACFDB
:10333C00E62FF72F1EF4E095F0953196229608951E
:10334C002A970E942924E0E0E887E987EA87EB873F
:10335C00A889B989EC914E2FEA930E946A20E0303B
:10336C0031F0E889F9893196E88BF98BF1CFE0E0FF
:10337C00EF834B3209F404C04D3239F4E1E0EF83B2
:10338C00E889F9893196E88BF98BE0E05E2F4E2FB6
:10339C0008891989A889B989EC91EA930E9462205D
:1033AC00E03049F4A889B989AC91EEE20E948221FF
:1033BC004E2FE03049F0E42FF0E05E2BE889F989DC
:1033CC003196E88BF98BE6CF28893989503019F181
:1033DC00E889F9893197E88BF98BA889B989AC917F
:1033EC00AE32C9F0A889B989EC910E94D51F0E9410
:1033FC00091E0E949D1D0E943A23DF01CB010E94F1
:10340C008A1E0E94BA230E945E1FE889F9893197AF
:10341C00E88BF98BE2CF0E946A1F0E94EB1DA889F2
:10342C00B9891197A88BB98BA017B10790F0EC91C3
:10343C000E94D51F0E94041E0E942F1F0E94091E6D
:10344C000E94F51D0E94041E0E948D1F0E94EB1D00
:10345C00E6CFD9012F5F3F4F4C91453619F04534DB
:10346C0009F067C0E0E05E2FEE83D9014C914B323E
:10347C0009F404C04D3221F4E1E0EE832F5F3F4F9D
:10348C00D9012F5F3F4FEC914E2FEA930E9462209F
:10349C00E03089F0A52FEAE0EA9FF001AE2FE42F8F
:1034AC00F0E0B0E0AE0FBF1FE0E3F0E00E944F226F
:1034BC00EA1B5E2FE5CF573268F0EF81E03029F040
:1034CC00EFEFFFEF6FE77FEF3FC0EFEFFFEF6FE73F
:1034DC007FE73AC040E20E946A1F0E94EB1D403019
:1034EC00A1F00E94FC1D0E94EB1DE52FF0E0A42F23
:1034FC00B0E0EA23FB23309731F00E94041E0E94B7
:10350C008D1F0E94EB1D4695EACFEE81E03039F01D
:10351C000E94F01D0E94091E0E94BA2306C00E9440
:10352C00F01D0E94091E0E948823E887F9876A878C
:10353C007B87EF81E03031F00E94111F0E94A022A6
:10354C000E945E1F0E94111F0E94302462960895F3
:10355C00E881EFB9779BFECFEFB121960895E99101
:10356C00F99130971AF4E095F095319608952497D7
:10357C001A930A933ED50E9423242CF0EFEFFFEF11
:10358C006FE77FEF6BC070D40E944422EDB7FEB79B
:10359C003197FA93EA931F930F930E948D220F9108
:1035AC001F91FDD326D5E3EFF4E065E37FE30E94A2
:1035BC00FB2338F459D41DD50E943A23F0D3015083
:1035CC00104017D581D4FCD27F936F93FF93EF9368
:1035DC004BD4A0E0B0E080E89FE30E943A23AF9187
:1035EC00BF918F919F910E94BA23D9D33DD401D51D
:1035FC000E948823A1D2A6E2B2E485E69FE30E9452
:10360C008823DF01CB01EEE4F1E164E570E4D8D26C
:10361C00F0D40E9488237F936F93FF93EF93AA813A
:10362C00BB818C819D81EDE4F1E164ED7FE3C8D237
:10363C00AF91BF918F919F910E94BA237F936F930B
:10364C00FF93EF93F801A8E1B2E781E39FE301D484
:10365C00AF91BF918F919F910E943A23198108815C
:10366C002A960895E881E370E883EA81E03019F046
:10367C00E881E06AE883A981A13019F4E881E4606B
:10368C0007C0A981A23019F4E881E86001C0E0E02C
:10369C00E883E7D4E0E9EA93E981E9D430C0E5E8CE
:1036AC00EFD4AC81BD81EC93E3E8EAD4AA81BB8171
:1036BC00EC93E1E8E5D4A881B981EC9317C0D1D49F
:1036CC00E4E8E4D4E2E8EAD4E0E8F0D418C0E7E8AF
:1036DC00D7D4AC81BD81EC93E9E8D2D4AA81BB816B
:1036EC00EC93EDE8CDD4A881B981EC93269608959E
:1036FC00B8D4E6E8CBD4E8E8D1D4ECE8D7D4239618
:10370C000895E0EEF0E0FA93EA9380E00E942C1822
:10371C002296E8E0F1E0FA93EA93E0E1F5E066271F
:10372C0077270E944422EAE1F5E0662777270E947A
:10373C00442288E00E942C182A96E3E2F1E0FA93E6
:10374C00EA9380E00E942C182296EDE3F1E0FA93C4
:10375C00EA93ACE2B0E00E945B220E947D210E94C1
:10376C00442284E00E942C182696ECE5F1E0FA93B2
:10377C00EA93A0E0B0E00E9456220E94442284E02A
:10378C000E942C182696EFE6F1E0FA93EA93A4E057
:10379C00B0E00E94562208950E94442284E00E94C8
:1037AC002C1826960895E2E8F1E0FA93EA93A8E043
:1037BC00B0E00E945B220E947D21EECFEEE9F1E0A9
:1037CC00FA93EA93AAE0B0E00E945B220E947D216A
:1037DC00E3CFEAEAF1E0FA93EA93ACE0B0E00E94BE
:1037EC005622DACFEBECF1E0FA93EA93A0E1B0E0E9
:1037FC000E945622D1CFECEEF1E0FA93EA93A4E1C9
:10380C00B0E00E9456220E944422A8E1B0E00E943F
:10381C0056220E94442288E00E942C182A96089571
:10382C00FA93EA93ACE1B0E00E945622B5CFE3E202
:10383C00F2E0FA93EA93A0E2B0E00E945622ACCFF9
:10384C00FA93EA93A4E2B0E00E945622A5CFE4E5F5
:10385C00F2E0FA93EA93A8E2B0E00E9456229CCFE1
:10386C00E4E0F0E0FA93EA93E5E0F0E0FA93EA930F
:10387C00E6E0F0E0FA93EA9312DF762C0895E1E0AB
:10388C00F0E0DE01A05CBF4FED93FC930895FA933A
:10389C00EA93E0E0F0E0FA93EA930C940A0BFA0155
:1038AC000E947D210E94FC220E9444220895AAE0DD
:1038BC00B0E00E945B220E947D210E94FC220E94AB
:1038CC0044220895ACE0B0E00E94562208950E9474
:1038DC004422A8E1B0E00E94562208950E9444229E
:1038EC00FE01EC5BFF4FFA93EA93FE01EE5BFF4F98
:1038FC00FA93EA93FE01E05CFF4FFA93EA930E947D
:10390C007F13ECA5FDA56EA57FA50E944422ECA516
:10391C00FDA56EA57FA50E9444220C945713AC8D77
:10392C00BD8D8E8D9F8D0895EC8FFD8F6E8F7F8F4B
:10393C0008950E942F220E947D210E94FC2208954E
:10394C00A0E1B0E00E9456220895A88DB98D8A8D11
:10395C009B8D08950E943A23E88FF98F6A8F7B8F95
:10396C0008950E947D210E94FC220E944422089509
:10397C00A4E0B0E00E9456220E9444220895ACE1DB
:10398C00B0E00E9456220E9444220895A0E2B0E0CA
:10399C000E9456220E9444220895ECA9FDA96EA90A
:1039AC007FA90E9444220895E889F9896A897B8954
:1039BC000895EC83FD836E837F8308958F01F80156
:1039CC000895A0E0B0E00E9456220E94442208957F
:1039DC00A4E2B0E00E9456220E9444220895A8E27C
:1039EC00B0E00E9456220E9444220895EC89FD8981
:1039FC006E897F890895A881B9818A819B810895F8
:103A0C000E943A23E883F9836A837B830895A8E0B4
:103A1C00B0E00E945B220895FE01E05CFF4F019034
:103A2C00F081E02D08950E947D210E94FC220E94CD
:103A3C00BA230895E883F9836A837B830895E9E0C8
:103A4C00F0E0FA93EA93EAE0F0E0FA93EA93EBE021
:103A5C00F0E0FA93EA933BCEE4E0F0E0FA93EA93D9
:103A6C00E5E0F0E0FA93EA93E6E0F0E0FA93EA930B
:103A7C0016CEFA93EA93ACE2B0E00E945B220E946D
:103A8C007D210E9444220895EB2DFF27662777277E
:103A9C000E944422EA2DFF27662777270E944422A2
:103AAC00E92DFF27662777270E9444220895E42DED
:103ABC00FF27662777270E944422E52DFF276627DC
:103ACC0077270E944422E62DFF27662777270E943E
:103ADC00442208950E947D210E94442208950E9450
:103AEC004422FE01EA5BFF4F0190119061917081BD
:103AFC00F0010895ED91FD913196FE93EE930895AA
:103B0C00E5E0F0E0FA93EA93E1E0F0E0FA93EA936F
:103B1C000C940A0BFA93EA93E1E0F0E0FA93EA933F
:103B2C000C940A0BEC81FD816E817F8108950E94BB
:103B3C007D210E94FC220895EA83FB836C837D83A4
:103B4C000895FA93EA930C948920E0E1F5E0662756
:103B5C0077270E944422EAE1F5E0662777270E9446
:103B6C004422089588E00E942C182A960895FA930E
:103B7C00EA9380E00E942C18229608958CE00E9413
:103B8C002C182E960895FA93EA937ECFE5E0F1E097
:103B9C00EECF220F331F5695479556954795569560
:103BAC004795F9010E946E21E40FF51FEA87FB8708
:103BBC000895ECA1FDA1662777270E94FC220895A9
:103BCC000E9449220E9433230895EC87FD876E875B
:103BDC007F870895EC85FD856E857F8508950E940D
:103BEC003A23E887F9876A877B870895F3DFAC85EA
:103BFC00BD858E859F850E9488230895AC85BD85E3
:103C0C008E859F850895A885B9858A859B8508959D
:103C1C00E88BF98B6A8B7B8BC7CEA0E0B0E080E899
:103C2C009FE30E94BA230895E42DF0E0A0E1BEE0EA
:103C3C000E94AF21BF01E52DF0E0ACE3B0E00E94A3
:103C4C00AF21DB01AE0FBF1FE62DF0E0EA0FFB1F2B
:103C5C000E947D210895E987FA876B877C870895F8
:103C6C00A985BA858B859C8508950E9444228CE099
:103C7C000E9469192E960895FA93EA93C8DE0E9461
:103C8C007D218ACDE32FF42FDE011D96EA0FFB1F59
:103C9C000895EC93E4E7F9E0FA93EA93DE011F96BA
:103CAC00A30FB41FEC91FF276627772775CDDE0194
:103CBC001D96A30FB41FAC910895FE013D96FA9387
:103CCC00EA930E94A619DF01CB010895FE013D96EF
:103CDC00FA93EA930C94A619FA93EA93A0E0B0E055
:103CEC000E94562259CDE5E9FFEB66ED73E30E9485
:103CFC00FB230895E8E0FAE03ACFFA93EA93A8E2BE
:103D0C00B0E00E94562248CDE0E0F0E060E271E4C1
:103D1C000895E0E0F0E06AEF73E40E94FB2308955D
:103D2C00FA93EA93A0E2B0E00E94562235CDFA93C2
:103D3C00EA93A4E0B0E00E9456222ECDFA93EA93C7
:103D4C00C1DD2ACDE0E0F0E46CE177E40E94FB23D6
:103D5C000895E0E0F0E46CE975E40E94FB2308951B
:103D6C00FA93EA93EDDD18CDFA93EA93A4E1B0E06F
:103D7C000E94562211CDFA93EA93ACE2B0E00E9475
:103D8C005B220E947D2108CDFE013D96FA93EA93B9
:103D9C000C947319E0E0F0E060E070E00895EE83BD
:103DAC00FF8368877987089580E20E942C18A29679
:103DBC000895F801DE0196960E947221EA0FFB1F0E
:103DCC000895F801A2E3B5E0EE0FFF1FAE0FBF1F81
:103DDC00B0CD0E947221EA0FFB1F0895E8A5F9A54A
:103DEC006AA57BA50E944422E8A9F9A96AA97BA926
:103DFC000E944422E8ADF9AD6AAD7BAD0E9444222D
:103E0C00FE01E05CFF4F0190119061917081F00117
:103E1C000E9444220895E885F9856A857B8508957A
:103E2C00E881F9816A817B8108950E943922F8CF5B
:103E3C000E943322DF01CB01EC81FD81F4CD0E9485
:103E4C003922AE81BF810895A885B9850E9433229D
:103E5C0008956DDE0E9488230895A2E3B5E0EE0F6D
:103E6C00FF1FEA0FFB1F0895EE81FF81688579859E
:103E7C0008950E94BA23DF01CB01E0E0F0E06AE78D
:103E8C0074E40E94BA2308950E94BA23D3CDB3DD03
:103E9C000E9488230895E0912E05F0912F056091E2
:103EAC00300570913105089550DD0E9488230895E6
:103EBC00E887F9876A877B870895AC89BD898E89E5
:103ECC009F890E9488230895E0E0F0E060E87FE39A
:103EDC000895AA81BB818C819D8116CFAE81BF8153
:103EEC001196AE83BF83119708950E94BA23A0E068
:103EFC00B0E080E09FE30E943A230E9444220C949D
:103F0C004A21E12FE05DEC93E12FF0E00895FCDE17
:103F1C000E9488230895EB83FC836D837E83089530
:103F2C00AB81BC818D819E81F2CFEB81FC816D8157
:103F3C007E81AB85BC858D859E850E94FB23089573
:103F4C00AB85BC858D859E850895DEDE0E94BA23E7
:103F5C00EB87FC876D877E872F5F0895EB87FC8747
:103F6C006D877E870895AF81B8851196AF83B8872A
:103F7C0011970895EF81F8853196EF83F887319783
:103F8C000895F0E0E7FDFFEFF096DB01EC93089568
:103F9C003A93EBA1FCA1FA93EA930C94B314E0537B
:103FAC00F0E00895F0E0E336A0E0FA070895ACA144
:103FBC00BDA11497ACA3BDA314960895EA93EBA1ED
:103FCC00FCA1FA93EA930C94B314EA85FB85319621
:103FDC00EA87FB8731970895EF85F889FA93EA937E
:103FEC000895EA87FB87FA93EA930E9474200E2FB8
:103FFC000895AE81BF81888599850895F82E229702
:10400C001A930A93DE010E9453218D01E0E0EA83AA
:10401C00EB83DE0114960E9453210E942F22FA9307
:10402C00EA931A930A93FE013696FA93EA9308954B
:10403C002A930E946A20E0300895FE013C96FA9380
:10404C00EA93CACFAF85B8891497AF87B88B14960B
:10405C000D911C910895CDDF0E947D210E948F212E
:10406C000895EEE8EA93E0E0EA930C94C320EA9317
:10407C000E94C320EEE8EA93E0E8EA930C94C32094
:10408C00EA930E94AA20EA930C949520EA93EB8180
:10409C00EA930E94A120EA930C94C320EA93EA814C
:1040AC00EA930E94A120EA930C94C320EA93E9813D
:1040BC00EA930E94A120DBCFE1E0F991F03310F0FC
:1040CC00FA3308F0EE270895E1E0F991F03229F087
:1040DC00F93010F0FE3008F0EE270895A991B9914F
:1040EC00EE27FF276D91662311F03196FBCF0895D3
:1040FC00AA27BB27E991F9910590002011F01196A0
:10410C00FBCFFD010895E991F991309639F08AE9D8
:10411C0093E00197F1F7A8953197C9F70895E881D5
:10412C00E295EF70AE2FAA0FAA0FEA0FEE0FA9912E
:10413C00AF70EA0F0895A991EE27AA5012F0E05F34
:10414C00FCCFA65FEA0F0895E991E1601DD0C498F9
:10415C00BC98A8E08894B4990894E795C59A82E035
:10416C008A95F1F7C59882E08A95F1F7AA9591F7AF
:10417C00C69886E08A95F1F70895E981EE7F04D020
:10418C00E88109D02296F4CFBD9ABC9ABE9AC69A01
:10419C0086E08A95F1F7A8E0E795C49808F4C49AEC
:1041AC000000000000000000C59A82E08A95F1F73B
:1041BC00C59882E08A95F1F7AA9571F7089524972E
:1041CC005F939F81992311F4289690C212F428963C
:1041DC0093C24F9342E48E81BD81AC8188839983D5
:1041EC00AA83BB83FD01BC01AC81BD818E819F8103
:1041FC00BBD288819981AA81BB8136D2BBD17A95F9
:10420C009FD188819981AA81BB81AE27A87F21F497
:10421C00BF178607970729F04A9519F0DF01CB01E4
:10422C00DDCF4F915F91289608957B816A81F9814A
:10423C00E88177FB770F67FD7160972F9E5781F0B0
:10424C0078F0983190F4AA27BB2788270894879593
:10425C00B795A7959A95D1F7EA23FB23682305C058
:10426C00E8947727EE27FF2766276F77769508F473
:10427C00606877F9A991B99189919991EA17FB072F
:10428C006807790797FB0895D0DF09F40895F6F7CE
:10429C009FEBAA27BB2780E8E7C10024AF0DB01D18
:1042AC000895EA0FFB1F681F791F0895EA1BFB0B8B
:1042BC00680B790B0895E095F09531960895E0958B
:1042CC00F09560957095EF5FFF4F6F4F7F4F08959E
:1042DC00EE0FFF1FEE0FFF1FEE0FFF1FEE0FFF1F66
:1042EC000895FE2FFF0FFF0B6F2F7F2F08956F2F59
:1042FC00660F660B762F0895EA17E1E009F0EE27BA
:10430C000895FA9FF02DEB9FF00DEA9FE02DF10D33
:10431C0008957A9F702D6B9F700DF89F700DE99F1B
:10432C00700D6A9F602D710DFB9F600D711DE89FD4
:10433C00600D711D8827FA9FF02D610D781FEB9F82
:10434C00F00D611D781FEA9FE02DF10D681F781F9D
:10435C00089571D0D6DF0EF4AEDF0895002498E0F6
:10436C00AA0F001C0E1A10F40E0E01C0A1609A9533
:10437C00B9F7EA2FA02D089552D0F0DF0EF4E19595
:10438C0008950024112490E1AA0FBB1F001C111CDE
:10439C000E1A1F0A18F40E0E1F1E01C0A1609A956A
:1043AC0099F7FD01D001089546D0EBDF0EF483DFC1
:1043BC0008953F934F935F93002411243327442790
:1043CC0050E2AA0FBB1F881F991F001C111C331F22
:1043DC00441F0E1A1F0A360B470B28F40E0E1F1E15
:1043EC00361F471F01C0A1605A9559F7FD01BC014A
:1043FC00D001832F942F5F914F913F910895E894B2
:10440C00A7FF02C0A1956894E7FDE195A7DFEA2F0D
:10441C000EF4E1950895CDDFFD01BC010895E894FB
:10442C00E7FF02C0E1956894A7FF04C0A19500F8CE
:10443C00039400FA0895E894F7FF02C03CDF6894F7
:10444C00B7FF06C0A095B095119600F8039400FA3A
:10445C000895ED91FC9111970895ED91FD916D9159
:10446C007C9113970895ED93FD936D937C93089530
:10447C000590159065917491F00108957A936A9363
:10448C00FA93EA930895182E862F612D192E972FE3
:10449C00712D1B2EBF2FF12D1A2EAE2FE12D08954D
:1044AC00129603D07F2F6E2F1297119602D0FE2FEB
:1044BC001197E199FECFFF93FFB7F894AEBBBFBB4A
:1044CC00E09AEDB3FFBFFF9108950AD012960E2E1D
:1044DC001F2EE62FF72F04D0E02DF12D1297089503
:1044EC0007D01196EF93EF2F03D0EF91119708950A
:1044FC00E199FECF9FB7F894AEBBBFBBE09A8DB3EA
:10450C00E81719F0EDBBE29AE19A9FBF0895A991C3
:10451C00B991E991F9916991799177FB660F771FC0
:10452C0088277E57880B7D938C937EE776956795CD
:10453C000EF0089530976040704009F0705808955F
:10454C0050E8572711F45F93D1C05F3F31F0660FED
:10455C00000C57956795752F08955F9300200AF00E
:10456C00CBC0BEC050E8192E1522880F991F952775
:10457C00550F879550E8072E0522660F771F752774
:10458C00550F679508955F93F5DF703818F07F3FEE
:10459C0008F4ACC056E1571B92F45195583028F0F2
:1045AC00EFEFFFEF6FEF7FE71AC077275523B9F0D6
:1045BC00EE0FFF1F661F771F5A95D1F710C0772794
:1045CC00583028F0EF2FF62F672F5850F9CF55237E
:1045DC0031F076956795F795E7955A95D1F70020C8
:1045EC000AF46DDE5F910895689401C0E8943097E9
:1045FC0060407040B1F0002426F0772312F4009450
:10460C005EDE172E7EE1112032F07A95EE0FFF1F41
:10461C00661F111CF9CFEF2FF62F612D5F9390DFE2
:10462C005F9108955E2FEA2FA52F5F2FFB2FB52FDB
:10463C00562F682F852F572F792F952F502D012C02
:10464C00152E0895EA0FFB1F681F0895E095F0954D
:10465C006095EF5FFF4F6F4F08955F9383DF903846
:10466C0071F150E8152604C05F937CDF903839F166
:10467C00703821F1572F591B13F112F4D3DFFACFF5
:10468C00583118F0AA27BB278827583028F0AB2FB1
:10469C00B82F88275850F9CF552329F08695B79510
:1046AC00A7955A95D9F7502D512562F0CBDF38F4E8
:1046BC006795F795E795739513F41EC0B3DF40DF4C
:1046CC005F910895EA1BFB0B680B81F010F40094CA
:1046DC00BDDF6623A2F3EE0FFF1F661F7A95CBF7A3
:1046EC00EFEFFFEF6FE77FEF5F910895EE27FF2766
:1046FC00662777275F910895EFEFFFEF6FE77FE76E
:10470C005F9108955F932EDF703881F3903871F3C9
:10471C0001240894791F23F44CF300200AF3ECCF06
:10472C003F934F93112433274427552798E1330F98
:10473C00441F551FEE1FFF1F661F30F43A0F4B1F0F
:10474C00581FE11DF11D611D9A9589F74F913F91FD
:10475C0066232AF0550FEE1FFF1F661F02C07395CC
:10476C00E3F2EEDE5F9108955F93FCDE703819F48E
:10477C00112012F6B5CF903809F4B8CF0124089463
:10478C00970B1BF4D4F30020F4CF792F6695F79593
:10479C00E7958695B795A7954F93112444275527F0
:1047AC0098E1AE17BF07860728F0AE1BBF0B860B30
:1047BC00089401C08894111C441F551FAA1FBB1FCD
:1047CC00881F9A9571F7E12DF42F652FA695E91F97
:1047DC00F91F691F4F9166232AF0EE0FFF1F661F0A
:1047EC007A955BF2ADDE5F91089599239AF0772369
:1047FC0042F0971748F029F4AE17BF07860720F050
:10480C0031F0989488940895989408940895189485
:10481C00889408957723C2F7971798F3A9F7EA17A6
:10482C00FB07680788F399F3ECCF30976040704032
:10483C000895109780409040089500240A160B06A6
:10484C000806090608955A934A933A932A931A93A1
:10485C000A9308955D814C813B812A8119810881DD
:10486C000895AC0FBD1F05900D928A95E1F7089540
:00000001FF
